:020000040800F2
:10000000E80101204D5B0008FDB90108395B0008DB
:10001000395B0008395B0008395B0008000000000C
:10002000000000000000000000000000815B0008EC
:10003000395B000800000000715D00084193000872
:10004000015E0008015E0008015E0008015E000814
:10005000015E0008015E0008015E0008015E000804
:10006000015E0008015E0008015E0008015E0008F4
:10007000015E0008015E0008015E0008015E0008E4
:10008000015E0008015E0008015E0008015E0008D4
:10009000015E0008015E0008015E0008015E0008C4
:1000A000015E0008015E0008015E0008015E0008B4
:1000B000015E0008015E0008015E0008015E0008A4
:1000C000015E0008015E0008015E0008015E000894
:1000D000015E0008015E0008015E0008015E000884
:1000E000015E0008015E0008015E0008015E000874
:1000F000015E0008015E0008015E0008015E000864
:10010000015E0008015E0008015E0008015E000853
:10011000015E0008015E0008015E0008015E000843
:10012000015E0008015E0008015E0008015E000833
:10013000015E0008015E0008015E0008015E000823
:10014000015E0008015E0008015E0008015E000813
:10015000015E0008015E0008015E0008015E000803
:08016000015E0008015E0008C9
:1001700001F0FF01102A2BDB10F0070F08D010F858
:10018000013B013A8B422DD010F0070F42B3F6D15C
:10019000F0B441EA012141EA014122F007047FF075
:1001A00000070023F0E80256083C85EA010586EACC
:1001B000010685FA47F5A3FA87F586FA47F6A5FA08
:1001C00087F68EB9EED1F0BC01F0FF0102F0070214
:1001D00032B110F8013B013A83EA010313B1F8D1BF
:1001E0000020704701387047002D06BF35460338A0
:1001F000073815F0010F07D1013015F4807F02BFD9
:10020000013015F4C03F0130F0BC0138704700BF29
:1002100081F0004102E000BF83F0004330B54FEAB7
:1002200041044FEA430594EA050F08BF90EA020F24
:100230001FBF54EA000C55EA020C7FEA645C7FEAB7
:10024000655C00F0E2804FEA5454D4EB5555B8BFDA
:100250006D420CDD2C4480EA020281EA030382EA4B
:10026000000083EA010180EA020281EA0303362DDD
:1002700088BF30BD11F0004F4FEA01314FF4801CB0
:100280004CEA113102D0404261EB410113F0004FC2
:100290004FEA03334CEA133302D0524263EB430379
:1002A00094EA050F00F0A780A4F10104D5F1200E17
:1002B0000DDB02FA0EFC22FA05F2801841F1000172
:1002C00003FA0EF2801843FA05F359410EE0A5F146
:1002D00020050EF1200E012A03FA0EFC28BF4CF077
:1002E000020C43FA05F3C01851EBE37101F000452D
:1002F00007D54FF0000EDCF1000C7EEB00006EEB3A
:100300000101B1F5801F1BD3B1F5001F0CD34908C3
:100310005FEA30004FEA3C0C04F101044FEA44521A
:1003200012F5800F80F09A80BCF1004F08BF5FEAA1
:10033000500C50F1000041EB045141EA050130BD81
:100340005FEA4C0C404141EB0101013C28BFB1F593
:10035000801FE9D291F0000F04BF01460020B1FADE
:1003600081F308BF2033A3F10B03B3F120020CDAB1
:100370000C3208DD02F1140CC2F10C0201FA0CF08F
:1003800021FA02F10CE002F11402D8BFC2F1200CF4
:1003900001FA02F120FA0CFCDCBF41EA0C019040AA
:1003A000E41AA2BF01EB0451294330BD6FEA0404F3
:1003B0001F3C1CDA0C340EDC04F11404C4F12002DE
:1003C00020FA04F001FA02F340EA030021FA04F3F0
:1003D00045EA030130BDC4F10C04C4F1200220FA47
:1003E00002F001FA04F340EA0300294630BD21FA85
:1003F00004F0294630BD94F0000F83F4801306BF4B
:1004000081F480110134013D4EE77FEA645C18BF3E
:100410007FEA655C29D094EA050F08BF90EA020FD5
:1004200005D054EA000C04BF1946104630BD91EACD
:10043000030F1EBF0021002030BD5FEA545C05D1D0
:100440004000494128BF41F0004130BD14F580040F
:100450003CBF01F5801130BD01F0004545F0FE4183
:1004600041F470014FF0000030BD7FEA645C1ABFB8
:10047000194610467FEA655C1CBF0B46024650EAEF
:10048000013406BF52EA033591EA030F41F400211B
:1004900030BD00BF90F0000F04BF0021704730B5A1
:1004A0004FF4806404F132044FF000054FF0000176
:1004B00050E700BF90F0000F04BF0021704730B537
:1004C0004FF4806404F1320410F0004548BF40420C
:1004D0004FF000013EE700BF42004FEAE2014FEA61
:1004E00031014FEA02701FBF12F07F4393F07F4F3C
:1004F00081F06051704732F07F4208BF704793F03F
:100500007F4F04BF41F40021704730B54FF4607451
:1005100001F0004521F000411CE700BF50EA010254
:1005200008BF704730B54FF000050AE050EA0102FD
:1005300008BF704730B511F0004502D5404261EB6D
:1005400041014FF4806404F132045FEA915C3FF4AE
:10055000D8AE4FF003025FEADC0C18BF03325FEA4B
:10056000DC0C18BF033202EBDC02C2F1200300FAFC
:1005700003FC20FA02F001FA03FE40EA0E0021FA21
:1005800002F11444BDE600BF70B54FF0FF0C4CF40F
:10059000E06C1CEA11541DBF1CEA135594EA0C0FC1
:1005A00095EA0C0F00F0DEF82C4481EA030621EAFC
:1005B0004C5123EA4C5350EA013518BF52EA033537
:1005C00041F4801143F4801338D0A0FB02CE4FF0E9
:1005D0000005E1FB02E506F00042E0FB03E54FF019
:1005E0000006E1FB03569CF0000F18BF4EF0010E11
:1005F000A4F1FF04B6F5007F64F5407404D25FEA0D
:100600004E0E6D4146EB060642EAC62141EA5551BF
:100610004FEAC52040EA5E504FEACE2EB4F1FD0C01
:1006200088BFBCF5E06F1ED8BEF1004F08BF5FEA7F
:10063000500E50F1000041EB045170BD06F0004631
:1006400046EA010140EA020081EA0301B4EB5C04DE
:10065000C2BFD4EB0C0541EA045170BD41F48011D6
:100660004FF0000E013C00F3AB8014F1360FDEBFFB
:10067000002001F0004170BDC4F10004203C35DAD7
:100680000C341BDC04F11404C4F1200500FA05F35A
:1006900020FA04F001FA05F240EA020001F00042FB
:1006A00021F0004110EBD37021FA04F642EB060171
:1006B0005EEA430E08BF20EAD37070BDC4F10C049B
:1006C000C4F1200500FA04F320FA05F001FA04F25F
:1006D00040EA020001F0004110EBD37041F100014B
:1006E0005EEA430E08BF20EAD37070BDC4F1200556
:1006F00000FA05F24EEA020E20FA04F301FA05F2BE
:1007000043EA020321FA04F001F0004121FA04F265
:1007100020EA020000EBD3705EEA430E08BF20EA35
:10072000D37070BD94F0000F0FD101F0004640006F
:1007300041EB010111F4801F08BF013CF7D041EAF1
:10074000060195F0000F18BF704703F000465200F5
:1007500043EB030313F4801F08BF013DF7D043EAC6
:100760000603704794EA0C0F0CEA135518BF95EA7C
:100770000C0F0CD050EA410618BF52EA4306D1D103
:1007800081EA030101F000414FF0000070BD50EA22
:10079000410606BF1046194652EA430619D094EAAC
:1007A0000C0F02D150EA013613D195EA0C0F05D196
:1007B00052EA03361CBF104619460AD181EA0301EA
:1007C00001F0004141F0FE4141F470014FF00000A2
:1007D00070BD41F0FE4141F4780170BD70B54FF03D
:1007E000FF0C4CF4E06C1CEA11541DBF1CEA1355BD
:1007F00094EA0C0F95EA0C0F00F0A7F8A4EB05049F
:1008000081EA030E52EA03354FEA013100F0888095
:100810004FEA03334FF0805545EA131343EA12635E
:100820004FEA022245EA111545EA10654FEA002613
:100830000EF000419D4208BF964244F1FD0404F5CC
:10084000407402D25B084FEA3202B61A65EB030528
:100850005B084FEA32024FF480104FF4002CB6EBE5
:10086000020E75EB030E22BFB61A754640EA0C0065
:100870005B084FEA3202B6EB020E75EB030E22BFA5
:10088000B61A754640EA5C005B084FEA3202B6EBE6
:10089000020E75EB030E22BFB61A754640EA9C00A5
:1008A0005B084FEA3202B6EB020E75EB030E22BF75
:1008B000B61A754640EADC0055EA060E18D04FEA33
:1008C000051545EA16754FEA06164FEAC30343EAD3
:1008D00052734FEAC2025FEA1C1CC0D111F4801FA0
:1008E0000BD141EA00014FF000004FF0004CB6E799
:1008F00011F4801F04BF01430020B4F1FD0C88BF38
:10090000BCF5E06F3FF6AFAEB5EB030C04BFB6EB42
:10091000020C5FEA500C50F1000041EB045170BD35
:100920000EF0004E4EEA113114EB5C04C2BFD4EB62
:100930000C0541EA045170BD41F480114FF0000EE6
:10094000013C90E645EA060E8DE60CEA135594EA62
:100950000C0F08BF95EA0C0F3FF43BAF94EA0C0F65
:100960000AD150EA01347FF434AF95EA0C0F7FF4DA
:1009700025AF104619462CE795EA0C0F06D152EA2E
:1009800003353FF4FDAE1046194622E750EA410612
:1009900018BF52EA43067FF4C5AE50EA41047FF423
:1009A0000DAF52EA43057FF4EBAE12E74FEA410286
:1009B00012F5001215D211D56FF47873B3EB6252B1
:1009C00012D94FEAC12343F0004343EA505311F0D8
:1009D000004F23FA02F018BF404270474FF000006A
:1009E000704750EA013005D111F0004008BF6FF0A8
:1009F000004070474FF00000704700BF80F000409B
:100A000002E000BF81F0004142001FBF5FEA4103E6
:100A100092EA030F7FEA226C7FEA236C6AD04FEAE6
:100A20001262D2EB1363C1BFD2184140484041402B
:100A3000B8BF5B42192B88BF704710F0004F40F4DD
:100A4000000020F07F4018BF404211F0004F41F4F9
:100A5000000121F07F4118BF494292EA030F3FD0C5
:100A6000A2F1010241FA03FC10EB0C00C3F12003D8
:100A700001FA03F100F0004302D5494260EB400067
:100A8000B0F5000F13D3B0F1807F06D340084FEAD2
:100A9000310102F10102FE2A51D2B1F1004F40EBC7
:100AA000C25008BF20F0010040EA0300704749002F
:100AB00040EB0000013A28BFB0F5000FEDD2B0FACC
:100AC00080FCACF1080CB2EB0C0200FA0CF0AABFEF
:100AD00000EBC25052421843BCBFD040184370478D
:100AE00092F0000F81F4000106BF80F40000013293
:100AF000013BB5E74FEA41037FEA226C18BF7FEA6A
:100B0000236C21D092EA030F04D092F0000F08BFAB
:100B10000846704790EA010F1CBF0020704712F092
:100B20007F4F04D1400028BF40F00040704712F1D1
:100B300000723CBF00F50000704700F0004343F036
:100B4000FE4040F4000070477FEA226216BF08466C
:100B50007FEA23630146420206BF5FEA412390EA2F
:100B6000010F40F4800070474FF0000304E000BF25
:100B700010F0004348BF40425FEA000C08BF7047D6
:100B800043F0964301464FF000001CE050EA01029A
:100B900008BF70474FF000030AE000BF50EA0102AF
:100BA00008BF704711F0004302D5404261EB41019C
:100BB0005FEA010C02BF84460146002043F0B643C1
:100BC00008BFA3F18053A3F50003BCFA8CF2083AE6
:100BD000A3EBC25310DB01FA02FC634400FA02FCEF
:100BE000C2F12002BCF1004F20FA02F243EB0200F6
:100BF00008BF20F00100704702F1200201FA02FC58
:100C0000C2F1200250EA4C0021FA02F243EB02004A
:100C100008BF20EADC7070474FF0FF0C1CEAD0528E
:100C20001EBF1CEAD15392EA0C0F93EA0C0F6FD04F
:100C30001A4480EA010C400218BF5FEA41211ED02D
:100C40004FF0006343EA501043EA5111A0FB013119
:100C50000CF00040B1F5000F3EBF490041EAD371EE
:100C60005B0040EA010062F17F02FD2A1DD8B3F16A
:100C7000004F40EBC25008BF20F00100704790F0D9
:100C8000000F0CF0004C08BF49024CEA502040EA2B
:100C900051207F3AC2BFD2F1FF0340EAC2507047F1
:100CA00040F400004FF00003013A5DDC12F1190F2F
:100CB000DCBF00F000407047C2F10002410021FAA1
:100CC00002F1C2F1200200FA02FC5FEA310040F1B9
:100CD000000053EA4C0308BF20EADC70704792F032
:100CE000000F00F0004C02BF400010F4000F013A6A
:100CF000F9D040EA0C0093F0000F01F0004C02BF65
:100D0000490011F4000F013BF9D041EA0C018FE7D3
:100D10000CEAD15392EA0C0F18BF93EA0C0F0AD0D9
:100D200030F0004C18BF31F0004CD8D180EA0100FF
:100D300000F00040704790F0000F17BF90F0004F98
:100D4000084691F0000F91F0004F14D092EA0C0F7A
:100D500001D142020FD193EA0C0F03D14B0218BF0D
:100D6000084608D180EA010000F0004040F0FE4053
:100D700040F40000704740F0FE4040F440007047EF
:100D80004FF0FF0C1CEAD0521EBF1CEAD15392EA6E
:100D90000C0F93EA0C0F69D0A2EB030280EA010C5E
:100DA00049024FEA402037D04FF0805343EA1111F7
:100DB00043EA10130CF000408B4238BF5B0042F155
:100DC0007D024FF4000C8B4224BF5B1A40EA0C00FA
:100DD000B3EB510F24BFA3EB510340EA5C00B3EB2C
:100DE000910F24BFA3EB910340EA9C00B3EBD10F1A
:100DF00024BFA3EBD10340EADC001B0118BF5FEA6C
:100E00001C1CE0D1FD2A3FF650AF8B4240EBC25094
:100E100008BF20F0010070470CF0004C4CEA502055
:100E20007F32C2BFD2F1FF0340EAC250704740F4A4
:100E300000004FF00003013A37E792F0000F00F096
:100E4000004C02BF400010F4000F013AF9D040EA14
:100E50000C0093F0000F01F0004C02BF490011F4A8
:100E6000000F013BF9D041EA0C0195E70CEAD153A0
:100E700092EA0C0F08D142027FF47DAF93EA0C0F87
:100E80007FF470AF084676E793EA0C0F04D14B026B
:100E90003FF44CAF08466EE730F0004C18BF31F01D
:100EA000004CCAD130F000427FF45CAF31F0004317
:100EB0007FF43CAF5FE700BF4FEA4002B2F1FE4F64
:100EC0000FD34FF09E03B3EB12620DD94FEA00230C
:100ED00043F0004310F0004F23FA02F018BF4042E5
:100EE00070474FF00000704712F1610F01D14202CC
:100EF00005D110F0004008BF6FF0004070474FF080
:100F0000000070477BB972B90029BEBF00204FF0C6
:100F1000004106E008BF00281CBF6FF000414FF001
:100F2000FF3000F057B8ADF1080C6DE904CE002990
:100F300009DB002B1ADB00F07CF8DDF804E0DDE9CA
:100F4000022304B07047404261EB4101002B1BDBE0
:100F500000F06FF8DDF804E0DDE9022304B0404260
:100F600061EB4101524263EB43037047524263EB32
:100F7000430300F05EF8DDF804E0DDE9022304B08D
:100F8000404261EB41017047524263EB430300F082
:100F900050F8DDF804E0DDE9022304B0524263EBCF
:100FA0004303704753B94AB9002908BF00281CBF42
:100FB0004FF0FF314FF0FF3000F00CB8ADF1080CEE
:100FC0006DE904CE00F035F8DDF804E0DDE9022338
:100FD00004B07047704700BF10F8012B11F8013BB7
:100FE000012A28BF9A42F7D0D01A7047034611F859
:100FF000012B03F8012B002AF9D17047034613F89F
:10100000012B002AFBD1181A01387047430803F05E
:101010005533C01A00F03333800800F033301844E1
:1010200000EB10104FF0013300F00F305843000E6A
:1010300070472DE9F0478C468E46089E15460446BB
:101040001946002B40F0D080724547D9B2FA82F79A
:101050004FB1C7F120030EFA07FC20FA03F3BD409D
:1010600043EA0C0CBC404FEA154EA8B2BCFBFEF89C
:10107000230C0EFB18CC08FB00F943EA0C439945FE
:1010800028D9EB1808F1FF3204D2994502D9A8F10A
:1010900002022B44A3EB0903A4B2B3FBFEFC0EFB3C
:1010A0001C330CFB00F044EA0344A04214D92C1971
:1010B0000CF1FF3304D2A04202D9ACF102032C445C
:1010C000241A43EA02401EB1FC40002334607360DE
:1010D000BDE8F0874246DDE76346F1E7002A79D0B4
:1010E000B2FA82F3002B3FD01946C1F1200302FA75
:1010F00001F52EFA03F20EFA01FE20FA03F343EA99
:101100000E034FEA154E00FA01F4B2FBFEFCAFB23B
:101110000EFB1C201A0C0CFB07F842EA004290451B
:101120005AD9AA180CF1FF3004D2904502D9ACF17B
:1011300002002A44A2EB08029BB2B2FBFEFC0EFBAB
:101140001C220CFB07F743EA02439F4246D9EB18E7
:101150000CF1FF3204D29F4202D9ACF102022B44BF
:10116000DB1B42EA004202E0AEEB020301224FEA3F
:10117000154EAFB2B3FBFEFC200C0EFB1C330CFB78
:1011800007F840EA034398452AD9EB180CF1FF30E1
:1011900004D2984502D9ACF102002B44A3EB08031A
:1011A000A4B2B3FBFEFC0EFB1C330CFB07F744EAB6
:1011B0000344A74216D92C190CF1FF3304D2A742DD
:1011C00002D9ACF102032C44E41B43EA00400F4671
:1011D000114678E71F2188E76046ABE76246BFE724
:1011E0006046DBE76346EFE7734506D916B9002191
:1011F00008466DE7C6E9000EF9E7B3FA83F787B949
:10120000734501D3824207D8841A6EEB0303012091
:101210009C461EB900215BE73846FAE7C6E9004C58
:10122000F8E7C7F1200CBB4022FA0CF51D4320FA69
:101230000CF12EFA0CF30EFA07FE41EA0E014FEA0A
:10124000154900FA07F4B3FBF9F81FFA85FE09FB0C
:1012500018300B0C08FB0EFA43EA00439A4502FAD9
:1012600007F240D9EB1808F1FF3004D29A4502D9B1
:10127000A8F102002B44A3EB0A0389B2B3FBF9F8EF
:1012800009FB183308FB0EFE41EA03418E452CD9B9
:10129000691808F1FF3304D28E4502D9A8F1020380
:1012A000294443EA0040A0FB0298A1EB0E0141450E
:1012B000CE46434602D306D14C4504D2B9EB020ECA
:1012C00068EB05030138002EA4D0B4EB0E0261EBED
:1012D000030101FA0CFC22FA07F34CEA0303F9407C
:1012E000C6E9003196E74046C5E74346D9E7000026
:1012F0002DE9F04F5E48DFF87CB15F4EDFF87C816E
:10130000DFF87CA185B019F0A6FC5E4819F024FA3C
:1013100059465C4819F01BFA5B4819F01DFA314632
:10132000594819F014FA594819F016FA4146574825
:1013300019F00DFA7068FFF7BDF847A3D3E9002351
:10134000FFF74CFA044630680D46FFF7B3F8024643
:101350000B4620462946FEF761FF0646D8F80400F2
:101360000F46FFF7A7F83CA3D3E90023FFF736FAAF
:101370000446D8F800000D46FFF79CF802460B46DD
:1013800020462946FEF74AFFCDE90201DBF80400BA
:10139000DAF82040FFF78EF82FA3D3E90023FFF7F8
:1013A0001DFA8046DBF800008946FFF783F8024605
:1013B0000B4640464946FEF731FF29A3D3E90023F7
:1013C000FFF7E2F8324B0022FFF708FA24A3D3E933
:1013D0000023C4E9000130463946FFF7D5F82C4B0D
:1013E000DAF820800022FFF7F9F91DA3D3E90023E2
:1013F000C8E90201DDE90201FFF7C6F8244BDAF87B
:1014000020600022FFF7EAF9C6E90401DAF82010AB
:1014100000220023C1E90623DAF82010C1E90823DD
:101420000BF0F2FF10A3D3E90023FFF7BBFD5146F9
:10143000CAE90002174800220AF0F2FC38B1164A45
:1014400000904FF4A0731548022119F06AF905B015
:10145000BDE8F08FAFF300800000000080842E41D3
:10146000182D4454FB21094000CA9A3B000000009B
:10147000FEFF0108587300205073002048730020BD
:101480000073002080E101089CE10108B8E1010837
:1014900000806640447300200B00020854E70108F6
:1014A00070B505460E460BF0AFFF0DA3D3E9002340
:1014B000FFF778FD084C2946C4E9000204F1180042
:1014C00026720CF0D1FB21460448BDE87040002292
:1014D0000AF0A6BCAFF3008060730020A073002068
:1014E00000CA9A3B000000002DE9F04F0446C5B049
:1014F000184819F0B0FB3CB3236A2BB3626ADFF8DB
:1015000058A0052A2ED0154904A8FFF76FFD134AED
:101510001348012119F00DF904A82821FFF7C0FF95
:10152000DAF8000080B119F002F968B104AC14F8DF
:10153000011BDAF8000051B90D2119F0EFF8DAF8C3
:1015400000000A2119F0EAF845B0BDE8F08F19F063
:10155000E5F8ECE761000208EC7300207400020873
:1015600054E70108D3E90089D3E90267D3E90434D9
:10157000CDE902341CF097FA00230A22FFF712FD8E
:10158000B74CB84BC3E90001217849BBB64B18688A
:1015900019F0E6F80123B549237004A8FFF726FDEA
:1015A000B24AB348032119F0C4F804A81421FFF784
:1015B00077FFDAF8000098B119F0B9F880B10DF1B1
:1015C000100B1BF8011BDAF80000002940F03581F0
:1015D0000D2119F0A3F8DAF800000A2119F09EF89D
:1015E000A44904A8FFF702FDA24AA148032119F06B
:1015F000A0F804A81421FFF753FFDAF8000098B10F
:1016000019F095F880B10DF1100B1BF8011BDAF8F9
:101610000000002940F014810D2119F07FF8DAF85C
:1016200000000A2119F07AF88BA3D3E90023404681
:101630004946FEF7A9FFDFF840B2FFF7B7F9DBF83C
:1016400000308E4AA0EB030980460346CDF8009097
:101650004FF4807104A818F055FD884A8448CDF8ED
:1016600000904346032119F05CF804A81421FFF709
:1016700017FFDAF8000090B119F059F878B104AC0E
:1016800014F8011BDAF80000002940F0DC800D217D
:1016900019F044F8DAF800000A2119F03FF8784B05
:1016A0004946186819F037F88146002800F0FA809A
:1016B0000346744A4FF4807104A818F023FD714A60
:1016C0006B484B46012119F027FF04A82821FFF79A
:1016D000E7FEDAF8000098B119F029F880B10DF1B1
:1016E000100818F8011BDAF80000002940F0AE805D
:1016F0000D2119F013F8DAF800000A2119F00EF89C
:10170000614904A8FFF772FC5F4A5948032119F0A8
:1017100010F804A81421FFF7C3FEDAF8000098B10E
:1017200019F005F880B10DF1100818F8011BDAF86E
:101730000000002940F08D800D2118F0EFFFDAF84D
:1017400000000A2118F0EAFF43A3D3E90023304642
:101750003946FEF719FFDFF83481FFF727F9D8F88B
:1017600000104B4B411A0746186818F0D4FF064684
:10177000002800F0BF800346464A4FF4807104A859
:1017800018F0C0FC434A3A483346012119F0C4FE20
:1017900004A82821FFF784FEDAF8000090B118F0C1
:1017A000C6FF78B104AE16F8011BDAF80000002974
:1017B00040F09D800D2118F0B1FFDAF800000A21F9
:1017C00018F0ACFF24A3D3E90023DDE90201FEF702
:1017D000DBFE314EFFF7EAF83168304B411A05461F
:1017E000186818F098FF0446002800F08680034629
:1017F0002B4A4FF4807104A818F084FC284A1C4836
:101800002346012119F088FE04A82821FFF748FE8D
:10181000DAF8000000283FF497AE18F088FF00289F
:101820003FF492AE04AC14F8011BDAF80000002972
:101830003FF482AE18F072FFF5E718F06FFFC0E6D4
:1018400018F06CFFE1E618F069FF19E718F066FF81
:1018500047E718F063FF68E7CDCCCCCCCCD47F4011
:101860007A820020801F002044740020A500020816
:1018700054E70108B900020840740020C8000208BB
:1018800050740020DC000208F50002083C740020BF
:101890004C740020110102083874002048740020A4
:1018A0002A0102081649CBF8008004A8FFF79EFB26
:1018B000134A1448032118F03CFF04A81421FFF731
:1018C000EFFDDAF8000000283FF43EAF18F02FFFDC
:1018D00000283FF439AF0DF1100818F8011BDAF8B1
:1018E000000000293FF428AF18F018FFF5E718F0C2
:1018F00015FF58E7C8F8007064E7356024E600BFBC
:101900000501020854E70108F0B5A04CA048FDB05D
:10191000206018F00CFF20B19E4D15F8011B002926
:1019200035D19D493CA8FFF761FB9B4A9B480321A9
:1019300018F0FFFE3CA81421FFF7B2FD206850BB51
:10194000974D9848286018F0F2FE00283AD1964941
:101950003CA8FFF74BFB944A9048012118F0E9FEA0
:101960003CA82821FFF79CFD206870B118F0DFFE2D
:1019700058B13CAD15F8011B206801BB0D2118F0D2
:10198000CDFE20680A2118F0C9FE0020DDE12068A4
:1019900018F0C4FEC1E718F0CAFE0028D0D03CAD54
:1019A00015F8011B206839B90D2118F0B7FE206821
:1019B0000A2118F0B3FEC3E718F0B0FEF0E718F004
:1019C000ADFED7E72868026981681368774F23F472
:1019D000005313600B684FF4C0220D21984728680C
:1019E000012118F0BDFE7248386018F0A0FEE0B981
:1019F00070493CA8FFF7FAFA6E4A6848012118F0CE
:101A000098FE3CA82821FFF74BFD20680028BCD099
:101A100018F08DFE0028B8D03CAD15F8011B2068E9
:101A20000029ABD018F07AFEF7E7634E63483060C8
:101A300018F07DFEE0B962493CA8FFF7D7FA604A8A
:101A40005648012118F075FE3CA82821FFF728FD13
:101A50002068002899D018F06AFE002895D03CAD87
:101A600015F8011B2068002988D018F057FEF7E709
:101A7000544D5548286018F05AFEF8B953493CA80F
:101A8000FFF7B4FA514A4548012118F052FE3CA82C
:101A90002821FFF705FD206800283FF476AF18F0F5
:101AA00046FE00283FF471AF3CAD15F8011B2068DD
:101AB00000293FF463AF18F031FEF6E74449386877
:101AC00018F03FFE386818F036FE386800F0A8FEBF
:101AD0004049306818F035FE306818F02CFE306848
:101AE00000F09EFE3C49286818F02BFE286818F08C
:101AF00022FE286800F094FE384818F018FEF8B965
:101B000037493CA8FFF772FA354A2448012118F0FA
:101B100010FE3CA82821FFF7C3FC206800283FF4F2
:101B200034AF18F004FE00283FF42FAF3CAD15F899
:101B3000011B206800293FF421AF18F0EFFDF6E704
:101B4000284818F0F4FD002850D127493CA8FFF799
:101B50004DFA254A1148012118F0EBFD3CA8282137
:101B6000FFF79EFC206800283FF40FAF18F0DFFD60
:101B700000283FF40AAF3CAD15F8011B206800298E
:101B80003FF4FCAE18F0CAFDF6E700BFEC7300208E
:101B9000BCE00108430102084B01020854E70108B8
:101BA0004474002030E001088301020850740020D2
:101BB00060E20108990102084C7400207CE20108EF
:101BC000B30102084874002098E20108CD01020820
:101BD00035280008452800081128000880E1010880
:101BE000E70102089CE1010801020208A74818F079
:101BF0009EFDF8B9A6493CA8FFF7F8F9A44AA54804
:101C0000012118F096FD3CA82821FFF749FC206827
:101C100000283FF4BAAE18F08AFD00283FF4B5AEB4
:101C20003CAD15F8011B206800293FF4A7AE18F061
:101C300075FDF6E798493CA8FFF7D8F9964A95480C
:101C4000032118F076FD3CA81421FFF729FC206839
:101C500078B118F06CFD60B13CAD15F8011B20683F
:101C6000002974D10D2118F059FD20680A2118F0BF
:101C700055FD8A4818F05BFD00286ED188493CA8C4
:101C8000FFF7B4F9864A8348012118F052FD3CA8B9
:101C90002821FFF705FC206878B118F048FD60B1F5
:101CA0003CAD15F8011B2068002953D10D2118F017
:101CB00035FD20680A2118F031FD7A4B01937A4BEB
:101CC0007A4A7B49009301207A4B0BF0E5F906A88C
:101CD0000BF03AF90025002206AB11460BA80BF0D9
:101CE0000BF80646002858D173493CA8FFF77EF947
:101CF000714A6848032118F01CFD3CA81421FFF725
:101D0000CFFB206878B118F012FD60B13CAD15F83A
:101D1000011B206800293DD10D2118F0FFFC20682F
:101D20000A2118F0FBFC654A65490BAB04A80BF0CF
:101D30002DF800286CD040F2BB1300905548614A42
:101D4000012118F0EEFC4FF0FF307DB0F0BD18F02F
:101D5000E5FC82E718F0E2FCA3E75B493CA8FFF74B
:101D600045F9594A4B48032118F0E3FC3CA81421DB
:101D7000FFF796FB206800289FD018F0D8FC0028B9
:101D80009BD03CAD15F8011B206800298ED018F0BF
:101D9000C5FCF7E718F0C2FCB9E7013503464B4A2A
:101DA00000954FF480713CA818F0ACF9474A3948C7
:101DB00000953346022118F0B4FC1E213CA8FFF721
:101DC0006FFB42F2107000211BF0BDFD0A2D82D185
:101DD0003F493CA8FFF70AF93D4A2E48012118F077
:101DE000A8FC3CA82821FFF75BFB206800283FF4F3
:101DF000CCAD18F09CFC00283FF4C7AD3CAD15F805
:101E0000011B206800293FF4B9AD18F087FCF6E704
:101E1000304D04A800F01EFD28460CF03DF80521C9
:101E200005F114000BF04EFF052105F120000BF029
:101E300063FE052105F138000BF05EFE2649686956
:101E40000BF012FF686925490C300BF00DFF686933
:101E5000234918300BF008FF6869224924300BF041
:101E600003FF6869204930300BF0FEFE0523AB61AB
:101E70006B620CF095F81D4B024604A91C480AF051
:101E8000C1FFB8B34FF4F073009057E7B8E1010811
:101E90001B02020854E701083502020864E1010848
:101EA0004F020208E9A30008B5A3000891A20008A8
:101EB000F8720020F1D40108810202084A010208E8
:101EC000AD0202080B0002086A020208C8020208FA
:101ED000F6020208007300203E03020846030208CF
:101EE0004E030208560302085E030208800402083B
:101EF000447300207C493CA8FFF778F87A4A7B4875
:101F0000032118F016FC3CA81421FFF7C9FA206839
:101F100070B118F00CFC58B13CAD15F8011B2068ED
:101F2000B9B90D2118F0FAFB20680A2118F0F6FB68
:101F30006F4B009301276AA3D3E9002301970BA9F4
:101F400003A80AF0C7FF064630B140F2E71300903D
:101F5000F4E618F0E3FBE0E766480BF09DFF05218F
:101F600065480BF0C9FD0521054664480BF0AAFE43
:101F70000521054062480BF0BFFDEDB2054005218B
:101F800060480BF0B9FD05405F480BF0E5FD05B179
:101F9000F8B95E493CA8FFF729F85C4A534801218B
:101FA00018F0C7FB3CA82821FFF77AFA2068002820
:101FB0003FF4EBAC18F0BBFB00283FF4E6AC3CADC3
:101FC00015F8011B206800293FF4D8AC18F0A6FBD7
:101FD000F6E73546474E706928440BF0BDFD706941
:101FE0004B49202228440BF015FEF8B949493CA87A
:101FF000FEF7FCFF474A3D48012118F09AFB3CA838
:102000002821FFF74DFA206800283FF4BEAC18F0F5
:102010008EFB00283FF4B9AC3CAD15F8011B2068DD
:1020200000293FF4ABAC18F079FBF6E70C353C2DFA
:10203000D1D13749344840220BF0ECFDF8B936498C
:102040003CA8FEF7D3FF344A2848012118F071FB61
:102050003CA82821FFF724FA206800283FF495AC1B
:1020600018F065FB00283FF490AC3CAD15F8011B5F
:10207000206800293FF482AC18F050FBF6E70BF023
:102080008FFF264B024604A925480AF0EFFE18B13F
:1020900040F20E23009051E618A80AF0DDFB06ABD3
:1020A00003220BA918A800F0DFF818B140F21A2398
:1020B000009043E600901B4B0E4A194918A80AF0FD
:1020C000D5FB18B14FF40773009037E603A918A8A1
:1020D0000AF020FC40B34FF4097300902EE600BFD5
:1020E00000CA9A3B000000006603020854E701089A
:1020F000F1120008A4730020D0730020B8730020F0
:10210000C4730020DC730020AC7300208A03020833
:102110004A010208B3030208E3030208110402089B
:10212000E8730020E914000846493CA8FEF75EFF6A
:10213000444A4548454D032118F0FBFA3CA81421B8
:10214000FFF7AEF9206878B118F0F1FA60B13CAE53
:1021500016F8011B286800296AD10D2118F0DEFA53
:1021600028680A2118F0DAFA39493CA8FEF73EFF40
:10217000374A3548032118F0DCFA3CA81421FFF750
:102180008FF9206878B118F0D2FA60B13CAC14F83D
:10219000011B286800294ED10D2118F0BFFA2868CC
:1021A0000A2118F0BBFA2B4E2B4F2C4A002318A8FB
:1021B0000AF03EFC3378002B35D01BF074FC0A2269
:1021C0000023FEF7EFFED7E90032C01A40F2D173C8
:1021D00061EB0201984271F1000124DB204B0121E7
:1021E000186818F0BDFA00231E4933703CA8FEF7AA
:1021F000FDFE1C4A1448032118F09BFA3CA8142148
:10220000FFF74EF9286870B118F091FA58B13CAC5C
:1022100014F8011B286889B90D2118F07FFA286885
:102220000A2118F07BFA002164201BF08CFBBCE72C
:1022300018F074FA8CE718F071FAA8E718F06EFA43
:10224000E6E700BF2104020854E70108EC73002010
:10225000600402087A820020801F00208096980087
:10226000447400208E04020800285DD02DE9F0435C
:102270000C46B3B0002953D00546184616461F46F3
:102280000AF070FE00284BD0002E49D02A49902237
:102290000EA81BF0AEFC0EA9902228461BF0A9FC4C
:1022A0006C606846EE606C4611F0AEFF0FCC05F135
:1022B000180CACE80F000FCCACE80F000FCCACE86A
:1022C0000F000FF26C09D9E900892368CCF80030BF
:1022D000C5E91C896F613B683969B0019847A860FE
:1022E00020B3002400E0A86800EB841031460134DC
:1022F0000AF0F2FCA642F6D105F14C000AF0E2FC2D
:102300000E49AA680023C5E920132AB16A691AB1E7
:10231000EA680AB185F88830002033B0BDE8F08360
:102320000B2033B0BDE8F0830B2070470A20F8E79C
:1023300000CA9A3B00000000F8E80108FDC400084C
:10234000F0B593B01A9E8AB186B1044650B1D0F868
:1023500080303BB1C0680F46154611F08DFB08B1C7
:10236000237A3BB90125284613B0F0BD0B2528463A
:1023700013B0F0BD04F1600EBEE80F000DF10C0CBF
:10238000ACE80F00DEF80030CCF8003003A80AF00B
:10239000E9FD0028EAD0206809F068FD002845D052
:1023A0006946E06811F0E8FB014600283BD1202295
:1023B0000DEB02001BF02BFC25A3D3E90023DDE984
:1023C00000018DF82070FEF79DFDCDE90902DDE9E1
:1023D0001823CDE91023237A30687168B268012B85
:1023E000F36808BF00250BAE012F0FC621D8D4F823
:1023F00080302A4608A89D6903A90023A8470646FD
:10240000002EAFD031462068002209F009FDD4F833
:1024100080300546DB6903A930469847002DA2D0DD
:102420000AF0CAFD9FE70AF0C7FD9BE74FF49675D7
:1024300099E7B91E0129F6D8D4F880202B4608A8C0
:10244000956903A90022A8470646D9E7AFF30080A3
:1024500000CA9A3B00000000002800F0C7812DE967
:10246000F04F056B99B00446002D00F07881994635
:1024700043689246002B00F09580296C002900F0FB
:10248000AA80002318461E46226952F823206AB10A
:10249000E2686F691A4457F822203AB1296947F86F
:1024A00021202A6901322A61256B296C013340F110
:1024B00000008B4270F10002E6D36FF00047CDE9D7
:1024C0000C66CDE90E665AEA09034FF0FF36CDE9F6
:1024D0001267CDE91467CDE916670DF1300B00F0F6
:1024E0008E80002900F046810025CDF8149027E069
:1024F000CDE90867236908A953F8080011F058FED0
:1025000040F22133984200F0B480002860D1DDE928
:10251000072C1078DDF8248018AB03EBC00151E9DB
:102520000893CC4578EB030304DA0DEB800041E916
:1025300008C80263236B196C01358D4280F0188145
:10254000236953F825004FEA85080028F4D007A92D
:1025500011F058FD0346002840F0068107980278E4
:10256000012AC5D10DF11B018DF81B3011F010FBB4
:10257000002840F0F9809DF81B30002BB8D023696B
:102580008DF820000DF1200853F82500414611F088
:10259000D5FD002840F0E8809DF82030002BC9D000
:1025A000256B2EE0C368002B7FF467AF4369002BD7
:1025B0007FF463AFC369002B7FF45FAF436A002BE6
:1025C0007FF45BAFC36A002B7FF457AF40F28530D6
:1025D00019B0BDE8F08F6FF000434FF0FF32CDE946
:1025E0001223CDE91423CDE916235AEA0903CDE9D4
:1025F0000C11CDE90E110DF1300B40F0BB800DF147
:10260000200800220023CDE90823CDE90A23414612
:102610000291EA6B05F13403CDE9003205F11001B6
:1026200005F11C0305F12802281D14F067FD236B3A
:102630001A6C804612B300252F462E4607E0226909
:1026400042F82530236B1A6C0135954217D2206968
:1026500050F8250007A90028F6D08DF81C6011F06D
:102660006DFD0028B4D19DF81C30002BE7D01F462B
:10267000E8E72369002243F808205BE7174638F0B3
:10268000020071D1656802463DB1996851F8221087
:10269000002937D00132AA42F7D3E5684DB1236B48
:1026A0000022596951F82210002934D00132AA427F
:1026B000F7D3E56945B1236B0022196A51F822105E
:1026C00091B30132AA42F8D3656A45B1236B002267
:1026D000D96A51F8221081B30132AA42F8D3E56ACF
:1026E00045B1236B0022996B51F8221071B301326E
:1026F000AA42F8D3B8F1020F7FF46AAF87F001075E
:10270000780065E7236843F8221065680132954236
:10271000C3D9236BB9E7A36843F82210E5680132F7
:10272000AA42C6D2236BBCE7A36943F82210E5692D
:102730000132AA42C8D2236BBFE7236A43F82210B2
:10274000656A0132AA42CAD2236BC1E7A36A43F881
:102750002210E56A0132AA42CCD2236BC3E74FF4C0
:10276000617019B0BDE8F08F012019B0BDE8F08F9D
:10277000DDF81490BAF1010F79F100033ADB4FF064
:10278000010810AD16AE5BF8040F08A9A8B111F04E
:10279000F3F900287FF41CAF089AAB6809999B1ADB
:1027A000EA6862EB01029A4579EB0201BABF53462F
:1027B0004A464FF001089A4691460835AE42E2D1AA
:1027C000256BB8F1000F13D0B9F1000F0EA3D3E9B8
:1027D0000023ABBF5046002049460021FEF792FB84
:1027E000CDE90801CDE90A2308A911E70B207047BC
:1027F00041460DE74FF0FF3A6FF000494FF00008F7
:10280000BFE700BFAFF3008000CA9A3B00000000A2
:1028100011B9024808F098B9704700BFF073002062
:102820008368D96811B1024A00230847704700BF86
:1028300060E3160011B9024808F086B9704700BF7E
:102840002074002011B9024808F07EB9704700BF1B
:102850000874002030B50F4D9FB0044680202862D8
:1028600003F0C0FC0023EB61A86102AD284609F02B
:10287000AFFA09F01FFB21460246074B07480095B7
:1028800009F00EFA014610B1054818F0E4F91FB03E
:1028900030BD00BF6073002029000208A073002033
:1028A000380002082DE9F84F0B1FA3EB00098846FA
:1028B00002F007014FEAD90603F007030B3129F0B4
:1028C00007090B44D408814404EBD3048368B9F8A6
:1028D00002B09C4228BF1C461BF0010B00AF05460E
:1028E00016D1EA4688B06A464A4BCDE9053803233B
:1028F00042F8103F48485B464FF4C25101F018F9C6
:10290000D5468BF31188BFF36F8F0423184602DF7F
:102910003146284617F033FF304435F83030C01ABE
:10292000864217D0EA4688B06A463C4BCDE9053866
:10293000032342F8103F384800234FF4C25101F0FE
:10294000F7F80023D54683F31188BFF36F8F042374
:10295000184602DF3146284617F011FF84428246AE
:1029600022D026D234442846224617F0ADFFB9F8CB
:10297000023043F00103A9F802302146284617F03F
:10298000FEFE261805EBC6035B88DB0708D431463C
:10299000284617F03DFF32462146284617F07DFFB6
:1029A0002146284617F0F0FE01221046BD46BDE83C
:1029B000F88F06EB000805EBC802528812F00102FE
:1029C00025D14146284617F0DAFE50448442ECD81F
:1029D000284617F01DFF4146284617F0D0FEA4EB0D
:1029E0000A0A824507D23219284617F06DFF1146B0
:1029F000284617F0C9FE42463146284617F04DFFDB
:102A0000B9F8023043F00103A9F80230CCE7002204
:102A1000CBE700BFFE04020884E701082205020894
:102A20002DE9F84F8A4600AF002974D004680E1FC4
:102A3000361BF50826F0070604EB0608B8F802B0C6
:102A40001BF0010B16D1E94688B06A46334BCDE93D
:102A50000531032342F8103F31485B464FF4C25121
:102A600001F066F8CD468BF31188BFF36F8F042316
:102A7000184602DF2946204617F081FE284434F824
:102A80003030C01A854217D0E94688B06A46254BD7
:102A9000CDE9053A032342F8103F214800234FF4C3
:102AA000C25101F045F80023CD4683F31188BFF3EE
:102AB0006F8F0423184602DFB8F8023023F00103B9
:102AC000A8F802302946204617F059FE05EB000809
:102AD00004EBC8035B88DA0708D44146204617F0A8
:102AE00097FE42462946204617F0D7FEA65BAE1B4E
:102AF00004EBC6035B88DB0709D43146204617F098
:102B000087FE2A463146204617F0C7FE354629463D
:102B1000204617F039FEBD46BDE8F88F4B05020888
:102B200084E70108220502082DE9F04F91B08407DF
:102B3000009302F004030293C2F3C20303F1010302
:102B4000DDF868A0039205460E46059340F09D818E
:102B5000041D00284AD101F00706341DC6F10806FD
:102B6000009B00275A1E4FF004084FF0FF330193DB
:102B70000497B946BB4643460DB1009921600598BC
:102B8000002800F3D78090480099814203D38F48F2
:102B90008142C0F0CF80039911F0020CA4EB050034
:102BA00040F0D680B9F10F0F00F2CF80002D00F079
:102BB000D68009F140010DEB010EC0F387000199A9
:102BC0000EF8200C0EF8101CBCF1000F00F0C380B2
:102BD00060F07F000EF8200C013709F10109C5F102
:102BE0000801043406914FF6DA7E8CE00729B7D845
:102BF0006FF01B0011B0BDE8F08F7A285BD84B282E
:102C00000FD8472857D829282ED8252850D052D851
:102C1000202818BF23280CBF4FF0010B4FF0000BEA
:102C200071E04C382E2846D8DFE800F06D45454568
:102C30004545454545454545484545454545454541
:102C400045564548485656566D486A456D4518489C
:102C50001845457F7C48454548457C0000204FF09D
:102C6000000B4FF0040835E02A38C0B2012101FA08
:102C700000F010EA0E0F46D110F0625C2CD110EA81
:102C8000010B40D06046013C4444B4FBF8F408FB1F
:102C900004F425B1A3EB050CA444B445A8D800283E
:102CA00070D00599013905915AF8041B009163E72A
:102CB0000199013901914FF0000B24E012F8010C49
:102CC0006C2834D112F8023C00206C2B8346C8D10A
:102CD0004FF008084346D6E70AF1070A2AF0070A28
:102CE0000734FAE802BC24F0070435B10698204402
:102CF000B0423FF67DAFC4E900BC08344FF0000B92
:102D00004FF00808434612F8010F002853D0BBF1DA
:102D1000000F7FF472AF2528F5D1019B0133019399
:102D20004FF0010B4FF00408ECE7584697E70020FE
:102D30008346A8E7039988077FF551AF601B4FF0E2
:102D4000010CB0F5007FFFF42DAF6FF0150051E7D7
:102D50004FF0000CF5E70498013004903DE7BCF11A
:102D6000000F01D0013638E70298023600287FF4C0
:102D700034AF0098CDE90632FEF740F9DDE90632BE
:102D800006442AE7042B08D10AF1040015B1DAF849
:102D90000010216004348246B5E70AF1070323F0EE
:102DA000070303F1080A1DB1D3E90001C4E90001DA
:102DB00008340823A7E7631BB3F5806FC5D23DB97C
:102DC000A6F10804E01815E70CDE01087C220208D1
:102DD000029A28609B082B709DF81030AAB1EB7006
:102DE000AF702FB108A80022C5F1010C91450ED19A
:102DF000C5F101030DF120084FF0000A01930DF118
:102E0000300BD14512D1601BF4E66B70E8E710F887
:102E1000013B190608D50CEB040EB64503F07F0301
:102E20003FF6E6AE04F8013B0132DFE71FB198F947
:102E30000020002A17DB029BD3B11AF80B2004F8FC
:102E4000012B0022019B18191044B0423FF6D0AE6E
:102E500098F8000004F8010B0099039220461AF03C
:102E6000C8FE039A14440AF1010A08F10108C8E7F0
:102E700098F8002055F822300093029B45F8223044
:102E80000098FEF7BBF8421CDCE76FF00D00B1E6DE
:102E90002DE9F04F97B000AFC7E90A3205468A46E0
:102EA00049B903784678807800EB8300284456457A
:102EB00024D8A0EB050AD7F8803095F80280D7F81F
:102EC000804003F00103FB61EB787B62B8F1000FF7
:102ED0000CBF002404F001041BB1D7F880309A071E
:102EE00015D4A4B9FB6A1BB1BA6A51462846984763
:102EF000564630465C37BD46BDE8F08F441C204640
:102F0000FEF77CF8013020440AF1010ACFE7D7F838
:102F10008030C3F3C0033B622B78BB619B003B61F5
:102F20006B687B61BB6905EB830BFB6A002B77D178
:102F30005646D844BCB11C461BF8013B55F823004B
:102F4000FEF75CF8D7F88430013043B1D7F8883009
:102F5000A34282BFD7F8843023F814000134C3455C
:102F60000644E9D1D846D7F8803013F0050F0CBFDE
:102F70004FF0020B4FF0010B4FF000097B6A9945AF
:102F8000B7D298F8013055F823A0AE4B9A4508F116
:102F90000208C0F04B81AC4B3A6A9A452CBF002323
:102FA00001230AB318F8021C7869FB6217F0FDFDD3
:102FB000FB6AC8B1EA468AB06A46A44B05937B69AE
:102FC000CDE906314FF40073ADF82030A04B42F844
:102FD000103FA04800234FF4125100F0A9FD023E1B
:102FE000D54609F10109C9E723B1FB6933B9A6EB5D
:102FF0000B06F6E7D7F880309B07F2D55046FDF771
:10300000FDFFD7F884304BB1D7F888309C423FBFE2
:10301000D7F88420431C22F8143001340644E0E73A
:10302000002C69D1B8F1000F6CD0D7F88030580768
:103030006BD5C14607F14800424659461AF0D9FD02
:103040000BEB0803FB6000220233796A8A425ED3ED
:10305000D7F8802095F801B0F969920704EB0B03CB
:10306000DBB254BF4FEA59020022002940F0A6808B
:10307000D7F8801011F0040F14BF494600216B707F
:10308000A970EA703969BA6AFB6A28469847061E31
:10309000FFF62FAFBB692B707B6AEB704946BA6AAB
:1030A000FB6A85F801B085F8028007F1480098476F
:1030B000B0F10009C0F2B6803B697A6A786A03EB26
:1030C0004201FB68BA6A414403EB4000AAEB0101EC
:1030D000FB6A98470028C0F2A780B14409EB0006BC
:1030E0004FF0000B07F1380AA34569D30021BA6AF3
:1030F000FB6A08469847FCE6444607F138004FF063
:10310000000999E74446C1469AE7A14698E713F8B3
:10311000016CDFF830C155F8260013F8021C604539
:10312000C0F08A80DFF820C16045386A2CBF4FF0BC
:10313000000B4FF0010B38B17869C7E9013217F085
:1031400034FDD7E90132F0B9BBF1000F1ED0F969A7
:1031500049B1611C04F1280007F13004041904F896
:10316000206CCCB20FE0D7F8801049070BD509F1DD
:10317000280007F1300C09F1010100EB0C0909F8F6
:10318000106C5FFA81F9013202335EE7D7F88000F4
:103190008007DED409F1280C07F1300EF44409F160
:1031A00001000CF8101C07F1580151FA80F009F1E8
:1031B00002095FFA89F900F8106CE4E700215EE784
:1031C0001BF80A3087F8373055F82390D7F8843049
:1031D0002BB3D7F888309B4521D2D7F8843033F809
:1031E0001B80BA6AFB6A012107F137009847002863
:1031F0001ADB0644B8F1000F06D14846FDF7FEFE83
:1032000000F101081FFA88F8BA6AFB6A414648468D
:103210009847002808DB06440BF1010B64E74FF0E8
:103220000008DEE74E4664E6064662E63B6A002B8F
:103230003FF4E0AE0023B5E6386A0028A6D04FF090
:10324000000B79E70CDE01087C22020878050208F1
:103250000400000104E7010830B50446EFF31185CE
:10326000102383F31288BFF36F8F044B0FCB84E8D6
:103270000F0085F31188BFF36F8F30BD881F0020CA
:1032800001281FB50C4605D004281DD06FF015008D
:1032900004B010BD1AF007FC42F210720023FDF7D3
:1032A00081FE104B5A43C4E90001A2606846FFF753
:1032B000D3FF6946204617F095FC18B90A4B0FCB8F
:1032C00084E80F000020E3E71AF0EDFB42F21072F1
:1032D0000023FDF767FE034B5A43C4E90001A260D7
:1032E000F0E700BFA086010050E80108014B18601C
:1032F000704700BF5808002080B505460E461746A7
:10330000984608F039F9034602F08CFDDFF8189072
:10331000044649F80030424630463946A84754F83A
:10332000090002F00FFD00BF100000002DE9F84376
:1033300044690569C76840F26C73E1170135E41808
:1033400041F10001022D8CBF00230123E41A61F139
:1033500000010029064607F1FF3751DA6FF4C77004
:1033600020184FF4C8724FF0000361F10001FDF71F
:10337000C9FD264B03FB0044D6E90083B6684FEA3B
:10338000E37C4FF03C0E99466346C6FB0E93A9FBC7
:103390000EC60EFB0366A30840F26D1E032D0EFB46
:1033A000043302463B4434BF09206FF00200642717
:1033B0000544B4FBF7F499201B1B154C45431CEB4B
:1033C000080C4FF0050005F10205B5FBF0F5A2FB76
:1033D00004202B4404FB010146EBE87698180D4AC3
:1033E00041F1000380180C4A63F10003A0FB0201C5
:1033F00002FB031110EB0C0041EB0601BDE8F88362
:103400004FF4C87200232046B1E700BF70FEFFFFF3
:10341000B13A02009405F5FF8051010010B5FFF7A5
:1034200085FF024602F0FEFC0B460349002444508F
:103430001046194610BD00BF1400000070B5204BA7
:1034400082689A4216DDD0E90016012976F100055E
:1034500003F1010392FBF3F34FEAE3741DDAC91899
:1034600044EB0604C0E90014164901FB0323836002
:10347000012070BD002AFBDAD0E900410029124E7C
:10348000A3EB0203B3FBF6F310DA01F100459C4213
:1034900075F100050ADA0020EBE7CD439D426FF09D
:1034A0000045A5EB0605A541D9DAF4E7E41A61F178
:1034B000000106FB0322C0E900418260D8E700BF9B
:1034C000FFC99A3B003665C400CA9A3B034A536859
:1034D00023F0020353600020704700BF002004E087
:1034E00008B54168054883681B680C311BB19847D3
:1034F00000EAE07008BD6FF05700F9E76CDF0108E3
:10350000192810B502D90024204610BD044B53F8E9
:10351000204020461AF014F80028F5D1F3E700BF48
:1035200018EC0108EFF31180102383F31288BFF326
:103530006F8F094B1A683AB9084A116841F48071D3
:1035400011601168C905FCD51A6801321A6080F350
:103550001188BFF36F8F7047D8740020007000404F
:1035600010B5EFF31184102383F31288BFF36F8F2C
:10357000134B1A68C2B9BFF35B8F124B012253E899
:10358000001F002903D143E800200028F7D1BFF332
:103590005B8F04D10C4A0D48022117F0B4FF84F36D
:1035A0001188BFF36F8F10BD012A01BF08490A6857
:1035B00022F480720A601A68013A1A60EFE700BFCD
:1035C000D8740020D4740020A7060208DCE70108A4
:1035D00000700040084B1A6842F480721A601A6842
:1035E00042F400721A601A6842F480621A60034B57
:1035F000034A1A60704700BF003C024040090020A7
:103600000024F4002DE9F047DFF854800446074613
:103610004FF0010994FAA4F5B5FA85F509FA05F316
:103620002E0108EB05156FEA030A24EA03042B7B3D
:1036300063B158F806301B696BB9464404227368BD
:103640002846196807EA0A0717F0EDFE002CE1D1B9
:103650003846BDE8F087284698470028F6D1ECE7C1
:1036600034E8010810B50F490F4888B000221AF05D
:103670001CFA00220023CDE9062300240E23CDE905
:103680000334CDE90144094B094900944FF44072D9
:10369000084807F0EDFC084906481AF0B0F8204643
:1036A00008B010BDBD36000830240020D93900080C
:1036B000C08A0020981F0020E4060208014807F095
:1036C00043BA00BF9C1E00202DE9F04780462048E9
:1036D0000F4617F080FE0646002832D00025284607
:1036E000BDE8F087237B83B12368DB680BB12046FC
:1036F0009847636883F8069023681B69CBB96368B1
:1037000004221968204617F08EFE01361034544505
:10371000E8D3B8F1000FE2D0002DDFD02846FFF744
:1037200071FF0546002FF7D0002164201AF00BF935
:10373000F2E7204698470028E1D009FA06F31D4336
:10374000E3E7044CDFF810A005464FF00109DEE77F
:10375000EC74002034E8010844E80108014B53F8F8
:103760002000704794EC010808B5034608462BB1C9
:10377000044A136000F03CFC002008BD6FF0150007
:10378000FBE700BF5C08002010B5044C237813B998
:10379000034807F0D9F90123237010BD7B82002074
:1037A0009C1E002010B504460B4817F014FE5CB1B7
:1037B000BFF35B8F094B53E8001F013943E8001248
:1037C000002AF8D1BFF35B8F05481AF07AF9054853
:1037D000BDE8104007F0B8B9E4740020E874002098
:1037E000302400209C1E0020064BBFF35B8F00227C
:1037F00053E8000F43E800210029F9D1BFF35B8FA4
:10380000704700BFE474002070B5FFF7EDFF084C6F
:10381000084E0546B44200D370BD63685B792BB196
:1038200023685B6813B12946204698471034F1E7B6
:1038300034E8010844E8010810B5044C0449204666
:1038400017F02AFB034B1C6010BD00BF101E0020A8
:1038500080EC0108DC7400200D4A0E48002310B5EE
:1038600013700D4A13600D4A4FF47A711360FFF71D
:103870007BFFFFF7E1FF0A4B0A4918468B4200D352
:1038800010BD1A1A5C681211013222711033F5E76B
:103890007C820020F1B30108E4740020E874002069
:1038A00034E8010844E801080146002201480023E9
:1038B00017F013BB101E0020014817F0AABB00BF71
:1038C000101E0020024B0146186817F0FDBB00BF18
:1038D000DC740020014817F032BC00BF101E00202D
:1038E00070B5264B1878002846D0FFF7E5FF05464F
:1038F00000283ED1224B234C1B68002B12DD1AF00E
:10390000D2F80A220023FDF74DFBD4E90032C01A99
:1039100040F2E93361EB0201984271F1000101D3F9
:10392000FFF772FFD4E9003213F57A7342F1000217
:10393000C4E90032BDE87040FFF7CCBF63685B7933
:1039400023B1236829461B68204698471034B442A7
:10395000F4D32846FFF7B6FFBFF35B8F0A4B53E85B
:10396000001F013943E80012002AF8D1BFF35B8F32
:10397000C0E7064C064EEAE770BD00BF7B82002020
:10398000E474002028240020E874002034E80108B2
:1039900044E8010870B50D4D297861B90120FFF7A1
:1039A00093FE0B4C0B4EB44206D3FFF799FF002851
:1039B000FBD101232B7070BD63685B791BB1236859
:1039C00020469B6898471034EDE700BF7C820020BA
:1039D00034E8010844E8010800212DE9F8430846CD
:1039E000FFF772FE044648B34FF4FA784FF000092F
:1039F00002F018FA1A4B1B4A1B58136033B11A4BCA
:103A00001B68092B02DD194807F09EF8184F0025A6
:103A100044B12046FFF7F6FD044618B94FF0FF38D1
:103A20004FF0FF39FFF75CFF064628B9B5B90F48DC
:103A300042464B4607F0C2F83546E9E74FF0FF38FB
:103A40004FF0FF39D4E72B689B691BB10022114668
:103A5000284698471035BD42F5D3E8E7054DFAE70B
:103A600010000000E0740020E87400209C1E00207C
:103A700044E8010834E8010813B5184817F0ABFC16
:103A8000174B1B7873B1EFF31184102383F3128863
:103A9000BFF36F8FFFF724FF84F31188BFF36F8F9D
:103AA00002B010BD0F4B1B68002BF9D050B900229B
:103AB0000023CDE900230C4842F21072002308F0E5
:103AC00047F8EDE70928EBD1074819F0FAFF074856
:103AD00002B0BDE8104007F037B800BFE87400201E
:103AE0007C820020E0740020302400209C1E0020F6
:103AF00010B5064B1B68044698472146A060044851
:103B000017F068FABDE81040FFF7B6BF5C08002068
:103B1000101E0020044A054B9B1AB1EBD30F34BF93
:103B200052F8310000207047F4E6010834E801083B
:103B30002DE9F04F8FB004AFC1F34A26B8600D46AF
:103B400090467B600C0D002E61D04FF000090A23D7
:103B50004FF0040B07F1140AFE60C7E90799C7F894
:103B600024900093CDF808B0CDF804A007F11C0311
:103B7000F9684A464046FFF78BF9B0F5006F0346F7
:103B80001CD36C468AB0D8F8041004AB2448C3E9AF
:103B9000050140F2FF71D9611A464FF40071198492
:103BA000204B42F8103F20484B464FF41251FFF78C
:103BB000BFFFA5462C37BD46BDE8F08FC0F30A060F
:103BC00004F11700184420F0070080083B60FFF75D
:103BD0006BFE66F35325044680B13B68134A00F13F
:103BE0001001C7E90839F961CDE901AB0A23009357
:103BF000F96807F11C034046FFF74AF966F35325BD
:103C00007B68B9682A46204617F02DFCD2E704F1FC
:103C1000170020F007008008FFF746FE0446EDE796
:103C2000F5060208040000015CE7010839B4010848
:103C30002DE9F04F87B0DDE9127ADDE9106B05461A
:103C4000884614469946BFB11021CDF800A03B46E6
:103C50005A460020CDF814A0FEF766FFB0F5006FBD
:103C600001460BD3194A1A4840F2FF73022107B0EC
:103C7000BDE8F04F17F050BC3946384604F0070352
:103C800005F00704E40044EA831444EA402444EACB
:103C9000065406F11700084420F00700800803913D
:103CA000FFF702FE054640B13FB10399CDF800A0F1
:103CB0003B465A461030FEF737FF4B4622464146F8
:103CC000284607B0BDE8F04F17F0CDBB3407020817
:103CD0005CE70108406820B1034BC01A40F3CF00F5
:103CE00070474FF0FF307047F4E601080EB403B59B
:103CF00003AB014653F8042B0448019302F018FA71
:103D000002B05DF804EB03B0704700BF7BB501085B
:103D1000CA0605D48B064CBF02490349FFF7E6BF2C
:103D2000704700BF49010208480102082DE9F04F21
:103D300089B09846159B0693DDE916A39DF850902F
:103D4000189F059204460D460493B9F1000F00F048
:103D5000B08007F48073079317F063FB07F0020B42
:103D60000246002874D078492046FFF7BFFF064678
:103D7000BBF1000F08D017F0440F6BD173492A46EE
:103D80002046FFF7B3FF064407F0010353B1704B21
:103D9000704953F82920704B2046002A08BF1A4664
:103DA000FFF7A4FF07F48073002B07F0080318BF88
:103DB0004FF00008002B79D0684B694953F829204F
:103DC0002046FFF793FF0546059B2BB165491A4630
:103DD0002046FFF78BFF0544B8F1000F05D062497C
:103DE00042462046FFF782FF054460483544069B63
:103DF0001BB15F49224616F0A7FE049B002B00F082
:103E00008E80DDF810803946B8F1100F204628BFAB
:103E10004FF01008FFF77CFF0026B54250DC00266B
:103E200033461AF8032053492046FFF75FFF013657
:103E3000102E4BD0710703D14F492046FFF756FF94
:103E400046453346EDD34D492046FFF74FFFEEE799
:103E500006468DE74A4B1868002894D0494B4FF42A
:103E60007A7B1B68B5FBF3F54FF46163B5FBF0F1AA
:103E700000FB11550BFB05F54FF03C0CB1FBF3F2C9
:103E800003FB1211B5FBF0FEB1FBFCF300FB1E556A
:103E90000CFB13110BFB05F50091B5FBF0F53A494E
:103EA000CDE901E52046FFF721FF6CE707F00805A3
:103EB0008AE7B8F1010F0CBF2C4834484D4696E70D
:103EC0002D492046FFF712FF0136A6E7304920466C
:103ED0000026FFF70BFF33461AF803202D49A2F105
:103EE00020035F2B28BF2E222046FFF7FFFE01365E
:103EF000102E0DD0720703D11F492046FFF7F6FEA2
:103F0000B0453346E8D81C492046FFF7EFFEEEE700
:103F1000049BB3EB0803C24404937FF472AFB9F17E
:103F2000000F0AD0FB0704D50B4A0A492046FFF7C9
:103F3000DDFE39462046FFF7EBFE204609B0BDE81E
:103F4000F04F17F00DBB00BF71070208750702089C
:103F5000A4EC0108721902086C070208B8EC010809
:103F60009A070208A0070208A40702087BB5010807
:103F700031610008A9070208B1070208AF0702086B
:103F8000F4740020F07400207E070208B1B5010827
:103F9000B3070208B507020873B542F20F738B42EC
:103FA00028BF0B4605680F4A04460521684616F0EF
:103FB000A9F863680C495B6806460B22284617F08F
:103FC000C1FA63683246694628465B6817F0BAFA58
:103FD000636806495B681B22284617F0B3FA02B0F3
:103FE00070BD00BF29130208B12002089520020805
:103FF000074A00210123904206D8064A01B901234D
:104000001360054B1860704740085B000121F2E720
:1040100040420F00F0740020F4740020F8B5074F00
:104020000D4604464618B44201D12846F8BD14F89E
:10403000011BBB6801485B689847F4E7A0E00108F2
:10404000014B03600020704700ED0108F0B40D4BF8
:104050000D4E5F6A0D4BB34203D36FF08500F0BC89
:1040600070475C68BC420AD31D6945B194F802C030
:104070008488E4B2A44502D12B46F0BC184724330F
:10408000E9E700BF24750020801F00205C1F00208E
:104090002DE9F047144CDFF85480DFF854900546C2
:1040A0000E461746444503D36FF08500BDE8F08700
:1040B0006268D9F824309A4213D3A3698BB1A988D6
:1040C0009078C9B2884205D13A4631462846BDE8C3
:1040D000F04718475279012A03D13A46314628461B
:1040E00098472434DEE700BF5C1F0020801F0020BB
:1040F000247500202DE9F0410B4CDFF83080054697
:104100000E461746444502D36FF0850009E0636907
:104110000BB92434F6E73A4631462846984700283A
:10412000F7D1BDE8F08100BF5C1F0020801F002098
:10413000024B00221A605A60704700BFDF750020F2
:1041400070B50B4B0B4CA34201D3002070BD196A14
:104150001E7F00220439D5B2AE4201D82433F2E7E3
:10416000013211F832508542F5D10120EEE700BF4F
:104170005C1F0020801F002073B58488E4B26306B2
:104180000D468DF8074007D02046FFF7D9FFB0B1A4
:10419000144B93F8BA0090B1124E95B1124A1348DD
:1041A0002346032117F081FA9DF8070002F01AFC5C
:1041B000F3691BB10DF1070108209847012002B0F7
:1041C00070BD0B4A09482346032117F06EFA9DF88B
:1041D000070002F029FCF369002BEFD00DF1070175
:1041E0000920EAE724750020F20702081CE801080C
:1041F0000508020808B50346034A0448012117F0E0
:1042000054FA002008BD00BF1A0802081CE8010883
:1042100038B5054602F05EFC10F1780F044611D166
:104220000D4A0E482B46022117F03FFA284617F098
:104230003EFA0B4AD2F8C43023EA0003C2F8C43075
:10424000002407E00028F1D0064A04482B4601214B
:1042500017F02BFA204638BD350802081CE8010883
:10426000247500205608020808B509480378C3F3EE
:1042700041130A3350F823303BB100F1080200F13A
:1042800010019847C043C00F08BD1846FCE700BFA7
:104290002475002004282DE9F74FDFF89C90044690
:1042A0000F4615D001282FD1DFF8908098F8B9304B
:1042B00053B300F0ABFE224D4D4522D22A6A4FF097
:1042C000000A2B7F5FFA8AF6B34204D82435F3E75D
:1042D000FFF72EFFE8E702EBC6060192307902F005
:1042E000F9FB8346307917F0E2F9D8F8C430019A27
:1042F00023EA0003BBF1000FC8F8C4300AF1010A39
:10430000DFDA002388F8B9300D4D4D4508D30B4B4B
:104310001B6A6BB13946204603B0BDE8F04F184721
:10432000EB681BB13A462146284698472435ECE70E
:1043300003B0BDE8F08F00BF801F0020247500206F
:104340005C1F002073B5044680788DF80000237947
:104350006279294D43EA0223ADF80230E37803F095
:1043600003038DF8043017F0A2F9D5F8C4301842D1
:1043700006460CD0A478204600F02AFE2046FFF71F
:1043800047FF19F036FA10B9962019F0F5FA684689
:1043900017F0F4FB10F1780F9DF800301BD1174A8D
:1043A0001748022117F081F99DF8000002F062FB26
:1043B00010F1780F19D19DF80030124A10480221EF
:1043C00017F073F9D5F8C4300120334385F8B900EC
:1043D000C5F8C43007E00028E6D00B4A08480121A0
:1043E00017F063F9002002B070BD0028EAD09DF8F4
:1043F0000030064AF2E700BF247500207808020862
:104400001CE80108BF0802089B080208DF08020830
:104410002DE9F047A94EB36904460F4690466BB9A3
:10442000237803F01F03012B00F0A280022B00F081
:10443000078143B16FF01500BDE8F0879847002869
:10444000EED10020F8E794F900206178002A2FDAF5
:10445000062910D00829D8F8002024D00029E9D155
:1044600001231370517096F8C3305B0043F00103D1
:104470001370022320E16288100A011F01290546FA
:10448000D8D90728D6D8D1B2726A1478002CD1D0E6
:104490005678AE4203D1994200F00881013322449C
:1044A000F3E7137808E196F8BA301370012303E1BB
:1044B00001390829BED801A353F821F05745000857
:1044C000354400086745000835440008E144000809
:1044D000354400083544000835440008EF4400081E
:1044E0006088C0B202F0C8F90028AAD0A2E76388A9
:1044F0003BB1FF27756A0020B8462B786BB90028BE
:1045000098D0FFF715FE638886F8BA30F369002B60
:1045100097D06B490320984793E76B78042B0DD015
:10452000052B0ED0022B06D16F796388BB4208BFE2
:1045300040F00100C0B22B781D44DEE795F80380FF
:10454000F9E76388BB42F6D1B8F1000FF3D12846F2
:10455000FFF7F8FEEFE76388012B7FF46BAF0023D2
:1045600086F8C3306DE76388012B7FF463AFF7E70C
:1045700096F8BA30002B3FF45DAFA388756A5FFAF6
:1045800083FC2A46117800293FF454AF5078022862
:1045900004D192F804E0E64500F294800A44F1E781
:1045A0000A704A7038604CE7154499E00B2A7FF492
:1045B00041AF00274FF0FF08C146BA4606E06B78CE
:1045C000042B0FD0052B21D02B781D442B78002BEA
:1045D000F5D1F36913B1514607209847002F7FF4B6
:1045E00030AF27E795F80280A38895F803909845A7
:1045F000EAD163889945E7D1B8F1070F1DD806EBDA
:104600000803AA4683F8BB900127DDE7A38843454A
:10461000DAD16388DBB24B450AD0AF78384600F078
:10462000D7FC3846FFF7F4FDB0FA80F77F09CBE7F7
:104630002846FFF787FE0746C6E7AA460027C3E7D6
:1046400094F900206378002A1ADA002B7FF4F2AE86
:10465000A388DDB25B060AD02846FFF771FD00286B
:104660003FF4E8AE96F8BA30002B3FF4E3AED8F84A
:1046700000402846214617F09DFA00236370F8E6B3
:10468000012B08D0032B7FF4D5AE6388002B7FF479
:10469000D1AE012103E0618800297FF4CBAE204632
:1046A000FFF76AFD00287FF4CCAEC3E60228C8F805
:1046B00000207FF4F6AE53883B60C2E624750020EC
:1046C000DE75002094F9001062780029BFF66EAF05
:1046D000D8F80010002A3FF463AF0A2A7FF4AAAE8C
:1046E0002A78002A3FF4A6AE687804287FF45CAFED
:1046F000A87883427FF458AF072B96BF9B190023FD
:1047000093F8BB300B70D1E62DE9F84305460F4610
:104710009046994604264B4642463946284602F0C2
:1047200007FA10F10B0F044609D1064A06482B463A
:10473000022116F0BAFF06F0A1FE013EEBD12046A1
:10474000BDE8F883000902081CE8010813B5164CFF
:10475000237DF3B9E268A168019201AB8020FFF7E5
:10476000D3FF019AA3681344A360E3689B1AE36034
:104770006BB962B12369E2889A4208DD94F8C820D7
:1047800093FBF2F102FB11330BB90123237502B045
:1047900010BD00231A4619468020237502B0BDE8DB
:1047A000104002F0C5B900BF247500207FB500237A
:1047B0000D4601930646002862D100293AD108220D
:1047C0000B460DEB020117F002FA002804DA8020F4
:1047D00002F008F904B070BD2E4C029A2260039AD0
:1047E000626004F13802A2609DF90820BDF80E3025
:1047F0002575002AC4E903550FDB802B09D9264A09
:104800002648012116F07FFE802002F0EBF82846B2
:10481000DEE713B1C4E90333DCE7FFF725FD002829
:10482000D5D0E28823699A42D4BFE260E360FFF703
:104830008DFFCFE7174CD4E90212002A01AB05DC4B
:10484000024617F0C4F90028C4DAC0E717F0BFF930
:10485000002804DA802002F0C5F83046B8E7019A53
:10486000A3681344A360E3689B1AE360002BB1D1F3
:1048700004F13803A360FFF7F7FC0028D7D1A6E7BF
:104880008028A7D1034BDA68002AD0D11B7D002BEA
:10489000CDD19FE724750020270902081CE80108F4
:1048A000054B064A9A62064ADA62064A1A63064AC3
:1048B00058629A6100207047247500201144000856
:1048C0004D400008F5400008914000082DE9F341F3
:1048D00004464C4D4C484FF0FF334FF0FF3206F08A
:1048E00071F895F8B8306BB1484A4948022116F082
:1048F0000AFE6FF07704444806F0D6F8204602B06E
:10490000BDE8F0816E6A6EB900F0D4F8FFF7C8FF19
:104910006E6A3EB93F4A3E48012116F0F4FD4FF061
:10492000FF34E8E73C482C62E86101F09FFF01F0AA
:10493000B3FE041EDFDB00F08BFB041EDBDB7378B1
:10494000012B01D1F3793BB9344A3148012116F0EA
:10495000DAFD6FF01504CEE70026684685F8C8300A
:10496000ADF802308DF804608DF8006017F006F99C
:10497000041EC0DB802768468DF8007017F0FEF833
:10498000041EB8DB2649304617F0EDF8041EB2DBF2
:104990002349384617F0E7F8041EACDB214CDFF85A
:1049A000888044451AD3002002F064F8041EA2DB7C
:1049B000D5F8C430802043F00103C5F8C43002F0BC
:1049C00059F8041E97DBD5F8C43043F48033C5F89A
:1049D000C430012385F8B83000248CE7276A00260C
:1049E000227FF3B29A4201D82434DAE707EBC302FC
:1049F00057F83310107917F0B6F801360028EFD0C9
:104A00008DE700BF24750020701E002040090208B9
:104A10001CE8010863090208954200088809020899
:104A2000AD4700085C1F0020801F002030B51F4BE1
:104A30008BB005AA03F1100518685968144603C421
:104A40000833AB422246F7D11B78237001AC102209
:104A50000021204619F0DBF812220021144819F039
:104A6000D6F81021204603F089F900281ADD08281D
:104A7000B8BF082009380E4A0444002114F8013F49
:104A80000AA800EB131003F00F0328336B44013125
:104A900010F8140C13F8143C10700829537002F12C
:104AA0000202EBD102480BB030BD00BFC2090208C0
:104AB0007F8200202DE9F04F884B87B093F800A04B
:104AC00000AFBAF1000F04D085481C37BD46BDE8E1
:104AD000F08F834C00264FF00119FE603546B0463A
:104AE00023783BB97F4B02349C42F3D17B4A0123AC
:104AF0001370E9E76378052B05D8DFE803F0AE070C
:104B000003AE1E4FA04623781C44E9E7402307F17B
:104B1000100087F810A07B8287F814A001F048FFEE
:104B200040B1082307F110007B8201F041FF08B17A
:104B3000A7F812A07B8AE371E5E7E378002BE2D1C6
:104B4000A37813B3FB680133DBB2FB60DBE76B6870
:104B50009C421CD02435644B9D42F8D36D4688B0EE
:104B60006A46624BCDE90534032342F8103F6048A2
:104B700000234FF4C251FEF7DBFFAD465C485D4AAF
:104B8000012116F0C0FC00209FE75B4DE3E7AB6816
:104B9000002BD7D0F96820469847D3E7002D5AD18B
:104BA000564A5348012116F0AEFCE7E72B6AA0787D
:104BB00003EBC2010B79984247D14FF0010BE0782B
:104BC00094F805C000F003003875207940EA0C2005
:104BD000788294F9020000285FFA8BF328DA0BF14F
:104BE00010004FF0010C0CFA00F010EA090F27D169
:104BF00043F08000387407F11000C7E90031BA6053
:104C000001F0D6FED7E901123B68C8B93A7CA27020
:104C100012F0800F18BF10330A7118BFDBB24FF0CB
:104C2000010214BF9A4002FA0BF249EA02096AE74C
:104C3000012000FA0BF010EA090F01D11846D9E75C
:104C40000BF1010BBBF1100FB9D101322B7F9A424E
:104C5000ACD32B4AA5E70022F8E7032E24D1FFF7B7
:104C6000E5FE8346A0B1FCF7C9F9034680B11028E0
:104C700006D0B860234A1E48022116F044FCBB68E7
:104C8000102BA8BF10231A465946A01C18F0B1FFDC
:104C900023786FF002011A19091B04EB5303D14268
:104CA00009D50136F6B22EE7002EF1D1B8F1000F8A
:104CB00008D1154A75E702F801AC13F8010902F8AA
:104CC000020DECE7A4EB080388F80230C3F30723D6
:104CD00088F80330FB6888F80430E2E77E82002021
:104CE000B41E00205B1F0020801F0020D309020893
:104CF00014E80108B90A02085C1F0020F309020841
:104D0000340A0208510A02089C0A020810B5094B2D
:104D100000211A461C78844205D15C681CB14823E6
:104D200003FB012010BD0131042903F14803F1D137
:104D30000020F7E7F07500202DE9FF4150F8303CE6
:104D400010F8346C103304460AD1036950F8282C4B
:104D500098073DD5D2B9590715D5002344F8303C02
:104D600054F8303C10330BD054E9097554F81C8CBE
:104D700018F03FFD002857D03248214618F004FDB6
:104D800004B0BDE8F08143F00403236103AB54F8A1
:104D90002C1C3046FFF7B8FC034640B12A4A2B488A
:104DA0000096012116F0C2FB6FF01503D6E7039AB7
:104DB00054F82C3C134444F82C3C54F8283C9B1ADF
:104DC00044F8283C54F8243C134444F8243CC7E7F6
:104DD00003AB54F82C1C304601F014FF03460028A6
:104DE000DCD1039D54F82C3C2B4444F82C3C54F863
:104DF000283C5B1B44F8283C54F8243C2B4444F8E2
:104E0000243C002DA9D0304616F0EFFEB5FBF0F3A0
:104E100003FB1055002DA0D154F8283C002B9CD04A
:104E2000304601F037FF9BE744F8200CA4F118004E
:104E300005F08AFE002DA3D0424639463046A847E9
:104E40009EE700BF68240020E70A020824E8010862
:104E50004B1E012B73B506460D4614D8FFF756FFBF
:104E6000044690B9012D0ED101AB01220DF10301D1
:104E7000304601F0C7FE019B002BF5D10C4A0D48CE
:104E8000012116F040FB02B070BD18F0B2FC04F135
:104E9000340108B1012D05D1084602B0BDE87040CB
:104EA000FFF74ABF044802B0BDE8704018F06CBC80
:104EB000040B020824E80108682400202DE9F74FBC
:104EC000064601911746984616F032FC0446002823
:104ED0006FD1EFF311830093102383F31288BFF394
:104EE0006F8FDFF8D49000220023484605F066FE5D
:104EF000A0B9DFF8C8A0482262430AEB020BDBF836
:104F0000045015F1100F1ED12D4A2E4833460121B1
:104F100016F002FB484605F017FE0BE00134042CA6
:104F200009F14809DFD1284A2648012116F0EBFA99
:104F30006FF00B05009B83F31188BFF36F8F28463A
:104F400003B0BDE8F08F0AF802600C9A019BCBF821
:104F500014200D9ACBF81000CBF8182030466FF0D3
:104F60000F02CBE90237CBF84480CBF8042016F0CF
:104F70003CFE68B1304616F038FEB7FBF0F202FB9B
:104F800010772FB1DBF8442042F00402CBF8442024
:104F900018F0020F08D0482303FB04A10B4834315A
:104FA00018F0F2FB0025C5E7304601F073FE054618
:104FB000C0E76FF00F05C2E70C760020F075002007
:104FC000390B020824E801081E0B0208682400209F
:104FD00010B5EFF31184102383F31288BFF36F8FA2
:104FE000FFF794FE50B14368103307D16FF08B0385
:104FF000436000F13401044818F0C6FB84F31188C3
:10500000BFF36F8F10BD00BF68240020F8B50E4CB1
:1050100004251027EFF3118687F31288BFF36F8FF3
:105020006368103307D16FF08B030848636004F1A5
:10503000340118F0A9FB86F31188BFF36F8F013D8F
:1050400004F14804E6D1F8BDF07500206824002082
:1050500038B5094C00250949204618F06AFB0122A1
:10506000A4F118001146013518F0E1FA042D04F1FD
:105070004804F0D1002038BD24760020394D0008C6
:105080000169012381F84B300B6833B191F8493045
:105090001BB10248083118F077BB70476824002024
:1050A0000169012381F84A300B6833B191F8483027
:1050B0001BB10248083118F067BB70476824002014
:1050C00070B50569EFF31186102383F31288BFF3DF
:1050D0006F8FD5F8900016F099F8044686F3118882
:1050E000BFF36F8F30B104480022002305F118018F
:1050F00005F006FF204670BD6824002070B501232E
:1051000082F8483013680D4614463BB192F84A3095
:1051100023B10E4802F1080118F036FBD4F89030A4
:10512000DA885B899A4205D17DB904F118014FF400
:105130007A7204E004F11801002DF8D00022BDE8D5
:1051400070400248002305F0DBBE70BD68240020DB
:1051500070B50E4681880446C9B21548154616F04A
:10516000C3FA10B394F900206378002A16DB202BD1
:1051700004D0222B0ED06FF085000AE02B681A684D
:1051800040F8102C9A8820F80C2C9B7900F80A3CE7
:10519000002070BD638800F8093CF9E7212BEAD1B3
:1051A0001038072328603360F2E76FF01200F0E751
:1051B0001477002008B50146034816F0A3FA10B191
:1051C000012300F8073C08BD147700200D4A034670
:1051D0000021A0F848101068C3F8940090889279D4
:1051E000A3F8980083F89A2083F89C1083F89B100A
:1051F000A3F89E1083F8A010402203F14C0018F091
:1052000006BD00BF92E8010810B504690023C4F888
:10521000A8300C4BC4F8A400596804F1A80269B97D
:10522000C3E9002204F10800074918F082FA04F1EA
:105230001800064918F0B8FA002010BD0A605A603C
:10524000F0E700BF147700205BB70108195300088E
:1052500030B54FF40033426805690D4C85B042F219
:10526000A100CDE90103002385F89D30106AADF857
:105270000C1000790A2201A9FFF746FA95F89D3033
:1052800023B9012018F036F9013CF7D105B030BD43
:10529000A186010073B504698DF80710002384F816
:1052A00048301025EFF3118685F31288BFF36F8F16
:1052B0000122D4F890000DF1070115F0A7FF86F345
:1052C0001188BFF36F8F012810D018F092FAB0B197
:1052D0000F4BBFF35B8F012253E8001F002903D15E
:1052E00043E800200028F7D1BFF35B8F0A22002398
:1052F00004F11801074805F003FE02B070BD94F8F0
:10530000A130002BE4D000210A2018F01CFBC9E7D3
:105310001077002068240020F0B5D0F88C305B684E
:105320001B6A1F7D85B00546384616F001FA064611
:1053300050BB95F886303BB3A86F0146C38831F85F
:105340000A2F9B1A9BB2B3F5807F28BF4FF480735E
:1053500003AA15F00CFF0446B0B18306A5F11803AB
:1053600008BF00F1FF3485F830600193074B0399C3
:105370000093224602233846FFF7A0FDA86F22467D
:1053800000F10A0115F029FF05B0F0BDFD5000083D
:1053900037B514460A1E054621DDD4F88C0004F109
:1053A0004C0115F033FF012384F8493023683BB1E9
:1053B00094F84B3023B1114804F1080118F0E4F9D6
:1053C000D4F88C209388918912695B1A9BB2D31A06
:1053D0003F2B04D8012384F8A03003B030BD94F8EB
:1053E0009E30002BF9D0064B0093019401234022FC
:1053F00004F14C012846FFF761FDEEE76824002028
:105400009153000873B50D4601461D4816F060F92A
:10541000044610B3691EA0F1A40605291DD8DFE8D3
:1054200001F01E1C031E242810F8061CA9B90368ED
:105430005D68012300F8063C2B6A3246187BFFF7B3
:10544000A7FF14F85C2C42B92B6A187D0D4B009312
:10545000019602231146FFF731FD02B070BD3046C0
:1054600002B0BDE87040FFF7B1BE012304F8053C6F
:10547000F3E710F8053C002BEFD00023F6E700BF60
:1054800014770020FD50000813B500240749084890
:1054900000944FF0FF334FF4806205F0F1FC0549B2
:1054A000034818F0ACF9204602B010BD008E002071
:1054B00068240020790B020837B504698DF80710BD
:1054C00063680546ABB9BFF35B8F1C4B012253E801
:1054D000001F002903D143E800200028F7D1BFF3C3
:1054E0005B8F04D1164A1748022116F00CF803B05E
:1054F00030BD18F07EF930B9D4E901329DF80710BB
:1055000028469847F3E7002300220DF1070104F134
:105510001C0018F076F8034620B10B4A0948022116
:1055200015F0FAFF04F10C0005F0A4FC031EDEDA0E
:10553000064A0448012115F0EFFFD8E71C77002048
:10554000820B0208CCE70108920B0208B20B02089A
:1055500010B504690423012204F1500104F11C0078
:1055600018F03BF804F10C00024918F0E2F80020B2
:1055700010BD00BFB7B9010808B50348034A0021B0
:10558000121A16F033FA08BD801F0020A48A0020EA
:105590000748084A084908B5121A16F029FA0748B8
:1055A000074A0849BDE80840121A16F021BA00BFA0
:1055B00000000020801F00207C2202080000002044
:1055C000000000207C2202082DE9F047064600AFCB
:1055D0000C46002936D0E9468AB0D1E90012A3680A
:1055E0006D462148E8464FF0050ACDE90501CDE9B1
:1055F000072348F810AF1D48424600234FF42151BD
:10560000FEF796FACD46D4E903126369AD46184811
:10561000C5F810A0C5E90501C5E907231348002313
:1056200042464FF42151FEF783FACD46E369114A11
:105630000E48012115F070FFA3690F4A0B480121A4
:1056400015F06AFF012E07D1EFF305830B4A0748D7
:10565000103B314615F060FF2146304604F026FF2E
:10566000BD46BDE8F08700BFEC0B02087CE70108EF
:105670001B0C02084A0C0208590C0208870C02088D
:1056800030BFFFF7FDBF00BF2DE9F0410B4EDFF843
:10569000308006EB0807CC1B0546324609492046F8
:1056A00018F0A7FAA01942460021083C18F0AFFAFA
:1056B000C5F8844007F10800BDE8F081080000004B
:1056C0000800000048E8010810B5204C2049214896
:1056D00016F09BF9A36A990136D51E481E4916F0AB
:1056E00094F91E20A36ADA0104D51A481B4916F062
:1056F0008CF91F20154CA36A1B0304D515481849C3
:1057000016F083F92120A36A590304D511481549DD
:1057100016F07BF922200D4CA36A9A0304D50D489C
:10572000114916F072F92320A36ADB0304D5094856
:105730000E4916F06AF92420044A936A6FEA03437B
:105740006FEA1343936210BD1D20CBE700ED00E02C
:105750009A0C02087CE70108B20C0208C50C02088A
:10576000DF0C0208FD0C0208220D02083C0D0208A5
:1057700070B506460D46284C2849294816F045F9CB
:10578000A36AD9043CD52648264916F03EF91720CD
:10579000A36A1A0504D52248234916F036F91820C1
:1057A0001D4CA36A9B0512D51D48204916F02DF902
:1057B000A36BA26A100409D51D4A1948012115F0EE
:1057C000ABFE1EB1A36A23F40043A3621920124C5E
:1057D000A36A590504D51248164916F016F91A207D
:1057E000A36ADA050ED50E48134916F00EF91B20F0
:1057F000094A936A43F47F43936200232B7070BD80
:105800001620C5E7A36A9B04F2D505480B4916F09C
:10581000FCF81C20ECE700BF00ED00E0670D02087B
:105820007CE701087D0D02088E0D0208A10D02081B
:10583000BA0D0208CF0D0208EA0D0208020E020896
:105840002DE9F843804689461746354D3549364897
:1058500016F0DBF8AB6ADE0627D53449324816F07D
:10586000D4F81124AB6A1D0704D531492E4816F02F
:10587000CCF812242A4DAB6A980718D52D492A482E
:1058800016F0C3F86E6BAB6A190646D52A4A26484D
:105890003346012115F040FEB9F1000F03D0AB6A89
:1058A00023F08003AB62132403E01024DAE76FF0E7
:1058B00015061B4DAB6ADA0704D520491A4816F0C5
:1058C000A4F81424AB6A9B0604D51D49164816F0AB
:1058D0009CF81524124B9A6AD50602D49A6A90074E
:1058E0000AD55B68190507D54146304600F0DAF95C
:1058F00010B180F309880224094B9A6A920642BFCC
:105900005A6A22F400525A629A6A42F0FF029A627C
:1059100000233B702046BDE8F8836FF01506C2E710
:1059200000ED00E0310E02087CE70108470E020896
:105930008E0D02087A0E0208920E0208A80E0208C6
:10594000020E02082DE9F041684B8AB0D3F80480BA
:1059500000AF0446C8F30806002585F31188BFF39D
:105960006F8F02F07F43B3F17F4F07D102F00C033A
:10597000082B12D15E495F4816F047F800252C46E7
:105980000023FB71F31E092B00F28F80DFE803F088
:105990000A8588818D8D8D8D8D8B10074CBF0C46AF
:1059A0000125EDE754495348504E16F02EF80023D8
:1059B000FB71F36A9A0705D550494E4816F025F851
:1059C00000232DE0F36A002B01DA4D49F5E7F36A75
:1059D0005B00F5D54B49474816F017F87369A26983
:1059E00043F480737361BFF34F8FBFF36F8F32F84F
:1059F000023C726922F480727261BFF34F8FBFF371
:105A00006F8F03F47F42B2F55F4F2BD1DBB2022BD5
:105A100028D123683C4A3748012115F07DFD2368D1
:105A2000FA79DAB907F1080604F1200C20686168F8
:105A3000324603C2083464451646F7D17A6A002D0F
:105A400050D0C2F3080121B96FEA52226FEA422214
:105A50007A6207F108011846FFF7B6FD2837BD4600
:105A6000BDE8F081214B9A6AD2B22AB1FA1D012118
:105A70002046FFF7E5FE0EE09A6A12F47F4F04D04D
:105A8000F91D0120FFF774FE05E09B6AB3F5803F26
:105A900096D3FFF719FE0346C2E7FA1D0021E7E798
:105AA000F91D0020EEE7194987E7194A194B18F448
:105AB000F87FE8468AB008BF13466A461649CDE922
:105AC00005134FF40073ADF82030103E134B0796CA
:105AD00042F8103F074800234FF41151FEF728F811
