:020000040800F2
:10000000E8010120BD59000861B80108A95900089C
:10001000A9590008A9590008A959000800000000C2
:10002000000000000000000000000000F15900087E
:10003000A959000800000000E15B0008B191000828
:10004000715C0008715C0008715C0008715C00085C
:10005000715C0008715C0008715C0008715C00084C
:10006000715C0008715C0008715C0008715C00083C
:10007000715C0008715C0008715C0008715C00082C
:10008000715C0008715C0008715C0008715C00081C
:10009000715C0008715C0008715C0008715C00080C
:1000A000715C0008715C0008715C0008715C0008FC
:1000B000715C0008715C0008715C0008715C0008EC
:1000C000715C0008715C0008715C0008715C0008DC
:1000D000715C0008715C0008715C0008715C0008CC
:1000E000715C0008715C0008715C0008715C0008BC
:1000F000715C0008715C0008715C0008715C0008AC
:10010000715C0008715C0008715C0008715C00089B
:10011000715C0008715C0008715C0008715C00088B
:10012000715C0008715C0008715C0008715C00087B
:10013000715C0008715C0008715C0008715C00086B
:10014000715C0008715C0008715C0008715C00085B
:10015000715C0008715C0008715C0008715C00084B
:08016000715C0008715C0008ED
:1001700001F0FF01102A2BDB10F0070F08D010F858
:10018000013B013A8B422DD010F0070F42B3F6D15C
:10019000F0B441EA012141EA014122F007047FF075
:1001A00000070023F0E80256083C85EA010586EACC
:1001B000010685FA47F5A3FA87F586FA47F6A5FA08
:1001C00087F68EB9EED1F0BC01F0FF0102F0070214
:1001D00032B110F8013B013A83EA010313B1F8D1BF
:1001E0000020704701387047002D06BF35460338A0
:1001F000073815F0010F07D1013015F4807F02BFD9
:10020000013015F4C03F0130F0BC0138704700BF29
:1002100081F0004102E000BF83F0004330B54FEAB7
:1002200041044FEA430594EA050F08BF90EA020F24
:100230001FBF54EA000C55EA020C7FEA645C7FEAB7
:10024000655C00F0E2804FEA5454D4EB5555B8BFDA
:100250006D420CDD2C4480EA020281EA030382EA4B
:10026000000083EA010180EA020281EA0303362DDD
:1002700088BF30BD11F0004F4FEA01314FF4801CB0
:100280004CEA113102D0404261EB410113F0004FC2
:100290004FEA03334CEA133302D0524263EB430379
:1002A00094EA050F00F0A780A4F10104D5F1200E17
:1002B0000DDB02FA0EFC22FA05F2801841F1000172
:1002C00003FA0EF2801843FA05F359410EE0A5F146
:1002D00020050EF1200E012A03FA0EFC28BF4CF077
:1002E000020C43FA05F3C01851EBE37101F000452D
:1002F00007D54FF0000EDCF1000C7EEB00006EEB3A
:100300000101B1F5801F1BD3B1F5001F0CD34908C3
:100310005FEA30004FEA3C0C04F101044FEA44521A
:1003200012F5800F80F09A80BCF1004F08BF5FEAA1
:10033000500C50F1000041EB045141EA050130BD81
:100340005FEA4C0C404141EB0101013C28BFB1F593
:10035000801FE9D291F0000F04BF01460020B1FADE
:1003600081F308BF2033A3F10B03B3F120020CDAB1
:100370000C3208DD02F1140CC2F10C0201FA0CF08F
:1003800021FA02F10CE002F11402D8BFC2F1200CF4
:1003900001FA02F120FA0CFCDCBF41EA0C019040AA
:1003A000E41AA2BF01EB0451294330BD6FEA0404F3
:1003B0001F3C1CDA0C340EDC04F11404C4F12002DE
:1003C00020FA04F001FA02F340EA030021FA04F3F0
:1003D00045EA030130BDC4F10C04C4F1200220FA47
:1003E00002F001FA04F340EA0300294630BD21FA85
:1003F00004F0294630BD94F0000F83F4801306BF4B
:1004000081F480110134013D4EE77FEA645C18BF3E
:100410007FEA655C29D094EA050F08BF90EA020FD5
:1004200005D054EA000C04BF1946104630BD91EACD
:10043000030F1EBF0021002030BD5FEA545C05D1D0
:100440004000494128BF41F0004130BD14F580040F
:100450003CBF01F5801130BD01F0004545F0FE4183
:1004600041F470014FF0000030BD7FEA645C1ABFB8
:10047000194610467FEA655C1CBF0B46024650EAEF
:10048000013406BF52EA033591EA030F41F400211B
:1004900030BD00BF90F0000F04BF0021704730B5A1
:1004A0004FF4806404F132044FF000054FF0000176
:1004B00050E700BF90F0000F04BF0021704730B537
:1004C0004FF4806404F1320410F0004548BF40420C
:1004D0004FF000013EE700BF42004FEAE2014FEA61
:1004E00031014FEA02701FBF12F07F4393F07F4F3C
:1004F00081F06051704732F07F4208BF704793F03F
:100500007F4F04BF41F40021704730B54FF4607451
:1005100001F0004521F000411CE700BF50EA010254
:1005200008BF704730B54FF000050AE050EA0102FD
:1005300008BF704730B511F0004502D5404261EB6D
:1005400041014FF4806404F132045FEA915C3FF4AE
:10055000D8AE4FF003025FEADC0C18BF03325FEA4B
:10056000DC0C18BF033202EBDC02C2F1200300FAFC
:1005700003FC20FA02F001FA03FE40EA0E0021FA21
:1005800002F11444BDE600BF70B54FF0FF0C4CF40F
:10059000E06C1CEA11541DBF1CEA135594EA0C0FC1
:1005A00095EA0C0F00F0DEF82C4481EA030621EAFC
:1005B0004C5123EA4C5350EA013518BF52EA033537
:1005C00041F4801143F4801338D0A0FB02CE4FF0E9
:1005D0000005E1FB02E506F00042E0FB03E54FF019
:1005E0000006E1FB03569CF0000F18BF4EF0010E11
:1005F000A4F1FF04B6F5007F64F5407404D25FEA0D
:100600004E0E6D4146EB060642EAC62141EA5551BF
:100610004FEAC52040EA5E504FEACE2EB4F1FD0C01
:1006200088BFBCF5E06F1ED8BEF1004F08BF5FEA7F
:10063000500E50F1000041EB045170BD06F0004631
:1006400046EA010140EA020081EA0301B4EB5C04DE
:10065000C2BFD4EB0C0541EA045170BD41F48011D6
:100660004FF0000E013C00F3AB8014F1360FDEBFFB
:10067000002001F0004170BDC4F10004203C35DAD7
:100680000C341BDC04F11404C4F1200500FA05F35A
:1006900020FA04F001FA05F240EA020001F00042FB
:1006A00021F0004110EBD37021FA04F642EB060171
:1006B0005EEA430E08BF20EAD37070BDC4F10C049B
:1006C000C4F1200500FA04F320FA05F001FA04F25F
:1006D00040EA020001F0004110EBD37041F100014B
:1006E0005EEA430E08BF20EAD37070BDC4F1200556
:1006F00000FA05F24EEA020E20FA04F301FA05F2BE
:1007000043EA020321FA04F001F0004121FA04F265
:1007100020EA020000EBD3705EEA430E08BF20EA35
:10072000D37070BD94F0000F0FD101F0004640006F
:1007300041EB010111F4801F08BF013CF7D041EAF1
:10074000060195F0000F18BF704703F000465200F5
:1007500043EB030313F4801F08BF013DF7D043EAC6
:100760000603704794EA0C0F0CEA135518BF95EA7C
:100770000C0F0CD050EA410618BF52EA4306D1D103
:1007800081EA030101F000414FF0000070BD50EA22
:10079000410606BF1046194652EA430619D094EAAC
:1007A0000C0F02D150EA013613D195EA0C0F05D196
:1007B00052EA03361CBF104619460AD181EA0301EA
:1007C00001F0004141F0FE4141F470014FF00000A2
:1007D00070BD41F0FE4141F4780170BD70B54FF03D
:1007E000FF0C4CF4E06C1CEA11541DBF1CEA1355BD
:1007F00094EA0C0F95EA0C0F00F0A7F8A4EB05049F
:1008000081EA030E52EA03354FEA013100F0888095
:100810004FEA03334FF0805545EA131343EA12635E
:100820004FEA022245EA111545EA10654FEA002613
:100830000EF000419D4208BF964244F1FD0404F5CC
:10084000407402D25B084FEA3202B61A65EB030528
:100850005B084FEA32024FF480104FF4002CB6EBE5
:10086000020E75EB030E22BFB61A754640EA0C0065
:100870005B084FEA3202B6EB020E75EB030E22BFA5
:10088000B61A754640EA5C005B084FEA3202B6EBE6
:10089000020E75EB030E22BFB61A754640EA9C00A5
:1008A0005B084FEA3202B6EB020E75EB030E22BF75
:1008B000B61A754640EADC0055EA060E18D04FEA33
:1008C000051545EA16754FEA06164FEAC30343EAD3
:1008D00052734FEAC2025FEA1C1CC0D111F4801FA0
:1008E0000BD141EA00014FF000004FF0004CB6E799
:1008F00011F4801F04BF01430020B4F1FD0C88BF38
:10090000BCF5E06F3FF6AFAEB5EB030C04BFB6EB42
:10091000020C5FEA500C50F1000041EB045170BD35
:100920000EF0004E4EEA113114EB5C04C2BFD4EB62
:100930000C0541EA045170BD41F480114FF0000EE6
:10094000013C90E645EA060E8DE60CEA135594EA62
:100950000C0F08BF95EA0C0F3FF43BAF94EA0C0F65
:100960000AD150EA01347FF434AF95EA0C0F7FF4DA
:1009700025AF104619462CE795EA0C0F06D152EA2E
:1009800003353FF4FDAE1046194622E750EA410612
:1009900018BF52EA43067FF4C5AE50EA41047FF423
:1009A0000DAF52EA43057FF4EBAE12E74FEA410286
:1009B00012F5001215D211D56FF47873B3EB6252B1
:1009C00012D94FEAC12343F0004343EA505311F0D8
:1009D000004F23FA02F018BF404270474FF000006A
:1009E000704750EA013005D111F0004008BF6FF0A8
:1009F000004070474FF00000704700BF80F000409B
:100A000002E000BF81F0004142001FBF5FEA4103E6
:100A100092EA030F7FEA226C7FEA236C6AD04FEAE6
:100A20001262D2EB1363C1BFD2184140484041402B
:100A3000B8BF5B42192B88BF704710F0004F40F4DD
:100A4000000020F07F4018BF404211F0004F41F4F9
:100A5000000121F07F4118BF494292EA030F3FD0C5
:100A6000A2F1010241FA03FC10EB0C00C3F12003D8
:100A700001FA03F100F0004302D5494260EB400067
:100A8000B0F5000F13D3B0F1807F06D340084FEAD2
:100A9000310102F10102FE2A51D2B1F1004F40EBC7
:100AA000C25008BF20F0010040EA0300704749002F
:100AB00040EB0000013A28BFB0F5000FEDD2B0FACC
:100AC00080FCACF1080CB2EB0C0200FA0CF0AABFEF
:100AD00000EBC25052421843BCBFD040184370478D
:100AE00092F0000F81F4000106BF80F40000013293
:100AF000013BB5E74FEA41037FEA226C18BF7FEA6A
:100B0000236C21D092EA030F04D092F0000F08BFAB
:100B10000846704790EA010F1CBF0020704712F092
:100B20007F4F04D1400028BF40F00040704712F1D1
:100B300000723CBF00F50000704700F0004343F036
:100B4000FE4040F4000070477FEA226216BF08466C
:100B50007FEA23630146420206BF5FEA412390EA2F
:100B6000010F40F4800070474FF0000304E000BF25
:100B700010F0004348BF40425FEA000C08BF7047D6
:100B800043F0964301464FF000001CE050EA01029A
:100B900008BF70474FF000030AE000BF50EA0102AF
:100BA00008BF704711F0004302D5404261EB41019C
:100BB0005FEA010C02BF84460146002043F0B643C1
:100BC00008BFA3F18053A3F50003BCFA8CF2083AE6
:100BD000A3EBC25310DB01FA02FC634400FA02FCEF
:100BE000C2F12002BCF1004F20FA02F243EB0200F6
:100BF00008BF20F00100704702F1200201FA02FC58
:100C0000C2F1200250EA4C0021FA02F243EB02004A
:100C100008BF20EADC7070474FF0FF0C1CEAD0528E
:100C20001EBF1CEAD15392EA0C0F93EA0C0F6FD04F
:100C30001A4480EA010C400218BF5FEA41211ED02D
:100C40004FF0006343EA501043EA5111A0FB013119
:100C50000CF00040B1F5000F3EBF490041EAD371EE
:100C60005B0040EA010062F17F02FD2A1DD8B3F16A
:100C7000004F40EBC25008BF20F00100704790F0D9
:100C8000000F0CF0004C08BF49024CEA502040EA2B
:100C900051207F3AC2BFD2F1FF0340EAC2507047F1
:100CA00040F400004FF00003013A5DDC12F1190F2F
:100CB000DCBF00F000407047C2F10002410021FAA1
:100CC00002F1C2F1200200FA02FC5FEA310040F1B9
:100CD000000053EA4C0308BF20EADC70704792F032
:100CE000000F00F0004C02BF400010F4000F013A6A
:100CF000F9D040EA0C0093F0000F01F0004C02BF65
:100D0000490011F4000F013BF9D041EA0C018FE7D3
:100D10000CEAD15392EA0C0F18BF93EA0C0F0AD0D9
:100D200030F0004C18BF31F0004CD8D180EA0100FF
:100D300000F00040704790F0000F17BF90F0004F98
:100D4000084691F0000F91F0004F14D092EA0C0F7A
:100D500001D142020FD193EA0C0F03D14B0218BF0D
:100D6000084608D180EA010000F0004040F0FE4053
:100D700040F40000704740F0FE4040F440007047EF
:100D80004FF0FF0C1CEAD0521EBF1CEAD15392EA6E
:100D90000C0F93EA0C0F69D0A2EB030280EA010C5E
:100DA00049024FEA402037D04FF0805343EA1111F7
:100DB00043EA10130CF000408B4238BF5B0042F155
:100DC0007D024FF4000C8B4224BF5B1A40EA0C00FA
:100DD000B3EB510F24BFA3EB510340EA5C00B3EB2C
:100DE000910F24BFA3EB910340EA9C00B3EBD10F1A
:100DF00024BFA3EBD10340EADC001B0118BF5FEA6C
:100E00001C1CE0D1FD2A3FF650AF8B4240EBC25094
:100E100008BF20F0010070470CF0004C4CEA502055
:100E20007F32C2BFD2F1FF0340EAC250704740F4A4
:100E300000004FF00003013A37E792F0000F00F096
:100E4000004C02BF400010F4000F013AF9D040EA14
:100E50000C0093F0000F01F0004C02BF490011F4A8
:100E6000000F013BF9D041EA0C0195E70CEAD153A0
:100E700092EA0C0F08D142027FF47DAF93EA0C0F87
:100E80007FF470AF084676E793EA0C0F04D14B026B
:100E90003FF44CAF08466EE730F0004C18BF31F01D
:100EA000004CCAD130F000427FF45CAF31F0004317
:100EB0007FF43CAF5FE700BF4FEA4002B2F1FE4F64
:100EC0000FD34FF09E03B3EB12620DD94FEA00230C
:100ED00043F0004310F0004F23FA02F018BF4042E5
:100EE00070474FF00000704712F1610F01D14202CC
:100EF00005D110F0004008BF6FF0004070474FF080
:100F0000000070477BB972B90029BEBF00204FF0C6
:100F1000004106E008BF00281CBF6FF000414FF001
:100F2000FF3000F057B8ADF1080C6DE904CE002990
:100F300009DB002B1ADB00F07CF8DDF804E0DDE9CA
:100F4000022304B07047404261EB4101002B1BDBE0
:100F500000F06FF8DDF804E0DDE9022304B0404260
:100F600061EB4101524263EB43037047524263EB32
:100F7000430300F05EF8DDF804E0DDE9022304B08D
:100F8000404261EB41017047524263EB430300F082
:100F900050F8DDF804E0DDE9022304B0524263EBCF
:100FA0004303704753B94AB9002908BF00281CBF42
:100FB0004FF0FF314FF0FF3000F00CB8ADF1080CEE
:100FC0006DE904CE00F035F8DDF804E0DDE9022338
:100FD00004B07047704700BF10F8012B11F8013BB7
:100FE000012A28BF9A42F7D0D01A7047034611F859
:100FF000012B03F8012B002AF9D17047034613F89F
:10100000012B002AFBD1181A01387047430803F05E
:101010005533C01A00F03333800800F033301844E1
:1010200000EB10104FF0013300F00F305843000E6A
:1010300070472DE9F0478C468E46089E15460446BB
:101040001946002B40F0D080724547D9B2FA82F79A
:101050004FB1C7F120030EFA07FC20FA03F3BD409D
:1010600043EA0C0CBC404FEA154EA8B2BCFBFEF89C
:10107000230C0EFB18CC08FB00F943EA0C439945FE
:1010800028D9EB1808F1FF3204D2994502D9A8F10A
:1010900002022B44A3EB0903A4B2B3FBFEFC0EFB3C
:1010A0001C330CFB00F044EA0344A04214D92C1971
:1010B0000CF1FF3304D2A04202D9ACF102032C445C
:1010C000241A43EA02401EB1FC40002334607360DE
:1010D000BDE8F0874246DDE76346F1E7002A79D0B4
:1010E000B2FA82F3002B3FD01946C1F1200302FA75
:1010F00001F52EFA03F20EFA01FE20FA03F343EA99
:101100000E034FEA154E00FA01F4B2FBFEFCAFB23B
:101110000EFB1C201A0C0CFB07F842EA004290451B
:101120005AD9AA180CF1FF3004D2904502D9ACF17B
:1011300002002A44A2EB08029BB2B2FBFEFC0EFBAB
:101140001C220CFB07F743EA02439F4246D9EB18E7
:101150000CF1FF3204D29F4202D9ACF102022B44BF
:10116000DB1B42EA004202E0AEEB020301224FEA3F
:10117000154EAFB2B3FBFEFC200C0EFB1C330CFB78
:1011800007F840EA034398452AD9EB180CF1FF30E1
:1011900004D2984502D9ACF102002B44A3EB08031A
:1011A000A4B2B3FBFEFC0EFB1C330CFB07F744EAB6
:1011B0000344A74216D92C190CF1FF3304D2A742DD
:1011C00002D9ACF102032C44E41B43EA00400F4671
:1011D000114678E71F2188E76046ABE76246BFE724
:1011E0006046DBE76346EFE7734506D916B9002191
:1011F00008466DE7C6E9000EF9E7B3FA83F787B949
:10120000734501D3824207D8841A6EEB0303012091
:101210009C461EB900215BE73846FAE7C6E9004C58
:10122000F8E7C7F1200CBB4022FA0CF51D4320FA69
:101230000CF12EFA0CF30EFA07FE41EA0E014FEA0A
:10124000154900FA07F4B3FBF9F81FFA85FE09FB0C
:1012500018300B0C08FB0EFA43EA00439A4502FAD9
:1012600007F240D9EB1808F1FF3004D29A4502D9B1
:10127000A8F102002B44A3EB0A0389B2B3FBF9F8EF
:1012800009FB183308FB0EFE41EA03418E452CD9B9
:10129000691808F1FF3304D28E4502D9A8F1020380
:1012A000294443EA0040A0FB0298A1EB0E0141450E
:1012B000CE46434602D306D14C4504D2B9EB020ECA
:1012C00068EB05030138002EA4D0B4EB0E0261EBED
:1012D000030101FA0CFC22FA07F34CEA0303F9407C
:1012E000C6E9003196E74046C5E74346D9E7000026
:1012F0002DE9F04FDFF870B15C485D4EDFF8748186
:10130000DFF874A185B019F059F95946574819F01A
:1013100050F95A4819F052F93146584819F049F92C
:10132000574819F04BF94146554819F042F9706891
:10133000FFF7C0F846A3D3E90023FFF74FFA0446AE
:1013400030680D46FFF7B6F802460B4620462946A0
:10135000FEF764FF0646D8F804000F46FFF7AAF828
:101360003BA3D3E90023FFF739FA0446D8F800007D
:101370000D46FFF79FF802460B4620462946FEF72A
:101380004DFFCDE90201DBF80400DAF82040FFF759
:1013900091F82FA3D3E90023FFF720FA8046DBF86A
:1013A00000008946FFF786F802460B46404649464C
:1013B000FEF734FF28A3D3E90023FFF7E5F8314B0C
:1013C0000022FFF70BFA24A3D3E90023C4E90001AC
:1013D00030463946FFF7D8F82A4BDAF82080002249
:1013E000FFF7FCF91CA3D3E90023C8E90201DDE9FA
:1013F0000201FFF7C9F8234BDAF820600022FFF75B
:10140000EDF9C6E90401DAF8201000220023C1E951
:101410000623DAF82010C1E908230BF02DFF10A3F2
:10142000D3E90023FFF7BEFD5146CAE90002164882
:1014300000220AF02DFC38B1144A009040F23D130E
:101440001348022119F0A4FF05B0BDE8F08F00BFDA
:101450000000000080842E41182D4454FB210940D7
:1014600000CA9A3B0000000058730020E4DF010826
:1014700050730020487300200073002000E0010832
:101480001CE0010800806640447300205EFE0108F5
:10149000B8E501080000000070B505460E460BF0E7
:1014A000EBFE0DA3D3E90023FFF77CFD084C294692
:1014B000C4E9000204F1180026720CF00DFB21466D
:1014C0000448BDE8704000220AF0E2BBAFF30080A0
:1014D00060730020A073002000CA9A3B0000000047
:1014E0002DE9F04FC1B018B3036A0BB3426A052A65
:1014F00024D093496846FFF779FD914A9148924D6F
:10150000012119F048F868462821FFF7C5FF28682F
:1015100070B119F03EF858B16C4614F8011B2868F8
:1015200049B90D2119F032F828680A2119F02EF86E
:1015300041B0BDE8F08F19F029F8EEE7D3E9004596
:10154000D3E90289D3E904671CF0DFF900230A22FA
:10155000FFF728FDDFF8F4A17D4BC3E900019AF8FD
:10156000001059BB7B4B186819F02CF801237A49FD
:101570008AF800306846FFF739FD774A7148DFF88E
:10158000C8B1032119F007F868461421FFF784FF5A
:10159000DBF8000090B118F0FCFF78B1EA461AF8C9
:1015A000011BDBF80000002940F0B5800D2118F088
:1015B000EDFFDBF800000A2118F0E8FF5EA3D3E995
:1015C000002320462946FEF7DFFFDFF890A1FFF752
:1015D000EDF9DAF80010624B411A0546186818F068
:1015E000D2FF0446002800F09C8003465D4A4FF479
:1015F0008071684618F0BEFC5A4A5248524D234644
:10160000012119F0BBFE68462821FFF745FF286835
:1016100078B118F0BEFF60B16C4614F8011B286861
:1016200000297BD10D2118F0B1FF28680A2118F09C
:10163000ADFF41A3D3E9002340464946FEF7A4FF8E
:10164000DFF82481FFF7B2F9D8F80010474B411AB0
:101650000546186818F097FF0446002867D003462F
:10166000434A4FF48071684618F084FC404A35487C
:10167000354D2346012119F081FE68462821FFF7E8
:101680000BFF286878B118F084FF60B16C4614F83D
:10169000011B2868002947D10D2118F077FF286821
:1016A0000A2118F073FF24A3D3E9002330463946FA
:1016B000FEF76AFF2F4EFFF779F931682E4B411A7A
:1016C0000546186818F05FFF044698B303462B4A96
:1016D0004FF48071684618F04DFC284A19481A4D9D
:1016E0002346012119F04AFE68462821FFF7D4FE5F
:1016F000286800283FF41CAF18F04BFF00283FF487
:1017000017AF6C4614F8011B286800293FF409AF95
:1017100018F03CFFF6E718F039FF40E718F036FF05
:101720007BE7CAF8005084E718F030FFAFE7C8F84D
:101730000050B8E73560FBE6CDCCCCCCCCD47F40B4
:10174000B4FE0108B8E50108EC7300207A8200209D
:10175000801F002044740020E5FE01084074002032
:1017600050740020F9FE01083C7400204C740020E5
:1017700012FF010838740020487400202BFF010874
:10178000F0B5A04CA048FDB0206018F002FF20B1D9
:101790009E4D15F8011B002935D19D493CA8FFF746
:1017A00025FC9B4A9B48032118F0F5FE3CA8142118
:1017B000FFF772FE206850BB974D9848286018F0DC
:1017C000E8FE00283AD196493CA8FFF70FFC944A5E
:1017D0009048012118F0DFFE3CA82821FFF75CFEAD
:1017E000206870B118F0D5FE58B13CAD15F8011B5A
:1017F000206801BB0D2118F0C9FE20680A2118F0ED
:10180000C5FE0020DDE1206818F0C0FEC1E718F039
:10181000C0FE0028D0D03CAD15F8011B206839B9B6
:101820000D2118F0B3FE20680A2118F0AFFEC3E7BF
:1018300018F0ACFEF0E718F0A9FED7E728680269B7
:1018400081681368774F23F4005313600B684FF4DB
:10185000C0220D2198472868012118F0B3FE724874
:10186000386018F096FEE0B970493CA8FFF7BEFB5F
:101870006E4A6848012118F08EFE3CA82821FFF727
:101880000BFE20680028BCD018F083FE0028B8D0DA
:101890003CAD15F8011B20680029ABD018F076FE8E
:1018A000F7E7634E6348306018F073FEE0B96249B1
:1018B0003CA8FFF79BFB604A5648012118F06BFEDD
:1018C0003CA82821FFF7E8FD2068002899D018F0EF
:1018D00060FE002895D03CAD15F8011B206800295A
:1018E00088D018F053FEF7E7544D5548286018F09B
:1018F00050FEF8B953493CA8FFF778FB514A4548D8
:10190000012118F048FE3CA82821FFF7C5FD2068FA
:1019100000283FF476AF18F03CFE00283FF471AF8A
:101920003CAD15F8011B206800293FF463AF18F0A7
:101930002DFEF6E74449386818F035FE386818F08F
:101940002CFE386800F0A4FE4049306818F02BFEE9
:10195000306818F022FE306800F09AFE3C49286892
:1019600018F021FE286818F018FE286800F090FE94
:10197000384818F00EFEF8B937493CA8FFF736FB97
:10198000354A2448012118F006FE3CA82821FFF71B
:1019900083FD206800283FF434AF18F0FAFD0028DA
:1019A0003FF42FAF3CAD15F8011B206800293FF430
:1019B00021AF18F0EBFDF6E7284818F0EAFD002803
:1019C00050D127493CA8FFF711FB254A11480121B6
:1019D00018F0E1FD3CA82821FFF75EFD20680028F3
:1019E0003FF40FAF18F0D5FD00283FF40AAF3CAD2F
:1019F00015F8011B206800293FF4FCAE18F0C6FD65
:101A0000F6E700BFEC73002020DF010844FF010867
:101A10004CFF0108B8E501084474002094DE010879
:101A200084FF010850740020C4E001089AFF0108F7
:101A30004C740020E0E00108B4FF01084874002065
:101A4000FCE00108CEFF0108A5260008B526000825
:101A500081260008E4DF0108E8FF010800E0010832
:101A600002000208A74818F094FDF8B9A6493CA85E
:101A7000FFF7BCFAA44AA548012118F08CFD3CA848
:101A80002821FFF709FD206800283FF4BAAE18F0BE
:101A900080FD00283FF4B5AE3CAD15F8011B206871
:101AA00000293FF4A7AE18F071FDF6E798493CA86D
:101AB000FFF79CFA964A9548032118F06CFD3CA864
:101AC0001421FFF7E9FC206878B118F062FD60B1DD
:101AD0003CAD15F8011B2068002974D10D2118F0C8
:101AE00055FD20680A2118F051FD8A4818F051FD73
:101AF00000286ED188493CA8FFF778FA864A8348C7
:101B0000012118F048FD3CA82821FFF7C5FC2068FA
:101B100078B118F03EFD60B13CAD15F8011B2068AE
:101B2000002953D10D2118F031FD20680A2118F049
:101B30002DFD7A4B01937A4B7A4A7B490093012021
:101B40007A4B0BF0E1F906A80BF036F900250022DC
:101B500006AB11460BA80BF007F80646002858D133
:101B600073493CA8FFF742FA714A6848032118F00C
:101B700012FD3CA81421FFF78FFC206878B118F003
:101B800008FD60B13CAD15F8011B206800293DD16E
:101B90000D2118F0FBFC20680A2118F0F7FC654ABB
:101BA00065490BAB04A80BF029F800286CD04FF462
:101BB000DC7300905548614A012119F0E9FB4FF0B0
:101BC000FF307DB0F0BD18F0E1FC82E718F0DEFCDC
:101BD000A3E75B493CA8FFF709FA594A4B480321A0
:101BE00018F0D9FC3CA81421FFF756FC2068002807
:101BF0009FD018F0CEFC00289BD03CAD15F8011BFF
:101C0000206800298ED018F0C1FCF7E718F0BEFC60
:101C1000B9E7013503464B4A00954FF480713CA863
:101C200018F0A8F9474A394800953346022119F0BF
:101C3000AFFB1E213CA8FFF72FFC42F210700021E1
:101C40001BF0B3FD0A2D82D13F493CA8FFF7CEF926
:101C50003D4A2E48012118F09EFC3CA82821FFF7A0
:101C60001BFC206800283FF4CCAD18F092FC002843
:101C70003FF4C7AD3CAD15F8011B206800293FF4C7
:101C8000B9AD18F083FCF6E7304D04A800F01AFD5A
:101C900028460CF039F8052105F114000BF04AFF35
:101CA000052105F120000BF05FFE052105F138004C
:101CB0000BF05AFE264968690BF00EFF686925494A
:101CC0000C300BF009FF6869234918300BF004FF52
:101CD0006869224924300BF0FFFE686920493030E2
:101CE0000BF0FAFE0523AB616B620CF091F81D4B13
:101CF000024604A91C480AF0BDFFB8B340F2DD1348
:101D0000009057E71CE001081C000208B8E5010834
:101D100036000208C8DF01085000020859A2000876
:101D200025A2000801A10008F872002055D301087F
:101D3000820002084BFF0108AE0002085EFE0108A7
:101D40006B000208C9000208F700020800730020B7
:101D50003F010208470102084F010208570102082B
:101D60005F01020881020208447300207A493CA8FE
:101D7000FFF73CF9784A7948032118F00CFC3CA89D
:101D80001421FFF789FB206870B118F002FC58B1EC
:101D90003CAD15F8011B2068B9B90D2118F0F6FB10
:101DA00020680A2118F0F2FB6D4B0093012668A30E
:101DB000D3E9002301960BA903A80AF0C3FF054647
:101DC00030B14FF4F2730090F4E618F0DFFBE0E777
:101DD00064480BF099FF052163480BF0ABFE052129
:101DE000064662480BF0C0FD0521064060480BF036
:101DF000BBFDF6B206405F480BF0E6FD06B1F8B950
:101E00005D493CA8FFF7F2F85B4A5448012118F0FD
:101E1000C2FB3CA82821FFF73FFB206800283FF4C5
:101E2000F0AC18F0B6FB00283FF4EBAC3CAD15F875
:101E3000011B206800293FF4DDAC18F0A7FBF6E792
:101E4000484E706928440BF0BFFD70694B49202251
:101E500028440BF017FEF8B949493CA8FFF7C6F82B
:101E6000474A3E48012118F096FB3CA82821FFF77D
:101E700013FB206800283FF4C4AC18F08AFB00284C
:101E80003FF4BFAC3CAD15F8011B206800293FF4BE
:101E9000B1AC18F07BFBF6E70C353C2DD1D13749BE
:101EA000344840220BF0EEFDF8B936493CA8FFF764
:101EB0009DF8344A2948012118F06DFB3CA82821DF
:101EC000FFF7EAFA206800283FF49BAC18F061FBAA
:101ED00000283FF496AC3CAD15F8011B20680029A2
:101EE0003FF488AC18F052FBF6E70BF091FF264B5D
:101EF000024604A925480AF0F1FE18B140F20A236F
:101F0000009057E618A80AF0DFFB06AB03220BA9E6
:101F100018A800F0E1F818B140F21623009049E645
:101F200000901B4B0F4A194918A80AF0D7FB18B1AB
:101F30004FF4067300903DE603A918A80AF022FCAE
:101F400040B34FF40873009034E600BFAFF3008055
:101F500000CA9A3B0000000067010208B8E50108CA
:101F6000F1120008A4730020B8730020C47300208D
:101F7000DC730020AC7300208B0102084BFF0108CA
:101F8000B4010208E401020812020208E87300200A
:101F9000E114000846493CA8FFF728F8444A4548A0
:101FA000454D032118F0F7FA3CA81421FFF774FA05
:101FB000206878B118F0EDFA60B13CAE16F8011B5C
:101FC000286800296AD10D2118F0E0FA28680A2152
:101FD00018F0DCFA39493CA8FFF708F8374A3548C9
:101FE000032118F0D8FA3CA81421FFF755FA20680D
:101FF00078B118F0CEFA60B13CAC14F8011B286837
:1020000000294ED10D2118F0C1FA28680A2118F0D4
:10201000BDFA2B4E2B4F2C4A002318A80AF040FC87
:102020003378002B35D01BF070FC0A220023FEF71A
:10203000B9FFD7E90032C01A40F2D17361EB020157
:10204000984271F1000124DB204B0121186818F03F
:10205000B9FA00231E4933703CA8FEF7C7FF1C4A9B
:102060001448032118F097FA3CA81421FFF714FA3A
:10207000286870B118F08DFA58B13CAC14F8011B07
:10208000286889B90D2118F081FA28680A2118F00A
:102090007DFA002164201BF088FBBCE718F076FA7B
:1020A0008CE718F073FAA8E718F070FAE6E700BFBB
:1020B00022020208B8E50108EC7300206102020860
:1020C0007A820020801F00208096980044740020AF
:1020D0008F0202080000000000285DD02DE9F043C7
:1020E0000C46B3B0002953D00546184616461F4685
:1020F0000AF070FE00284BD0002E49D02A499022C9
:102100000EA81BF0A8FC0EA9902228461BF0A3FCE9
:102110006C606846EE606C4611F0AEFF0FCC05F1C6
:10212000180CACE80F000FCCACE80F000FCCACE8FB
:102130000F000FF26C09D9E900892368CCF8003050
:10214000C5E91C896F613B683969B0019847A8608F
:1021500020B3002400E0A86800EB8410314601346D
:102160000AF0F2FCA642F6D105F14C000AF0E2FCBE
:102170000E49AA680023C5E920132AB16A691AB179
:10218000EA680AB185F88830002033B0BDE8F083F2
:102190000B2033B0BDE8F0830B2070470A20F8E72E
:1021A00000CA9A3B0000000058E701086DC3000810
:1021B000F0B593B01A9E8AB186B1044650B1D0F8FA
:1021C00080303BB1C0680F46154611F08DFB08B159
:1021D000237A3BB90125284613B0F0BD0B252846CC
:1021E00013B0F0BD04F1600EBEE80F000DF10C0C51
:1021F000ACE80F00DEF80030CCF8003003A80AF09D
:10220000E9FD0028EAD0206809F068FD002845D0E3
:102210006946E06811F0E8FB014600283BD1202226
:102220000DEB02001BF025FC25A3D3E90023DDE91B
:1022300000018DF82070FEF765FECDE90902DDE9A9
:102240001823CDE91023237A30687168B268012B16
:10225000F36808BF00250BAE012F0FC621D8D4F8B4
:1022600080302A4608A89D6903A90023A84706468E
:10227000002EAFD031462068002209F009FDD4F8C5
:1022800080300546DB6903A930469847002DA2D06F
:102290000AF0CAFD9FE70AF0C7FD9BE74FF4967569
:1022A00099E7B91E0129F6D8D4F880202B4608A852
:1022B000956903A90022A8470646D9E7AFF3008035
:1022C00000CA9A3B00000000002800F0C7812DE9F9
:1022D000F04F056B99B00446002D00F078819946C7
:1022E00043689246002B00F09580296C002900F08D
:1022F000AA80002318461E46226952F823206AB19C
:10230000E2686F691A4457F822203AB1296947F800
:1023100021202A6901322A61256B296C013340F1A1
:1023200000008B4270F10002E6D36FF00047CDE968
:102330000C66CDE90E665AEA09034FF0FF36CDE987
:102340001267CDE91467CDE916670DF1300B00F087
:102350008E80002900F046810025CDF8149027E0FA
:10236000CDE90867236908A953F8080011F058FE61
:1023700040F22133984200F0B480002860D1DDE9BA
:10238000072C1078DDF8248018AB03EBC00151E96D
:102390000893CC4578EB030304DA0DEB800041E9A8
:1023A00008C80263236B196C01358D4280F01881D7
:1023B000236953F825004FEA85080028F4D007A9BF
:1023C00011F058FD0346002840F006810798027876
:1023D000012AC5D10DF11B018DF81B3011F010FB46
:1023E000002840F0F9809DF81B30002BB8D02369FD
:1023F0008DF820000DF1200853F82500414611F01A
:10240000D5FD002840F0E8809DF82030002BC9D091
:10241000256B2EE0C368002B7FF467AF4369002B68
:102420007FF463AFC369002B7FF45FAF436A002B77
:102430007FF45BAFC36A002B7FF457AF40F2853067
:1024400019B0BDE8F08F6FF000434FF0FF32CDE9D7
:102450001223CDE91423CDE916235AEA0903CDE965
:102460000C11CDE90E110DF1300B40F0BB800DF1D8
:10247000200800220023CDE90823CDE90A234146A4
:102480000291EA6B05F13403CDE9003205F1100148
:1024900005F11C0305F12802281D14F067FD236BCC
:1024A0001A6C804612B300252F462E4607E022699B
:1024B00042F82530236B1A6C0135954217D22069FA
:1024C00050F8250007A90028F6D08DF81C6011F0FF
:1024D0006DFD0028B4D19DF81C30002BE7D01F46BD
:1024E000E8E72369002243F808205BE7174638F045
:1024F000020071D1656802463DB1996851F8221019
:10250000002937D00132AA42F7D3E5684DB1236BD9
:102510000022596951F82210002934D00132AA4210
:10252000F7D3E56945B1236B0022196A51F82210EF
:1025300091B30132AA42F8D3656A45B1236B0022F8
:10254000D96A51F8221081B30132AA42F8D3E56A60
:1025500045B1236B0022996B51F8221071B30132FF
:10256000AA42F8D3B8F1020F7FF46AAF87F00107EF
:10257000780065E7236843F82210656801329542C8
:10258000C3D9236BB9E7A36843F82210E568013289
:10259000AA42C6D2236BBCE7A36943F82210E569BF
:1025A0000132AA42C8D2236BBFE7236A43F8221044
:1025B000656A0132AA42CAD2236BC1E7A36A43F813
:1025C0002210E56A0132AA42CCD2236BC3E74FF452
:1025D000617019B0BDE8F08F012019B0BDE8F08F2F
:1025E000DDF81490BAF1010F79F100033ADB4FF0F6
:1025F000010810AD16AE5BF8040F08A9A8B111F0E0
:10260000F3F900287FF41CAF089AAB6809999B1A6C
:10261000EA6862EB01029A4579EB0201BABF5346C0
:102620004A464FF001089A4691460835AE42E2D13B
:10263000256BB8F1000F13D0B9F1000F0EA3D3E949
:102640000023ABBF5046002049460021FEF75AFC4C
:10265000CDE90801CDE90A2308A911E70B2070474D
:1026600041460DE74FF0FF3A6FF000494FF0000888
:10267000BFE700BFAFF3008000CA9A3B0000000034
:1026800011B9024808F098B9704700BFF0730020F4
:102690008368D96811B1024A00230847704700BF18
:1026A00060E3160011B9024808F086B9704700BF10
:1026B0002074002011B9024808F07EB9704700BFAD
:1026C0000874002030B50F4D9FB00446802028626A
:1026D00003F0C0FC0023EB61A86102AD284609F0BD
:1026E000AFFA09F01FFB21460246074B0748009549
:1026F00009F00EFA014610B1054818F0DEF91FB0D6
:1027000030BD00BF607300207CFE0108A073002074
:102710008BFE01082DE9F84F0B1FA3EB000988463B
:1027200002F007014FEAD90603F007030B3129F045
:1027300007090B44D408814404EBD3048368B9F837
:1027400002B09C4228BF1C461BF0010B00AF05469F
:1027500016D1EA4688B06A464A4BCDE905380323CC
:1027600042F8103F48485B464FF4C25101F018F957
:10277000D5468BF31188BFF36F8F0423184602DF11
:102780003146284617F02DFF304435F83030C01A56
:10279000864217D0EA4688B06A463C4BCDE90538F8
:1027A000032342F8103F384800234FF4C25101F090
:1027B000F7F80023D54683F31188BFF36F8F042306
:1027C000184602DF3146284617F00BFF8442824646
:1027D00022D026D234442846224617F0A7FFB9F863
:1027E000023043F00103A9F802302146284617F0D1
:1027F000F8FE261805EBC6035B88DB0708D43146D4
:10280000284617F037FF32462146284617F077FF53
:102810002146284617F0EAFE01221046BD46BDE8D3
:10282000F88F06EB000805EBC802528812F001028F
:1028300025D14146284617F0D4FE50448442ECD8B6
:10284000284617F017FF4146284617F0CAFEA4EBAA
:102850000A0A824507D23219284617F067FF114647
:10286000284617F0C3FE42463146284617F047FF78
:10287000B9F8023043F00103A9F80230CCE7002296
:10288000CBE700BFFF020208E8E5010823030208C6
:102890002DE9F84F8A4600AF002974D004680E1F56
:1028A000361BF50826F0070604EB0608B8F802B058
:1028B0001BF0010B16D1E94688B06A46334BCDE9CF
:1028C0000531032342F8103F31485B464FF4C251B3
:1028D00001F066F8CD468BF31188BFF36F8F0423A8
:1028E000184602DF2946204617F07BFE284434F8BC
:1028F0003030C01A854217D0E94688B06A46254B69
:10290000CDE9053A032342F8103F214800234FF454
:10291000C25101F045F80023CD4683F31188BFF37F
:102920006F8F0423184602DFB8F8023023F001034A
:10293000A8F802302946204617F053FE05EB0008A0
:1029400004EBC8035B88DA0708D44146204617F039
:1029500091FE42462946204617F0D1FEA65BAE1BEB
:1029600004EBC6035B88DB0709D43146204617F029
:1029700081FE2A463146204617F0C1FE35462946DB
:10298000204617F033FEBD46BDE8F88F4C03020821
:10299000E8E50108230302082DE9F04F91B0840710
:1029A000009302F004030293C2F3C20303F1010394
:1029B000DDF868A0039205460E46059340F09D8120
:1029C000041D00284AD101F00706341DC6F108068F
:1029D000009B00275A1E4FF004084FF0FF3301936D
:1029E0000497B946BB4643460DB10099216005984E
:1029F000002800F3D78090480099814203D38F4884
:102A00008142C0F0CF80039911F0020CA4EB0500C5
:102A100040F0D680B9F10F0F00F2CF80002D00F00A
:102A2000D68009F140010DEB010EC0F3870001993A
:102A30000EF8200C0EF8101CBCF1000F00F0C38043
:102A400060F07F000EF8200C013709F10109C5F193
:102A50000801043406914FF6DA7E8CE00729B7D8D6
:102A60006FF01B0011B0BDE8F08F7A285BD84B28BF
:102A70000FD8472857D829282ED8252850D052D8E3
:102A8000202818BF23280CBF4FF0010B4FF0000B7C
:102A900071E04C382E2846D8DFE800F06D454545FA
:102AA00045454545454545454845454545454545D3
:102AB00045564548485656566D486A456D4518482E
:102AC0001845457F7C48454548457C0000204FF02F
:102AD000000B4FF0040835E02A38C0B2012101FA9A
:102AE00000F010EA0E0F46D110F0625C2CD110EA13
:102AF000010B40D06046013C4444B4FBF8F408FBB1
:102B000004F425B1A3EB050CA444B445A8D80028CF
:102B100070D00599013905915AF8041B009163E7BB
:102B20000199013901914FF0000B24E012F8010CDA
:102B30006C2834D112F8023C00206C2B8346C8D19B
:102B40004FF008084346D6E70AF1070A2AF0070AB9
:102B50000734FAE802BC24F0070435B10698204493
:102B6000B0423FF67DAFC4E900BC08344FF0000B23
:102B70004FF00808434612F8010F002853D0BBF16C
:102B8000000F7FF472AF2528F5D1019B013301932B
:102B90004FF0010B4FF00408ECE7584697E7002090
:102BA0008346A8E7039988077FF551AF601B4FF074
:102BB000010CB0F5007FFFF42DAF6FF0150051E769
:102BC0004FF0000CF5E70498013004903DE7BCF1AC
:102BD000000F01D0013638E70298023600287FF452
:102BE00034AF0098CDE90632FEF708FADDE9063287
:102BF00006442AE7042B08D10AF1040015B1DAF8DB
:102C00000010216004348246B5E70AF1070323F07F
:102C1000070303F1080A1DB1D3E90001C4E900016B
:102C200008340823A7E7631BB3F5806FC5D23DB90D
:102C3000A6F10804E01815E770DC01087C20020802
:102C4000029A28609B082B709DF81030AAB1EB7097
:102C5000AF702FB108A80022C5F1010C91450ED12B
:102C6000C5F101030DF120084FF0000A01930DF1A9
:102C7000300BD14512D1601BF4E66B70E8E710F819
:102C8000013B190608D50CEB040EB64503F07F0393
:102C90003FF6E6AE04F8013B0132DFE71FB198F9D9
:102CA0000020002A17DB029BD3B11AF80B2004F88E
:102CB000012B0022019B18191044B0423FF6D0AE00
:102CC00098F8000004F8010B0099039220461AF0CE
:102CD000C2FE039A14440AF1010A08F10108C8E788
:102CE00098F8002055F822300093029B45F82230D6
:102CF0000098FEF783F9421CDCE76FF00D00B1E6A7
:102D00002DE9F04F97B000AFC7E90A3205468A4671
:102D100049B903784678807800EB8300284456450B
:102D200024D8A0EB050AD7F8803095F80280D7F8B0
:102D3000804003F00103FB61EB787B62B8F1000F88
:102D40000CBF002404F001041BB1D7F880309A07AF
:102D500015D4A4B9FB6A1BB1BA6A514628469847F4
:102D6000564630465C37BD46BDE8F08F441C2046D1
:102D7000FEF744F9013020440AF1010ACFE7D7F801
:102D80008030C3F3C0033B622B78BB619B003B6187
:102D90006B687B61BB6905EB830BFB6A002B77D10A
:102DA0005646D844BCB11C461BF8013B55F82300DD
:102DB000FEF724F9D7F88430013043B1D7F88830D2
:102DC000A34282BFD7F8843023F814000134C345EE
:102DD0000644E9D1D846D7F8803013F0050F0CBF70
:102DE0004FF0020B4FF0010B4FF000097B6A994541
:102DF000B7D298F8013055F823A0AE4B9A4508F1A8
:102E00000208C0F04B81AC4B3A6A9A452CBF0023B4
:102E100001230AB318F8021C7869FB6217F0F7FD6A
:102E2000FB6AC8B1EA468AB06A46A44B05937B693F
:102E3000CDE906314FF40073ADF82030A04B42F8D5
:102E4000103FA04800234FF4125100F0A9FD023EAC
:102E5000D54609F10109C9E723B1FB6933B9A6EBEE
:102E60000B06F6E7D7F880309B07F2D55046FEF701
:102E7000C5F8D7F884304BB1D7F888309C423FBFB3
:102E8000D7F88420431C22F8143001340644E0E7CC
:102E9000002C69D1B8F1000F6CD0D7F880305807FA
:102EA0006BD5C14607F14800424659461AF0D3FD9A
:102EB0000BEB0803FB6000220233796A8A425ED37F
:102EC000D7F8802095F801B0F969920704EB0B035D
:102ED000DBB254BF4FEA59020022002940F0A6801D
:102EE000D7F8801011F0040F14BF494600216B7011
:102EF000A970EA703969BA6AFB6A28469847061EC3
:102F0000FFF62FAFBB692B707B6AEB704946BA6A3C
:102F1000FB6A85F801B085F8028007F14800984700
:102F2000B0F10009C0F2B6803B697A6A786A03EBB7
:102F30004201FB68BA6A414403EB4000AAEB01017D
:102F4000FB6A98470028C0F2A780B14409EB00064D
:102F50004FF0000B07F1380AA34569D30021BA6A84
:102F6000FB6A08469847FCE6444607F138004FF0F4
:102F7000000999E74446C1469AE7A14698E713F845
:102F8000016CDFF830C155F8260013F8021C6045CB
:102F9000C0F08A80DFF820C16045386A2CBF4FF04E
:102FA000000B4FF0010B38B17869C7E9013217F017
:102FB0002EFDD7E90132F0B9BBF1000F1ED0F9693F
:102FC00049B1611C04F1280007F13004041904F828
:102FD000206CCCB20FE0D7F8801049070BD509F16F
:102FE000280007F1300C09F1010100EB0C0909F888
:102FF000106C5FFA81F9013202335EE7D7F8800086
:103000008007DED409F1280C07F1300EF44409F1F1
:1030100001000CF8101C07F1580151FA80F009F179
:1030200002095FFA89F900F8106CE4E700215EE715
:103030001BF80A3087F8373055F82390D7F88430DA
:103040002BB3D7F888309B4521D2D7F8843033F89A
:103050001B80BA6AFB6A012107F1370098470028F4
:103060001ADB0644B8F1000F06D14846FDF7C6FF4B
:1030700000F101081FFA88F8BA6AFB6A414648461F
:103080009847002808DB06440BF1010B64E74FF07A
:103090000008DEE74E4664E6064662E63B6A002B21
:1030A0003FF4E0AE0023B5E6386A0028A6D04FF022
:1030B000000B79E770DC01087C2002087903020824
:1030C0000400000168E5010830B50446EFF31185FE
:1030D000102383F31288BFF36F8F044B0FCB84E868
:1030E0000F0085F31188BFF36F8F30BD881F00205C
:1030F00001281FB50C4605D004281DD06FF015001F
:1031000004B010BD1AF001FC42F210720023FDF76A
:1031100049FF104B5A43C4E90001A2606846FFF71B
:10312000D3FF6946204617F08FFC18B90A4B0FCB26
:1031300084E80F000020E3E71AF0E7FB42F2107288
:103140000023FDF72FFF034B5A43C4E90001A2609F
:10315000F0E700BFA0860100B0E60108014B18604F
:10316000704700BF5808002080B505460E46174638
:10317000984608F039F9034602F08CFDDFF8189004
:10318000044649F80030424630463946A84754F8CC
:10319000090002F00FFD00BF100000002DE9F84308
:1031A00044690569C76840F26C73E1170135E4189A
:1031B00041F10001022D8CBF00230123E41A61F1CB
:1031C00000010029064607F1FF3751DA6FF4C77096
:1031D00020184FF4C8724FF0000361F10001FDF7B1
:1031E00091FE264B03FB0044D6E90083B6684FEA04
:1031F000E37C4FF03C0E99466346C6FB0E93A9FB59
:103200000EC60EFB0366A30840F26D1E032D0EFBD7
:10321000043302463B4434BF09206FF002006427A8
:103220000544B4FBF7F499201B1B154C45431CEBDC
:10323000080C4FF0050005F10205B5FBF0F5A2FB07
:1032400004202B4404FB010146EBE87698180D4A54
:1032500041F1000380180C4A63F10003A0FB020156
:1032600002FB031110EB0C0041EB0601BDE8F883F3
:103270004FF4C87200232046B1E700BF70FEFFFF85
:10328000B13A02009405F5FF8051010010B5FFF737
:1032900085FF024602F0FEFC0B4603490024445021
:1032A0001046194610BD00BF1400000070B5204B39
:1032B00082689A4216DDD0E90016012976F10005F0
:1032C00003F1010392FBF3F34FEAE3741DDAC9182B
:1032D00044EB0604C0E90014164901FB0323836094
:1032E000012070BD002AFBDAD0E900410029124E0E
:1032F000A3EB0203B3FBF6F310DA01F100459C42A5
:1033000075F100050ADA0020EBE7CD439D426FF02E
:103310000045A5EB0605A541D9DAF4E7E41A61F109
:10332000000106FB0322C0E900418260D8E700BF2C
:10333000FFC99A3B003665C400CA9A3B034A5368EA
:1033400023F0020353600020704700BF002004E018
:1033500008B54168054883681B680C311BB1984764
:1033600000EAE07008BD6FF05700F9E7D0DD010812
:10337000192810B502D90024204610BD044B53F87B
:10338000204020461AF00EF80028F5D1F3E700BFE0
:1033900078EA0108EFF31180102383F31288BFF35A
:1033A0006F8F094B1A683AB9084A116841F4807165
:1033B00011601168C905FCD51A6801321A6080F3E2
:1033C0001188BFF36F8F7047D874002000700040E1
:1033D00010B5EFF31184102383F31288BFF36F8FBE
:1033E000134B1A68C2B9BFF35B8F124B012253E82B
:1033F000001F002903D143E800200028F7D1BFF3C4
:103400005B8F04D10C4A0D48022117F0AEFF84F304
:103410001188BFF36F8F10BD012A01BF08490A68E8
:1034200022F480720A601A68013A1A60EFE700BF5E
:10343000D8740020D4740020A804020840E60108D3
:1034400000700040084B1A6842F480721A601A68D3
:1034500042F400721A601A6842F480621A60034BE8
:10346000034A1A60704700BF003C02404009002038
:103470000024F4002DE9F047DFF8548004460746A5
:103480004FF0010994FAA4F5B5FA85F509FA05F3A8
:103490002E0108EB05156FEA030A24EA03042B7BCF
:1034A00063B158F806301B696BB94644042273684F
:1034B0002846196807EA0A0717F0E7FE002CE1D151
:1034C0003846BDE8F087284698470028F6D1ECE753
:1034D00098E6010810B50F490F4888B000221AF08D
:1034E00016FA00220023CDE9062300240E23CDE99D
:1034F0000334CDE90144094B094900944FF440726B
:10350000084807F0EDFC084906481AF0AAF82046DA
:1035100008B010BD2D3500083024002049380008BF
:10352000C08A0020981F0020E5040208014807F027
:1035300043BA00BF9C1E00202DE9F047804620487A
:103540000F4617F07AFE0646002832D0002528469E
:10355000BDE8F087237B83B12368DB680BB120468D
:103560009847636883F8069023681B69CBB9636842
:1035700004221968204617F088FE0136103454459D
:10358000E8D3B8F1000FE2D0002DDFD02846FFF7D6
:1035900071FF0546002FF7D0002164201AF005F9CD
:1035A000F2E7204698470028E1D009FA06F31D43C8
:1035B000E3E7044CDFF810A005464FF00109DEE711
:1035C000EC74002098E60108A8E60108014B53F8C6
:1035D00020007047F4EA010808B5034608462BB1FD
:1035E000044A136000F03CFC002008BD6FF0150099
:1035F000FBE700BF5C08002010B5044C237813B92A
:10360000034807F0D9F90123237010BD7B82002005
:103610009C1E002010B504460B4817F00EFE5CB14E
:10362000BFF35B8F094B53E8001F013943E80012D9
:10363000002AF8D1BFF35B8F05481AF074F90548EA
:10364000BDE8104007F0B8B9E4740020E874002029
:10365000302400209C1E0020064BBFF35B8F00220D
:1036600053E8000F43E800210029F9D1BFF35B8F35
:10367000704700BFE474002070B5FFF7EDFF084C01
:10368000084E0546B44200D370BD63685B792BB128
:1036900023685B6813B12946204698471034F1E748
:1036A00098E60108A8E6010810B5044C0449204634
:1036B00017F024FB034B1C6010BD00BF101E002040
:1036C000E0EA0108DC7400200D4A0E48002310B522
:1036D00013700D4A13600D4A4FF47A711360FFF7AF
:1036E0007BFFFFF7E1FF0A4B0A4918468B4200D3E4
:1036F00010BD1A1A5C681211013222711033F5E7FD
:103700007C82002055B20108E4740020E874002097
:1037100098E60108A8E601080146002201480023B6
:1037200017F00DBB101E0020014817F0A4BB00BF0E
:10373000101E0020024B0146186817F0F7BB00BFAF
:10374000DC740020014817F02CBC00BF101E0020C4
:1037500070B5264B1878002846D0FFF7E5FF0546E0
:1037600000283ED1224B234C1B68002B12DD1AF09F
:10377000CCF80A220023FDF715FCD4E90032C01A68
:1037800040F2E93361EB0201984271F1000101D38B
:10379000FFF772FFD4E9003213F57A7342F10002A9
:1037A000C4E90032BDE87040FFF7CCBF63685B79C5
:1037B00023B1236829461B68204698471034B44239
:1037C000F4D32846FFF7B6FFBFF35B8F0A4B53E8ED
:1037D000001F013943E80012002AF8D1BFF35B8FC4
:1037E000C0E7064C064EEAE770BD00BF7B820020B2
:1037F000E474002028240020E874002098E60108E2
:10380000A8E6010870B50D4D297861B90120FFF7D0
:1038100093FE0B4C0B4EB44206D3FFF799FF0028E2
:10382000FBD101232B7070BD63685B791BB12368EA
:1038300020469B6898471034EDE700BF7C8200204B
:1038400098E60108A8E6010800212DE9F84308469A
:10385000FFF772FE044648B34FF4FA784FF00009C0
:1038600002F018FA1A4B1B4A1B58136033B11A4B5B
:103870001B68092B02DD194807F09EF8184F002538
:1038800044B12046FFF7F6FD044618B94FF0FF3863
:103890004FF0FF39FFF75CFF064628B9B5B90F486E
:1038A00042464B4607F0C2F83546E9E74FF0FF388D
:1038B0004FF0FF39D4E72B689B691BB100221146FA
:1038C000284698471035BD42F5D3E8E7054DFAE79D
:1038D00010000000E0740020E87400209C1E00200E
:1038E000A8E6010898E6010813B5184817F0A5FCEA
:1038F000174B1B7873B1EFF31184102383F31288F5
:10390000BFF36F8FFFF724FF84F31188BFF36F8F2E
:1039100002B010BD0F4B1B68002BF9D050B900222C
:103920000023CDE900230C4842F21072002308F076
:1039300047F8EDE70928EBD1074819F0F4FF0748ED
:1039400002B0BDE8104007F037B800BFE8740020AF
:103950007C820020E0740020302400209C1E002087
:1039600010B5064B1B68044698472146A0600448E2
:1039700017F062FABDE81040FFF7B6BF5C08002000
:10398000101E0020044A054B9B1AB1EBD30F34BF25
:1039900052F831000020704758E5010898E6010808
:1039A0002DE9F04F8FB004AFC1F34A26B8600D4641
:1039B00090467B600C0D002E61D04FF000090A2369
:1039C0004FF0040B07F1140AFE60C7E90799C7F826
:1039D00024900093CDF808B0CDF804A007F11C03A3
:1039E000F9684A464046FFF78BF9B0F5006F034689
:1039F0001CD36C468AB0D8F8041004AB2448C3E941
:103A0000050140F2FF71D9611A464FF40071198423
:103A1000204B42F8103F20484B464FF41251FFF71D
:103A2000BFFFA5462C37BD46BDE8F08FC0F30A06A0
:103A300004F11700184420F0070080083B60FFF7EE
:103A40006BFE66F35325044680B13B68134A00F1D0
:103A50001001C7E90839F961CDE901AB0A230093E8
:103A6000F96807F11C034046FFF74AF966F353254E
:103A70007B68B9682A46204617F027FCD2E704F194
:103A8000170020F007008008FFF746FE0446EDE728
:103A9000F604020804000001C0E501089DB2010817
:103AA0002DE9F04F87B0DDE9127ADDE9106B0546AC
:103AB000884614469946BFB11021CDF800A03B4678
:103AC0005A460020CDF814A0FEF766FFB0F5006F4F
:103AD00001460BD3194A1A4840F2FF73022107B07E
:103AE000BDE8F04F17F04ABC3946384604F00703EA
:103AF00005F00704E40044EA831444EA402444EA5D
:103B0000065406F11700084420F0070080080391CE
:103B1000FFF702FE054640B13FB10399CDF800A082
:103B20003B465A461030FEF737FF4B462246414689
:103B3000284607B0BDE8F04F17F0C7BB35050208AF
:103B4000C0E50108406820B1034BC01A40F3CF0024
:103B500070474FF0FF30704758E501080EB403B5C9
:103B600003AB014653F8042B0448019302F018FA02
:103B700002B05DF804EB03B0704700BFDFB301088B
:103B8000CA0605D48B064CBF02490349FFF7E6BFBE
:103B9000704700BF4AFF010849FF01082DE9F04FB7
:103BA00089B09846159B0693DDE916A39DF85090C1
:103BB000189F059204460D460493B9F1000F00F0DA
:103BC000B08007F48073079317F05DFB07F0020BDA
:103BD0000246002874D078492046FFF7BFFF06460A
:103BE000BBF1000F08D017F0440F6BD173492A4680
:103BF0002046FFF7B3FF064407F0010353B1704BB3
:103C0000704953F82920704B2046002A08BF1A46F5
:103C1000FFF7A4FF07F48073002B07F0080318BF19
:103C20004FF00008002B79D0684B694953F82920E0
:103C30002046FFF793FF0546059B2BB165491A46C1
:103C40002046FFF78BFF0544B8F1000F05D062490D
:103C500042462046FFF782FF054460483544069BF4
:103C60001BB15F49224616F0A1FE049B002B00F019
:103C70008E80DDF810803946B8F1100F204628BF3D
:103C80004FF01008FFF77CFF0026B54250DC0026FD
:103C900033461AF8032053492046FFF75FFF0136E9
:103CA000102E4BD0710703D14F492046FFF756FF26
:103CB00046453346EDD34D492046FFF74FFFEEE72B
:103CC00006468DE74A4B1868002894D0494B4FF4BC
:103CD0007A7B1B68B5FBF3F54FF46163B5FBF0F13C
:103CE00000FB11550BFB05F54FF03C0CB1FBF3F25B
:103CF00003FB1211B5FBF0FEB1FBFCF300FB1E55FC
:103D00000CFB13110BFB05F50091B5FBF0F53A49DF
:103D1000CDE901E52046FFF721FF6CE707F0080534
:103D20008AE7B8F1010F0CBF2C4834484D4696E79E
:103D30002D492046FFF712FF0136A6E730492046FD
:103D40000026FFF70BFF33461AF803202D49A2F196
:103D500020035F2B28BF2E222046FFF7FFFE0136EF
:103D6000102E0DD0720703D11F492046FFF7F6FE33
:103D7000B0453346E8D81C492046FFF7EFFEEEE792
:103D8000049BB3EB0803C24404937FF472AFB9F110
:103D9000000F0AD0FB0704D50B4A0A492046FFF75B
:103DA000DDFE39462046FFF7EBFE204609B0BDE8B0
:103DB000F04F17F007BB00BF720502087605020836
:103DC00004EB0108731702086D05020818EB0108DF
:103DD0009B050208A1050208A5050208DFB301083A
:103DE000A15F0008AA050208B2050208B005020892
:103DF000F4740020F07400207F05020815B4010857
:103E0000B4050208B605020873B542F20F738B427F
:103E100028BF0B4605680F4A04460521684616F080
:103E2000A9F863680C495B6806460B22284617F020
:103E3000BBFA63683246694628465B6817F0B4FAF5
:103E4000636806495B681B22284617F0ADFA02B08A
:103E500070BD00BF2A110208B21E0208961E020899
:103E6000074A00210123904206D8064A01B90123DE
:103E70001360054B1860704740085B000121F2E7B2
:103E800040420F00F0740020F4740020F8B5074F92
:103E90000D4604464618B44201D12846F8BD14F830
:103EA000011BBB6801485B689847F4E704DF010821
:103EB000014B03600020704760EB0108F0B40D4B2C
:103EC0000D4E5F6A0D4BB34203D36FF08500F0BC1B
:103ED00070475C68BC420AD31D6945B194F802C0C2
:103EE0008488E4B2A44502D12B46F0BC18472433A1
:103EF000E9E700BF24750020801F00205C1F002020
:103F00002DE9F047144CDFF85480DFF85490054653
:103F10000E461746444503D36FF08500BDE8F08791
:103F20006268D9F824309A4213D3A3698BB1A98867
:103F30009078C9B2884205D13A4631462846BDE854
:103F4000F04718475279012A03D13A4631462846AC
:103F500098472434DEE700BF5C1F0020801F00204C
:103F6000247500202DE9F0410B4CDFF83080054628
:103F70000E461746444502D36FF0850009E0636999
:103F80000BB92434F6E73A463146284698470028CC
:103F9000F7D1BDE8F08100BF5C1F0020801F00202A
:103FA000024B00221A605A60704700BFDF75002084
:103FB00070B50B4B0B4CA34201D3002070BD196AA6
:103FC0001E7F00220439D5B2AE4201D82433F2E775
:103FD000013211F832508542F5D10120EEE700BFE1
:103FE0005C1F0020801F002073B58488E4B2630644
:103FF0000D468DF8074007D02046FFF7D9FFB0B136
:10400000144B93F8BA0090B1124E95B1124A13486E
:104010002346032117F07BFA9DF8070002F01AFCF3
:10402000F3691BB10DF1070108209847012002B088
:1040300070BD0B4A09482346032117F068FA9DF822
:10404000070002F029FCF369002BEFD00DF1070106
:104050000920EAE724750020F305020880E601083C
:104060000606020808B50346034A0448012117F072
:104070004EFA002008BD00BF1B06020880E60108BA
:1040800038B5054602F05EFC10F1780F044611D1F8
:104090000D4A0E482B46022117F039FA284617F030
:1040A00038FA0B4AD2F8C43023EA0003C2F8C4300D
:1040B000002407E00028F1D0064A04482B460121DD
:1040C00017F025FA204638BD3606020880E60108BA
:1040D000247500205706020808B509480378C3F381
:1040E00041130A3350F823303BB100F1080200F1CC
:1040F00010019847C043C00F08BD1846FCE700BF39
:104100002475002004282DE9F74FDFF89C90044621
:104110000F4615D001282FD1DFF8908098F8B930DC
:1041200053B300F0ABFE224D4D4522D22A6A4FF028
:10413000000A2B7F5FFA8AF6B34204D82435F3E7EE
:10414000FFF72EFFE8E702EBC6060192307902F096
:10415000F9FB8346307917F0DCF9D8F8C430019ABE
:1041600023EA0003BBF1000FC8F8C4300AF1010ACA
:10417000DFDA002388F8B9300D4D4D4508D30B4BDD
:104180001B6A6BB13946204603B0BDE8F04F1847B3
:10419000EB681BB13A462146284698472435ECE7A0
:1041A00003B0BDE8F08F00BF801F00202475002001
:1041B0005C1F002073B5044680788DF800002379D9
:1041C0006279294D43EA0223ADF80230E37803F027
:1041D00003038DF8043017F09CF9D5F8C430184269
:1041E00006460CD0A478204600F02AFE2046FFF7B1
:1041F00047FF19F030FA10B9962019F0EFFA684627
:1042000017F0EEFB10F1780F9DF800301BD1174A24
:104210001748022117F07BF99DF8000002F062FBBD
:1042200010F1780F19D19DF80030124A1048022180
:1042300017F06DF9D5F8C4300120334385F8B90083
:10424000C5F8C43007E00028E6D00B4A0848012131
:1042500017F05DF9002002B070BD0028EAD09DF88B
:104260000030064AF2E700BF2475002079060208F4
:1042700080E60108C00602089C060208E006020863
:104280002DE9F047A94EB36904460F4690466BB935
:10429000237803F01F03012B00F0A280022B00F013
:1042A000078143B16FF01500BDE8F08798470028FB
:1042B000EED10020F8E794F900206178002A2FDA87
:1042C000062910D00829D8F8002024D00029E9D1E7
:1042D00001231370517096F8C3305B0043F0010363
:1042E0001370022320E16288100A011F012905468C
:1042F000D8D90728D6D8D1B2726A1478002CD1D078
:104300005678AE4203D1994200F00881013322442D
:10431000F3E7137808E196F8BA301370012303E14C
:1043200001390829BED801A353F821F0C74300087A
:10433000A5420008D7430008A542000851430008E1
:10434000A5420008A5420008A54200085F430008F6
:104350006088C0B202F0C8F90028AAD0A2E763883A
:104360003BB1FF27756A0020B8462B786BB900284F
:1043700098D0FFF715FE638886F8BA30F369002BF2
:1043800097D06B490320984793E76B78042B0DD0A7
:10439000052B0ED0022B06D16F796388BB4208BF74
:1043A00040F00100C0B22B781D44DEE795F8038091
:1043B000F9E76388BB42F6D1B8F1000FF3D1284684
:1043C000FFF7F8FEEFE76388012B7FF46BAF002364
:1043D00086F8C3306DE76388012B7FF463AFF7E79E
:1043E00096F8BA30002B3FF45DAFA388756A5FFA88
:1043F00083FC2A46117800293FF454AF50780228F4
:1044000004D192F804E0E64500F294800A44F1E712
:104410000A704A7038604CE7154499E00B2A7FF423
:1044200041AF00274FF0FF08C146BA4606E06B785F
:10443000042B0FD0052B21D02B781D442B78002B7B
:10444000F5D1F36913B1514607209847002F7FF447
:1044500030AF27E795F80280A38895F80390984538
:10446000EAD163889945E7D1B8F1070F1DD806EB6B
:104470000803AA4683F8BB900127DDE7A3884345DC
:10448000DAD16388DBB24B450AD0AF78384600F00A
:10449000D7FC3846FFF7F4FDB0FA80F77F09CBE789
:1044A0002846FFF787FE0746C6E7AA460027C3E768
:1044B00094F900206378002A1ADA002B7FF4F2AE18
:1044C000A388DDB25B060AD02846FFF771FD0028FD
:1044D0003FF4E8AE96F8BA30002B3FF4E3AED8F8DC
:1044E00000402846214617F097FA00236370F8E64B
:1044F000012B08D0032B7FF4D5AE6388002B7FF40B
:10450000D1AE012103E0618800297FF4CBAE2046C3
:10451000FFF76AFD00287FF4CCAEC3E60228C8F896
:1045200000207FF4F6AE53883B60C2E6247500207D
:10453000DE75002094F9001062780029BFF66EAF96
:10454000D8F80010002A3FF463AF0A2A7FF4AAAE1D
:104550002A78002A3FF4A6AE687804287FF45CAF7E
:10456000A87883427FF458AF072B96BF9B1900238E
:1045700093F8BB300B70D1E62DE9F84305460F46A2
:104580009046994604264B4642463946284602F054
:1045900007FA10F10B0F044609D1064A06482B46CC
:1045A000022116F0B4FF06F0A1FE013EEBD1204639
:1045B000BDE8F8830107020880E6010813B5164C30
:1045C000237DF3B9E268A168019201AB8020FFF777
:1045D000D3FF019AA3681344A360E3689B1AE360C6
:1045E0006BB962B12369E2889A4208DD94F8C82069
:1045F00093FBF2F102FB11330BB90123237502B0D7
:1046000010BD00231A4619468020237502B0BDE86C
:10461000104002F0C5B900BF247500207FB500230B
:104620000D4601930646002862D100293AD108229E
:104630000B460DEB020117F0FCF9002804DA80208C
:1046400002F008F904B070BD2E4C029A2260039A61
:10465000626004F13802A2609DF90820BDF80E30B6
:104660002575002AC4E903550FDB802B09D9264A9A
:104670002648012116F079FE802002F0EBF828464A
:10468000DEE713B1C4E90333DCE7FFF725FD0028BB
:10469000D5D0E28823699A42D4BFE260E360FFF795
:1046A0008DFFCFE7174CD4E90212002A01AB05DCDD
:1046B000024617F0BEF90028C4DAC0E717F0B9F9CE
:1046C000002804DA802002F0C5F83046B8E7019AE5
:1046D000A3681344A360E3689B1AE360002BB1D185
:1046E00004F13803A360FFF7F7FC0028D7D1A6E751
:1046F0008028A7D1034BDA68002AD0D11B7D002B7C
:10470000CDD19FE7247500202807020880E6010824
:10471000054B064A9A62064ADA62064A1A63064A54
:1047200058629A6100207047247500208142000879
:10473000BD3E0008653F0008013F00082DE9F34138
:1047400004464C4D4C484FF0FF334FF0FF3206F01B
:1047500071F895F8B8306BB1484A4948022116F013
:1047600004FE6FF07704444806F0D6F8204602B005
:10477000BDE8F0816E6A6EB900F0D4F8FFF7C8FFAB
:104780006E6A3EB93F4A3E48012116F0EEFD4FF0F9
:10479000FF34E8E73C482C62E86101F09FFF01F03C
:1047A000B3FE041EDFDB00F08BFB041EDBDB737843
:1047B000012B01D1F3793BB9344A3148012116F07C
:1047C000D4FD6FF01504CEE70026684685F8C830A2
:1047D000ADF802308DF804608DF8006017F000F934
:1047E000041EC0DB802768468DF8007017F0F8F8CB
:1047F000041EB8DB2649304617F0E7F8041EB2DB8A
:104800002349384617F0E1F8041EACDB214CDFF8F1
:10481000888044451AD3002002F064F8041EA2DB0D
:10482000D5F8C430802043F00103C5F8C43002F04D
:1048300059F8041E97DBD5F8C43043F48033C5F82B
:10484000C430012385F8B83000248CE7276A00269D
:10485000227FF3B29A4201D82434DAE707EBC3028D
:1048600057F83310107917F0B0F801360028EFD060
:104870008DE700BF24750020701E0020410702084C
:1048800080E601086407020805410008890702085C
:104890001D4600085C1F0020801F002030B51F4B04
:1048A0008BB005AA03F1100518685968144603C4B3
:1048B0000833AB422246F7D11B78237001AC10229B
:1048C0000021204619F0D5F812220021144819F0D1
:1048D000D0F81021204603F089F900281ADD0828B5
:1048E000B8BF082009380E4A0444002114F8013FDB
:1048F0000AA800EB131003F00F0328336B440131B7
:1049000010F8140C13F8143C10700829537002F1BD
:104910000202EBD102480BB030BD00BFC307020852
:104920007F8200202DE9F04F884B87B093F800A0DC
:1049300000AFBAF1000F04D085481C37BD46BDE872
:10494000F08F834C00264FF00119FE603546B046CB
:1049500023783BB97F4B02349C42F3D17B4A01233D
:104960001370E9E76378052B05D8DFE803F0AE079D
:1049700003AE1E4FA04623781C44E9E7402307F10D
:10498000100087F810A07B8287F814A001F048FF80
:1049900040B1082307F110007B8201F041FF08B10C
:1049A000A7F812A07B8AE371E5E7E378002BE2D158
:1049B000A37813B3FB680133DBB2FB60DBE76B6802
:1049C0009C421CD02435644B9D42F8D36D4688B080
:1049D0006A46624BCDE90534032342F8103F604834
:1049E00000234FF4C251FEF7DBFFAD465C485D4A41
:1049F000012116F0BAFC00209FE75B4DE3E7AB68AE
:104A0000002BD7D0F96820469847D3E7002D5AD11C
:104A1000564A5348012116F0A8FCE7E72B6AA07814
:104A200003EBC2010B79984247D14FF0010BE078BC
:104A300094F805C000F003003875207940EA0C2096
:104A4000788294F9020000285FFA8BF328DA0BF1E0
:104A500010004FF0010C0CFA00F010EA090F27D1FA
:104A600043F08000387407F11000C7E90031BA60E4
:104A700001F0D6FED7E901123B68C8B93A7CA270B2
:104A800012F0800F18BF10330A7118BFDBB24FF05D
:104A9000010214BF9A4002FA0BF249EA02096AE7DE
:104AA000012000FA0BF010EA090F01D11846D9E7EE
:104AB0000BF1010BBBF1100FB9D101322B7F9A42E0
:104AC000ACD32B4AA5E70022F8E7032E24D1FFF749
:104AD000E5FE8346A0B1FCF791FA034680B11028A9
:104AE00006D0B860234A1E48022116F03EFCBB687F
:104AF000102BA8BF10231A465946A01C18F0ABFF74
:104B000023786FF002011A19091B04EB5303D142F9
:104B100009D50136F6B22EE7002EF1D1B8F1000F1B
:104B200008D1154A75E702F801AC13F8010902F83B
:104B3000020DECE7A4EB080388F80230C3F3072367
:104B400088F80330FB6888F80430E2E77E820020B2
:104B5000B41E00205B1F0020801F0020D407020825
:104B600078E60108BA0802085C1F0020F407020872
:104B700035080208520802089D08020810B5094BC2
:104B800000211A461C78844205D15C681CB1482378
:104B900003FB012010BD0131042903F14803F1D1C9
:104BA0000020F7E7F07500202DE9FF4150F8303C78
:104BB00010F8346C103304460AD1036950F8282CDD
:104BC00098073DD5D2B9590715D5002344F8303C94
:104BD00054F8303C10330BD054E9097554F81C8C50
:104BE00018F039FD002857D03248214618F0FEFC55
:104BF00004B0BDE8F08143F00403236103AB54F833
:104C00002C1C3046FFF7B8FC034640B12A4A2B481B
:104C10000096012116F0BCFB6FF01503D6E7039A4E
:104C200054F82C3C134444F82C3C54F8283C9B1A70
:104C300044F8283C54F8243C134444F8243CC7E787
:104C400003AB54F82C1C304601F014FF0346002837
:104C5000DCD1039D54F82C3C2B4444F82C3C54F8F4
:104C6000283C5B1B44F8283C54F8243C2B4444F873
:104C7000243C002DA9D0304616F0E9FEB5FBF0F338
:104C800003FB1055002DA0D154F8283C002B9CD0DC
:104C9000304601F037FF9BE744F8200CA4F11800E0
:104CA00005F08AFE002DA3D0424639463046A8477B
:104CB0009EE700BF68240020E808020888E6010893
:104CC0004B1E012B73B506460D4614D8FFF756FF51
:104CD000044690B9012D0ED101AB01220DF1030163
:104CE000304601F0C7FE019B002BF5D10C4A0D4860
:104CF000012116F03AFB02B070BD18F0ACFC04F1D3
:104D0000340108B1012D05D1084602B0BDE870405C
:104D1000FFF74ABF044802B0BDE8704018F066BC17
:104D20000509020888E60108682400202DE9F74FEC
:104D3000064601911746984616F02CFC04460028BA
:104D40006FD1EFF311830093102383F31288BFF325
:104D50006F8FDFF8D49000220023484605F066FEEE
:104D6000A0B9DFF8C8A0482262430AEB020BDBF8C7
:104D7000045015F1100F1ED12D4A2E483346012143
:104D800016F0FCFA484605F017FE0BE00134042C3F
:104D900009F14809DFD1284A2648012116F0E5FA31
:104DA0006FF00B05009B83F31188BFF36F8F2846CC
:104DB00003B0BDE8F08F0AF802600C9A019BCBF8B3
:104DC00014200D9ACBF81000CBF8182030466FF065
:104DD0000F02CBE90237CBF84480CBF8042016F061
:104DE00036FE68B1304616F032FEB7FBF0F202FB39
:104DF00010772FB1DBF8442042F00402CBF84420B6
:104E000018F0020F08D0482303FB04A10B483431EB
:104E100018F0ECFB0025C5E7304601F073FE0546AF
:104E2000C0E76FF00F05C2E70C760020F075002098
:104E30003A09020888E601081F09020868240020D0
:104E400010B5EFF31184102383F31288BFF36F8F33
:104E5000FFF794FE50B14368103307D16FF08B0316
:104E6000436000F13401044818F0C0FB84F311885A
:104E7000BFF36F8F10BD00BF68240020F8B50E4C43
:104E800004251027EFF3118687F31288BFF36F8F85
:104E90006368103307D16FF08B030848636004F137
:104EA000340118F0A3FB86F31188BFF36F8F013D27
:104EB00004F14804E6D1F8BDF07500206824002014
:104EC00038B5094C00250949204618F064FB012239
:104ED000A4F118001146013518F0DBFA042D04F195
:104EE0004804F0D1002038BD24760020A94B0008EA
:104EF0000169012381F84B300B6833B191F84930D7
:104F00001BB10248083118F071BB704768240020BB
:104F10000169012381F84A300B6833B191F84830B8
:104F20001BB10248083118F061BB704768240020AB
:104F300070B50569EFF31186102383F31288BFF370
:104F40006F8FD5F8900016F093F8044686F3118819
:104F5000BFF36F8F30B104480022002305F1180120
:104F600005F006FF204670BD6824002070B50123BF
:104F700082F8483013680D4614463BB192F84A3027
:104F800023B10E4802F1080118F030FBD4F890303C
:104F9000DA885B899A4205D17DB904F118014FF492
:104FA0007A7204E004F11801002DF8D00022BDE867
:104FB00070400248002305F0DBBE70BD682400206D
:104FC00070B50E4681880446C9B21548154616F0DC
:104FD000BDFA10B394F900206378002A16DB202B69
:104FE00004D0222B0ED06FF085000AE02B681A68DF
:104FF00040F8102C9A8820F80C2C9B7900F80A3C79
:10500000002070BD638800F8093CF9E7212BEAD144
:105010001038072328603360F2E76FF01200F0E7E2
:105020001477002008B50146034816F09DFA10B128
:10503000012300F8073C08BD147700200D4A034601
:105040000021A0F848101068C3F894009088927965
:10505000A3F8980083F89A2083F89C1083F89B109B
:10506000A3F89E1083F8A010402203F14C0018F022
:1050700000BD00BFF2E6010810B504690023C4F8C2
:10508000A8300C4BC4F8A400596804F1A80269B90F
:10509000C3E9002204F10800074918F07CFA04F182
:1050A0001800064918F0B2FA002010BD0A605A60D4
:1050B000F0E700BF14770020BFB501088951000850
:1050C00030B54FF40033426805690D4C85B042F2AB
:1050D000A100CDE90103002385F89D30106AADF8E9
:1050E0000C1000790A2201A9FFF746FA95F89D30C5
:1050F00023B9012018F030F9013CF7D105B030BDDB
:10510000A186010073B504698DF80710002384F8A7
:1051100048301025EFF3118685F31288BFF36F8FA7
:105120000122D4F890000DF1070115F0A1FF86F3DC
:105130001188BFF36F8F012810D018F08CFAB0B12E
:105140000F4BBFF35B8F012253E8001F002903D1EF
:1051500043E800200028F7D1BFF35B8F0A22002329
:1051600004F11801074805F003FE02B070BD94F881
:10517000A130002BE4D000210A2018F016FBC9E76B
:105180001077002068240020F0B5D0F88C305B68E0
:105190001B6A1F7D85B00546384616F0FBF90646AA
:1051A00050BB95F886303BB3A86F0146C38831F8F1
:1051B0000A2F9B1A9BB2B3F5807F28BF4FF48073F0
:1051C00003AA15F006FF0446B0B18306A5F1180343
:1051D00008BF00F1FF3485F830600193074B039955
:1051E0000093224602233846FFF7A0FDA86F22460F
:1051F00000F10A0115F023FF05B0F0BD6D4F000866
:1052000037B514460A1E054621DDD4F88C0004F19A
:105210004C0115F02DFF012384F8493023683BB180
:1052200094F84B3023B1114804F1080118F0DEF96D
:10523000D4F88C209388918912695B1A9BB2D31A97
:105240003F2B04D8012384F8A03003B030BD94F87C
:105250009E30002BF9D0064B00930194012340228D
:1052600004F14C012846FFF761FDEEE768240020B9
:105270000152000873B50D4601461D4816F05AF953
:10528000044610B3691EA0F1A40605291DD8DFE865
:1052900001F01E1C031E242810F8061CA9B903687F
:1052A0005D68012300F8063C2B6A3246187BFFF745
:1052B000A7FF14F85C2C42B92B6A187D0D4B0093A4
:1052C000019602231146FFF731FD02B070BD304652
:1052D00002B0BDE87040FFF7B1BE012304F8053C01
:1052E000F3E710F8053C002BEFD00023F6E700BFF2
:1052F000147700206D4F000813B5002407490848B3
:1053000000944FF0FF334FF4806205F0F1FC054943
:10531000034818F0A6F9204602B010BD008E002008
:10532000682400207A09020837B504698DF807104F
:1053300063680546ABB9BFF35B8F1C4B012253E892
:10534000001F002903D143E800200028F7D1BFF354
:105350005B8F04D1164A1748022116F006F803B0F5
:1053600030BD18F078F930B9D4E901329DF8071052
:1053700028469847F3E7002300220DF1070104F1C6
:105380001C0018F070F8034620B10B4A09480221AE
:1053900015F0F4FF04F10C0005F0A4FC031EDEDAA6
:1053A000064A0448012115F0E9FFD8E71C770020E0
:1053B0008309020830E6010893090208B3090208CC
:1053C00010B504690423012204F1500104F11C000A
:1053D00018F035F804F10C00024918F0DCF8002050
:1053E00010BD00BF1BB8010808B50348034A0021DF
:1053F000121A16F02DFA08BD801F0020A48A002082
:105400000748084A084908B5121A16F023FA07484F
:10541000074A0849BDE80840121A16F01BBA00BF37
:1054200000000020801F00207C20020800000020D7
:10543000000000207C2002082DE9F047064600AF5E
:105440000C46002936D0E9468AB0D1E90012A3689B
:105450006D462148E8464FF0050ACDE90501CDE942
:10546000072348F810AF1D48424600234FF421514E
:10547000FEF796FACD46D4E903126369AD461848A3
:10548000C5F810A0C5E90501C5E9072313480023A5
:1054900042464FF42151FEF783FACD46E369114AA3
:1054A0000E48012115F06AFFA3690F4A0B4801213C
:1054B00015F064FF012E07D1EFF305830B4A07486F
:1054C000103B314615F05AFF2146304604F026FFC6
:1054D000BD46BDE8F08700BFED090208E0E5010820
:1054E0001C0A02084B0A02085A0A0208880A020823
:1054F00030BFFFF7FDBF00BF2DE9F0410B4EDFF8D5
:10550000308006EB0807CC1B054632460949204689
:1055100018F0A1FAA01942460021083C18F0A9FA97
:10552000C5F8844007F10800BDE8F08108000000DC
:1055300008000000A8E6010810B5204C20492148C9
:1055400016F095F9A36A990136D51E481E4916F042
:105550008EF91E20A36ADA0104D51A481B4916F0F9
:1055600086F91F20154CA36A1B0304D5154818495A
:1055700016F07DF92120A36A590304D51148154975
:1055800016F075F922200D4CA36A9A0304D50D4834
:10559000114916F06CF92320A36ADB0304D50948EE
:1055A0000E4916F064F92420044A936A6FEA034313
:1055B0006FEA1343936210BD1D20CBE700ED00E0BE
:1055C0009B0A0208E0E50108B30A0208C60A0208BD
:1055D000E00A0208FE0A0208230B02083D0B02083B
:1055E00070B506460D46284C2849294816F03FF963
:1055F000A36AD9043CD52648264916F038F9172065
:10560000A36A1A0504D52248234916F030F9182058
:105610001D4CA36A9B0512D51D48204916F027F999
:10562000A36BA26A100409D51D4A1948012115F07F
:10563000A5FE1EB1A36A23F40043A3621920124CF5
:10564000A36A590504D51248164916F010F91A2014
:10565000A36ADA050ED50E48134916F008F91B2087
:10566000094A936A43F47F43936200232B7070BD11
:105670001620C5E7A36A9B04F2D505480B4916F02E
:10568000F6F81C20ECE700BF00ED00E0680B020814
:10569000E0E501087E0B02088F0B0208A20B02084E
:1056A000BB0B0208D00B0208EB0B0208030C02082C
:1056B0002DE9F843804689461746354D3549364829
:1056C00016F0D5F8AB6ADE0627D53449324816F015
:1056D000CEF81124AB6A1D0704D531492E4816F0C7
:1056E000C6F812242A4DAB6A980718D52D492A48C6
:1056F00016F0BDF86E6BAB6A190646D52A4A2648E5
:105700003346012115F03AFEB9F1000F03D0AB6A20
:1057100023F08003AB62132403E01024DAE76FF078
:1057200015061B4DAB6ADA0704D520491A4816F056
:105730009EF81424AB6A9B0604D51D49164816F042
:1057400096F81524124B9A6AD50602D49A6A9007E5
:105750000AD55B68190507D54146304600F0DAF9ED
:1057600010B180F309880224094B9A6A920642BF5D
:105770005A6A22F400525A629A6A42F0FF029A620E
:1057800000233B702046BDE8F8836FF01506C2E7A2
:1057900000ED00E0320C0208E0E50108480C0208C8
:1057A0008F0B02087B0C0208930C0208A90C02085C
:1057B000030C02082DE9F041684B8AB0D3F804804D
:1057C00000AF0446C8F30806002585F31188BFF32F
:1057D0006F8F02F07F43B3F17F4F07D102F00C03CC
:1057E000082B12D15E495F4816F041F800252C467F
:1057F0000023FB71F31E092B00F28F80DFE803F01A
:105800000A8588818D8D8D8D8D8B10074CBF0C4640
:105810000125EDE754495348504E16F028F800236F
:10582000FB71F36A9A0705D550494E4816F01FF8E8
:1058300000232DE0F36A002B01DA4D49F5E7F36A06
:105840005B00F5D54B49474816F011F87369A2691A
:1058500043F480737361BFF34F8FBFF36F8F32F8E0
:10586000023C726922F480727261BFF34F8FBFF302
:105870006F8F03F47F42B2F55F4F2BD1DBB2022B67
:1058800028D123683C4A3748012115F077FD236869
:10589000FA79DAB907F1080604F1200C206861688A
:1058A000324603C2083464451646F7D17A6A002DA1
:1058B00050D0C2F3080121B96FEA52226FEA4222A6
:1058C0007A6207F108011846FFF7B6FD2837BD4692
:1058D000BDE8F081214B9A6AD2B22AB1FA1D0121AA
:1058E0002046FFF7E5FE0EE09A6A12F47F4F04D0DF
:1058F000F91D0120FFF774FE05E09B6AB3F5803FB8
:1059000096D3FFF719FE0346C2E7FA1D0021E7E729
:10591000F91D0020EEE7194987E7194A194B18F4D9
:10592000F87FE8468AB008BF13466A461649CDE9B3
:1059300005134FF40073ADF82030103E134B07965B
:1059400042F8103F074800234FF41151FEF728F8A2
:10595000C5466DE76FF30802B2E700BF00ED00E057
:10596000F60C0208E0E50108210D0208380D0208D6
:10597000590D0208670D0208860D0208A20D0208E3
:10598000C80C0208DD0C0208C60D02080400000164
:10599000044B5A6942F010025A615A6922F0080217
:1059A0005A61704700ED00E0EFF30880EFF30981E2
:1059B00001B57246FFF7FEFE01BD00BF0A4880F345
:1059C0000888102080F3118808484FF404614018BB
:1059D00080F30988EFF314800221084380F31488D0
:1059E000BFF36F8F00F05EF8E80101208096002081
:1059F0001EF0040F0CBFEFF30880EFF309808169FC
:105A000011F8021C0229FFD001B5724615F024FFDF
:105A100001BD00BF40B2002807DB044A4109012351
:105A200000F01F00834042F82130704700E100E0A1
:105A300040B200280CDB4309064900F01F00203368
:105A40000122824041F82320BFF34F8FBFF36F8FB5
:105A5000704700BF00E100E040B20028A8BF00F19D
:105A6000604001F10101B8BF064B4FEA0111ACBF24
:105A700000F5614000F00F00C9B2B4BF195480F8BE
:105A80000013704714ED00E0044B054A23F07F0338
:105A90009360BFF34F8FBFF36F8F70470000000814
:105AA00000ED00E008B5FFF7EFFF0B4AD2F88830B1
:105AB00023F47003C2F88830EFF3148323F0040357
:105AC00083F31488BFF36F8FFFF78EFCFFF798FC0A
:105AD00000F0C2F804F062FD00ED00E042F8203C66
