:020000040800F2
:10000000E80101208D58000813B70108795800084D
:100010007958000879580008795800080000000055
:10002000000000000000000000000000C1580008AF
:100030007958000800000000B15A000881900008BB
:10004000415B0008415B0008415B0008415B000820
:10005000415B0008415B0008415B0008415B000810
:10006000415B0008415B0008415B0008415B000800
:10007000415B0008415B0008415B0008415B0008F0
:10008000415B0008415B0008415B0008415B0008E0
:10009000415B0008415B0008415B0008415B0008D0
:1000A000415B0008415B0008415B0008415B0008C0
:1000B000415B0008415B0008415B0008415B0008B0
:1000C000415B0008415B0008415B0008415B0008A0
:1000D000415B0008415B0008415B0008415B000890
:1000E000415B0008415B0008415B0008415B000880
:1000F000415B0008415B0008415B0008415B000870
:10010000415B0008415B0008415B0008415B00085F
:10011000415B0008415B0008415B0008415B00084F
:10012000415B0008415B0008415B0008415B00083F
:10013000415B0008415B0008415B0008415B00082F
:10014000415B0008415B0008415B0008415B00081F
:10015000415B0008415B0008415B0008415B00080F
:08016000415B0008415B00084F
:1001700001F0FF01102A2BDB10F0070F08D010F858
:10018000013B013A8B422DD010F0070F42B3F6D15C
:10019000F0B441EA012141EA014122F007047FF075
:1001A00000070023F0E80256083C85EA010586EACC
:1001B000010685FA47F5A3FA87F586FA47F6A5FA08
:1001C00087F68EB9EED1F0BC01F0FF0102F0070214
:1001D00032B110F8013B013A83EA010313B1F8D1BF
:1001E0000020704701387047002D06BF35460338A0
:1001F000073815F0010F07D1013015F4807F02BFD9
:10020000013015F4C03F0130F0BC0138704700BF29
:1002100081F0004102E000BF83F0004330B54FEAB7
:1002200041044FEA430594EA050F08BF90EA020F24
:100230001FBF54EA000C55EA020C7FEA645C7FEAB7
:10024000655C00F0E2804FEA5454D4EB5555B8BFDA
:100250006D420CDD2C4480EA020281EA030382EA4B
:10026000000083EA010180EA020281EA0303362DDD
:1002700088BF30BD11F0004F4FEA01314FF4801CB0
:100280004CEA113102D0404261EB410113F0004FC2
:100290004FEA03334CEA133302D0524263EB430379
:1002A00094EA050F00F0A780A4F10104D5F1200E17
:1002B0000DDB02FA0EFC22FA05F2801841F1000172
:1002C00003FA0EF2801843FA05F359410EE0A5F146
:1002D00020050EF1200E012A03FA0EFC28BF4CF077
:1002E000020C43FA05F3C01851EBE37101F000452D
:1002F00007D54FF0000EDCF1000C7EEB00006EEB3A
:100300000101B1F5801F1BD3B1F5001F0CD34908C3
:100310005FEA30004FEA3C0C04F101044FEA44521A
:1003200012F5800F80F09A80BCF1004F08BF5FEAA1
:10033000500C50F1000041EB045141EA050130BD81
:100340005FEA4C0C404141EB0101013C28BFB1F593
:10035000801FE9D291F0000F04BF01460020B1FADE
:1003600081F308BF2033A3F10B03B3F120020CDAB1
:100370000C3208DD02F1140CC2F10C0201FA0CF08F
:1003800021FA02F10CE002F11402D8BFC2F1200CF4
:1003900001FA02F120FA0CFCDCBF41EA0C019040AA
:1003A000E41AA2BF01EB0451294330BD6FEA0404F3
:1003B0001F3C1CDA0C340EDC04F11404C4F12002DE
:1003C00020FA04F001FA02F340EA030021FA04F3F0
:1003D00045EA030130BDC4F10C04C4F1200220FA47
:1003E00002F001FA04F340EA0300294630BD21FA85
:1003F00004F0294630BD94F0000F83F4801306BF4B
:1004000081F480110134013D4EE77FEA645C18BF3E
:100410007FEA655C29D094EA050F08BF90EA020FD5
:1004200005D054EA000C04BF1946104630BD91EACD
:10043000030F1EBF0021002030BD5FEA545C05D1D0
:100440004000494128BF41F0004130BD14F580040F
:100450003CBF01F5801130BD01F0004545F0FE4183
:1004600041F470014FF0000030BD7FEA645C1ABFB8
:10047000194610467FEA655C1CBF0B46024650EAEF
:10048000013406BF52EA033591EA030F41F400211B
:1004900030BD00BF90F0000F04BF0021704730B5A1
:1004A0004FF4806404F132044FF000054FF0000176
:1004B00050E700BF90F0000F04BF0021704730B537
:1004C0004FF4806404F1320410F0004548BF40420C
:1004D0004FF000013EE700BF42004FEAE2014FEA61
:1004E00031014FEA02701FBF12F07F4393F07F4F3C
:1004F00081F06051704732F07F4208BF704793F03F
:100500007F4F04BF41F40021704730B54FF4607451
:1005100001F0004521F000411CE700BF50EA010254
:1005200008BF704730B54FF000050AE050EA0102FD
:1005300008BF704730B511F0004502D5404261EB6D
:1005400041014FF4806404F132045FEA915C3FF4AE
:10055000D8AE4FF003025FEADC0C18BF03325FEA4B
:10056000DC0C18BF033202EBDC02C2F1200300FAFC
:1005700003FC20FA02F001FA03FE40EA0E0021FA21
:1005800002F11444BDE600BF70B54FF0FF0C4CF40F
:10059000E06C1CEA11541DBF1CEA135594EA0C0FC1
:1005A00095EA0C0F00F0DEF82C4481EA030621EAFC
:1005B0004C5123EA4C5350EA013518BF52EA033537
:1005C00041F4801143F4801338D0A0FB02CE4FF0E9
:1005D0000005E1FB02E506F00042E0FB03E54FF019
:1005E0000006E1FB03569CF0000F18BF4EF0010E11
:1005F000A4F1FF04B6F5007F64F5407404D25FEA0D
:100600004E0E6D4146EB060642EAC62141EA5551BF
:100610004FEAC52040EA5E504FEACE2EB4F1FD0C01
:1006200088BFBCF5E06F1ED8BEF1004F08BF5FEA7F
:10063000500E50F1000041EB045170BD06F0004631
:1006400046EA010140EA020081EA0301B4EB5C04DE
:10065000C2BFD4EB0C0541EA045170BD41F48011D6
:100660004FF0000E013C00F3AB8014F1360FDEBFFB
:10067000002001F0004170BDC4F10004203C35DAD7
:100680000C341BDC04F11404C4F1200500FA05F35A
:1006900020FA04F001FA05F240EA020001F00042FB
:1006A00021F0004110EBD37021FA04F642EB060171
:1006B0005EEA430E08BF20EAD37070BDC4F10C049B
:1006C000C4F1200500FA04F320FA05F001FA04F25F
:1006D00040EA020001F0004110EBD37041F100014B
:1006E0005EEA430E08BF20EAD37070BDC4F1200556
:1006F00000FA05F24EEA020E20FA04F301FA05F2BE
:1007000043EA020321FA04F001F0004121FA04F265
:1007100020EA020000EBD3705EEA430E08BF20EA35
:10072000D37070BD94F0000F0FD101F0004640006F
:1007300041EB010111F4801F08BF013CF7D041EAF1
:10074000060195F0000F18BF704703F000465200F5
:1007500043EB030313F4801F08BF013DF7D043EAC6
:100760000603704794EA0C0F0CEA135518BF95EA7C
:100770000C0F0CD050EA410618BF52EA4306D1D103
:1007800081EA030101F000414FF0000070BD50EA22
:10079000410606BF1046194652EA430619D094EAAC
:1007A0000C0F02D150EA013613D195EA0C0F05D196
:1007B00052EA03361CBF104619460AD181EA0301EA
:1007C00001F0004141F0FE4141F470014FF00000A2
:1007D00070BD41F0FE4141F4780170BD70B54FF03D
:1007E000FF0C4CF4E06C1CEA11541DBF1CEA1355BD
:1007F00094EA0C0F95EA0C0F00F0A7F8A4EB05049F
:1008000081EA030E52EA03354FEA013100F0888095
:100810004FEA03334FF0805545EA131343EA12635E
:100820004FEA022245EA111545EA10654FEA002613
:100830000EF000419D4208BF964244F1FD0404F5CC
:10084000407402D25B084FEA3202B61A65EB030528
:100850005B084FEA32024FF480104FF4002CB6EBE5
:10086000020E75EB030E22BFB61A754640EA0C0065
:100870005B084FEA3202B6EB020E75EB030E22BFA5
:10088000B61A754640EA5C005B084FEA3202B6EBE6
:10089000020E75EB030E22BFB61A754640EA9C00A5
:1008A0005B084FEA3202B6EB020E75EB030E22BF75
:1008B000B61A754640EADC0055EA060E18D04FEA33
:1008C000051545EA16754FEA06164FEAC30343EAD3
:1008D00052734FEAC2025FEA1C1CC0D111F4801FA0
:1008E0000BD141EA00014FF000004FF0004CB6E799
:1008F00011F4801F04BF01430020B4F1FD0C88BF38
:10090000BCF5E06F3FF6AFAEB5EB030C04BFB6EB42
:10091000020C5FEA500C50F1000041EB045170BD35
:100920000EF0004E4EEA113114EB5C04C2BFD4EB62
:100930000C0541EA045170BD41F480114FF0000EE6
:10094000013C90E645EA060E8DE60CEA135594EA62
:100950000C0F08BF95EA0C0F3FF43BAF94EA0C0F65
:100960000AD150EA01347FF434AF95EA0C0F7FF4DA
:1009700025AF104619462CE795EA0C0F06D152EA2E
:1009800003353FF4FDAE1046194622E750EA410612
:1009900018BF52EA43067FF4C5AE50EA41047FF423
:1009A0000DAF52EA43057FF4EBAE12E74FEA410286
:1009B00012F5001215D211D56FF47873B3EB6252B1
:1009C00012D94FEAC12343F0004343EA505311F0D8
:1009D000004F23FA02F018BF404270474FF000006A
:1009E000704750EA013005D111F0004008BF6FF0A8
:1009F000004070474FF00000704700BF80F000409B
:100A000002E000BF81F0004142001FBF5FEA4103E6
:100A100092EA030F7FEA226C7FEA236C6AD04FEAE6
:100A20001262D2EB1363C1BFD2184140484041402B
:100A3000B8BF5B42192B88BF704710F0004F40F4DD
:100A4000000020F07F4018BF404211F0004F41F4F9
:100A5000000121F07F4118BF494292EA030F3FD0C5
:100A6000A2F1010241FA03FC10EB0C00C3F12003D8
:100A700001FA03F100F0004302D5494260EB400067
:100A8000B0F5000F13D3B0F1807F06D340084FEAD2
:100A9000310102F10102FE2A51D2B1F1004F40EBC7
:100AA000C25008BF20F0010040EA0300704749002F
:100AB00040EB0000013A28BFB0F5000FEDD2B0FACC
:100AC00080FCACF1080CB2EB0C0200FA0CF0AABFEF
:100AD00000EBC25052421843BCBFD040184370478D
:100AE00092F0000F81F4000106BF80F40000013293
:100AF000013BB5E74FEA41037FEA226C18BF7FEA6A
:100B0000236C21D092EA030F04D092F0000F08BFAB
:100B10000846704790EA010F1CBF0020704712F092
:100B20007F4F04D1400028BF40F00040704712F1D1
:100B300000723CBF00F50000704700F0004343F036
:100B4000FE4040F4000070477FEA226216BF08466C
:100B50007FEA23630146420206BF5FEA412390EA2F
:100B6000010F40F4800070474FF0000304E000BF25
:100B700010F0004348BF40425FEA000C08BF7047D6
:100B800043F0964301464FF000001CE050EA01029A
:100B900008BF70474FF000030AE000BF50EA0102AF
:100BA00008BF704711F0004302D5404261EB41019C
:100BB0005FEA010C02BF84460146002043F0B643C1
:100BC00008BFA3F18053A3F50003BCFA8CF2083AE6
:100BD000A3EBC25310DB01FA02FC634400FA02FCEF
:100BE000C2F12002BCF1004F20FA02F243EB0200F6
:100BF00008BF20F00100704702F1200201FA02FC58
:100C0000C2F1200250EA4C0021FA02F243EB02004A
:100C100008BF20EADC7070474FF0FF0C1CEAD0528E
:100C20001EBF1CEAD15392EA0C0F93EA0C0F6FD04F
:100C30001A4480EA010C400218BF5FEA41211ED02D
:100C40004FF0006343EA501043EA5111A0FB013119
:100C50000CF00040B1F5000F3EBF490041EAD371EE
:100C60005B0040EA010062F17F02FD2A1DD8B3F16A
:100C7000004F40EBC25008BF20F00100704790F0D9
:100C8000000F0CF0004C08BF49024CEA502040EA2B
:100C900051207F3AC2BFD2F1FF0340EAC2507047F1
:100CA00040F400004FF00003013A5DDC12F1190F2F
:100CB000DCBF00F000407047C2F10002410021FAA1
:100CC00002F1C2F1200200FA02FC5FEA310040F1B9
:100CD000000053EA4C0308BF20EADC70704792F032
:100CE000000F00F0004C02BF400010F4000F013A6A
:100CF000F9D040EA0C0093F0000F01F0004C02BF65
:100D0000490011F4000F013BF9D041EA0C018FE7D3
:100D10000CEAD15392EA0C0F18BF93EA0C0F0AD0D9
:100D200030F0004C18BF31F0004CD8D180EA0100FF
:100D300000F00040704790F0000F17BF90F0004F98
:100D4000084691F0000F91F0004F14D092EA0C0F7A
:100D500001D142020FD193EA0C0F03D14B0218BF0D
:100D6000084608D180EA010000F0004040F0FE4053
:100D700040F40000704740F0FE4040F440007047EF
:100D80004FF0FF0C1CEAD0521EBF1CEAD15392EA6E
:100D90000C0F93EA0C0F69D0A2EB030280EA010C5E
:100DA00049024FEA402037D04FF0805343EA1111F7
:100DB00043EA10130CF000408B4238BF5B0042F155
:100DC0007D024FF4000C8B4224BF5B1A40EA0C00FA
:100DD000B3EB510F24BFA3EB510340EA5C00B3EB2C
:100DE000910F24BFA3EB910340EA9C00B3EBD10F1A
:100DF00024BFA3EBD10340EADC001B0118BF5FEA6C
:100E00001C1CE0D1FD2A3FF650AF8B4240EBC25094
:100E100008BF20F0010070470CF0004C4CEA502055
:100E20007F32C2BFD2F1FF0340EAC250704740F4A4
:100E300000004FF00003013A37E792F0000F00F096
:100E4000004C02BF400010F4000F013AF9D040EA14
:100E50000C0093F0000F01F0004C02BF490011F4A8
:100E6000000F013BF9D041EA0C0195E70CEAD153A0
:100E700092EA0C0F08D142027FF47DAF93EA0C0F87
:100E80007FF470AF084676E793EA0C0F04D14B026B
:100E90003FF44CAF08466EE730F0004C18BF31F01D
:100EA000004CCAD130F000427FF45CAF31F0004317
:100EB0007FF43CAF5FE700BF4FEA4002B2F1FE4F64
:100EC0000FD34FF09E03B3EB12620DD94FEA00230C
:100ED00043F0004310F0004F23FA02F018BF4042E5
:100EE00070474FF00000704712F1610F01D14202CC
:100EF00005D110F0004008BF6FF0004070474FF080
:100F0000000070477BB972B90029BEBF00204FF0C6
:100F1000004106E008BF00281CBF6FF000414FF001
:100F2000FF3000F057B8ADF1080C6DE904CE002990
:100F300009DB002B1ADB00F07CF8DDF804E0DDE9CA
:100F4000022304B07047404261EB4101002B1BDBE0
:100F500000F06FF8DDF804E0DDE9022304B0404260
:100F600061EB4101524263EB43037047524263EB32
:100F7000430300F05EF8DDF804E0DDE9022304B08D
:100F8000404261EB41017047524263EB430300F082
:100F900050F8DDF804E0DDE9022304B0524263EBCF
:100FA0004303704753B94AB9002908BF00281CBF42
:100FB0004FF0FF314FF0FF3000F00CB8ADF1080CEE
:100FC0006DE904CE00F035F8DDF804E0DDE9022338
:100FD00004B07047704700BF10F8012B11F8013BB7
:100FE000012A28BF9A42F7D0D01A7047034611F859
:100FF000012B03F8012B002AF9D17047034613F89F
:10100000012B002AFBD1181A01387047430803F05E
:101010005533C01A00F03333800800F033301844E1
:1010200000EB10104FF0013300F00F305843000E6A
:1010300070472DE9F0478C468E46089E15460446BB
:101040001946002B40F0D080724547D9B2FA82F79A
:101050004FB1C7F120030EFA07FC20FA03F3BD409D
:1010600043EA0C0CBC404FEA154EA8B2BCFBFEF89C
:10107000230C0EFB18CC08FB00F943EA0C439945FE
:1010800028D9EB1808F1FF3204D2994502D9A8F10A
:1010900002022B44A3EB0903A4B2B3FBFEFC0EFB3C
:1010A0001C330CFB00F044EA0344A04214D92C1971
:1010B0000CF1FF3304D2A04202D9ACF102032C445C
:1010C000241A43EA02401EB1FC40002334607360DE
:1010D000BDE8F0874246DDE76346F1E7002A79D0B4
:1010E000B2FA82F3002B3FD01946C1F1200302FA75
:1010F00001F52EFA03F20EFA01FE20FA03F343EA99
:101100000E034FEA154E00FA01F4B2FBFEFCAFB23B
:101110000EFB1C201A0C0CFB07F842EA004290451B
:101120005AD9AA180CF1FF3004D2904502D9ACF17B
:1011300002002A44A2EB08029BB2B2FBFEFC0EFBAB
:101140001C220CFB07F743EA02439F4246D9EB18E7
:101150000CF1FF3204D29F4202D9ACF102022B44BF
:10116000DB1B42EA004202E0AEEB020301224FEA3F
:10117000154EAFB2B3FBFEFC200C0EFB1C330CFB78
:1011800007F840EA034398452AD9EB180CF1FF30E1
:1011900004D2984502D9ACF102002B44A3EB08031A
:1011A000A4B2B3FBFEFC0EFB1C330CFB07F744EAB6
:1011B0000344A74216D92C190CF1FF3304D2A742DD
:1011C00002D9ACF102032C44E41B43EA00400F4671
:1011D000114678E71F2188E76046ABE76246BFE724
:1011E0006046DBE76346EFE7734506D916B9002191
:1011F00008466DE7C6E9000EF9E7B3FA83F787B949
:10120000734501D3824207D8841A6EEB0303012091
:101210009C461EB900215BE73846FAE7C6E9004C58
:10122000F8E7C7F1200CBB4022FA0CF51D4320FA69
:101230000CF12EFA0CF30EFA07FE41EA0E014FEA0A
:10124000154900FA07F4B3FBF9F81FFA85FE09FB0C
:1012500018300B0C08FB0EFA43EA00439A4502FAD9
:1012600007F240D9EB1808F1FF3004D29A4502D9B1
:10127000A8F102002B44A3EB0A0389B2B3FBF9F8EF
:1012800009FB183308FB0EFE41EA03418E452CD9B9
:10129000691808F1FF3304D28E4502D9A8F1020380
:1012A000294443EA0040A0FB0298A1EB0E0141450E
:1012B000CE46434602D306D14C4504D2B9EB020ECA
:1012C00068EB05030138002EA4D0B4EB0E0261EBED
:1012D000030101FA0CFC22FA07F34CEA0303F9407C
:1012E000C6E9003196E74046C5E74346D9E7000026
:1012F0002DE9F04FDFF870B15C485D4EDFF8748186
:10130000DFF874A185B019F0C1F85946574819F0B3
:10131000B8F85A4819F0BAF83146584819F0B1F8F7
:10132000574819F0B3F84146554819F0AAF87068C3
:10133000FFF7C0F846A3D3E90023FFF74FFA0446AE
:1013400030680D46FFF7B6F802460B4620462946A0
:10135000FEF764FF0646D8F804000F46FFF7AAF828
:101360003BA3D3E90023FFF739FA0446D8F800007D
:101370000D46FFF79FF802460B4620462946FEF72A
:101380004DFFCDE90201DBF80400DAF82040FFF759
:1013900091F82FA3D3E90023FFF720FA8046DBF86A
:1013A00000008946FFF786F802460B46404649464C
:1013B000FEF734FF28A3D3E90023FFF7E5F8314B0C
:1013C0000022FFF70BFA24A3D3E90023C4E90001AC
:1013D00030463946FFF7D8F82A4BDAF82080002249
:1013E000FFF7FCF91CA3D3E90023C8E90201DDE9FA
:1013F0000201FFF7C9F8234BDAF820600022FFF75B
:10140000EDF9C6E90401DAF8201000220023C1E951
:101410000623DAF82010C1E908230BF095FE10A38B
:10142000D3E90023FFF7BEFD5146CAE90002164882
:1014300000220AF095FB38B1144A009040F22D13B7
:101440001348022119F0FDFE05B0BDE8F08F00BF82
:101450000000000080842E41182D4454FB210940D7
:1014600000CA9A3B000000005073002094DE01087F
:101470004873002040730020F8720020B0DE01089D
:10148000CCDE0108008066403C7300200EFD0108A0
:1014900068E401080000000070B505460E460BF038
:1014A00053FE0DA3D3E90023FFF77CFD084C29462A
:1014B000C4E9000204F1180026720CF075FA214606
:1014C0000448BDE8704000220AF04ABBAFF3008038
:1014D000587300209873002000CA9A3B0000000057
:1014E0002DE9F047C0B018B3016A09B3436A052B70
:1014F00024D075496846FFF779FD734A7348744DE7
:10150000012118F0B0FF68462821FFF7C5FF2868C1
:1015100070B118F0A6FF58B16C4614F8011B28688A
:1015200049B90D2118F09AFF28680A2118F096FF92
:1015300040B0BDE8F08718F091FFEEE7D1E90283F3
:10154000D1E9046703F10049D1E900015CA3D3E9C3
:101550000023FFF719F8DFF87CA1FFF727FADAF884
:1015600000105D4B411A0546186818F074FF0446D8
:10157000002800F099800346584A4FF4807168466D
:1015800018F060FC554A5148514D2346012119F08D
:101590004EFE68462821FFF77FFF286878B118F0D3
:1015A00060FF60B16C4614F8011B2868002978D1EF
:1015B0000D2118F053FF28680A2118F04FFF40A3AF
:1015C000D3E9002340464946FEF7DEFFDFF81081ED
:1015D000FFF7ECF9D8F80010424B411A054618689D
:1015E00018F039FF0446002864D003463E4A4FF401
:1015F0008071684618F026FC3B4A3448344D234637
:10160000012119F014FE68462821FFF745FF2868DC
:1016100078B118F026FF60B16C4614F8011B2868F9
:10162000002944D10D2118F019FF28680A2118F06B
:1016300015FF23A3D3E9002330463946FEF7A4FF64
:101640002A4EFFF7B3F93168294B411A054618684D
:1016500018F001FF044680B30346264A4FF4807118
:10166000684618F0EFFB234A1848194D234601211C
:1016700019F0DDFD68462821FFF70EFF28680028D5
:101680003FF456AF18F0EDFE00283FF451AF6C4622
:1016900014F8011B286800293FF443AF18F0DEFE60
:1016A000F6E718F0DBFE7EE7CAF8005087E718F08F
:1016B000D5FEB2E7C8F80050BBE7356038E700BF99
:1016C000CDCCCCCCCCD47F4064FD010868E40108CB
:1016D000E4730020387400204474002095FD010854
:1016E0003474002040740020AEFD010830740020E6
:1016F0003C740020C7FD0108F0B59D4C9D48FDB02D
:10170000206018F0AEFE20B19B4D15F8011B00299A
:1017100034D19A493CA8FFF769FC984A98480321BC
:1017200018F0A1FE3CA81421FFF7B6FE206848BBC4
:10173000944D284618F095FE00283AD192493CA8CD
:10174000FFF754FC904A8E48012118F08CFE3CA80B
:101750002821FFF7A1FE206870B118F082FE58B171
:101760003CAD15F8011B206801BB0D2118F076FE79
:1017700020680A2118F072FE0020D6E1206818F0D7
:101780006DFEC2E718F06DFE0028D1D03CAD15F813
:10179000011B206839B90D2118F060FE20680A216C
:1017A00018F05CFEC4E718F059FEF0E718F056FE9A
:1017B000D7E72A69A9681368744F23F400531360AC
:1017C0000B684FF4C0220D212846984770483860B6
:1017D00018F047FEE0B96F493CA8FFF707FC6D4AD7
:1017E0006748012118F03FFE3CA82821FFF754FE6E
:1017F00020680028C0D018F034FE0028BCD03CADD2
:1018000015F8011B20680029AFD018F027FEF7E774
:10181000614E6248306018F024FEE0B960493CA88F
:10182000FFF7E4FB5E4A5648012118F01CFE3CA875
:101830002821FFF731FE206800289DD018F011FE06
:10184000002899D03CAD15F8011B206800298CD0E8
:1018500018F004FEF7E7534D5348286018F001FED6
:10186000F8B952493CA8FFF7C1FB504A444801214E
:1018700018F0F9FD3CA82821FFF70EFE206800288B
:101880003FF47AAF18F0EDFD00283FF475AF3CADA2
:1018900015F8011B206800293FF467AF18F0DEFD42
:1018A000F6E74349386818F0E6FD386818F0DDFDC2
:1018B000386800F055FE3F49306818F0DCFD3068AC
:1018C00018F0D3FD306800F04BFE3B49286818F053
:1018D000D2FD286818F0C9FD286800F041FE37489D
:1018E00018F0BFFDF8B936493CA8FFF77FFB344A32
:1018F0002348012118F0B7FD3CA82821FFF7CCFDB3
:10190000206800283FF438AF18F0ABFD00283FF402
:1019100033AF3CAD15F8011B206800293FF425AF1B
:1019200018F09CFDF6E7274818F09BFD00284DD1E4
:1019300025493CA8FFF75AFB234A1148012118F01A
:1019400092FD3CA82821FFF7A7FD206800283FF45E
:1019500013AF18F086FD00283FF40EAF3CAD15F82C
:10196000011B206800293FF400AF18F077FDF6E76F
:10197000E4730020D0DD0108E0FD0108E8FD010866
:1019800068E4010844DD010820FE010844740020D9
:1019900074DF010836FE01084074002090DF010862
:1019A00050FE01083C740020ACDF01086AFE01080B
:1019B00075250008852500085125000894DE0108DA
:1019C00084FE0108B0DE01089EFE0108A74818F059
:1019D00048FDF8B9A6493CA8FFF708FBA44AA5486A
:1019E000012118F040FD3CA82821FFF755FD206893
:1019F00000283FF4C1AE18F034FD00283FF4BCAE1F
:101A00003CAD15F8011B206800293FF4AEAE18F07C
:101A100025FDF6E798493CA8FFF7E8FA964A95486D
:101A2000032118F020FD3CA81421FFF735FD2068A4
:101A300078B118F016FD60B13CAD15F8011B2068B7
:101A4000002974D10D2118F009FD20680A2118F031
:101A500005FD8A4818F005FD00286ED188493CA88C
:101A6000FFF7C4FA864A8348012118F0FCFC3CA821
:101A70002821FFF711FD206878B118F0F2FC60B161
:101A80003CAD15F8011B2068002953D10D2118F039
:101A9000E5FC20680A2118F0E1FC7A4B01937A4BAF
:101AA0007A4A7B49009301207A4B0BF095F906A8FE
:101AB0000BF0EAF80025002206AB11460BA80AF04D
:101AC000BBFF0646002858D173493CA8FFF78EFAA1
:101AD000714A6848032118F0C6FC3CA81421FFF79E
:101AE000DBFC206878B118F0BCFC60B13CAD15F8A7
:101AF000011B206800293DD10D2118F0AFFC2068A2
:101B00000A2118F0ABFC654A65490BAB04A80AF042
:101B1000DDFF00286CD040F2A71300905548614AC1
:101B2000012119F08EFB4FF0FF307DB0F0BD18F0B1
:101B300095FC82E718F092FCA3E75B493CA8FFF70D
:101B400055FA594A4B48032118F08DFC3CA8142142
:101B5000FFF7A2FC206800289FD018F082FC002824
:101B60009BD03CAD15F8011B206800298ED018F0E1
:101B700075FCF7E718F072FCB9E7013503464B4AEC
:101B800000954FF480713CA818F05CF9474A394839
:101B900000953346022119F054FB1E213CA8FFF7A3
:101BA0007BFC42F2107000211BF058FD0A2D82D1FF
:101BB0003F493CA8FFF71AFA3D4A2E48012118F088
:101BC00052FC3CA82821FFF767FC206800283FF45E
:101BD000D3AD18F046FC00283FF4CEAD3CAD15F86F
:101BE000011B206800293FF4C0AD18F037FCF6E770
:101BF000304D04A800F0CEFC28460BF0EDFF052187
:101C000005F114000BF0FEFE052105F120000BF09C
:101C100013FE052105F138000BF00EFE2649686918
:101C20000BF0C2FE686925490C300BF0BDFE6869F7
:101C3000234918300BF0B8FE6869224924300BF0B4
:101C4000B3FE6869204930300BF0AEFE0523AB616E
:101C50006B620CF045F81D4B024604A91C480AF0C3
:101C600071FFB8B34FF4E673009057E7CCDE01087C
:101C7000B8FE010868E40108D2FE010878DE010818
:101C8000ECFE010829A10008F5A00008D19F00087A
:101C9000F072002007D201081EFF0108E7FD0108CD
:101CA0004AFF01080EFD010807FF010865FF010852
:101CB00093FF0108F8720020DBFF0108E3FF010831
:101CC000EBFF0108F3FF0108FBFF01081D010208FB
:101CD0003C730020A0493CA8FFF788F99E4A9F4822
:101CE000032118F0C0FB3CA81421FFF7D5FB2068A6
:101CF00070B118F0B6FB58B13CAD15F8011B206867
:101D0000B9B90D2118F0AAFB20680A2118F0A6FB2A
:101D1000934B009301268EA3D3E9002301960BA9D0
:101D200003A80AF077FF054630B140F2D3130090C4
:101D3000F4E618F093FBE0E78A480BF04DFF05212D
:101D400089480BF05FFE0521064688480BF074FDBC
:101D50000521064086480BF06FFDF6B20640854827
:101D60000BF09AFD06B1F8B983493CA8FFF73EF99C
:101D7000814A7A48012118F076FB3CA82821FFF718
:101D80008BFB206800283FF4F7AC18F06AFB0028B2
:101D90003FF4F2AC3CAD15F8011B206800293FF47C
:101DA000E4AC18F05BFBF6E76E4E706928440BF06C
:101DB00073FD70697149202228440BF0CBFDF8B9FE
:101DC0006F493CA8FFF712F96D4A6448012118F0E9
:101DD0004AFB3CA82821FFF75FFB206800283FF45E
:101DE000CBAC18F03EFB00283FF4C6AC3CAD15F878
:101DF000011B206800293FF4B8AC18F02FFBF6E770
:101E00000C353C2DD1D15D495A4840220BF0A2FD42
:101E1000F8B95C493CA8FFF7E9F85A4A4F48012154
:101E200018F021FB3CA82821FFF736FB206800288A
:101E30003FF4A2AC18F015FB00283FF49DAC3CAD7C
:101E400015F8011B206800293FF48FAC18F006FB41
:101E5000F6E70BF045FF4C4B024604A94B480AF04D
:101E6000A5FE18B140F2F913009057E618A80AF041
:101E700093FB06AB03220BA918A800F095F818B144
:101E800040F20523009049E60090414B354A3F4916
:101E900018A80AF08BFB18B140F2072300903DE62A
:101EA00003A918A80AF0D6FB18B140F20F2300903E
:101EB00034E638493CA8FFF799F8364A2748364DAA
:101EC000032118F0D0FA3CA81421FFF7E5FA2068A6
:101ED00070B118F0C6FA58B13CAE16F8011B28686C
:101EE00071BB0D2118F0BAFA28680A2118F0B6FA69
:101EF0002A493CA8FFF77AF8284A1848032118F025
:101F0000B2FA3CA81421FFF7C7FA206870B118F0A4
:101F1000A8FA58B13CAC14F8011B286899B90D21F6
:101F200018F09CFA28680A2118F098FA1C4A002335
:101F300018A80AF01DFC002164201BF08FFBF5E7B8
:101F400018F08CFAC9E718F089FAE4E7AFF30080DB
:101F500000CA9A3B000000000300020868E4010880
:101F6000F11200089C730020B0730020BC730020A5
:101F7000D4730020A473002027000208E7FD0108A5
:101F80005000020880000208AE000208E073002042
:101F9000E1140008BE000208E4730020FD000208FE
:101FA000809698000000000000285DD02DE9F043E5
:101FB0000C46B3B0002953D00546184616461F46B6
:101FC0000AF070FE00284BD0002E49D02A499022FA
:101FD0000EA81BF099FC0EA9902228461BF094FC39
:101FE0006C606846EE606C4611F0AEFF0FCC05F1F8
:101FF000180CACE80F000FCCACE80F000FCCACE82D
:102000000F000FF26C09D9E900892368CCF8003081
:10201000C5E91C896F613B683969B0019847A860C0
:1020200020B3002400E0A86800EB8410314601349E
:102030000AF0F2FCA642F6D105F14C000AF0E2FCEF
:102040000E49AA680023C5E920132AB16A691AB1AA
:10205000EA680AB185F88830002033B0BDE8F08323
:102060000B2033B0BDE8F0830B2070470A20F8E75F
:1020700000CA9A3B0000000008E601083DC20008C3
:10208000F0B593B01A9E8AB186B1044650B1D0F82B
:1020900080303BB1C0680F46154611F08DFB08B18A
:1020A000237A3BB90125284613B0F0BD0B252846FD
:1020B00013B0F0BD04F1600EBEE80F000DF10C0C82
:1020C000ACE80F00DEF80030CCF8003003A80AF0CE
:1020D000E9FD0028EAD0206809F068FD002845D015
:1020E0006946E06811F0E8FB014600283BD1202258
:1020F0000DEB02001BF016FC25A3D3E90023DDE95C
:1021000000018DF82070FEF7FDFECDE90902DDE942
:102110001823CDE91023237A30687168B268012B47
:10212000F36808BF00250BAE012F0FC621D8D4F8E5
:1021300080302A4608A89D6903A90023A8470646BF
:10214000002EAFD031462068002209F009FDD4F8F6
:1021500080300546DB6903A930469847002DA2D0A0
:102160000AF0CAFD9FE70AF0C7FD9BE74FF496759A
:1021700099E7B91E0129F6D8D4F880202B4608A883
:10218000956903A90022A8470646D9E7AFF3008066
:1021900000CA9A3B00000000002800F0C7812DE92A
:1021A000F04F056B99B00446002D00F078819946F8
:1021B00043689246002B00F09580296C002900F0BE
:1021C000AA80002318461E46226952F823206AB1CD
:1021D000E2686F691A4457F822203AB1296947F832
:1021E00021202A6901322A61256B296C013340F1D3
:1021F00000008B4270F10002E6D36FF00047CDE99A
:102200000C66CDE90E665AEA09034FF0FF36CDE9B8
:102210001267CDE91467CDE916670DF1300B00F0B8
:102220008E80002900F046810025CDF8149027E02B
:10223000CDE90867236908A953F8080011F058FE92
:1022400040F22133984200F0B480002860D1DDE9EB
:10225000072C1078DDF8248018AB03EBC00151E99E
:102260000893CC4578EB030304DA0DEB800041E9D9
:1022700008C80263236B196C01358D4280F0188108
:10228000236953F825004FEA85080028F4D007A9F0
:1022900011F058FD0346002840F0068107980278A7
:1022A000012AC5D10DF11B018DF81B3011F010FB77
:1022B000002840F0F9809DF81B30002BB8D023692E
:1022C0008DF820000DF1200853F82500414611F04B
:1022D000D5FD002840F0E8809DF82030002BC9D0C3
:1022E000256B2EE0C368002B7FF467AF4369002B9A
:1022F0007FF463AFC369002B7FF45FAF436A002BA9
:102300007FF45BAFC36A002B7FF457AF40F2853098
:1023100019B0BDE8F08F6FF000434FF0FF32CDE908
:102320001223CDE91423CDE916235AEA0903CDE996
:102330000C11CDE90E110DF1300B40F0BB800DF109
:10234000200800220023CDE90823CDE90A234146D5
:102350000291EA6B05F13403CDE9003205F1100179
:1023600005F11C0305F12802281D14F067FD236BFD
:102370001A6C804612B300252F462E4607E02269CC
:1023800042F82530236B1A6C0135954217D220692B
:1023900050F8250007A90028F6D08DF81C6011F030
:1023A0006DFD0028B4D19DF81C30002BE7D01F46EE
:1023B000E8E72369002243F808205BE7174638F076
:1023C000020071D1656802463DB1996851F822104A
:1023D000002937D00132AA42F7D3E5684DB1236B0B
:1023E0000022596951F82210002934D00132AA4242
:1023F000F7D3E56945B1236B0022196A51F8221021
:1024000091B30132AA42F8D3656A45B1236B002229
:10241000D96A51F8221081B30132AA42F8D3E56A91
:1024200045B1236B0022996B51F8221071B3013230
:10243000AA42F8D3B8F1020F7FF46AAF87F0010720
:10244000780065E7236843F82210656801329542F9
:10245000C3D9236BB9E7A36843F82210E5680132BA
:10246000AA42C6D2236BBCE7A36943F82210E569F0
:102470000132AA42C8D2236BBFE7236A43F8221075
:10248000656A0132AA42CAD2236BC1E7A36A43F844
:102490002210E56A0132AA42CCD2236BC3E74FF483
:1024A000617019B0BDE8F08F012019B0BDE8F08F60
:1024B000DDF81490BAF1010F79F100033ADB4FF027
:1024C000010810AD16AE5BF8040F08A9A8B111F011
:1024D000F3F900287FF41CAF089AAB6809999B1A9E
:1024E000EA6862EB01029A4579EB0201BABF5346F2
:1024F0004A464FF001089A4691460835AE42E2D16D
:10250000256BB8F1000F13D0B9F1000F0EA3D3E97A
:102510000023ABBF5046002049460021FEF7F2FCE5
:10252000CDE90801CDE90A2308A911E70B2070477E
:1025300041460DE74FF0FF3A6FF000494FF00008B9
:10254000BFE700BFAFF3008000CA9A3B0000000065
:1025500011B9024808F098B9704700BFE87300202D
:102560008368D96811B1024A00230847704700BF49
:1025700060E3160011B9024808F086B9704700BF41
:102580001874002011B9024808F07EB9704700BFE6
:102590000074002030B50F4D9FB0044680202862A3
:1025A00003F0C0FC0023EB61A86102AD284609F0EE
:1025B000AFFA09F01FFB21460246074B074800957A
:1025C00009F00EFA014610B1054818F0CFF91FB016
:1025D00030BD00BF587300202CFD01089873002007
:1025E0003BFD01082DE9F84F0B1FA3EB00098846BE
:1025F00002F007014FEAD90603F007030B3129F077
:1026000007090B44D408814404EBD3048368B9F868
:1026100002B09C4228BF1C461BF0010B00AF0546D0
:1026200016D1EA4688B06A464A4BCDE905380323FD
:1026300042F8103F48485B464FF4C25101F018F988
:10264000D5468BF31188BFF36F8F0423184602DF42
:102650003146284617F01EFF304435F83030C01A96
:10266000864217D0EA4688B06A463C4BCDE9053829
:10267000032342F8103F384800234FF4C25101F0C1
:10268000F7F80023D54683F31188BFF36F8F042337
:10269000184602DF3146284617F0FCFE8442824687
:1026A00022D026D234442846224617F098FFB9F8A3
:1026B000023043F00103A9F802302146284617F002
:1026C000E9FE261805EBC6035B88DB0708D4314614
:1026D000284617F028FF32462146284617F068FFA3
:1026E0002146284617F0DBFE01221046BD46BDE814
:1026F000F88F06EB000805EBC802528812F00102C1
:1027000025D14146284617F0C5FE50448442ECD8F6
:10271000284617F008FF4146284617F0BBFEA4EBF9
:102720000A0A824507D23219284617F058FF114687
:10273000284617F0B4FE42463146284617F038FFC7
:10274000B9F8023043F00103A9F80230CCE70022C7
:10275000CBE700BF4201020898E4010866010208C5
:102760002DE9F84F8A4600AF002974D004680E1F87
:10277000361BF50826F0070604EB0608B8F802B089
:102780001BF0010B16D1E94688B06A46334BCDE900
:102790000531032342F8103F31485B464FF4C251E4
:1027A00001F066F8CD468BF31188BFF36F8F0423D9
:1027B000184602DF2946204617F06CFE284434F8FC
:1027C0003030C01A854217D0E94688B06A46254B9A
:1027D000CDE9053A032342F8103F214800234FF486
:1027E000C25101F045F80023CD4683F31188BFF3B1
:1027F0006F8F0423184602DFB8F8023023F001037C
:10280000A8F802302946204617F044FE05EB0008E0
:1028100004EBC8035B88DA0708D44146204617F06A
:1028200082FE42462946204617F0C2FEA65BAE1B3A
:1028300004EBC6035B88DB0709D43146204617F05A
:1028400072FE2A463146204617F0B2FE354629462A
:10285000204617F024FEBD46BDE8F88F8F01020820
:1028600098E40108660102082DE9F04F91B0840751
:10287000009302F004030293C2F3C20303F10103C5
:10288000DDF868A0039205460E46059340F09D8151
:10289000041D00284AD101F00706341DC6F10806C0
:1028A000009B00275A1E4FF004084FF0FF3301939E
:1028B0000497B946BB4643460DB10099216005987F
:1028C000002800F3D78090480099814203D38F48B5
:1028D0008142C0F0CF80039911F0020CA4EB0500F7
:1028E00040F0D680B9F10F0F00F2CF80002D00F03C
:1028F000D68009F140010DEB010EC0F3870001996C
:102900000EF8200C0EF8101CBCF1000F00F0C38074
:1029100060F07F000EF8200C013709F10109C5F1C4
:102920000801043406914FF6DA7E8CE00729B7D807
:102930006FF01B0011B0BDE8F08F7A285BD84B28F0
:102940000FD8472857D829282ED8252850D052D814
:10295000202818BF23280CBF4FF0010B4FF0000BAD
:1029600071E04C382E2846D8DFE800F06D4545452B
:102970004545454545454545484545454545454504
:1029800045564548485656566D486A456D4518485F
:102990001845457F7C48454548457C0000204FF060
:1029A000000B4FF0040835E02A38C0B2012101FACB
:1029B00000F010EA0E0F46D110F0625C2CD110EA44
:1029C000010B40D06046013C4444B4FBF8F408FBE2
:1029D00004F425B1A3EB050CA444B445A8D8002801
:1029E00070D00599013905915AF8041B009163E7ED
:1029F0000199013901914FF0000B24E012F8010C0C
:102A00006C2834D112F8023C00206C2B8346C8D1CC
:102A10004FF008084346D6E70AF1070A2AF0070AEA
:102A20000734FAE802BC24F0070435B106982044C4
:102A3000B0423FF67DAFC4E900BC08344FF0000B54
:102A40004FF00808434612F8010F002853D0BBF19D
:102A5000000F7FF472AF2528F5D1019B013301935C
:102A60004FF0010B4FF00408ECE7584697E70020C1
:102A70008346A8E7039988077FF551AF601B4FF0A5
:102A8000010CB0F5007FFFF42DAF6FF0150051E79A
:102A90004FF0000CF5E70498013004903DE7BCF1DD
:102AA000000F01D0013638E70298023600287FF483
:102AB00034AF0098CDE90632FEF7A0FADDE9063220
:102AC00006442AE7042B08D10AF1040015B1DAF80C
:102AD0000010216004348246B5E70AF1070323F0B1
:102AE000070303F1080A1DB1D3E90001C4E900019D
:102AF00008340823A7E7631BB3F5806FC5D23DB93F
:102B0000A6F10804E01815E720DB0108C01E020842
:102B1000029A28609B082B709DF81030AAB1EB70C8
:102B2000AF702FB108A80022C5F1010C91450ED15C
:102B3000C5F101030DF120084FF0000A01930DF1DA
:102B4000300BD14512D1601BF4E66B70E8E710F84A
:102B5000013B190608D50CEB040EB64503F07F03C4
:102B60003FF6E6AE04F8013B0132DFE71FB198F90A
:102B70000020002A17DB029BD3B11AF80B2004F8BF
:102B8000012B0022019B18191044B0423FF6D0AE31
:102B900098F8000004F8010B0099039220461AF0FF
:102BA000B3FE039A14440AF1010A08F10108C8E7C8
:102BB00098F8002055F822300093029B45F8223007
:102BC0000098FEF71BFA421CDCE76FF00D00B1E63F
:102BD0002DE9F04F97B000AFC7E90A3205468A46A3
:102BE00049B903784678807800EB8300284456453D
:102BF00024D8A0EB050AD7F8803095F80280D7F8E2
:102C0000804003F00103FB61EB787B62B8F1000FB9
:102C10000CBF002404F001041BB1D7F880309A07E0
:102C200015D4A4B9FB6A1BB1BA6A51462846984725
:102C3000564630465C37BD46BDE8F08F441C204602
:102C4000FEF7DCF9013020440AF1010ACFE7D7F89A
:102C50008030C3F3C0033B622B78BB619B003B61B8
:102C60006B687B61BB6905EB830BFB6A002B77D13B
:102C70005646D844BCB11C461BF8013B55F823000E
:102C8000FEF7BCF9D7F88430013043B1D7F888306B
:102C9000A34282BFD7F8843023F814000134C3451F
:102CA0000644E9D1D846D7F8803013F0050F0CBFA1
:102CB0004FF0020B4FF0010B4FF000097B6A994572
:102CC000B7D298F8013055F823A0AE4B9A4508F1D9
:102CD0000208C0F04B81AC4B3A6A9A452CBF0023E6
:102CE00001230AB318F8021C7869FB6217F0E8FDAB
:102CF000FB6AC8B1EA468AB06A46A44B05937B6971
:102D0000CDE906314FF40073ADF82030A04B42F806
:102D1000103FA04800234FF4125100F0A9FD023EDD
:102D2000D54609F10109C9E723B1FB6933B9A6EB1F
:102D30000B06F6E7D7F880309B07F2D55046FEF732
:102D40005DF9D7F884304BB1D7F888309C423FBF4B
:102D5000D7F88420431C22F8143001340644E0E7FD
:102D6000002C69D1B8F1000F6CD0D7F8803058072B
:102D70006BD5C14607F14800424659461AF0C4FDDA
:102D80000BEB0803FB6000220233796A8A425ED3B0
:102D9000D7F8802095F801B0F969920704EB0B038E
:102DA000DBB254BF4FEA59020022002940F0A6804E
:102DB000D7F8801011F0040F14BF494600216B7042
:102DC000A970EA703969BA6AFB6A28469847061EF4
:102DD000FFF62FAFBB692B707B6AEB704946BA6A6E
:102DE000FB6A85F801B085F8028007F14800984732
:102DF000B0F10009C0F2B6803B697A6A786A03EBE9
:102E00004201FB68BA6A414403EB4000AAEB0101AE
:102E1000FB6A98470028C0F2A780B14409EB00067E
:102E20004FF0000B07F1380AA34569D30021BA6AB5
:102E3000FB6A08469847FCE6444607F138004FF025
:102E4000000999E74446C1469AE7A14698E713F876
:102E5000016CDFF830C155F8260013F8021C6045FC
:102E6000C0F08A80DFF820C16045386A2CBF4FF07F
:102E7000000B4FF0010B38B17869C7E9013217F048
:102E80001FFDD7E90132F0B9BBF1000F1ED0F9697F
:102E900049B1611C04F1280007F13004041904F859
:102EA000206CCCB20FE0D7F8801049070BD509F1A0
:102EB000280007F1300C09F1010100EB0C0909F8B9
:102EC000106C5FFA81F9013202335EE7D7F88000B7
:102ED0008007DED409F1280C07F1300EF44409F123
:102EE00001000CF8101C07F1580151FA80F009F1AB
:102EF00002095FFA89F900F8106CE4E700215EE747
:102F00001BF80A3087F8373055F82390D7F884300B
:102F10002BB3D7F888309B4521D2D7F8843033F8CB
:102F20001B80BA6AFB6A012107F137009847002825
:102F30001ADB0644B8F1000F06D14846FEF75EF8EA
:102F400000F101081FFA88F8BA6AFB6A4146484650
:102F50009847002808DB06440BF1010B64E74FF0AB
:102F60000008DEE74E4664E6064662E63B6A002B52
:102F70003FF4E0AE0023B5E6386A0028A6D04FF053
:102F8000000B79E720DB0108C01E0208BC01020823
:102F90000400000118E4010830B50446EFF3118580
:102FA000102383F31288BFF36F8F044B0FCB84E899
:102FB0000F0085F31188BFF36F8F30BD801F002095
:102FC00001281FB50C4605D004281DD06FF0150050
:102FD00004B010BD1AF0F2FB42F210720023FDF7AC
:102FE000E1FF104B5A43C4E90001A2606846FFF7B5
:102FF000D3FF6946204617F080FC18B90A4B0FCB67
:1030000084E80F000020E3E71AF0D8FB42F21072C8
:103010000023FDF7C7FF034B5A43C4E90001A26038
:10302000F0E700BFA086010060E50108014B1860D1
:10303000704700BF5808002080B505460E46174669
:10304000984608F039F9034602F08CFDDFF8189035
:10305000044649F80030424630463946A84754F8FD
:10306000090002F00FFD00BF100000002DE9F84339
:1030700044690569C76840F26C73E1170135E418CB
:1030800041F10001022D8CBF00230123E41A61F1FC
:1030900000010029064607F1FF3751DA6FF4C770C7
:1030A00020184FF4C8724FF0000361F10001FDF7E2
:1030B00029FF264B03FB0044D6E90083B6684FEA9C
:1030C000E37C4FF03C0E99466346C6FB0E93A9FB8A
:1030D0000EC60EFB0366A30840F26D1E032D0EFB09
:1030E000043302463B4434BF09206FF002006427DA
:1030F0000544B4FBF7F499201B1B154C45431CEB0E
:10310000080C4FF0050005F10205B5FBF0F5A2FB38
:1031100004202B4404FB010146EBE87698180D4A85
:1031200041F1000380180C4A63F10003A0FB020187
:1031300002FB031110EB0C0041EB0601BDE8F88324
:103140004FF4C87200232046B1E700BF70FEFFFFB6
:10315000B13A02009405F5FF8051010010B5FFF768
:1031600085FF024602F0FEFC0B4603490024445052
:103170001046194610BD00BF1400000070B5204B6A
:1031800082689A4216DDD0E90016012976F1000521
:1031900003F1010392FBF3F34FEAE3741DDAC9185C
:1031A00044EB0604C0E90014164901FB03238360C5
:1031B000012070BD002AFBDAD0E900410029124E3F
:1031C000A3EB0203B3FBF6F310DA01F100459C42D6
:1031D00075F100050ADA0020EBE7CD439D426FF060
:1031E0000045A5EB0605A541D9DAF4E7E41A61F13B
:1031F000000106FB0322C0E900418260D8E700BF5E
:10320000FFC99A3B003665C400CA9A3B034A53681B
:1032100023F0020353600020704700BF002004E049
:1032200008B54168054883681B680C311BB1984795
:1032300000EAE07008BD6FF05700F9E780DC010894
:10324000192810B502D90024204610BD044B53F8AC
:103250002040204619F0FFFF0028F5D1F3E700BF1A
:1032600028E90108EFF31180102383F31288BFF3DC
:103270006F8F094B1A683AB9084A116841F4807196
:1032800011601168C905FCD51A6801321A6080F313
:103290001188BFF36F8F7047CC740020007000401E
:1032A00010B5EFF31184102383F31288BFF36F8FEF
:1032B000134B1A68C2B9BFF35B8F124B012253E85C
:1032C000001F002903D143E800200028F7D1BFF3F5
:1032D0005B8F04D10C4A0D48022117F09FFF84F345
:1032E0001188BFF36F8F10BD012A01BF08490A681A
:1032F00022F480720A601A68013A1A60EFE700BF90
:10330000CC740020C8740020EB020208F0E401082D
:1033100000700040084B1A6842F480721A601A6804
:1033200042F400721A601A6842F480621A60034B19
:10333000034A1A60704700BF003C02404009002069
:103340000024F4002DE9F047DFF8548004460746D6
:103350004FF0010994FAA4F5B5FA85F509FA05F3D9
:103360002E0108EB05156FEA030A24EA03042B7B00
:1033700063B158F806301B696BB946440422736880
:103380002846196807EA0A0717F0D8FE002CE1D191
:103390003846BDE8F087284698470028F6D1ECE784
:1033A00048E5010810B50F490F4888B000221AF00F
:1033B00007FA00220023CDE9062300240E23CDE9DD
:1033C0000334CDE90144094B094900944FF440729C
:1033D000084807F0EDFC084906481AF09BF820461B
:1033E00008B010BDFD33000828240020193700085C
:1033F000C08A0020901F002028030208014807F01F
:1034000043BA00BF9C1E00202DE9F04780462048AB
:103410000F4617F06BFE0646002832D000252846DE
:10342000BDE8F087237B83B12368DB680BB12046BE
:103430009847636883F8069023681B69CBB9636873
:1034400004221968204617F079FE013610345445DD
:10345000E8D3B8F1000FE2D0002DDFD02846FFF707
:1034600071FF0546002FF7D0002164201AF0F6F80E
:10347000F2E7204698470028E1D009FA06F31D43F9
:10348000E3E7044CDFF810A005464FF00109DEE742
:10349000E074002048E5010858E50108014B53F8A5
:1034A00020007047A4E9010808B5034608462BB17F
:1034B000044A136000F03CFC002008BD6FF01500CA
:1034C000FBE700BF5C08002010B5044C237813B95B
:1034D000034807F0D9F90123237010BD6E82002044
:1034E0009C1E002010B504460B4817F0FFFD5CB190
:1034F000BFF35B8F094B53E8001F013943E800120B
:10350000002AF8D1BFF35B8F05481AF065F905482A
:10351000BDE8104007F0B8B9D8740020DC74002072
:10352000282400209C1E0020064BBFF35B8F002246
:1035300053E8000F43E800210029F9D1BFF35B8F66
:10354000704700BFD874002070B5FFF7EDFF084C3E
:10355000084E0546B44200D370BD63685B792BB159
:1035600023685B6813B12946204698471034F1E779
:1035700048E5010858E5010810B5044C0449204607
:1035800017F015FB034B1C6010BD00BF101E002080
:1035900090E90108D07400200D4A0E48002310B5B0
:1035A00013700D4A13600D4A4FF47A711360FFF7E0
:1035B0007BFFFFF7E1FF0A4B0A4918468B4200D315
:1035C00010BD1A1A5C681211013222711033F5E72E
:1035D0006F82002007B10108D8740020DC7400203D
:1035E00048E5010858E5010801460022014800238A
:1035F00017F0FEBA101E0020014817F095BB00BF5F
:10360000101E0020024B0146186817F0E8BB00BFEF
:10361000D0740020014817F01DBC00BF101E002010
:1036200070B5264B1878002846D0FFF7E5FF054611
:1036300000283ED1224B234C1B68002B12DD1AF0D0
:10364000BDF80A220023FDF7ADFCD4E90032C01A10
:1036500040F2E93361EB0201984271F1000101D3BC
:10366000FFF772FFD4E9003213F57A7342F10002DA
:10367000C4E90032BDE87040FFF7CCBF63685B79F6
:1036800023B1236829461B68204698471034B4426A
:10369000F4D32846FFF7B6FFBFF35B8F0A4B53E81E
:1036A000001F013943E80012002AF8D1BFF35B8FF5
:1036B000C0E7064C064EEAE770BD00BF6E820020F0
:1036C000D874002020240020DC74002048E5010884
:1036D00058E5010870B50D4D297861B90120FFF753
:1036E00093FE0B4C0B4EB44206D3FFF799FF002814
:1036F000FBD101232B7070BD63685B791BB123681C
:1037000020469B6898471034EDE700BF6F82002089
:1037100048E5010858E5010800212DE9F84308466D
:10372000FFF772FE044648B34FF4FA784FF00009F1
:1037300002F018FA1A4B1B4A1B58136033B11A4B8C
:103740001B68092B02DD194807F09EF8184F002569
:1037500044B12046FFF7F6FD044618B94FF0FF3894
:103760004FF0FF39FFF75CFF064628B9B5B90F489F
:1037700042464B4607F0C2F83546E9E74FF0FF38BE
:103780004FF0FF39D4E72B689B691BB1002211462B
:10379000284698471035BD42F5D3E8E7054DFAE7CE
:1037A00010000000D4740020DC7400209C1E002057
:1037B00058E5010848E5010813B5184817F096FCCC
:1037C000174B1B7873B1EFF31184102383F3128826
:1037D000BFF36F8FFFF724FF84F31188BFF36F8F60
:1037E00002B010BD0F4B1B68002BF9D050B900225E
:1037F0000023CDE900230C4842F21072002308F0A8
:1038000047F8EDE70928EBD1074819F0E5FF07482D
:1038100002B0BDE8104007F037B800BFDC740020EC
:103820006F820020D4740020282400209C1E0020D9
:1038300010B5064B1B68044698472146A060044813
:1038400017F053FABDE81040FFF7B6BF5C08002040
:10385000101E0020044A054B9B1AB1EBD30F34BF56
:1038600052F831000020704708E4010848E50108DB
:103870002DE9F04F8FB004AFC1F34A26B8600D4672
:1038800090467B600C0D002E61D04FF000090A239A
:103890004FF0040B07F1140AFE60C7E90799C7F857
:1038A00024900093CDF808B0CDF804A007F11C03D4
:1038B000F9684A464046FFF78BF9B0F5006F0346BA
:1038C0001CD36C468AB0D8F8041004AB2448C3E972
:1038D000050140F2FF71D9611A464FF40071198455
:1038E000204B42F8103F20484B464FF41251FFF74F
:1038F000BFFFA5462C37BD46BDE8F08FC0F30A06D2
:1039000004F11700184420F0070080083B60FFF71F
:103910006BFE66F35325044680B13B68134A00F101
:103920001001C7E90839F961CDE901AB0A23009319
:10393000F96807F11C034046FFF74AF966F353257F
:103940007B68B9682A46204617F018FCD2E704F1D4
:10395000170020F007008008FFF746FE0446EDE759
:10396000390302080400000170E401084FB10108A6
:103970002DE9F04F87B0DDE9127ADDE9106B0546DD
:10398000884614469946BFB11021CDF800A03B46A9
:103990005A460020CDF814A0FEF766FFB0F5006F80
:1039A00001460BD3194A1A4840F2FF73022107B0AF
:1039B000BDE8F04F17F03BBC3946384604F007032A
:1039C00005F00704E40044EA831444EA402444EA8E
:1039D000065406F11700084420F007008008039100
:1039E000FFF702FE054640B13FB10399CDF800A0B4
:1039F0003B465A461030FEF737FF4B4622464146BB
:103A0000284607B0BDE8F04F17F0B8BB78030208AE
:103A100070E40108406820B1034BC01A40F3CF00A6
:103A200070474FF0FF30704708E401080EB403B54B
:103A300003AB014653F8042B0448019302F018FA33
:103A400002B05DF804EB03B0704700BF91B201080B
:103A5000CA0605D48B064CBF02490349FFF7E6BFEF
:103A6000704700BFE6FD0108E5FD01082DE9F04FB4
:103A700089B09846159B0693DDE916A39DF85090F2
:103A8000189F059204460D460493B9F1000F00F00B
:103A9000B08007F48073079317F04EFB07F0020B1A
:103AA0000246002874D078492046FFF7BFFF06463B
:103AB000BBF1000F08D017F0440F6BD173492A46B1
:103AC0002046FFF7B3FF064407F0010353B1704BE4
:103AD000704953F82920704B2046002A08BF1A4627
:103AE000FFF7A4FF07F48073002B07F0080318BF4B
:103AF0004FF00008002B79D0684B694953F8292012
:103B00002046FFF793FF0546059B2BB165491A46F2
:103B10002046FFF78BFF0544B8F1000F05D062493E
:103B200042462046FFF782FF054460483544069B25
:103B30001BB15F49224616F092FE049B002B00F059
:103B40008E80DDF810803946B8F1100F204628BF6E
:103B50004FF01008FFF77CFF0026B54250DC00262E
:103B600033461AF8032053492046FFF75FFF01361A
:103B7000102E4BD0710703D14F492046FFF756FF57
:103B800046453346EDD34D492046FFF74FFFEEE75C
:103B900006468DE74A4B1868002894D0494B4FF4ED
:103BA0007A7B1B68B5FBF3F54FF46163B5FBF0F16D
:103BB00000FB11550BFB05F54FF03C0CB1FBF3F28C
:103BC00003FB1211B5FBF0FEB1FBFCF300FB1E552D
:103BD0000CFB13110BFB05F50091B5FBF0F53A4911
:103BE000CDE901E52046FFF721FF6CE707F0080566
:103BF0008AE7B8F1010F0CBF2C4834484D4696E7D0
:103C00002D492046FFF712FF0136A6E7304920462E
:103C10000026FFF70BFF33461AF803202D49A2F1C7
:103C200020035F2B28BF2E222046FFF7FFFE013620
:103C3000102E0DD0720703D11F492046FFF7F6FE64
:103C4000B0453346E8D81C492046FFF7EFFEEEE7C3
:103C5000049BB3EB0803C24404937FF472AFB9F141
:103C6000000F0AD0FB0704D50B4A0A492046FFF78C
:103C7000DDFE39462046FFF7EBFE204609B0BDE8E1
:103C8000F04F17F0F8BA00BFB5030208B9030208F5
:103C9000B4E90108B6150208B0030208C8E9010832
:103CA000DE030208E4030208E803020891B20108F7
:103CB000715E0008ED030208F5030208F303020831
:103CC000E8740020E4740020C2030208C7B20108AF
:103CD000F7030208F903020873B542F20F738B422F
:103CE00028BF0B4605680F4A04460521684616F0B2
:103CF000A9F863680C495B6806460B22284617F052
:103D0000ACFA63683246694628465B6817F0A5FA44
:103D1000636806495B681B22284617F09EFA02B0CA
:103D200070BD00BF6D0F0208F51C0208D91C020807
:103D3000074A00210123904206D8064A01B901230F
:103D40001360054B1860704740085B000121F2E7E3
:103D500040420F00E4740020E8740020F8B5074FDB
:103D60000D4604464618B44201D12846F8BD14F861
:103D7000011BBB6801485B689847F4E7B4DD0108A4
:103D8000014B03600020704710EA0108F0B40D4BAE
:103D90000D4E5F6A0D4BB34203D36FF08500F0BC4C
:103DA00070475C68BC420AD31D6945B194F802C0F3
:103DB0008488E4B2A44502D12B46F0BC18472433D2
:103DC000E9E700BF18750020801F00205C1F00205D
:103DD0002DE9F047144CDFF85480DFF85490054685
:103DE0000E461746444503D36FF08500BDE8F087C3
:103DF0006268D9F824309A4213D3A3698BB1A98899
:103E00009078C9B2884205D13A4631462846BDE885
:103E1000F04718475279012A03D13A4631462846DD
:103E200098472434DEE700BF5C1F0020801F00207D
:103E3000187500202DE9F0410B4CDFF83080054665
:103E40000E461746444502D36FF0850009E06369CA
:103E50000BB92434F6E73A463146284698470028FD
:103E6000F7D1BDE8F08100BF5C1F0020801F00205B
:103E7000024B00221A605A60704700BFD3750020C1
:103E800070B50B4B0B4CA34201D3002070BD196AD7
:103E90001E7F00220439D5B2AE4201D82433F2E7A6
:103EA000013211F832508542F5D10120EEE700BF12
:103EB0005C1F0020801F002073B58488E4B2630675
:103EC0000D468DF8074007D02046FFF7D9FFB0B167
:103ED000144B93F8BA0090B1124E95B1124A1348A0
:103EE0002346032117F06CFA9DF8070002F01AFC34
:103EF000F3691BB10DF1070108209847012002B0BA
:103F000070BD0B4A09482346032117F059FA9DF862
:103F1000070002F029FCF369002BEFD00DF1070137
:103F20000920EAE7187500203604020830E5010888
:103F30004904020808B50346034A0448012117F062
:103F40003FFA002008BD00BF5E04020830E501080A
:103F500038B5054602F05EFC10F1780F044611D129
:103F60000D4A0E482B46022117F02AFA284617F070
:103F700029FA0B4AD2F8C43023EA0003C2F8C4304D
:103F8000002407E00028F1D0064A04482B4601210E
:103F900017F016FA204638BD7904020830E501080A
:103FA000187500209A04020808B509480378C3F37D
:103FB00041130A3350F823303BB100F1080200F1FD
:103FC00010019847C043C00F08BD1846FCE700BF6A
:103FD0001875002004282DE9F74FDFF89C9004465F
:103FE0000F4615D001282FD1DFF8908098F8B9300E
:103FF00053B300F0ABFE224D4D4522D22A6A4FF05A
:10400000000A2B7F5FFA8AF6B34204D82435F3E71F
:10401000FFF72EFFE8E702EBC6060192307902F0C7
:10402000F9FB8346307917F0CDF9D8F8C430019AFE
:1040300023EA0003BBF1000FC8F8C4300AF1010AFB
:10404000DFDA002388F8B9300D4D4D4508D30B4B0E
:104050001B6A6BB13946204603B0BDE8F04F1847E4
:10406000EB681BB13A462146284698472435ECE7D1
:1040700003B0BDE8F08F00BF801F0020187500203E
:104080005C1F002073B5044680788DF8000023790A
:104090006279294D43EA0223ADF80230E37803F058
:1040A00003038DF8043017F08DF9D5F8C4301842A9
:1040B00006460CD0A478204600F02AFE2046FFF7E2
:1040C00047FF19F021FA10B9962019F0E0FA684676
:1040D00017F0DFFB10F1780F9DF800301BD1174A65
:1040E0001748022117F06CF99DF8000002F062FBFE
:1040F00010F1780F19D19DF80030124A10480221B2
:1041000017F05EF9D5F8C4300120334385F8B900C3
:10411000C5F8C43007E00028E6D00B4A0848012162
:1041200017F04EF9002002B070BD0028EAD09DF8CB
:104130000030064AF2E700BF18750020BC040208F0
:1041400030E5010803050208DF0402082305020820
:104150002DE9F047A94EB36904460F4690466BB966
:10416000237803F01F03012B00F0A280022B00F044
:10417000078143B16FF01500BDE8F087984700282C
:10418000EED10020F8E794F900206178002A2FDAB8
:10419000062910D00829D8F8002024D00029E9D118
:1041A00001231370517096F8C3305B0043F0010394
:1041B0001370022320E16288100A011F01290546BD
:1041C000D8D90728D6D8D1B2726A1478002CD1D0A9
:1041D0005678AE4203D1994200F00881013322445F
:1041E000F3E7137808E196F8BA301370012303E17E
:1041F00001390829BED801A353F821F097420008DD
:1042000075410008A74200087541000821420008D6
:104210007541000875410008754100082F420008EB
:104220006088C0B202F0C8F90028AAD0A2E763886B
:104230003BB1FF27756A0020B8462B786BB9002880
:1042400098D0FFF715FE638886F8BA30F369002B23
:1042500097D06B490320984793E76B78042B0DD0D8
:10426000052B0ED0022B06D16F796388BB4208BFA5
:1042700040F00100C0B22B781D44DEE795F80380C2
:10428000F9E76388BB42F6D1B8F1000FF3D12846B5
:10429000FFF7F8FEEFE76388012B7FF46BAF002395
:1042A00086F8C3306DE76388012B7FF463AFF7E7CF
:1042B00096F8BA30002B3FF45DAFA388756A5FFAB9
:1042C00083FC2A46117800293FF454AF5078022825
:1042D00004D192F804E0E64500F294800A44F1E744
:1042E0000A704A7038604CE7154499E00B2A7FF455
:1042F00041AF00274FF0FF08C146BA4606E06B7891
:10430000042B0FD0052B21D02B781D442B78002BAC
:10431000F5D1F36913B1514607209847002F7FF478
:1043200030AF27E795F80280A38895F80390984569
:10433000EAD163889945E7D1B8F1070F1DD806EB9C
:104340000803AA4683F8BB900127DDE7A38843450D
:10435000DAD16388DBB24B450AD0AF78384600F03B
:10436000D7FC3846FFF7F4FDB0FA80F77F09CBE7BA
:104370002846FFF787FE0746C6E7AA460027C3E799
:1043800094F900206378002A1ADA002B7FF4F2AE49
:10439000A388DDB25B060AD02846FFF771FD00282E
:1043A0003FF4E8AE96F8BA30002B3FF4E3AED8F80D
:1043B00000402846214617F088FA00236370F8E68B
:1043C000012B08D0032B7FF4D5AE6388002B7FF43C
:1043D000D1AE012103E0618800297FF4CBAE2046F5
:1043E000FFF76AFD00287FF4CCAEC3E60228C8F8C8
:1043F00000207FF4F6AE53883B60C2E618750020BB
:10440000D275002094F9001062780029BFF66EAFD3
:10441000D8F80010002A3FF463AF0A2A7FF4AAAE4E
:104420002A78002A3FF4A6AE687804287FF45CAFAF
:10443000A87883427FF458AF072B96BF9B190023BF
:1044400093F8BB300B70D1E62DE9F84305460F46D3
:104450009046994604264B4642463946284602F085
:1044600007FA10F10B0F044609D1064A06482B46FD
:10447000022116F0A5FF06F0A1FE013EEBD1204679
:10448000BDE8F8834405020830E5010813B5164C71
:10449000237DF3B9E268A168019201AB8020FFF7A8
:1044A000D3FF019AA3681344A360E3689B1AE360F7
:1044B0006BB962B12369E2889A4208DD94F8C8209A
:1044C00093FBF2F102FB11330BB90123237502B008
:1044D00010BD00231A4619468020237502B0BDE89E
:1044E000104002F0C5B900BF187500207FB5002349
:1044F0000D4601930646002862D100293AD10822D0
:104500000B460DEB020117F0EDF9002804DA8020CC
:1045100002F008F904B070BD2E4C029A2260039A92
:10452000626004F13802A2609DF90820BDF80E30E7
:104530002575002AC4E903550FDB802B09D9264ACB
:104540002648012116F06AFE802002F0EBF828468A
:10455000DEE713B1C4E90333DCE7FFF725FD0028EC
:10456000D5D0E28823699A42D4BFE260E360FFF7C6
:104570008DFFCFE7174CD4E90212002A01AB05DC0E
:10458000024617F0AFF90028C4DAC0E717F0AAF91D
:10459000002804DA802002F0C5F83046B8E7019A16
:1045A000A3681344A360E3689B1AE360002BB1D1B6
:1045B00004F13803A360FFF7F7FC0028D7D1A6E782
:1045C0008028A7D1034BDA68002AD0D11B7D002BAD
:1045D000CDD19FE7187500206B05020830E5010872
:1045E000054B064A9A62064ADA62064A1A63064A86
:1045F00058629A61002070471875002051410008E8
:104600008D3D0008353E0008D13D00082DE9F341FD
:1046100004464C4D4C484FF0FF334FF0FF3206F04C
:1046200071F895F8B8306BB1484A4948022116F044
:10463000F5FD6FF07704444806F0D6F8204602B046
:10464000BDE8F0816E6A6EB900F0D4F8FFF7C8FFDC
:104650006E6A3EB93F4A3E48012116F0DFFD4FF039
:10466000FF34E8E73C482C62E86101F09FFF01F06D
:10467000B3FE041EDFDB00F08BFB041EDBDB737874
:10468000012B01D1F3793BB9344A3148012116F0AD
:10469000C5FD6FF01504CEE70026684685F8C830E2
:1046A000ADF802308DF804608DF8006017F0F1F875
:1046B000041EC0DB802768468DF8007017F0E9F80B
:1046C000041EB8DB2649304617F0D8F8041EB2DBCA
:1046D0002349384617F0D2F8041EACDB214CDFF832
:1046E000888044451AD3002002F064F8041EA2DB3F
:1046F000D5F8C430802043F00103C5F8C43002F07F
:1047000059F8041E97DBD5F8C43043F48033C5F85C
:10471000C430012385F8B83000248CE7276A0026CE
:10472000227FF3B29A4201D82434DAE707EBC302BE
:1047300057F83310107917F0A1F801360028EFD0A0
:104740008DE700BF18750020701E00208405020848
:1047500030E50108A7050208D53F0008CC0502088E
:10476000ED4400085C1F0020801F002030B51F4B67
:104770008BB005AA03F1100518685968144603C4E4
:104780000833AB422246F7D11B78237001AC1022CC
:104790000021204619F0C6F812220021144819F011
:1047A000C1F81021204603F089F900281ADD0828F5
:1047B000B8BF082009380E4A0444002114F8013F0C
:1047C0000AA800EB131003F00F0328336B440131E8
:1047D00010F8140C13F8143C10700829537002F1EF
:1047E0000202EBD102480BB030BD00BF0606020842
:1047F000728200202DE9F04F884B87B093F800A01B
:1048000000AFBAF1000F04D085481C37BD46BDE8A3
:10481000F08F834C00264FF00119FE603546B046FC
:1048200023783BB97F4B02349C42F3D17B4A01236E
:104830001370E9E76378052B05D8DFE803F0AE07CE
:1048400003AE1E4FA04623781C44E9E7402307F13E
:10485000100087F810A07B8287F814A001F048FFB1
:1048600040B1082307F110007B8201F041FF08B13D
:10487000A7F812A07B8AE371E5E7E378002BE2D189
:10488000A37813B3FB680133DBB2FB60DBE76B6833
:104890009C421CD02435644B9D42F8D36D4688B0B1
:1048A0006A46624BCDE90534032342F8103F604865
:1048B00000234FF4C251FEF7DBFFAD465C485D4A72
:1048C000012116F0ABFC00209FE75B4DE3E7AB68EE
:1048D000002BD7D0F96820469847D3E7002D5AD14E
:1048E000564A5348012116F099FCE7E72B6AA07855
:1048F00003EBC2010B79984247D14FF0010BE078EE
:1049000094F805C000F003003875207940EA0C20C7
:10491000788294F9020000285FFA8BF328DA0BF111
:1049200010004FF0010C0CFA00F010EA090F27D12B
:1049300043F08000387407F11000C7E90031BA6015
:1049400001F0D6FED7E901123B68C8B93A7CA270E3
:1049500012F0800F18BF10330A7118BFDBB24FF08E
:10496000010214BF9A4002FA0BF249EA02096AE70F
:10497000012000FA0BF010EA090F01D11846D9E71F
:104980000BF1010BBBF1100FB9D101322B7F9A4211
:10499000ACD32B4AA5E70022F8E7032E24D1FFF77A
:1049A000E5FE8346A0B1FCF729FB034680B1102841
:1049B00006D0B860234A1E48022116F02FFCBB68BF
:1049C000102BA8BF10231A465946A01C18F09CFFB4
:1049D00023786FF002011A19091B04EB5303D1422B
:1049E00009D50136F6B22EE7002EF1D1B8F1000F4D
:1049F00008D1154A75E702F801AC13F8010902F86D
:104A0000020DECE7A4EB080388F80230C3F3072398
:104A100088F80330FB6888F80430E2E771820020F0
:104A2000B41E00205B1F0020801F00201706020814
:104A300028E50108FD0602085C1F00203706020871
:104A40007806020895060208E006020810B5094B30
:104A500000211A461C78844205D15C681CB14823A9
:104A600003FB012010BD0131042903F14803F1D1FA
:104A70000020F7E7E47500202DE9FF4150F8303CB5
:104A800010F8346C103304460AD1036950F8282C0E
:104A900098073DD5D2B9590715D5002344F8303CC5
:104AA00054F8303C10330BD054E9097554F81C8C81
:104AB00018F02AFD002857D03248214618F0EFFCA4
:104AC00004B0BDE8F08143F00403236103AB54F864
:104AD0002C1C3046FFF7B8FC034640B12A4A2B484D
:104AE0000096012116F0ADFB6FF01503D6E7039A8F
:104AF00054F82C3C134444F82C3C54F8283C9B1AA2
:104B000044F8283C54F8243C134444F8243CC7E7B8
:104B100003AB54F82C1C304601F014FF0346002868
:104B2000DCD1039D54F82C3C2B4444F82C3C54F825
:104B3000283C5B1B44F8283C54F8243C2B4444F8A4
:104B4000243C002DA9D0304616F0DAFEB5FBF0F378
:104B500003FB1055002DA0D154F8283C002B9CD00D
:104B6000304601F037FF9BE744F8200CA4F1180011
:104B700005F08AFE002DA3D0424639463046A847AC
:104B80009EE700BF602400202B07020838E50108DB
:104B90004B1E012B73B506460D4614D8FFF756FF82
:104BA000044690B9012D0ED101AB01220DF1030194
:104BB000304601F0C7FE019B002BF5D10C4A0D4891
:104BC000012116F02BFB02B070BD18F09DFC04F122
:104BD000340108B1012D05D1084602B0BDE870408E
:104BE000FFF74ABF044802B0BDE8704018F057BC58
:104BF0004807020838E50108602400202DE9F74F36
:104C0000064601911746984616F01DFC04460028FA
:104C10006FD1EFF311830093102383F31288BFF356
:104C20006F8FDFF8D49000220023484605F066FE1F
:104C3000A0B9DFF8C8A0482262430AEB020BDBF8F8
:104C4000045015F1100F1ED12D4A2E483346012174
:104C500016F0EDFA484605F017FE0BE00134042C7F
:104C600009F14809DFD1284A2648012116F0D6FA71
:104C70006FF00B05009B83F31188BFF36F8F2846FD
:104C800003B0BDE8F08F0AF802600C9A019BCBF8E4
:104C900014200D9ACBF81000CBF8182030466FF096
:104CA0000F02CBE90237CBF84480CBF8042016F092
:104CB00027FE68B1304616F023FEB7FBF0F202FB88
:104CC00010772FB1DBF8442042F00402CBF84420E7
:104CD00018F0020F08D0482303FB04A10B4834311D
:104CE00018F0DDFB0025C5E7304601F073FE0546F0
:104CF000C0E76FF00F05C2E700760020E4750020E2
:104D00007D07020838E501086207020860240020D8
:104D100010B5EFF31184102383F31288BFF36F8F64
:104D2000FFF794FE50B14368103307D16FF08B0347
:104D3000436000F13401044818F0B1FB84F311889A
:104D4000BFF36F8F10BD00BF60240020F8B50E4C7C
:104D500004251027EFF3118687F31288BFF36F8FB6
:104D60006368103307D16FF08B030848636004F168
:104D7000340118F094FB86F31188BFF36F8F013D67
:104D800004F14804E6D1F8BDE47500206024002059
:104D900038B5094C00250949204618F055FB012279
:104DA000A4F118001146013518F0CCFA042D04F1D5
:104DB0004804F0D1002038BD18760020794A000858
:104DC0000169012381F84B300B6833B191F8493008
:104DD0001BB10248083118F062BB70476024002004
:104DE0000169012381F84A300B6833B191F84830EA
:104DF0001BB10248083118F052BB704760240020F4
:104E000070B50569EFF31186102383F31288BFF3A1
:104E10006F8FD5F8900016F084F8044686F3118859
:104E2000BFF36F8F30B104480022002305F1180151
:104E300005F006FF204670BD6024002070B50123F8
:104E400082F8483013680D4614463BB192F84A3058
:104E500023B10E4802F1080118F021FBD4F890307C
:104E6000DA885B899A4205D17DB904F118014FF4C3
:104E70007A7204E004F11801002DF8D00022BDE898
:104E800070400248002305F0DBBE70BD60240020A6
:104E900070B50E4681880446C9B21548154616F00D
:104EA000AEFA10B394F900206378002A16DB202BA9
:104EB00004D0222B0ED06FF085000AE02B681A6810
:104EC00040F8102C9A8820F80C2C9B7900F80A3CAA
:104ED000002070BD638800F8093CF9E7212BEAD176
:104EE0001038072328603360F2E76FF01200F0E714
:104EF0000877002008B50146034816F08EFA10B175
:104F0000012300F8073C08BD087700200D4A03463E
:104F10000021A0F848101068C3F894009088927996
:104F2000A3F8980083F89A2083F89C1083F89B10CC
:104F3000A3F89E1083F8A010402203F14C0018F053
:104F4000F1BC00BFA2E5010810B504690023C4F854
:104F5000A8300C4BC4F8A400596804F1A80269B940
:104F6000C3E9002204F10800074918F06DFA04F1C2
:104F70001800064918F0A3FA002010BD0A605A6014
:104F8000F0E700BF0877002071B40108595000080D
:104F900030B54FF40033426805690D4C85B042F2DC
:104FA000A100CDE90103002385F89D30106AADF81A
:104FB0000C1000790A2201A9FFF746FA95F89D30F6
:104FC00023B9012018F021F9013CF7D105B030BD1B
:104FD000A186010073B504698DF80710002384F8D9
:104FE00048301025EFF3118685F31288BFF36F8FD9
:104FF0000122D4F890000DF1070115F092FF86F31D
:105000001188BFF36F8F012810D018F07DFAB0B16E
:105010000F4BBFF35B8F012253E8001F002903D120
:1050200043E800200028F7D1BFF35B8F0A2200235A
:1050300004F11801074805F003FE02B070BD94F8B2
:10504000A130002BE4D000210A2018F007FBC9E7AB
:105050000477002060240020F0B5D0F88C305B6825
:105060001B6A1F7D85B00546384616F0ECF90646EA
:1050700050BB95F886303BB3A86F0146C38831F822
:105080000A2F9B1A9BB2B3F5807F28BF4FF4807321
:1050900003AA15F0F7FE0446B0B18306A5F1180384
:1050A00008BF00F1FF3485F830600193074B039986
:1050B0000093224602233846FFF7A0FDA86F224640
:1050C00000F10A0115F014FF05B0F0BD3D4E0008D7
:1050D00037B514460A1E054621DDD4F88C0004F1CC
:1050E0004C0115F01EFF012384F8493023683BB1C1
:1050F00094F84B3023B1114804F1080118F0CFF9AE
:10510000D4F88C209388918912695B1A9BB2D31AC8
:105110003F2B04D8012384F8A03003B030BD94F8AD
:105120009E30002BF9D0064B0093019401234022BE
:1051300004F14C012846FFF761FDEEE760240020F2
:10514000D150000873B50D4601461D4816F04BF9C5
:10515000044610B3691EA0F1A40605291DD8DFE896
:1051600001F01E1C031E242810F8061CA9B90368B0
:105170005D68012300F8063C2B6A3246187BFFF776
:10518000A7FF14F85C2C42B92B6A187D0D4B0093D5
:10519000019602231146FFF731FD02B070BD304683
:1051A00002B0BDE87040FFF7B1BE012304F8053C32
:1051B000F3E710F8053C002BEFD00023F6E700BF23
:1051C000087700203D4E000813B500240749084821
:1051D00000944FF0FF334FF4806205F0F1FC054975
:1051E000034818F097F9204602B010BD008E002049
:1051F00060240020BD07020837B504698DF8071048
:1052000063680546ABB9BFF35B8F1C4B012253E8C3
:10521000001F002903D143E800200028F7D1BFF385
:105220005B8F04D1164A1748022115F0F7FF03B02F
:1052300030BD18F069F930B9D4E901329DF8071092
:1052400028469847F3E7002300220DF1070104F1F7
:105250001C0018F061F8034620B10B4A09480221EE
:1052600015F0E5FF04F10C0005F0A4FC031EDEDAE6
:10527000064A0448012115F0DAFFD8E7107700202C
:10528000C6070208E0E40108D6070208F60702088C
:1052900010B504690423012204F1500104F11C003B
:1052A00018F026F804F10C00024918F0CDF800209F
:1052B00010BD00BFCDB6010808B50348034A002160
:1052C000121A16F01EFA08BD801F0020988A0020CE
:1052D0000748084A084908B5121A16F014FA074890
:1052E000074A0849BDE80840121A16F00CBA00BF78
:1052F00000000020801F0020C01E020800000020C7
:1053000000000020C01E02082DE9F047064600AF4D
:105310000C46002936D0E9468AB0D1E90012A368CC
:105320006D462148E8464FF0050ACDE90501CDE973
:10533000072348F810AF1D48424600234FF421517F
:10534000FEF796FACD46D4E903126369AD461848D4
:10535000C5F810A0C5E90501C5E9072313480023D6
:1053600042464FF42151FEF783FACD46E369114AD4
:105370000E48012115F05BFFA3690F4A0B4801217C
:1053800015F055FF012E07D1EFF305830B4A0748AF
:10539000103B314615F04BFF2146304604F026FF06
:1053A000BD46BDE8F08700BF3008020890E4010860
:1053B0005F0802088E0802089D080208CB08020850
:1053C00030BFFFF7FDBF00BF2DE9F0410B4EDFF806
:1053D000308006EB0807CC1B0546324609492046BB
:1053E00018F092FAA01942460021083C18F09AFAE7
:1053F000C5F8844007F10800BDE8F081080000000E
:105400000800000058E5010810B5204C204921484B
:1054100016F086F9A36A990136D51E481E4916F082
:105420007FF91E20A36ADA0104D51A481B4916F039
:1054300077F91F20154CA36A1B0304D5154818499A
:1054400016F06EF92120A36A590304D511481549B5
:1054500016F066F922200D4CA36A9A0304D50D4874
:10546000114916F05DF92320A36ADB0304D509482E
:105470000E4916F055F92420044A936A6FEA034353
:105480006FEA1343936210BD1D20CBE700ED00E0EF
:10549000DE08020890E40108F6080208090902087B
:1054A0002309020841090208660902088009020866
:1054B00070B506460D46284C2849294816F030F9A3
:1054C000A36AD9043CD52648264916F029F91720A5
:1054D000A36A1A0504D52248234916F021F9182099
:1054E0001D4CA36A9B0512D51D48204916F018F9DA
:1054F000A36BA26A100409D51D4A1948012115F0B1
:1055000096FE1EB1A36A23F40043A3621920124C35
:10551000A36A590504D51248164916F001F91A2054
:10552000A36ADA050ED50E48134916F0F9F81B20C8
:10553000094A936A43F47F43936200232B7070BD42
:105540001620C5E7A36A9B04F2D505480B4916F05F
:10555000E7F81C20ECE700BF00ED00E0AB09020813
:1055600090E40108C1090208D2090208E50902080D
:10557000FE090208130A02082E0A0208460A020857
:105580002DE9F843804689461746354D354936485A
:1055900016F0C6F8AB6ADE0627D53449324816F055
:1055A000BFF81124AB6A1D0704D531492E4816F007
:1055B000B7F812242A4DAB6A980718D52D492A4806
:1055C00016F0AEF86E6BAB6A190646D52A4A264825
:1055D0003346012115F02BFEB9F1000F03D0AB6A61
:1055E00023F08003AB62132403E01024DAE76FF0AA
:1055F00015061B4DAB6ADA0704D520491A4816F088
:105600008FF81424AB6A9B0604D51D49164816F082
:1056100087F81524124B9A6AD50602D49A6A900725
:105620000AD55B68190507D54146304600F0DAF91E
:1056300010B180F309880224094B9A6A920642BF8E
:105640005A6A22F400525A629A6A42F0FF029A623F
:1056500000233B702046BDE8F8836FF01506C2E7D3
:1056600000ED00E0750A020890E401088B0A0208C8
:10567000D2090208BE0A0208D60A0208EC0A020889
:10568000460A02082DE9F041684B8AB0D3F804803D
:1056900000AF0446C8F30806002585F31188BFF360
:1056A0006F8F02F07F43B3F17F4F07D102F00C03FD
:1056B000082B12D15E495F4816F032F800252C46BF
:1056C0000023FB71F31E092B00F28F80DFE803F04B
:1056D0000A8588818D8D8D8D8D8B10074CBF0C4672
:1056E0000125EDE754495348504E16F019F80023B0
:1056F000FB71F36A9A0705D550494E4816F010F829
:1057000000232DE0F36A002B01DA4D49F5E7F36A37
:105710005B00F5D54B49474816F002F87369A2695A
:1057200043F480737361BFF34F8FBFF36F8F32F811
:10573000023C726922F480727261BFF34F8FBFF333
:105740006F8F03F47F42B2F55F4F2BD1DBB2022B98
:1057500028D123683C4A3748012115F068FD2368A9
:10576000FA79DAB907F1080604F1200C20686168BB
:10577000324603C2083464451646F7D17A6A002DD2
:1057800050D0C2F3080121B96FEA52226FEA4222D7
:105790007A6207F108011846FFF7B6FD2837BD46C3
:1057A000BDE8F081214B9A6AD2B22AB1FA1D0121DB
:1057B0002046FFF7E5FE0EE09A6A12F47F4F04D010
:1057C000F91D0120FFF774FE05E09B6AB3F5803FE9
:1057D00096D3FFF719FE0346C2E7FA1D0021E7E75B
:1057E000F91D0020EEE7194987E7194A194B18F40B
:1057F000F87FE8468AB008BF13466A461649CDE9E5
:1058000005134FF40073ADF82030103E134B07968C
:1058100042F8103F074800234FF41151FEF728F8D3
:10582000C5466DE76FF30802B2E700BF00ED00E088
:10583000390B020890E40108640B02087B0B020894
:105840009C0B0208AA0B0208C90B0208E50B020810
:105850000B0B0208200B0208090C020804000001CF
:10586000044B5A6942F010025A615A6922F0080248
:105870005A61704700ED00E0EFF30880EFF3098113
:1058800001B57246FFF7FEFE01BD00BF0A4880F376
:105890000888102080F3118808484FF404614018EC
:1058A00080F30988EFF314800221084380F3148801
:1058B000BFF36F8F00F05EF8E801012080960020B2
:1058C0001EF0040F0CBFEFF30880EFF3098081692D
:1058D00011F8021C0229FFD001B5724615F015FF20
:1058E00001BD00BF40B2002807DB044A4109012383
:1058F00000F01F00834042F82130704700E100E0D3
:1059000040B200280CDB4309064900F01F00203399
:105910000122824041F82320BFF34F8FBFF36F8FE6
:10592000704700BF00E100E040B20028A8BF00F1CE
:10593000604001F10101B8BF064B4FEA0111ACBF55
:1059400000F5614000F00F00C9B2B4BF195480F8EF
:105950000013704714ED00E0044B054A23F07F0369
:105960009360BFF34F8FBFF36F8F70470000000845
:1059700000ED00E008B5FFF7EFFF0B4AD2F88830E2
:1059800023F47003C2F88830EFF3148323F0040388
:1059900083F31488BFF36F8FFFF78EFCFFF798FC3B
:1059A00000F0C2F804F062FD00ED00E042F8203C97
:1059B000009B42F81C3C0A49019B42F8183C029BA0
:1059C00042F8143C21F001014FF0807342F8043C8E
:1059D00042F8081C0023203A0266C0F8883070475D
:1059E00039300008094A0346906870B113F1160F68
:1059F000406F05D0A0F14002934205D3834203D209
:105A0000814228BF002070470020704730320020BC
:105A100008B50F4B98600F4B04461546D0F884200C
:105A20001A600E4605F0F0F9204600F0ADF82C465D
:105A300086F309880020044B984720460021002265
:105A40000023024C2047000037B701083930000816
:105A50003032002014770020014B10221A61704769
:105A600000ED00E0054BDA699B689A421FBF044ACB
:105A7000536843F080535360704700BF30320020BA
:105A800000ED00E0084B9B6883420BD1EFF30583E8
:105A900043B1064B5A6842F080525A605A6A22F467
:105AA00000425A6205F00EBC3032002000ED00E0EA
:105AB00001B517F034FDBDE8014018498A684FF080
:105AC00040001044EFF3098C80E8F01F102080F3B1
:105AD0001288BFF36F8F124F4FF00066CA698A6059
