:020000040800F2
:1000000068040120C55D000813BD0108B15D00084A
:10001000B15D0008B15D0008B15D0008000000009E
:10002000000000000000000000000000F95D000872
:10003000B15D000800000000E95F0008B995000804
:10004000796000087960000879600008796000082C
:10005000796000087960000879600008796000081C
:10006000796000087960000879600008796000080C
:1000700079600008796000087960000879600008FC
:1000800079600008796000087960000879600008EC
:1000900079600008796000087960000879600008DC
:1000A00079600008796000087960000879600008CC
:1000B00079600008796000087960000879600008BC
:1000C00079600008796000087960000879600008AC
:1000D000796000087960000879600008796000089C
:1000E000796000087960000879600008796000088C
:1000F000796000087960000879600008796000087C
:10010000796000087960000879600008796000086B
:10011000796000087960000879600008796000085B
:10012000796000087960000879600008796000084B
:10013000796000087960000879600008796000083B
:10014000796000087960000879600008796000082B
:10015000796000087960000879600008796000081B
:080160007960000879600008D5
:1001700001F0FF01102A2BDB10F0070F08D010F858
:10018000013B013A8B422DD010F0070F42B3F6D15C
:10019000F0B441EA012141EA014122F007047FF075
:1001A00000070023F0E80256083C85EA010586EACC
:1001B000010685FA47F5A3FA87F586FA47F6A5FA08
:1001C00087F68EB9EED1F0BC01F0FF0102F0070214
:1001D00032B110F8013B013A83EA010313B1F8D1BF
:1001E0000020704701387047002D06BF35460338A0
:1001F000073815F0010F07D1013015F4807F02BFD9
:10020000013015F4C03F0130F0BC0138704700BF29
:1002100081F0004102E000BF83F0004330B54FEAB7
:1002200041044FEA430594EA050F08BF90EA020F24
:100230001FBF54EA000C55EA020C7FEA645C7FEAB7
:10024000655C00F0E2804FEA5454D4EB5555B8BFDA
:100250006D420CDD2C4480EA020281EA030382EA4B
:10026000000083EA010180EA020281EA0303362DDD
:1002700088BF30BD11F0004F4FEA01314FF4801CB0
:100280004CEA113102D0404261EB410113F0004FC2
:100290004FEA03334CEA133302D0524263EB430379
:1002A00094EA050F00F0A780A4F10104D5F1200E17
:1002B0000DDB02FA0EFC22FA05F2801841F1000172
:1002C00003FA0EF2801843FA05F359410EE0A5F146
:1002D00020050EF1200E012A03FA0EFC28BF4CF077
:1002E000020C43FA05F3C01851EBE37101F000452D
:1002F00007D54FF0000EDCF1000C7EEB00006EEB3A
:100300000101B1F5801F1BD3B1F5001F0CD34908C3
:100310005FEA30004FEA3C0C04F101044FEA44521A
:1003200012F5800F80F09A80BCF1004F08BF5FEAA1
:10033000500C50F1000041EB045141EA050130BD81
:100340005FEA4C0C404141EB0101013C28BFB1F593
:10035000801FE9D291F0000F04BF01460020B1FADE
:1003600081F308BF2033A3F10B03B3F120020CDAB1
:100370000C3208DD02F1140CC2F10C0201FA0CF08F
:1003800021FA02F10CE002F11402D8BFC2F1200CF4
:1003900001FA02F120FA0CFCDCBF41EA0C019040AA
:1003A000E41AA2BF01EB0451294330BD6FEA0404F3
:1003B0001F3C1CDA0C340EDC04F11404C4F12002DE
:1003C00020FA04F001FA02F340EA030021FA04F3F0
:1003D00045EA030130BDC4F10C04C4F1200220FA47
:1003E00002F001FA04F340EA0300294630BD21FA85
:1003F00004F0294630BD94F0000F83F4801306BF4B
:1004000081F480110134013D4EE77FEA645C18BF3E
:100410007FEA655C29D094EA050F08BF90EA020FD5
:1004200005D054EA000C04BF1946104630BD91EACD
:10043000030F1EBF0021002030BD5FEA545C05D1D0
:100440004000494128BF41F0004130BD14F580040F
:100450003CBF01F5801130BD01F0004545F0FE4183
:1004600041F470014FF0000030BD7FEA645C1ABFB8
:10047000194610467FEA655C1CBF0B46024650EAEF
:10048000013406BF52EA033591EA030F41F400211B
:1004900030BD00BF90F0000F04BF0021704730B5A1
:1004A0004FF4806404F132044FF000054FF0000176
:1004B00050E700BF90F0000F04BF0021704730B537
:1004C0004FF4806404F1320410F0004548BF40420C
:1004D0004FF000013EE700BF42004FEAE2014FEA61
:1004E00031014FEA02701FBF12F07F4393F07F4F3C
:1004F00081F06051704732F07F4208BF704793F03F
:100500007F4F04BF41F40021704730B54FF4607451
:1005100001F0004521F000411CE700BF50EA010254
:1005200008BF704730B54FF000050AE050EA0102FD
:1005300008BF704730B511F0004502D5404261EB6D
:1005400041014FF4806404F132045FEA915C3FF4AE
:10055000D8AE4FF003025FEADC0C18BF03325FEA4B
:10056000DC0C18BF033202EBDC02C2F1200300FAFC
:1005700003FC20FA02F001FA03FE40EA0E0021FA21
:1005800002F11444BDE600BF70B54FF0FF0C4CF40F
:10059000E06C1CEA11541DBF1CEA135594EA0C0FC1
:1005A00095EA0C0F00F0DEF82C4481EA030621EAFC
:1005B0004C5123EA4C5350EA013518BF52EA033537
:1005C00041F4801143F4801338D0A0FB02CE4FF0E9
:1005D0000005E1FB02E506F00042E0FB03E54FF019
:1005E0000006E1FB03569CF0000F18BF4EF0010E11
:1005F000A4F1FF04B6F5007F64F5407404D25FEA0D
:100600004E0E6D4146EB060642EAC62141EA5551BF
:100610004FEAC52040EA5E504FEACE2EB4F1FD0C01
:1006200088BFBCF5E06F1ED8BEF1004F08BF5FEA7F
:10063000500E50F1000041EB045170BD06F0004631
:1006400046EA010140EA020081EA0301B4EB5C04DE
:10065000C2BFD4EB0C0541EA045170BD41F48011D6
:100660004FF0000E013C00F3AB8014F1360FDEBFFB
:10067000002001F0004170BDC4F10004203C35DAD7
:100680000C341BDC04F11404C4F1200500FA05F35A
:1006900020FA04F001FA05F240EA020001F00042FB
:1006A00021F0004110EBD37021FA04F642EB060171
:1006B0005EEA430E08BF20EAD37070BDC4F10C049B
:1006C000C4F1200500FA04F320FA05F001FA04F25F
:1006D00040EA020001F0004110EBD37041F100014B
:1006E0005EEA430E08BF20EAD37070BDC4F1200556
:1006F00000FA05F24EEA020E20FA04F301FA05F2BE
:1007000043EA020321FA04F001F0004121FA04F265
:1007100020EA020000EBD3705EEA430E08BF20EA35
:10072000D37070BD94F0000F0FD101F0004640006F
:1007300041EB010111F4801F08BF013CF7D041EAF1
:10074000060195F0000F18BF704703F000465200F5
:1007500043EB030313F4801F08BF013DF7D043EAC6
:100760000603704794EA0C0F0CEA135518BF95EA7C
:100770000C0F0CD050EA410618BF52EA4306D1D103
:1007800081EA030101F000414FF0000070BD50EA22
:10079000410606BF1046194652EA430619D094EAAC
:1007A0000C0F02D150EA013613D195EA0C0F05D196
:1007B00052EA03361CBF104619460AD181EA0301EA
:1007C00001F0004141F0FE4141F470014FF00000A2
:1007D00070BD41F0FE4141F4780170BD70B54FF03D
:1007E000FF0C4CF4E06C1CEA11541DBF1CEA1355BD
:1007F00094EA0C0F95EA0C0F00F0A7F8A4EB05049F
:1008000081EA030E52EA03354FEA013100F0888095
:100810004FEA03334FF0805545EA131343EA12635E
:100820004FEA022245EA111545EA10654FEA002613
:100830000EF000419D4208BF964244F1FD0404F5CC
:10084000407402D25B084FEA3202B61A65EB030528
:100850005B084FEA32024FF480104FF4002CB6EBE5
:10086000020E75EB030E22BFB61A754640EA0C0065
:100870005B084FEA3202B6EB020E75EB030E22BFA5
:10088000B61A754640EA5C005B084FEA3202B6EBE6
:10089000020E75EB030E22BFB61A754640EA9C00A5
:1008A0005B084FEA3202B6EB020E75EB030E22BF75
:1008B000B61A754640EADC0055EA060E18D04FEA33
:1008C000051545EA16754FEA06164FEAC30343EAD3
:1008D00052734FEAC2025FEA1C1CC0D111F4801FA0
:1008E0000BD141EA00014FF000004FF0004CB6E799
:1008F00011F4801F04BF01430020B4F1FD0C88BF38
:10090000BCF5E06F3FF6AFAEB5EB030C04BFB6EB42
:10091000020C5FEA500C50F1000041EB045170BD35
:100920000EF0004E4EEA113114EB5C04C2BFD4EB62
:100930000C0541EA045170BD41F480114FF0000EE6
:10094000013C90E645EA060E8DE60CEA135594EA62
:100950000C0F08BF95EA0C0F3FF43BAF94EA0C0F65
:100960000AD150EA01347FF434AF95EA0C0F7FF4DA
:1009700025AF104619462CE795EA0C0F06D152EA2E
:1009800003353FF4FDAE1046194622E750EA410612
:1009900018BF52EA43067FF4C5AE50EA41047FF423
:1009A0000DAF52EA43057FF4EBAE12E74FEA410286
:1009B00012F5001215D211D56FF47873B3EB6252B1
:1009C00012D94FEAC12343F0004343EA505311F0D8
:1009D000004F23FA02F018BF404270474FF000006A
:1009E000704750EA013005D111F0004008BF6FF0A8
:1009F000004070474FF00000704700BF80F000409B
:100A000002E000BF81F0004142001FBF5FEA4103E6
:100A100092EA030F7FEA226C7FEA236C6AD04FEAE6
:100A20001262D2EB1363C1BFD2184140484041402B
:100A3000B8BF5B42192B88BF704710F0004F40F4DD
:100A4000000020F07F4018BF404211F0004F41F4F9
:100A5000000121F07F4118BF494292EA030F3FD0C5
:100A6000A2F1010241FA03FC10EB0C00C3F12003D8
:100A700001FA03F100F0004302D5494260EB400067
:100A8000B0F5000F13D3B0F1807F06D340084FEAD2
:100A9000310102F10102FE2A51D2B1F1004F40EBC7
:100AA000C25008BF20F0010040EA0300704749002F
:100AB00040EB0000013A28BFB0F5000FEDD2B0FACC
:100AC00080FCACF1080CB2EB0C0200FA0CF0AABFEF
:100AD00000EBC25052421843BCBFD040184370478D
:100AE00092F0000F81F4000106BF80F40000013293
:100AF000013BB5E74FEA41037FEA226C18BF7FEA6A
:100B0000236C21D092EA030F04D092F0000F08BFAB
:100B10000846704790EA010F1CBF0020704712F092
:100B20007F4F04D1400028BF40F00040704712F1D1
:100B300000723CBF00F50000704700F0004343F036
:100B4000FE4040F4000070477FEA226216BF08466C
:100B50007FEA23630146420206BF5FEA412390EA2F
:100B6000010F40F4800070474FF0000304E000BF25
:100B700010F0004348BF40425FEA000C08BF7047D6
:100B800043F0964301464FF000001CE050EA01029A
:100B900008BF70474FF000030AE000BF50EA0102AF
:100BA00008BF704711F0004302D5404261EB41019C
:100BB0005FEA010C02BF84460146002043F0B643C1
:100BC00008BFA3F18053A3F50003BCFA8CF2083AE6
:100BD000A3EBC25310DB01FA02FC634400FA02FCEF
:100BE000C2F12002BCF1004F20FA02F243EB0200F6
:100BF00008BF20F00100704702F1200201FA02FC58
:100C0000C2F1200250EA4C0021FA02F243EB02004A
:100C100008BF20EADC7070474FF0FF0C1CEAD0528E
:100C20001EBF1CEAD15392EA0C0F93EA0C0F6FD04F
:100C30001A4480EA010C400218BF5FEA41211ED02D
:100C40004FF0006343EA501043EA5111A0FB013119
:100C50000CF00040B1F5000F3EBF490041EAD371EE
:100C60005B0040EA010062F17F02FD2A1DD8B3F16A
:100C7000004F40EBC25008BF20F00100704790F0D9
:100C8000000F0CF0004C08BF49024CEA502040EA2B
:100C900051207F3AC2BFD2F1FF0340EAC2507047F1
:100CA00040F400004FF00003013A5DDC12F1190F2F
:100CB000DCBF00F000407047C2F10002410021FAA1
:100CC00002F1C2F1200200FA02FC5FEA310040F1B9
:100CD000000053EA4C0308BF20EADC70704792F032
:100CE000000F00F0004C02BF400010F4000F013A6A
:100CF000F9D040EA0C0093F0000F01F0004C02BF65
:100D0000490011F4000F013BF9D041EA0C018FE7D3
:100D10000CEAD15392EA0C0F18BF93EA0C0F0AD0D9
:100D200030F0004C18BF31F0004CD8D180EA0100FF
:100D300000F00040704790F0000F17BF90F0004F98
:100D4000084691F0000F91F0004F14D092EA0C0F7A
:100D500001D142020FD193EA0C0F03D14B0218BF0D
:100D6000084608D180EA010000F0004040F0FE4053
:100D700040F40000704740F0FE4040F440007047EF
:100D80004FF0FF0C1CEAD0521EBF1CEAD15392EA6E
:100D90000C0F93EA0C0F69D0A2EB030280EA010C5E
:100DA00049024FEA402037D04FF0805343EA1111F7
:100DB00043EA10130CF000408B4238BF5B0042F155
:100DC0007D024FF4000C8B4224BF5B1A40EA0C00FA
:100DD000B3EB510F24BFA3EB510340EA5C00B3EB2C
:100DE000910F24BFA3EB910340EA9C00B3EBD10F1A
:100DF00024BFA3EBD10340EADC001B0118BF5FEA6C
:100E00001C1CE0D1FD2A3FF650AF8B4240EBC25094
:100E100008BF20F0010070470CF0004C4CEA502055
:100E20007F32C2BFD2F1FF0340EAC250704740F4A4
:100E300000004FF00003013A37E792F0000F00F096
:100E4000004C02BF400010F4000F013AF9D040EA14
:100E50000C0093F0000F01F0004C02BF490011F4A8
:100E6000000F013BF9D041EA0C0195E70CEAD153A0
:100E700092EA0C0F08D142027FF47DAF93EA0C0F87
:100E80007FF470AF084676E793EA0C0F04D14B026B
:100E90003FF44CAF08466EE730F0004C18BF31F01D
:100EA000004CCAD130F000427FF45CAF31F0004317
:100EB0007FF43CAF5FE700BF4FEA4002B2F1FE4F64
:100EC0000FD34FF09E03B3EB12620DD94FEA00230C
:100ED00043F0004310F0004F23FA02F018BF4042E5
:100EE00070474FF00000704712F1610F01D14202CC
:100EF00005D110F0004008BF6FF0004070474FF080
:100F0000000070477BB972B90029BEBF00204FF0C6
:100F1000004106E008BF00281CBF6FF000414FF001
:100F2000FF3000F057B8ADF1080C6DE904CE002990
:100F300009DB002B1ADB00F07CF8DDF804E0DDE9CA
:100F4000022304B07047404261EB4101002B1BDBE0
:100F500000F06FF8DDF804E0DDE9022304B0404260
:100F600061EB4101524263EB43037047524263EB32
:100F7000430300F05EF8DDF804E0DDE9022304B08D
:100F8000404261EB41017047524263EB430300F082
:100F900050F8DDF804E0DDE9022304B0524263EBCF
:100FA0004303704753B94AB9002908BF00281CBF42
:100FB0004FF0FF314FF0FF3000F00CB8ADF1080CEE
:100FC0006DE904CE00F035F8DDF804E0DDE9022338
:100FD00004B07047704700BF10F8012B11F8013BB7
:100FE000012A28BF9A42F7D0D01A7047034611F859
:100FF000012B03F8012B002AF9D17047034613F89F
:10100000012B002AFBD1181A01387047430803F05E
:101010005533C01A00F03333800800F033301844E1
:1010200000EB10104FF0013300F00F305843000E6A
:1010300070472DE9F0478C468E46089E15460446BB
:101040001946002B40F0D080724547D9B2FA82F79A
:101050004FB1C7F120030EFA07FC20FA03F3BD409D
:1010600043EA0C0CBC404FEA154EA8B2BCFBFEF89C
:10107000230C0EFB18CC08FB00F943EA0C439945FE
:1010800028D9EB1808F1FF3204D2994502D9A8F10A
:1010900002022B44A3EB0903A4B2B3FBFEFC0EFB3C
:1010A0001C330CFB00F044EA0344A04214D92C1971
:1010B0000CF1FF3304D2A04202D9ACF102032C445C
:1010C000241A43EA02401EB1FC40002334607360DE
:1010D000BDE8F0874246DDE76346F1E7002A79D0B4
:1010E000B2FA82F3002B3FD01946C1F1200302FA75
:1010F00001F52EFA03F20EFA01FE20FA03F343EA99
:101100000E034FEA154E00FA01F4B2FBFEFCAFB23B
:101110000EFB1C201A0C0CFB07F842EA004290451B
:101120005AD9AA180CF1FF3004D2904502D9ACF17B
:1011300002002A44A2EB08029BB2B2FBFEFC0EFBAB
:101140001C220CFB07F743EA02439F4246D9EB18E7
:101150000CF1FF3204D29F4202D9ACF102022B44BF
:10116000DB1B42EA004202E0AEEB020301224FEA3F
:10117000154EAFB2B3FBFEFC200C0EFB1C330CFB78
:1011800007F840EA034398452AD9EB180CF1FF30E1
:1011900004D2984502D9ACF102002B44A3EB08031A
:1011A000A4B2B3FBFEFC0EFB1C330CFB07F744EAB6
:1011B0000344A74216D92C190CF1FF3304D2A742DD
:1011C00002D9ACF102032C44E41B43EA00400F4671
:1011D000114678E71F2188E76046ABE76246BFE724
:1011E0006046DBE76346EFE7734506D916B9002191
:1011F00008466DE7C6E9000EF9E7B3FA83F787B949
:10120000734501D3824207D8841A6EEB0303012091
:101210009C461EB900215BE73846FAE7C6E9004C58
:10122000F8E7C7F1200CBB4022FA0CF51D4320FA69
:101230000CF12EFA0CF30EFA07FE41EA0E014FEA0A
:10124000154900FA07F4B3FBF9F81FFA85FE09FB0C
:1012500018300B0C08FB0EFA43EA00439A4502FAD9
:1012600007F240D9EB1808F1FF3004D29A4502D9B1
:10127000A8F102002B44A3EB0A0389B2B3FBF9F8EF
:1012800009FB183308FB0EFE41EA03418E452CD9B9
:10129000691808F1FF3304D28E4502D9A8F1020380
:1012A000294443EA0040A0FB0298A1EB0E0141450E
:1012B000CE46434602D306D14C4504D2B9EB020ECA
:1012C00068EB05030138002EA4D0B4EB0E0261EBED
:1012D000030101FA0CFC22FA07F34CEA0303F9407C
:1012E000C6E9003196E74046C5E74346D9E7000026
:1012F00070B505460E460CF0C3F90DA3D3E90023E3
:10130000FFF750FE084C2946C4E9000204F118001A
:1013100026720CF08BFD21460448BDE87040002287
:101320000AF0BABEAFF3008098750020D87500208F
:1013300000CA9A3B000000002DE9F04F0468002C21
:10134000C7B007465BDBB42C5BDC554B5C43B42376
:10135000B4FBF3F404F52A2404F56664DFF8448151
:10136000D8F80830029306AD5B682A460321404650
:101370009847061E1DDB4C4B2E68DDF81CB0DFF8CD
:101380002C91A6FB031203FB0B230393049142A3AE
:10139000D3E9002308460399FFF704FE049B059058
:1013A0004FF0FF3A9A45039B79EB03032BD26FF082
:1013B00085063F4A33464FF48071284619F03CF8C1
:1013C0003B4A3C483C4C334601211AF030FA28464F
:1013D0002821FFF78DFF206870B119F042FB58B14A
:1013E00015F8011B2068002951D10D2119F030FB9F
:1013F00020680A2119F02CFB47B0BDE8F08F2F4C74
:10140000ACE72F4CAAE7A4FB066304FB0B3B594651
:1014100021A3D3E900233046FFF7C4FDB24579EBA1
:101420000B0B0346C3D3059A824202D26FF0150616
:10143000BFE700220092029A03211668059A4046EF
:10144000B04706460028B4D100943B681D4A4FF4CB
:101450008071284618F0F0FF3B681A4A154800943E
:101460000321154C19F0F7FA28461421FFF740FF25
:1014700020680028C0D019F0F4FA0028BCD015F874
:10148000011B20680029B0D019F0E2FAF7E719F043
:10149000DFFAA5E7AFF3008000CA9A3B0000000026
:1014A000006A180078E40108002D3101FFC99A3B59
:1014B000B20402086CEA01082C76002060AE0A0033
:1014C00060182300CB0402082DE9F04FD3B00AAF17
:1014D0002A49044607F12000FFF788FD274A2848DB
:1014E000284D032119F0BFFA07F120001421FFF75E
:1014F000FFFE286878B119F0B4FA60B107F1200650
:1015000016F8011B286891BB0D2119F0A1FA286873
:101510000A2119F09DFAA369052B02D1636A052BF4
:1015200034D0194907F12000FFF760FD164A14482E
:10153000012119F098FA07F120002821FFF7D8FEC1
:10154000286878B119F08DFA60B107F1200414F819
:10155000011B286871B90D2119F07AFA28680A214F
:1015600019F076FA07F59277BD46BDE8F08F19F0CD
:101570006FFAC5E719F06CFAE9E700BFEC0402085E
:101580006CEA01082C760020040502086369B24D5C
:101590001A6B08925A6B07925A6A06929A6A0592D7
:1015A0009A690492DA690392DA6802921A690192DE
:1015B0001A6800925B682A464FF4807107F1200098
:1015C00018F03AFF6369C7F808D094B0D3E900ABCC
:1015D000D3E90389D3E906CED3E90906D3E90C217F
:1015E0000AABC3E90D019D48786100F10430B86190
:1015F00040F6093007F11401B883DA6307C9C3E97B
:10160000055B03F14005C3E907A9C3E9098EC3E9F6
:101610000BC603C52A801A46914B42F8103F9148E9
:10162000914E002347F2C04102F0BEFB07F12000BB
:10163000D7F808D01421FFF75BFE306888B119F0A5
:1016400010FA70B107F1200515F8011B3068002968
:1016500040F047810D2119F0FBF930680A2119F09B
:10166000F7F9216A814DD1E90823CDE90823D1E9B1
:101670000623CDE90623D1E90423CDE90423D1E9EA
:101680000223CDE90223D1E9002307F12000CDE9AF
:1016900000234FF480712A4618F0CEFE266AC7F860
:1016A00004D0D6E9062390B0D6E900ABD6E902898A
:1016B000D6E90401C7E90223D6E908230AAEC6E940
:1016C0000A01D7E90201C6E90E2332460C23C6E916
:1016D00006ABC6E90889C6E90C01756142F8103FFE
:1016E0006048614D002346F2C00102F05DFB07F146
:1016F0002000D7F804D01421FFF7FAFD286888B13C
:1017000019F0AFF970B107F1200616F8011B28682F
:10171000002940F0E9800D2119F09AF928680A2182
:1017200019F096F9216ADFF8489149A3D3E900231B
:10173000D1E90001FEF728FFFFF738F9D9F80010CA
:101740004C4B411A8046186819F07FF9064600286C
:1017500000F0D0800346484A4FF4807107F1200022
:1017600018F06AFE444A3F48334601211AF05FF8F8
:1017700007F120002821FFF7BBFD286888B119F088
:1017800070F970B107F1200616F8011B28680029CE
:1017900040F0AD800D2119F05BF928680A2119F09D
:1017A00057F9216ADFF8D49029A3D3E90023D1E9BE
:1017B0000201FEF7E9FEFFF7F9F8D9F80010304B07
:1017C000411A8046186819F040F90646002800F0D2
:1017D000978003462B4A4FF4807107F1200018F0E0
:1017E0002BFE284A1F48334601211AF020F807F142
:1017F00020002821FFF77CFD286880B119F031F91D
:1018000068B107F1200616F8011B2868002974D179
:101810000D2119F01DF928680A2119F019F9216A1A
:10182000DFF864800AA3D3E90023D1E90401FEF7BD
:10183000ABFEFFF7BBF8D8F80010144B411A064670
:10184000186819F002F9044622E000BFAFF30080E7
:10185000CDCCCCCCCCD47F403905020801030305A4
:101860000C0000056CEA01082C7600206D050208CA
:10187000807600208C7600209B0502087C76002074
:1018800088760020B405020878760020847600204F
:10189000002838D003461D4A4FF4807107F120001C
:1018A00018F0CAFD194A1A482346012119F0BFFF52
:1018B00007F120002821FFF71BFD286800283FF4CE
:1018C00051AE19F0CEF800283FF44CAE07F12004D9
:1018D00014F8011B286800293FF43DAE19F0B8F850
:1018E000F6E719F0B5F8AFE619F0B2F80DE719F020
:1018F000AFF849E7C9F8008053E719F0A9F882E783
:10190000C9F800808BE7C8F800602BE6CD05020817
:101910006CEA0108000000002DE9F04FDFF840926A
:101920009048914E914DCDB00AAF19F0AFF84946AD
:101930008C4819F0A6F88E4819F0A8F831468C4862
:1019400019F09FF88B4819F0A1F82946894819F039
:1019500098F87068FFF70CF98749FFF711FA044609
:101960003068FFF705F901462046FFF74DF880463D
:101970006868FFF7FDF88049FFF702FA0446286817
:10198000FFF7F6F801462046FFF73EF80546D9F87E
:1019900004007A4CFFF7ECF87749D4F820A0FFF761
:1019A000EFF90646D9F80000FFF7E2F801463046A5
:1019B000FFF72AF87249FFF72FF9FEF78DFD714BFB
:1019C0000022FEF70BFF5EA3D3E90023FEF724FC01
:1019D0006D4B0022FEF702FFCAE904016849266A3E
:1019E0004046FFF719F9FEF777FD664B0022FEF738
:1019F000F5FE55A3D3E90023FEF70EFC634B00224E
:101A000001F10041FEF7EAFEC6E902015C49266ADF
:101A10002846FFF701F9FEF75FFD5A4B0022FEF75B
:101A2000DDFE4BA3D3E90023FEF7F6FB574B002264
:101A3000FEF7D4FEC6E90001216A00220023C1E9B5
:101A40000623216AC1E908230BF01AFE42A3D3E959
:101A50000023FFF7A7FA2146C4E900024C48002200
:101A60000AF01AFB38B14B4A00904FF491734A4880
:101A7000022118F0F0FF216A484ED1E90823CDE990
:101A80000823D1E90623CDE90623D1E90423CDE9D2
:101A90000423D1E90223CDE90223D1E9002307F190
:101AA0000800CDE900234FF48071324618F0C4FCE1
:101AB000236AC7F804D090B0D3E900ABD3E9028918
:101AC000D3E90445D3E906010DF1280CD3E9082335
:101AD000CCE90E2362460C23CCE906ABCCE908899D
:101AE000CCE90A45CCE90C01CCF8146042F8103F6F
:101AF00029482B4D002346F2C00102F055F907F1A9
:101B00000800D7F804D01421FFF7F2FB286878B159
:101B100018F0A7FF60B107F1080414F8011B28684A
:101B200059B90D2118F094FF28680A2118F090FF88
:101B300007F58677BD46BDE8F08F18F089FFECE722
:101B4000EFEEEEEE063B0740ABAAAAAA4236F63FFE
:101B50005BB0055B084E0B4000CA9A3B00000000DA
:101B600090750020CCE40108887500208075002065
:101B7000B0E4010894E40108002474493875002099
:101B8000DB0F49400080664000001840000008401C
:101B90007C750020E60502086CEA010804060208CC
:101BA0002C760020000000002DE9F04F9D4C9E484F
:101BB000ADF5017D206018F054FF20B19B4D15F864
:101BC000011B002934D19A4940A8FFF70FFA984A1F
:101BD0009848032118F047FF40A81421FFF788FB1D
:101BE000206848BB944D284618F03BFF00283AD1A6
:101BF000924940A8FFF7FAF9904A8E48012118F05F
:101C000032FF40A82821FFF773FB206870B118F05D
:101C100028FF58B140AD15F8011B206801BB0D210C
:101C200018F016FF20680A2118F012FF0020D7E1F3
:101C3000206818F00DFFC2E718F013FF0028D1D07C
:101C400040AD15F8011B206839B90D2118F000FFCF
:101C500020680A2118F0FCFEC4E718F0F9FEF0E74E
:101C600018F0F6FED7E72A69A9681368744F23F4C1
:101C7000005313600B684FF4C0220D21284698478B
:101C80007048386018F0EDFEE0B96F4940A8FFF7E2
:101C9000ADF96D4A6748012118F0E5FE40A82821FA
:101CA000FFF726FB20680028C0D018F0DAFE0028D5
:101CB000BCD040AD15F8011B20680029AFD018F04A
:101CC000C7FEF7E7614E6248306018F0CAFEE0B91F
:101CD000604940A8FFF78AF95E4A5648012118F08A
:101CE000C2FE40A82821FFF703FB206800289DD0F2
:101CF00018F0B7FE002899D040AD15F8011B2068F8
:101D000000298CD018F0A4FEF7E7534D5348286003
:101D100018F0A7FEF8B9524940A8FFF767F9504AF2
:101D20004448012118F09FFE40A82821FFF7E0FA5F
:101D3000206800283FF47AAF18F093FE00283FF4A3
:101D400075AF40AD15F8011B206800293FF467AF5F
:101D500018F07EFEF6E74349386818F08CFE3868C4
:101D600018F083FE386800F097FE3F49306818F09D
:101D700082FE306818F079FE306800F08DFE3B4935
:101D8000286818F078FE286818F06FFE286800F0C0
:101D900083FE374818F065FEF8B9364940A8FFF7CA
:101DA00025F9344A2348012118F05DFE40A8282176
:101DB000FFF79EFA206800283FF438AF18F051FE74
:101DC00000283FF433AF40AD15F8011B206800290F
:101DD0003FF425AF18F03CFEF6E7274818F041FE27
:101DE00000284DD1254940A8FFF700F9234A1148A2
:101DF000012118F038FE40A82821FFF779FA206861
:101E000000283FF413AF18F02CFE00283FF40EAF6B
:101E100040AD15F8011B206800293FF400AF18F011
:101E200017FEF6E72C760020D0E3010840060208F2
:101E3000480602086CEA010844E30108800602082B
:101E40008C760020ACE50108960602088876002012
:101E500090E50108B00602088476002074E50108C8
:101E6000CA060208AD2A0008BD2A0008892A00080F
:101E7000CCE40108E4060208B0E40108FE0602080A
:101E8000AC4818F0EEFDF8B9AB4940A8FFF7AEF842
:101E9000A94AAA48012118F0E6FD40A82821FFF729
:101EA00027FA206800283FF4C1AE18F0DAFD0028B8
:101EB0003FF4BCAE40AD15F8011B206800293FF48B
:101EC000AEAE18F0C5FDF6E79D4940A8FFF78EF8C5
:101ED0009B4A9A48032118F0C6FD40A81421FFF739
:101EE00007FA206878B118F0BCFD60B140AD15F874
:101EF000011B2068002977D10D2118F0A9FD206869
:101F00000A2118F0A5FD8F4818F0ABFD002871D10B
:101F10008D4940A8FFF76AF88B4A8848012118F0DC
:101F2000A2FD40A82821FFF7E3F9206878B118F056
:101F300098FD60B140AD15F8011B2068002956D10D
:101F40000D2118F085FD20680A2118F081FD7F4BD6
:101F500001937F4B7F4A8049009301207F4B0BF018
:101F6000D7F905A80BF02CF90025002205AB114686
:101F70000FA80AF0FDFF064600285BD1784940A86B
:101F8000FFF734F8764A6D48032118F06CFD40A83D
:101F90001421FFF7ADF9206878B118F062FD60B147
:101FA00040AD15F8011B2068002940D10D2118F023
:101FB0004FFD20680A2118F04BFD6A4A6A490FABB1
:101FC00003A80BF01FF80646002870D04FF4CE731C
:101FD00000905A48654A012118F03DFD4FF0FF304E
:101FE0000DF5017DBDE8F08F18F032FD7FE718F0A8
:101FF0002FFDA0E75E4940A8FEF7F8FF5C4A4F4876
:10200000032118F030FD40A81421FFF771F9206872
:1020100000289CD018F025FD002898D040AD15F878
:10202000011B206800298BD018F012FDF7E718F08B
:102030000FFDB6E74FF48071013503464D4A009518
:102040000DEB010018F0F8F94A4A3C480095334678
:10205000022118F000FD1E2140A8FFF749F942F2C5
:10206000107000211BF0FAFD0A2D7FF47EAF42496B
:1020700040A8FEF7BBFF404A3048012118F0F3FCAE
:1020800040A82821FFF734F9206800283FF4CEAD9E
:1020900018F0E7FC00283FF4C9AD40AD15F8011B6E
:1020A000206800293FF4BBAD18F0D2FCF6E7334DB1
:1020B00003A800F00BFD28460BF0D0FF05233C20C1
:1020C000C5E9063304F0CAF94FF00C0868614FF017
:1020D0001409B246EB696869B3425FD828490BF02E
:1020E000A5FE686927490C300BF0A0FE68692649F7
:1020F00018300BF09BFE6869244924300BF096FEE3
:102100006869234930300BF091FE05232820C5E98A
:10211000093304F0A3F928620CF024F81D4B0246A1
:1021200003A91D480AF0AAFF00284BD040F2B913BA
:1021300000904EE794E40108180702086CEA0108D1
:102140003207020878E401084C07020861A600087B
:102150002DA6000809A500083075002007D8010841
:102160007E07020847060208AA070208E6050208D9
:1021700067070208C5070208F30702083875002040
:102180003B080208430802084B08020853080208EB
:102190005B080208520902087C75002008FB06F75C
:1021A00038440136C0F808906B693B44C3F804A07A
:1021B000D5F814B00BEB0703986804F04FF94BF80F
:1021C000070087E78C4940A8FEF710FF8A4A8B4832
:1021D000032118F048FC40A81421FFF789F8206873
:1021E00070B118F03EFC58B140AD15F8011B2068E5
:1021F000B1B90D2118F02CFC20680A2118F028FC38
:102200007F4B009301277AA3D3E9002301970FA9FD
:1022100002A80AF09BFF30B14FF4E0730090D8E6BB
:1022200018F016FCE1E7774E30460BF017FF0BF085
:1022300099FF754B024603A974480AF053FF18B181
:1022400040F2C5130090C4E671480CF0FBF90CF0A5
:10225000FFF9704B024603A96F480AF043FF054699
:1022600018B14FF4E6730090B3E60DF12809484623
:102270000AF0A6FFDDF83890DDF828800A23C6E9C9
:10228000065349467820C0477061F8B9634940A8B1
:10229000FEF7ACFE614A5948394618F0E4FB40A805
:1022A0002821FFF725F8206800283FF4BFAC18F07C
:1022B000D8FB00283FF4BAAC40AD15F8011B2068EC
:1022C00000293FF4ACAC18F0C3FBF6E778222946AE
:1022D0001BF028FE4FF0200A2F4673692B44494615
:1022E000C3F808A073692B4420205F60D6F814B0AF
:1022F000C0474BF805007369FBB9484940A8FEF791
:1023000075FE464A3D48012118F0ADFB40A8282142
:10231000FEF7EEFF206800283FF488AC18F0A1FB20
:1023200000283FF483AC40AD15F8011B206800295C
:102330003FF475AC18F08CFBF6E70C35782DCCD15A
:102340000A23C6E9097349465020C0473062F8B9EC
:10235000334940A8FEF74AFE314A2848012118F0C7
:1023600082FB40A82821FEF7C3FF206800283FF425
:102370005DAC18F076FB00283FF458AC40AD15F882
:10238000011B206800293FF44AAC18F061FBF6E716
:102390001CA80AF09DFB05AB03220FA91CA800F0A6
:1023A0009FF818B14FF4FF73009012E600901D4B98
:1023B000144A16491CA80AF095FB18B14FF4007393
:1023C000009006E60090184B114A13491CA80AF029
:1023D00089FB18B14FF401730090FAE502A91CA81B
:1023E0000AF0D4FB10B34FF402730090F1E500BF84
:1023F00000CA9A3B00000000630802086CEA01086A
:1024000019190008E47500208708020828760020C2
:10241000DC75002025090208E075002097080208F5
:10242000C3080208C914000839130008264940A847
:10243000FEF7DCFD244A2548254D032118F013FB47
:1024400040A81421FEF754FF286870B118F009FB6A
:1024500058B140AC14F8011B286871BB0D2118F06D
:10246000F7FA28680A2118F0F3FA1A4940A8FEF78B
:10247000BDFD184A1548032118F0F5FA40A81421AB
:10248000FEF736FF286870B118F0EBFA58B140AC8F
:1024900014F8011B286899B90D2118F0D9FA286899
:1024A0000A2118F0D5FA0C4A00231CA80AF0FCFBFC
:1024B000002164201BF0D2FBF5E718F0C9FAC9E748
:1024C00018F0C6FAE4E700BFF30802086CEA010856
:1024D0002C76002032090208809698000000000047
:1024E00000285DD02DE9F0430C46B3B0002953D04D
:1024F0000546184616461F460AF070FE00284BD0C7
:10250000002E49D02A4990220EA81BF0FDFC0EA9EE
:10251000902228461BF0F8FC6C606846EE606C4622
:1025200011F0B0FF0FCC05F1180CACE80F000FCC88
:10253000ACE80F000FCCACE80F000FF26C09D9E942
:1025400000892368CCF80030C5E91C896F613B68BD
:102550003969B0019847A86020B3002400E0A8685A
:1025600000EB8410314601340AF0F2FCA642F6D1A9
:1025700005F14C000AF0E2FC0E49AA680023C5E907
:1025800020132AB16A691AB1EA680AB185F888305D
:10259000002033B0BDE8F0830B2033B0BDE8F083FA
:1025A0000B2070470A20F8E700CA9A3B00000000A1
:1025B00010EC010875C70008F0B593B01A9E8AB1F7
:1025C00086B1044650B1D0F880303BB1C0680F46A8
:1025D000154611F08FFB08B1237A3BB90125284637
:1025E00013B0F0BD0B25284613B0F0BD04F1600E0A
:1025F000BEE80F000DF10C0CACE80F00DEF8003067
:10260000CCF8003003A80AF0E9FD0028EAD02068E1
:1026100009F068FD002845D06946E06811F0EAFB42
:10262000014600283BD120220DEB02001BF07AFC72
:1026300025A3D3E90023DDE900018DF82070FEF722
:1026400061FCCDE90902DDE91823CDE91023237AE5
:1026500030687168B268012BF36808BF00250BAEC3
:10266000012F0FC621D8D4F880302A4608A89D69CA
:1026700003A90023A8470646002EAFD031462068A4
:10268000002209F009FDD4F880300546DB6903A972
:1026900030469847002DA2D00AF0CAFD9FE70AF005
:1026A000C7FD9BE74FF4967599E7B91E0129F6D847
:1026B000D4F880202B4608A8956903A90022A847D2
:1026C0000646D9E7AFF3008000CA9A3B000000003D
:1026D000002800F0C7812DE9F04F056B99B0044642
:1026E000002D00F07881994643689246002B00F057
:1026F0009580296C002900F0AA80002318461E4608
:10270000226952F823206AB1E2686F691A4457F8C7
:1027100022203AB1296947F821202A6901322A6129
:10272000256B296C013340F100008B4270F10002EF
:10273000E6D36FF00047CDE90C66CDE90E665AEAA4
:1027400009034FF0FF36CDE91267CDE91467CDE9F3
:1027500016670DF1300B00F08E80002900F04681E5
:102760000025CDF8149027E0CDE90867236908A972
:1027700053F8080011F05AFE40F22133984200F05D
:10278000B480002860D1DDE9072C1078DDF82480C2
:1027900018AB03EBC00151E90893CC4578EB030378
:1027A00004DA0DEB800041E908C80263236B196C61
:1027B00001358D4280F01881236953F825004FEAD6
:1027C00085080028F4D007A911F05AFD0346002817
:1027D00040F0068107980278012AC5D10DF11B014E
:1027E0008DF81B3011F012FB002840F0F9809DF8A5
:1027F0001B30002BB8D023698DF820000DF1200884
:1028000053F82500414611F0D7FD002840F0E8803C
:102810009DF82030002BC9D0256B2EE0C368002B1B
:102820007FF467AF4369002B7FF463AFC369002B6C
:102830007FF45FAF436A002B7FF45BAFC36A002B6A
:102840007FF457AF40F2853019B0BDE8F08F6FF0DC
:1028500000434FF0FF32CDE91223CDE91423CDE937
:1028600016235AEA0903CDE90C11CDE90E110DF139
:10287000300B40F0BB800DF1200800220023CDE991
:102880000823CDE90A2341460291EA6B05F134039E
:10289000CDE9003205F1100105F11C0305F1280214
:1028A000281D14F069FD236B1A6C804612B30025B5
:1028B0002F462E4607E0226942F82530236B1A6C1A
:1028C0000135954217D2206950F8250007A9002844
:1028D000F6D08DF81C6011F06FFD0028B4D19DF882
:1028E0001C30002BE7D01F46E8E72369002243F89D
:1028F00008205BE7174638F0020071D16568024690
:102900003DB1996851F82210002937D00132AA420E
:10291000F7D3E5684DB1236B0022596951F82210B5
:10292000002934D00132AA42F7D3E56945B1236BBF
:102930000022196A51F8221091B30132AA42F8D349
:10294000656A45B1236B0022D96A51F8221081B320
:102950000132AA42F8D3E56A45B1236B0022996B94
:1029600051F8221071B30132AA42F8D3B8F1020F24
:102970007FF46AAF87F00107780065E7236843F8C2
:102980002210656801329542C3D9236BB9E7A36869
:1029900043F82210E5680132AA42C6D2236BBCE795
:1029A000A36943F82210E5690132AA42C8D2236B19
:1029B000BFE7236A43F82210656A0132AA42CAD2ED
:1029C000236BC1E7A36A43F82210E56A0132AA42E9
:1029D000CCD2236BC3E74FF4617019B0BDE8F08F20
:1029E000012019B0BDE8F08FDDF81490BAF1010FA5
:1029F00079F100033ADB4FF0010810AD16AE5BF839
:102A0000040F08A9A8B111F0F5F900287FF41CAF54
:102A1000089AAB6809999B1AEA6862EB01029A4529
:102A200079EB0201BABF53464A464FF001089A4675
:102A300091460835AE42E2D1256BB8F1000F13D0B4
:102A4000B9F1000F0EA3D3E90023ABBF504600201D
:102A500049460021FEF756FACDE90801CDE90A23DF
:102A600008A911E70B20704741460DE74FF0FF3AE8
:102A70006FF000494FF00008BFE700BFAFF30080E0
:102A800000CA9A3B0000000011B9024808F098B94A
:102A9000704700BF307600208368D96811B1024AC0
:102AA00000230847704700BF60E3160011B90248D1
:102AB00008F086B9704700BF6076002011B902485F
:102AC00008F07EB9704700BF4876002030B50F4D42
:102AD0009FB004468020286203F0C0FC0023EB6115
:102AE000A86102AD284609F0AFFA09F01FFB2146A4
:102AF0000246074B0748009509F00EFA014610B14F
:102B0000054818F033FA1FB030BD00BF987500209B
:102B10007A040208D8750020890402082DE9F84FCC
:102B20000B1FA3EB0009884602F007014FEAD90604
:102B300003F007030B3129F007090B44D408814443
:102B400004EBD3048368B9F802B09C4228BF1C464A
:102B50001BF0010B00AF054616D1EA4688B06A4665
:102B60004A4BCDE90538032342F8103F48485B46FD
:102B70004FF4C25101F018F9D5468BF31188BFF319
:102B80006F8F0423184602DF3146284617F082FF74
:102B9000304435F83030C01A864217D0EA4688B043
:102BA0006A463C4BCDE90538032342F8103F3848CC
:102BB00000234FF4C25101F0F7F80023D54683F308
:102BC0001188BFF36F8F0423184602DF3146284671
:102BD00017F060FF8442824622D026D23444284631
:102BE000224617F0FCFFB9F8023043F00103A9F8C0
:102BF00002302146284617F04DFF261805EBC60384
:102C00005B88DB0708D43146284617F08CFF324634
:102C10002146284617F0CCFF2146284617F03FFFF3
:102C200001221046BD46BDE8F88F06EB000805EB13
:102C3000C802528812F0010225D14146284617F0F9
:102C400029FF50448442ECD8284617F06CFF4146D7
:102C5000284617F01FFFA4EB0A0A824507D2321953
:102C6000284617F0BCFF1146284617F018FF4246C9
:102C70003146284617F09CFFB9F8023043F00103B3
:102C8000A9F80230CCE70022CBE700BF77090208A1
:102C90009CEA01089B0902082DE9F84F8A4600AF1B
:102CA000002974D004680E1F361BF50826F00706AD
:102CB00004EB0608B8F802B01BF0010B16D1E94688
:102CC00088B06A46334BCDE90531032342F8103F03
:102CD00031485B464FF4C25101F066F8CD468BF3A4
:102CE0001188BFF36F8F0423184602DF2946204660
:102CF00017F0D0FE284434F83030C01A854217D07F
:102D0000E94688B06A46254BCDE9053A032342F8E7
:102D1000103F214800234FF4C25101F045F8002331
:102D2000CD4683F31188BFF36F8F0423184602DF6B
:102D3000B8F8023023F00103A8F8023029462046F3
:102D400017F0A8FE05EB000804EBC8035B88DA0760
:102D500008D44146204617F0E6FE42462946204662
:102D600017F026FFA65BAE1B04EBC6035B88DB07F0
:102D700009D43146204617F0D6FE2A463146204671
:102D800017F016FF35462946204617F088FEBD4647
:102D9000BDE8F88FC40902089CEA01089B090208F3
:102DA0002DE9F04F91B08407009302F004030293E1
:102DB000C2F3C20303F10103DDF868A003920546E4
:102DC0000E46059340F09D81041D00284AD101F074
:102DD0000706341DC6F10806009B00275A1E4FF057
:102DE00004084FF0FF3301930497B946BB464346AE
:102DF0000DB1009921600598002800F3D780904814
:102E00000099814203D38F488142C0F0CF8003995B
:102E100011F0020CA4EB050040F0D680B9F10F0FC1
:102E200000F2CF80002D00F0D68009F140010DEBBB
:102E3000010EC0F3870001990EF8200C0EF8101C4B
:102E4000BCF1000F00F0C38060F07F000EF8200C92
:102E5000013709F10109C5F10801043406914FF663
:102E6000DA7E8CE00729B7D86FF01B0011B0BDE8FF
:102E7000F08F7A285BD84B280FD8472857D82928B5
:102E80002ED8252850D052D8202818BF23280CBF70
:102E90004FF0010B4FF0000B71E04C382E2846D854
:102EA000DFE800F06D454545454545454545454507
:102EB0004845454545454545455645484856565675
:102EC0006D486A456D4518481845457F7C4845451D
:102ED00048457C0000204FF0000B4FF0040835E01F
:102EE0002A38C0B2012101FA00F010EA0E0F46D1D3
:102EF00010F0625C2CD110EA010B40D06046013C1E
:102F00004444B4FBF8F408FB04F425B1A3EB050C2E
:102F1000A444B445A8D8002870D00599013905917A
:102F20005AF8041B009163E70199013901914FF0B0
:102F3000000B24E012F8010C6C2834D112F8023C8A
:102F400000206C2B8346C8D14FF008084346D6E7D3
:102F50000AF1070A2AF0070A0734FAE802BC24F04B
:102F6000070435B106982044B0423FF67DAFC4E96E
:102F700000BC08344FF0000B4FF00808434612F82D
:102F8000010F002853D0BBF1000F7FF472AF25284A
:102F9000F5D1019B013301934FF0010B4FF0040871
:102FA000ECE7584697E700208346A8E7039988078F
:102FB0007FF551AF601B4FF0010CB0F5007FFFF4BF
:102FC0002DAF6FF0150051E74FF0000CF5E70498B6
:102FD000013004903DE7BCF1000F01D0013638E725
:102FE0000298023600287FF434AF0098CDE906320B
:102FF000FEF704F8DDE9063206442AE7042B08D17F
:103000000AF1040015B1DAF8001021600434824698
:10301000B5E70AF1070323F0070303F1080A1DB11E
:10302000D3E90001C4E9000108340823A7E7631BC2
:10303000B3F5806FC5D23DB9A6F10804E01815E7D5
:1030400020E10108F4260208029A28609B082B70F0
:103050009DF81030AAB1EB70AF702FB108A8002214
:10306000C5F1010C91450ED1C5F101030DF1200808
:103070004FF0000A01930DF1300BD14512D1601BC6
:10308000F4E66B70E8E710F8013B190608D50CEB85
:10309000040EB64503F07F033FF6E6AE04F8013BAD
:1030A0000132DFE71FB198F90020002A17DB029BED
:1030B000D3B11AF80B2004F8012B0022019B181938
:1030C0001044B0423FF6D0AE98F8000004F8010B6F
:1030D0000099039220461AF017FF039A14440AF14C
:1030E000010A08F10108C8E798F8002055F82230D5
:1030F0000093029B45F822300098FDF77FFF421CA9
:10310000DCE76FF00D00B1E62DE9F04F97B000AFAE
:10311000C7E90A3205468A4649B903784678807875
:1031200000EB83002844564524D8A0EB050AD7F8C5
:10313000803095F80280D7F8804003F00103FB61EE
:10314000EB787B62B8F1000F0CBF002404F001049F
:103150001BB1D7F880309A0715D4A4B9FB6A1BB10C
:10316000BA6A514628469847564630465C37BD46AF
:10317000BDE8F08F441C2046FDF740FF013020449D
:103180000AF1010ACFE7D7F88030C3F3C0033B62EE
:103190002B78BB619B003B616B687B61BB6905EB76
:1031A000830BFB6A002B77D15646D844BCB11C4632
:1031B0001BF8013B55F82300FDF720FFD7F88430BA
:1031C000013043B1D7F88830A34282BFD7F88430AA
:1031D00023F814000134C3450644E9D1D846D7F892
:1031E000803013F0050F0CBF4FF0020B4FF0010BB6
:1031F0004FF000097B6A9945B7D298F8013055F82D
:1032000023A0AE4B9A4508F10208C0F04B81AC4BAD
:103210003A6A9A452CBF002301230AB318F8021C0E
:103220007869FB6217F04CFEFB6AC8B1EA468AB0C7
:103230006A46A44B05937B69CDE906314FF40073D0
:10324000ADF82030A04B42F8103FA04800234FF4C7
:10325000125100F0A9FD023ED54609F10109C9E766
:1032600023B1FB6933B9A6EB0B06F6E7D7F880303C
:103270009B07F2D55046FDF7C1FED7F884304BB11D
:10328000D7F888309C423FBFD7F88420431C22F8EF
:10329000143001340644E0E7002C69D1B8F1000F86
:1032A0006CD0D7F8803058076BD5C14607F148007D
:1032B000424659461AF028FE0BEB0803FB60002239
:1032C0000233796A8A425ED3D7F8802095F801B03C
:1032D000F969920704EB0B03DBB254BF4FEA5902C2
:1032E0000022002940F0A680D7F8801011F0040FCA
:1032F00014BF494600216B70A970EA703969BA6A37
:10330000FB6A28469847061EFFF62FAFBB692B7055
:103310007B6AEB704946BA6AFB6A85F801B085F8AA
:10332000028007F148009847B0F10009C0F2B6806A
:103330003B697A6A786A03EB4201FB68BA6A4144E6
:1033400003EB4000AAEB0101FB6A98470028C0F29A
:10335000A780B14409EB00064FF0000B07F1380AD3
:10336000A34569D30021BA6AFB6A08469847FCE680
:10337000444607F138004FF0000999E74446C1463A
:103380009AE7A14698E713F8016CDFF830C155F8C9
:10339000260013F8021C6045C0F08A80DFF820C1C7
:1033A0006045386A2CBF4FF0000B4FF0010B38B16D
:1033B0007869C7E9013217F083FDD7E90132F0B926
:1033C000BBF1000F1ED0F96949B1611C04F128005E
:1033D00007F13004041904F8206CCCB20FE0D7F8E0
:1033E000801049070BD509F1280007F1300C09F1CD
:1033F000010100EB0C0909F8106C5FFA81F9013248
:1034000002335EE7D7F880008007DED409F1280C8C
:1034100007F1300EF44409F101000CF8101C07F11B
:10342000580151FA80F009F102095FFA89F900F8B0
:10343000106CE4E700215EE71BF80A3087F83730AC
:1034400055F82390D7F884302BB3D7F888309B45B4
:1034500021D2D7F8843033F81B80BA6AFB6A012185
:1034600007F13700984700281ADB0644B8F1000F2F
:1034700006D14846FDF7C2FD00F101081FFA88F8A1
:10348000BA6AFB6A414648469847002808DB06446A
:103490000BF1010B64E74FF00008DEE74E4664E6EF
:1034A000064662E63B6A002B3FF4E0AE0023B5E639
:1034B000386A0028A6D04FF0000B79E720E1010818
:1034C000F4260208F1090208040000011CEA0108C0
:1034D00030B50446EFF31185102383F31288BFF350
:1034E0006F8F044B0FCB84E80F0085F31188BFF377
:1034F0006F8F30BDC021002001281FB50C4605D0BC
:1035000004281DD06FF0150004B010BD1AF056FC51
:1035100042F210720023FDF745FD104B5A43C4E9F7
:103520000001A2606846FFF7D3FF6946204617F006
:10353000E4FC18B90A4B0FCB84E80F000020E3E746
:103540001AF03CFC42F210720023FDF72BFD034BF6
:103550005A43C4E90001A260F0E700BFA086010061
:1035600068EB0108014B1860704700BFA0080020FD
:1035700080B505460E461746984608F039F90346C9
:1035800002F08CFDDFF81890044649F800304246FE
:1035900030463946A84754F8090002F00FFD00BF35
:1035A000100000002DE9F84344690569C76840F23E
:1035B0006C73E1170135E41841F10001022D8CBF55
:1035C00000230123E41A61F100010029064607F1F6
:1035D000FF3751DA6FF4C77020184FF4C8724FF0FC
:1035E000000361F10001FDF78DFC264B03FB004455
:1035F000D6E90083B6684FEAE37C4FF03C0E99466B
:103600006346C6FB0E93A9FB0EC60EFB0366A3081A
:1036100040F26D1E032D0EFB043302463B4434BFC3
:1036200009206FF0020064270544B4FBF7F49920E9
:103630001B1B154C45431CEB080C4FF0050005F116
:103640000205B5FBF0F5A2FB04202B4404FB0101AD
:1036500046EBE87698180D4A41F1000380180C4AB1
:1036600063F10003A0FB020102FB031110EB0C004D
:1036700041EB0601BDE8F8834FF4C87200232046F1
:10368000B1E700BF70FEFFFFB13A02009405F5FFFD
:103690008051010010B5FFF785FF024602F0FEFCE5
:1036A0000B460349002444501046194610BD00BF84
:1036B0001400000070B5204B82689A4216DDD0E9F4
:1036C0000016012976F1000503F1010392FBF3F3E3
:1036D0004FEAE3741DDAC91844EB0604C0E900148C
:1036E000164901FB03238360012070BD002AFBDA29
:1036F000D0E900410029124EA3EB0203B3FBF6F31D
:1037000010DA01F100459C4275F100050ADA00204B
:10371000EBE7CD439D426FF00045A5EB0605A541C3
:10372000D9DAF4E7E41A61F1000106FB0322C0E9EB
:1037300000418260D8E700BFFFC99A3B003665C4EC
:1037400000CA9A3B034A536823F0020353600020E7
:10375000704700BF002004E008B541680548836851
:103760001B680C311BB1984700EAE07008BD6FF090
:103770005700F9E780E20108192810B502D90024A2
:10378000204610BD044B53F8204020461AF063F841
:103790000028F5D1F3E700BF30EF0108EFF3118007
:1037A000102383F31288BFF36F8F094B1A683AB95D
:1037B000084A116841F4807111601168C905FCD58F
:1037C0001A6801321A6080F31188BFF36F8F704757
:1037D000147700200070004010B5EFF3118410231F
:1037E00083F31288BFF36F8F134B1A68C2B9BFF30C
:1037F0005B8F124B012253E8001F002903D143E8DD
:1038000000200028F7D1BFF35B8F04D10C4A0D488C
:10381000022118F003F884F31188BFF36F8F10BDF5
:10382000012A01BF08490A6822F480720A601A68F6
:10383000013A1A60EFE700BF1477002010770020EC
:10384000200B0208F4EA010800700040084B1A68D7
:1038500042F480721A601A6842F400721A601A68A0
:1038600042F480621A60034B034A1A60704700BF3B
:10387000003C0240880900200024F4002DE9F047B4
:10388000DFF85480044607464FF0010994FAA4F586
:10389000B5FA85F509FA05F32E0108EB05156FEA6F
:1038A000030A24EA03042B7B63B158F806301B6932
:1038B0006BB94644042273682846196807EA0A0768
:1038C00017F03CFF002CE1D13846BDE8F0872846D0
:1038D00098470028F6D1ECE74CEB010810B50F49EA
:1038E0000F4888B000221AF06BFA00220023CDE9BD
:1038F000062300240E23CDE90334CDE90144094B0E
:10390000094900944FF44072084807F0EDFC08495B
:1039100006481AF0FFF8204608B010BD35390008F7
:1039200068260020513C0008408D0020D021002056
:103930005D0B0208014807F043BA00BFD820002001
:103940002DE9F047804620480F4617F0CFFE064687
:10395000002832D000252846BDE8F087237B83B1BC
:103960002368DB680BB120469847636883F80690AC
:1039700023681B69CBB9636804221968204617F0D5
:10398000DDFE013610345445E8D3B8F1000FE2D023
:10399000002DDFD02846FFF771FF0546002FF7D036
:1039A000002164201AF05AF9F2E7204698470028CF
:1039B000E1D009FA06F31D43E3E7044CDFF810A059
:1039C00005464FF00109DEE7287700204CEB01089F
:1039D0005CEB0108014B53F820007047ACEF010885
:1039E00008B5034608462BB1044A136000F03CFCBE
:1039F000002008BD6FF01500FBE700BFA408002001
:103A000010B5044C237813B9034807F0D9F9012302
:103A1000237010BDDA840020D820002010B50446A1
:103A20000B4817F063FE5CB1BFF35B8F094B53E8A3
:103A3000001F013943E80012002AF8D1BFF35B8F61
:103A400005481AF0C9F90548BDE8104007F0B8B9B3
:103A5000207700202477002068260020D82000202E
:103A6000064BBFF35B8F002253E8000F43E80021B1
:103A70000029F9D1BFF35B8F704700BF207700208A
:103A800070B5FFF7EDFF084C084E0546B44200D371
:103A900070BD63685B792BB123685B6813B12946FD
:103AA000204698471034F1E74CEB01085CEB010825
:103AB00010B5044C0449204617F079FB034B1C60F9
:103AC00010BD00BF4C20002098EF0108187700209F
:103AD0000D4A0E48002310B513700D4A13600D4AAD
:103AE0004FF47A711360FFF77BFFFFF7E1FF0A4B9A
:103AF0000A4918468B4200D310BD1A1A5C6812118D
:103B0000013222711033F5E7DB84002007B701088A
:103B100020770020247700204CEB01085CEB0108A3
:103B2000014600220148002317F062BB4C20002010
:103B3000014817F0F9BB00BF4C200020024B0146A2
:103B4000186817F04CBC00BF18770020014817F028
:103B500081BC00BF4C20002070B5264B187800288F
:103B600046D0FFF7E5FF054600283ED1224B234C07
:103B70001B68002B12DD1AF021F90A220023FDF741
:103B800011FAD4E90032C01A40F2E93361EB0201C4
:103B9000984271F1000101D3FFF772FFD4E90032BE
:103BA00013F57A7342F10002C4E90032BDE87040B7
:103BB000FFF7CCBF63685B7923B1236829461B6894
:103BC000204698471034B442F4D32846FFF7B6FF96
:103BD000BFF35B8F0A4B53E8001F013943E8001223
:103BE000002AF8D1BFF35B8FC0E7064C064EEAE728
:103BF00070BD00BFDA8400202077002060260020FE
:103C0000247700204CEB01085CEB010870B50D4DEA
:103C1000297861B90120FFF793FE0B4C0B4EB4429B
:103C200006D3FFF799FF0028FBD101232B7070BD4D
:103C300063685B791BB1236820469B689847103402
:103C4000EDE700BFDB8400204CEB01085CEB0108D2
:103C500000212DE9F8430846FFF772FE044648B3F9
:103C60004FF4FA784FF0000902F018FA1A4B1B4A89
:103C70001B58136033B11A4B1B68092B02DD19481E
:103C800007F09EF8184F002544B12046FFF7F6FDD7
:103C9000044618B94FF0FF384FF0FF39FFF75CFFCB
:103CA000064628B9B5B90F4842464B4607F0C2F858
:103CB0003546E9E74FF0FF384FF0FF39D4E72B687E
:103CC0009B691BB100221146284698471035BD421A
:103CD000F5D3E8E7054DFAE7100000001C77002057
:103CE00024770020D82000205CEB01084CEB010871
:103CF00013B5184817F0FAFC174B1B7873B1EFF3A4
:103D00001184102383F31288BFF36F8FFFF724FF12
:103D100084F31188BFF36F8F02B010BD0F4B1B6887
:103D2000002BF9D050B900220023CDE900230C4824
:103D300042F21072002308F047F8EDE70928EBD1B2
:103D400007481AF049F8074802B0BDE8104007F0EC
:103D500037B800BF24770020DB8400201C770020C8
:103D600068260020D820002010B5064B1B680446AA
:103D700098472146A060044817F0B7FABDE8104004
:103D8000FFF7B6BFA40800204C200020044A054BD2
:103D90009B1AB1EBD30F34BF52F8310000207047AB
:103DA0000CEA01084CEB01082DE9F04F8FB004AF8D
:103DB000C1F34A26B8600D4690467B600C0D002E7C
:103DC00061D04FF000090A234FF0040B07F1140AE9
:103DD000FE60C7E90799C7F824900093CDF808B0B2
:103DE000CDF804A007F11C03F9684A464046FFF7E6
:103DF0008BF9B0F5006F03461CD36C468AB0D8F837
:103E0000041004AB2448C3E9050140F2FF71D961F5
:103E10001A464FF400711984204B42F8103F204895
:103E20004B464FF41251FFF7BFFFA5462C37BD4656
:103E3000BDE8F08FC0F30A0604F11700184420F023
:103E4000070080083B60FFF76BFE66F353250446CE
:103E500080B13B68134A00F11001C7E90839F961E4
:103E6000CDE901AB0A230093F96807F11C03404632
:103E7000FFF74AF966F353257B68B9682A4620465E
:103E800017F07CFCD2E704F1170020F0070080084F
:103E9000FFF746FE0446EDE76E0B02080400000142
:103EA00074EA01084FB701082DE9F04F87B0DDE94A
:103EB000127ADDE9106B0546884614469946BFB173
:103EC0001021CDF800A03B465A460020CDF814A0A2
:103ED000FEF766FFB0F5006F01460BD3194A1A488A
:103EE00040F2FF73022107B0BDE8F04F17F09FBC0E
:103EF0003946384604F0070305F00704E40044EAB5
:103F0000831444EA402444EA065406F117000844A6
:103F100020F0070080080391FFF702FE054640B13C
:103F20003FB10399CDF800A03B465A461030FEF74A
:103F300037FF4B4622464146284607B0BDE8F04FC2
:103F400017F01CBCAD0B020874EA0108406820B1F0
:103F5000034BC01A40F3CF0070474FF0FF3070475B
:103F60000CEA01080EB403B503AB014653F8042B69
:103F70000448019302F018FA02B05DF804EB03B0B4
:103F8000704700BF91B80108CA0605D48B064CBF24
:103F900002490349FFF7E6BF704700BF4606020823
:103FA000450602082DE9F04F89B09846159B069307
:103FB000DDE916A39DF85090189F059204460D4622
:103FC0000493B9F1000F00F0B08007F480730793F9
:103FD00017F0B2FB07F0020B0246002874D07849B4
:103FE0002046FFF7BFFF0646BBF1000F08D017F0D1
:103FF000440F6BD173492A462046FFF7B3FF0644AE
:1040000007F0010353B1704B704953F82920704BEE
:104010002046002A08BF1A46FFF7A4FF07F4807362
:10402000002B07F0080318BF4FF00008002B79D0D1
:10403000684B694953F829202046FFF793FF05464E
:10404000059B2BB165491A462046FFF78BFF0544B7
:10405000B8F1000F05D0624942462046FFF782FFC3
:10406000054460483544069B1BB15F49224616F063
:10407000F6FE049B002B00F08E80DDF810803946A0
:10408000B8F1100F204628BF4FF01008FFF77CFF53
:104090000026B54250DC002633461AF80320534967
:1040A0002046FFF75FFF0136102E4BD0710703D17A
:1040B0004F492046FFF756FF46453346EDD34D495D
:1040C0002046FFF74FFFEEE706468DE74A4B18689C
:1040D000002894D0494B4FF47A7B1B68B5FBF3F56D
:1040E0004FF46163B5FBF0F100FB11550BFB05F5D7
:1040F0004FF03C0CB1FBF3F203FB1211B5FBF0FEE9
:10410000B1FBFCF300FB1E550CFB13110BFB05F57B
:104110000091B5FBF0F53A49CDE901E52046FFF7FE
:1041200021FF6CE707F008058AE7B8F1010F0CBF23
:104130002C4834484D4696E72D492046FFF712FF9C
:104140000136A6E7304920460026FFF70BFF33462D
:104150001AF803202D49A2F120035F2B28BF2E223D
:104160002046FFF7FFFE0136102E0DD0720703D157
:104170001F492046FFF7F6FEB0453346E8D81C49F4
:104180002046FFF7EFFEEEE7049BB3EB0803C244C3
:1041900004937FF472AFB9F1000F0AD0FB0704D586
:1041A0000B4A0A492046FFF7DDFE39462046FFF755
:1041B000EBFE204609B0BDE8F04F17F05CBB00BF36
:1041C000EA0B0208EE0B0208BCEF0108EB1D020827
:1041D000E50B0208D0EF0108130C0208190C0208C5
:1041E0001D0C020891B80108A9630008220C0208FE
:1041F0002A0C0208280C0208307700202C770020B7
:10420000F70B0208C7B801082C0C02082E0C020894
:1042100073B542F20F738B4228BF0B4605680F4AF5
:1042200004460521684616F007F963680C495B6887
:1042300006460B22284617F010FB63683246694693
:1042400028465B6817F009FB636806495B681B2218
:10425000284617F002FB02B070BD00BFA21702088B
:104260002A2502080E250208074A00210123904250
:1042700006D8064A01B901231360054B1860704740
:1042800040085B000121F2E740420F002C7700203C
:1042900030770020F8B5074F0D4604464618B44263
:1042A00001D12846F8BD14F8011BBB6801485B68C2
:1042B0009847F4E7B4E30108014B0360002070471E
:1042C00018F00108F0B40D4B0D4E5F6A0D4BB34270
:1042D00003D36FF08500F0BC70475C68BC420AD322
:1042E0001D6945B194F802C08488E4B2A44502D1A6
:1042F0002B46F0BC18472433E9E700BF6077002065
:10430000BC210020982100202DE9F047144CDFF853
:104310005480DFF8549005460E461746444503D3B3
:104320006FF08500BDE8F0876268D9F824309A42C2
:1043300013D3A3698BB1A9889078C9B2884205D1FB
:104340003A4631462846BDE8F04718475279012AD7
:1043500003D13A463146284698472434DEE700BF69
:1043600098210020BC210020607700202DE9F04139
:104370000B4CDFF8308005460E461746444502D305
:104380006FF0850009E063690BB92434F6E73A461B
:104390003146284698470028F7D1BDE8F08100BF94
:1043A00098210020BC210020024B00221A605A6094
:1043B000704700BF1B78002070B50B4B0B4CA3421D
:1043C00001D3002070BD196A1E7F00220439D5B2C6
:1043D000AE4201D82433F2E7013211F8325085425F
:1043E000F5D10120EEE700BF98210020BC2100207C
:1043F00073B58488E4B263060D468DF8074007D094
:104400002046FFF7D9FFB0B1144B93F8BA0090B132
:10441000124E95B1124A13482346032117F0D0FAE1
:104420009DF8070002F01AFCF3691BB10DF10701BA
:1044300008209847012002B070BD0B4A0948234666
:10444000032117F0BDFA9DF8070002F029FCF3697B
:10445000002BEFD00DF107010920EAE7607700207B
:104460006B0C020834EB01087E0C020808B5034609
:10447000034A0448012117F0A3FA002008BD00BF39
:10448000930C020834EB010838B5054602F05EFCD7
:1044900010F1780F044611D10D4A0E482B46022127
:1044A00017F08EFA284617F08DFA0B4AD2F8C4306E
:1044B00023EA0003C2F8C430002407E00028F1D04A
:1044C000064A04482B46012117F07AFA204638BDE7
:1044D000AE0C020834EB010860770020CF0C020814
:1044E00008B509480378C3F341130A3350F8233061
:1044F0003BB100F1080200F110019847C043C00F22
:1045000008BD1846FCE700BF6077002004282DE9AD
:10451000F74FDFF89C9004460F4615D001282FD1A5
:10452000DFF8908098F8B93053B300F0ABFE224D1D
:104530004D4522D22A6A4FF0000A2B7F5FFA8AF695
:10454000B34204D82435F3E7FFF72EFFE8E702EB88
:10455000C6060192307902F0F9FB8346307917F0F4
:1045600031FAD8F8C430019A23EA0003BBF1000FF6
:10457000C8F8C4300AF1010ADFDA002388F8B9303C
:104580000D4D4D4508D30B4B1B6A6BB13946204688
:1045900003B0BDE8F04F1847EB681BB13A4621461F
:1045A000284698472435ECE703B0BDE8F08F00BFFC
:1045B000BC210020607700209821002073B50446BC
:1045C00080788DF8000023796279294D43EA02232F
:1045D000ADF80230E37803F003038DF8043017F0F0
:1045E000F1F9D5F8C430184206460CD0A47820461C
:1045F00000F02AFE2046FFF747FF19F085FA10B9B0
:10460000962019F044FB684617F043FC10F1780F30
:104610009DF800301BD1174A1748022117F0D0F936
:104620009DF8000002F062FB10F1780F19D19DF89F
:104630000030124A1048022117F0C2F9D5F8C430F0
:104640000120334385F8B900C5F8C43007E00028DD
:10465000E6D00B4A0848012117F0B2F9002002B059
:1046600070BD0028EAD09DF80030064AF2E700BF8E
:1046700060770020F10C020834EB0108380D0208C5
:10468000140D0208580D02082DE9F047A94EB36930
:1046900004460F4690466BB9237803F01F03012BA5
:1046A00000F0A280022B00F0078143B16FF01500EB
:1046B000BDE8F08798470028EED10020F8E794F98C
:1046C00000206178002A2FDA062910D00829D8F8AE
:1046D000002024D00029E9D101231370517096F8ED
:1046E000C3305B0043F001031370022320E16288B2
:1046F000100A011F01290546D8D90728D6D8D1B2FA
:10470000726A1478002CD1D05678AE4203D1994207
:1047100000F0088101332244F3E7137808E196F8AA
:10472000BA301370012303E101390829BED801A36F
:1047300053F821F0CF470008AD460008DF470008D6
:10474000AD46000859470008AD460008AD460008D0
:10475000AD460008674700086088C0B202F0C8F99B
:104760000028AAD0A2E763883BB1FF27756A002022
:10477000B8462B786BB9002898D0FFF715FE6388F0
:1047800086F8BA30F369002B97D06B49032098471D
:1047900093E76B78042B0DD0052B0ED0022B06D19E
:1047A0006F796388BB4208BF40F00100C0B22B782C
:1047B0001D44DEE795F80380F9E76388BB42F6D134
:1047C000B8F1000FF3D12846FFF7F8FEEFE7638852
:1047D000012B7FF46BAF002386F8C3306DE763884D
:1047E000012B7FF463AFF7E796F8BA30002B3FF464
:1047F0005DAFA388756A5FFA83FC2A4611780029A9
:104800003FF454AF5078022804D192F804E0E64512
:1048100000F294800A44F1E70A704A7038604CE76D
:10482000154499E00B2A7FF441AF00274FF0FF08B1
:10483000C146BA4606E06B78042B0FD0052B21D079
:104840002B781D442B78002BF5D1F36913B1514619
:1048500007209847002F7FF430AF27E795F80280B4
:10486000A38895F803909845EAD163889945E7D1E4
:10487000B8F1070F1DD806EB0803AA4683F8BB90D2
:104880000127DDE7A3884345DAD16388DBB24B45D6
:104890000AD0AF78384600F0D7FC3846FFF7F4FD71
:1048A000B0FA80F77F09CBE72846FFF787FE074677
:1048B000C6E7AA460027C3E794F900206378002AD8
:1048C0001ADA002B7FF4F2AEA388DDB25B060AD0C1
:1048D0002846FFF771FD00283FF4E8AE96F8BA309D
:1048E000002B3FF4E3AED8F800402846214617F0ED
:1048F000ECFA00236370F8E6012B08D0032B7FF459
:10490000D5AE6388002B7FF4D1AE012103E061882E
:1049100000297FF4CBAE2046FFF76AFD00287FF424
:10492000CCAEC3E60228C8F800207FF4F6AE538868
:104930003B60C2E6607700201A78002094F90010EE
:1049400062780029BFF66EAFD8F80010002A3FF455
:1049500063AF0A2A7FF4AAAE2A78002A3FF4A6AEF3
:10496000687804287FF45CAFA87883427FF458AF5E
:10497000072B96BF9B19002393F8BB300B70D1E631
:104980002DE9F84305460F469046994604264B46C6
:1049900042463946284602F007FA10F10B0F04464A
:1049A00009D1064A06482B46022117F009F806F0FD
:1049B000A1FE013EEBD12046BDE8F883790D020847
:1049C00034EB010813B5164C237DF3B9E268A168F6
:1049D000019201AB8020FFF7D3FF019AA368134433
:1049E000A360E3689B1AE3606BB962B12369E28854
:1049F0009A4208DD94F8C82093FBF2F102FB1133D0
:104A00000BB90123237502B010BD00231A461946C5
:104A10008020237502B0BDE8104002F0C5B900BF88
:104A2000607700207FB500230D46019306460028DD
:104A300062D100293AD108220B460DEB020117F092
:104A400051FA002804DA802002F008F904B070BDA1
:104A50002E4C029A2260039A626004F13802A2602E
:104A60009DF90820BDF80E302575002AC4E90355CC
:104A70000FDB802B09D9264A2648012116F0CEFEED
:104A8000802002F0EBF82846DEE713B1C4E90333D7
:104A9000DCE7FFF725FD0028D5D0E28823699A429C
:104AA000D4BFE260E360FFF78DFFCFE7174CD4E996
:104AB0000212002A01AB05DC024617F013FA0028A7
:104AC000C4DAC0E717F00EFA002804DA802002F0FA
:104AD000C5F83046B8E7019AA3681344A360E368B9
:104AE0009B1AE360002BB1D104F13803A360FFF7F8
:104AF000F7FC0028D7D1A6E78028A7D1034BDA68B6
:104B0000002AD0D11B7D002BCDD19FE760770020FC
:104B1000A00D020834EB0108054B064A9A62064ACA
:104B2000DA62064A1A63064A58629A6100207047A0
:104B30006077002089460008C54200086D430008E0
:104B4000094300082DE9F34104464C4D4C484FF011
:104B5000FF334FF0FF3206F071F895F8B8306BB1C3
:104B6000484A4948022116F059FE6FF0770444483C
:104B700006F0D6F8204602B0BDE8F0816E6A6EB944
:104B800000F0D4F8FFF7C8FF6E6A3EB93F4A3E48CE
:104B9000012116F043FE4FF0FF34E8E73C482C6259
:104BA000E86101F09FFF01F0B3FE041EDFDB00F0BF
:104BB0008BFB041EDBDB7378012B01D1F3793BB94E
:104BC000344A3148012116F029FE6FF01504CEE772
:104BD0000026684685F8C830ADF802308DF80460CC
:104BE0008DF8006017F055F9041EC0DB8027684679
:104BF0008DF8007017F04DF9041EB8DB26493046D9
:104C000017F03CF9041EB2DB2349384617F036F999
:104C1000041EACDB214CDFF8888044451AD3002009
:104C200002F064F8041EA2DBD5F8C430802043F003
:104C30000103C5F8C43002F059F8041E97DBD5F81B
:104C4000C43043F48033C5F8C430012385F8B8304C
:104C500000248CE7276A0026227FF3B29A4201D80B
:104C60002434DAE707EBC30257F83310107917F052
:104C700005F901360028EFD08DE700BF60770020EE
:104C8000AC200020B90D020834EB0108DC0D02084D
:104C90000D450008010E0208254A00089821002051
:104CA000BC21002030B51F4B8BB005AA03F11005C5
:104CB00018685968144603C40833AB422246F7D13A
:104CC0001B78237001AC10220021204619F02AF92C
:104CD00012220021144819F025F91021204603F072
:104CE00089F900281ADD0828B8BF082009380E4ABB
:104CF0000444002114F8013F0AA800EB131003F04C
:104D00000F0328336B44013110F8140C13F8143CD2
:104D100010700829537002F10202EBD102480BB067
:104D200030BD00BF3B0E0208DE8400202DE9F04FAD
:104D3000884B87B093F800A000AFBAF1000F04D001
:104D400085481C37BD46BDE8F08F834C00264FF0E8
:104D50000119FE603546B04623783BB97F4B0234DB
:104D60009C42F3D17B4A01231370E9E76378052B5A
:104D700005D8DFE803F0AE0703AE1E4FA046237848
:104D80001C44E9E7402307F1100087F810A07B825C
:104D900087F814A001F048FF40B1082307F1100084
:104DA0007B8201F041FF08B1A7F812A07B8AE37172
:104DB000E5E7E378002BE2D1A37813B3FB68013376
:104DC000DBB2FB60DBE76B689C421CD02435644B94
:104DD0009D42F8D36D4688B06A46624BCDE90534F2
:104DE000032342F8103F604800234FF4C251FEF7FE
:104DF000DBFFAD465C485D4A012116F00FFD002047
:104E00009FE75B4DE3E7AB68002BD7D0F9682046FE
:104E10009847D3E7002D5AD1564A5348012116F03E
:104E2000FDFCE7E72B6AA07803EBC2010B799842FF
:104E300047D14FF0010BE07894F805C000F0030073
:104E40003875207940EA0C20788294F90200002815
:104E50005FFA8BF328DA0BF110004FF0010C0CFA1B
:104E600000F010EA090F27D143F08000387407F1F1
:104E70001000C7E90031BA6001F0D6FED7E901128F
:104E80003B68C8B93A7CA27012F0800F18BF10338B
:104E90000A7118BFDBB24FF0010214BF9A4002FA48
:104EA0000BF249EA02096AE7012000FA0BF010EA66
:104EB000090F01D11846D9E70BF1010BBBF1100F17
:104EC000B9D101322B7F9A42ACD32B4AA5E70022FD
:104ED000F8E7032E24D1FFF7E5FE8346A0B1FCF7E7
:104EE0008DF8034680B1102806D0B860234A1E48CA
:104EF000022116F093FCBB68102BA8BF10231A46A2
:104F00005946A01C19F000F823786FF002011A1915
:104F1000091B04EB5303D14209D50136F6B22EE743
:104F2000002EF1D1B8F1000F08D1154A75E702F84B
:104F300001AC13F8010902F8020DECE7A4EB080339
:104F400088F80230C3F3072388F80330FB6888F839
:104F50000430E2E7DD840020F020002097210020CB
:104F6000BC2100204C0E02082CEB0108320F020875
:104F7000982100206C0E0208AD0E0208CA0E02082D
:104F8000150F020810B5094B00211A461C788442FF
:104F900005D15C681CB1482303FB012010BD013121
:104FA000042903F14803F1D10020F7E72C78002011
:104FB0002DE9FF4150F8303C10F8346C10330446B2
:104FC0000AD1036950F8282C98073DD5D2B9590762
:104FD00015D5002344F8303C54F8303C10330BD046
:104FE00054E9097554F81C8C18F08EFD002857D030
:104FF0003248214618F053FD04B0BDE8F08143F07B
:105000000403236103AB54F82C1C3046FFF7B8FCB3
:10501000034640B12A4A2B480096012116F011FCA4
:105020006FF01503D6E7039A54F82C3C134444F868
:105030002C3C54F8283C9B1A44F8283C54F8243C57
:10504000134444F8243CC7E703AB54F82C1C304607
:1050500001F014FF03460028DCD1039D54F82C3CDA
:105060002B4444F82C3C54F8283C5B1B44F8283C67
:1050700054F8243C2B4444F8243C002DA9D030465D
:1050800016F03EFFB5FBF0F303FB1055002DA0D149
:1050900054F8283C002B9CD0304601F037FF9BE7AA
:1050A00044F8200CA4F1180005F08AFE002DA3D0CE
:1050B000424639463046A8479EE700BFA02600205A
:1050C000600F02083CEB01084B1E012B73B506462E
:1050D0000D4614D8FFF756FF044690B9012D0ED1A6
:1050E00001AB01220DF10301304601F0C7FE019B27
:1050F000002BF5D10C4A0D48012116F08FFB02B0B0
:1051000070BD18F001FD04F1340108B1012D05D185
:10511000084602B0BDE87040FFF74ABF044802B03D
:10512000BDE8704018F0BBBC7D0F02083CEB0108E5
:10513000A02600202DE9F74F064601911746984614
:1051400016F081FC044600286FD1EFF31183009321
:10515000102383F31288BFF36F8FDFF8D4900022FF
:105160000023484605F066FEA0B9DFF8C8A0482233
:1051700062430AEB020BDBF8045015F1100F1ED14D
:105180002D4A2E483346012116F051FB484605F0C2
:1051900017FE0BE00134042C09F14809DFD1284A3D
:1051A0002648012116F03AFB6FF00B05009B83F3B4
:1051B0001188BFF36F8F284603B0BDE8F08F0AF85F
:1051C00002600C9A019BCBF814200D9ACBF81000CA
:1051D000CBF8182030466FF00F02CBE90237CBF83E
:1051E0004480CBF8042016F08BFE68B1304616F0F0
:1051F00087FEB7FBF0F202FB10772FB1DBF84420FB
:1052000042F00402CBF8442018F0020F08D04823E3
:1052100003FB04A10B48343118F041FC0025C5E71D
:10522000304601F073FE0546C0E76FF00F05C2E798
:10523000487800202C780020B20F02083CEB0108CF
:10524000970F0208A026002010B5EFF31184102359
:1052500083F31288BFF36F8FFFF794FE50B143685A
:10526000103307D16FF08B03436000F13401044821
:1052700018F015FC84F31188BFF36F8F10BD00BFC9
:10528000A0260020F8B50E4C04251027EFF3118658
:1052900087F31288BFF36F8F6368103307D16FF005
:1052A0008B030848636004F1340118F0F8FB86F3BF
:1052B0001188BFF36F8F013D04F14804E6D1F8BDBA
:1052C0002C780020A026002038B5094C002509497B
:1052D000204618F0B9FB0122A4F11800114601354F
:1052E00018F030FB042D04F14804F0D1002038BD43
:1052F00060780020B14F00080169012381F84B302C
:105300000B6833B191F849301BB10248083118F0ED
:10531000C6BB7047A02600200169012381F84A30EE
:105320000B6833B191F848301BB10248083118F0CE
:10533000B6BB7047A026002070B50569EFF3118653
:10534000102383F31288BFF36F8FD5F8900016F007
:10535000E8F8044686F31188BFF36F8F30B1044834
:105360000022002305F1180105F006FF204670BD5C
:10537000A026002070B5012382F8483013680D463E
:1053800014463BB192F84A3023B10E4802F10801AD
:1053900018F085FBD4F89030DA885B899A4205D101
:1053A0007DB904F118014FF47A7204E004F1180198
:1053B000002DF8D00022BDE870400248002305F01F
:1053C000DBBE70BDA026002070B50E468188044665
:1053D000C9B21548154616F012FB10B394F9002017
:1053E0006378002A16DB202B04D0222B0ED06FF01E
:1053F00085000AE02B681A6840F8102C9A8820F87B
:105400000C2C9B7900F80A3C002070BD638800F8E2
:10541000093CF9E7212BEAD11038072328603360D3
:10542000F2E76FF01200F0E75079002008B501466E
:10543000034816F0F2FA10B1012300F8073C08BD4A
:10544000507900200D4A03460021A0F8481010684A
:10545000C3F8940090889279A3F8980083F89A2072
:1054600083F89C1083F89B10A3F89E1083F8A0107B
:10547000402203F14C0018F055BD00BFAAEB010813
:1054800010B504690023C4F8A8300C4BC4F8A4007C
:10549000596804F1A80269B9C3E9002204F10800BF
:1054A000074918F0D1FA04F11800064918F007FB73
:1054B000002010BD0A605A60F0E700BF507900205C
:1054C00071BA01089155000830B54FF400334268B5
:1054D00005690D4C85B042F2A100CDE9010300231E
:1054E00085F89D30106AADF80C1000790A2201A9E8
:1054F000FFF746FA95F89D3023B9012018F085F999
:10550000013CF7D105B030BDA186010073B5046937
:105510008DF80710002384F848301025EFF311862A
:1055200085F31288BFF36F8F0122D4F890000DF13C
:10553000070115F0F6FF86F31188BFF36F8F01287E
:1055400010D018F0E1FAB0B10F4BBFF35B8F01221E
:1055500053E8001F002903D143E800200028F7D1B9
:10556000BFF35B8F0A22002304F11801074805F0FE
:1055700003FE02B070BD94F8A130002BE4D00021EE
:105580000A2018F06BFBC9E74C790020A026002008
:10559000F0B5D0F88C305B681B6A1F7D85B005467E
:1055A000384616F050FA064650BB95F886303BB3A5
:1055B000A86F0146C38831F80A2F9B1A9BB2B3F536
:1055C000807F28BF4FF4807303AA15F05BFF044669
:1055D000B0B18306A5F1180308BF00F1FF3485F8C8
:1055E00030600193074B039900932246022338460B
:1055F000FFF7A0FDA86F224600F10A0115F078FF21
:1056000005B0F0BD7553000837B514460A1E0546AF
:1056100021DDD4F88C0004F14C0115F082FF012348
:1056200084F8493023683BB194F84B3023B11148DA
:1056300004F1080118F033FAD4F88C20938891898A
:1056400012695B1A9BB2D31A3F2B04D8012384F84A
:10565000A03003B030BD94F89E30002BF9D0064B3B
:10566000009301940123402204F14C012846FFF7E6
:1056700061FDEEE7A02600200956000873B50D462F
:1056800001461D4816F0AFF9044610B3691EA0F19B
:10569000A40605291DD8DFE801F01E1C031E2428DE
:1056A00010F8061CA9B903685D68012300F8063CE0
:1056B0002B6A3246187BFFF7A7FF14F85C2C42B91F
:1056C0002B6A187D0D4B0093019602231146FFF7BC
:1056D00031FD02B070BD304602B0BDE87040FFF74A
:1056E000B1BE012304F8053CF3E710F8053C002B9C
:1056F000EFD00023F6E700BF507900207553000873
:1057000013B500240749084800944FF0FF334FF4C5
:10571000806205F0F1FC0549034818F0FBF92046CA
:1057200002B010BD80900020A0260020F20F0208D9
:1057300037B504698DF8071063680546ABB9BFF348
:105740005B8F1C4B012253E8001F002903D143E863
:1057500000200028F7D1BFF35B8F04D1164A174809
:10576000022116F05BF803B030BD18F0CDF930B966
:10577000D4E901329DF8071028469847F3E7002343
:1057800000220DF1070104F11C0018F0C5F80346D2
:1057900020B10B4A0948022116F049F804F10C0027
:1057A00005F0A4FC031EDEDA064A0448012116F0C7
:1057B0003EF8D8E758790020FB0F0208E4EA010818
:1057C0000B1002082B10020810B5046904230122F3
:1057D00004F1500104F11C0018F08AF804F10C00E7
:1057E000024918F031F9002010BD00BFCDBC0108FE
:1057F00008B50348034A0021121A16F082FA08BDC0
:10580000C0210020048D00200748084A084908B537
:10581000121A16F078FA0748074A0849BDE8084006
:10582000121A16F070BA00BF00000020BC21002040
:10583000F42602080000002000000020F4260208E0
:105840002DE9F047064600AF0C46002936D0E94660
:105850008AB0D1E90012A3686D462148E8464FF0AE
:10586000050ACDE90501CDE9072348F810AF1D4829
:10587000424600234FF42151FEF796FACD46D4E973
:1058800003126369AD461848C5F810A0C5E90501C3
:10589000C5E907231348002342464FF42151FEF780
:1058A00083FACD46E369114A0E48012115F0BFFF86
:1058B000A3690F4A0B48012115F0B9FF012E07D14A
:1058C000EFF305830B4A0748103B314615F0AFFF55
:1058D0002146304604F026FFBD46BDE8F08700BFF4
:1058E0006510020894EA010894100208C310020827
:1058F000D21002080011020830BFFFF7FDBF00BF41
:105900002DE9F0410B4EDFF8308006EB0807CC1B89
:10591000054632460949204618F0F6FAA0194246D3
:105920000021083C18F0FEFAC5F8844007F1080091
:10593000BDE8F081080000000800000060EB0108ED
:1059400010B5204C2049214816F0EAF9A36A9901C4
:1059500036D51E481E4916F0E3F91E20A36ADA0167
:1059600004D51A481B4916F0DBF91F20154CA36A11
:105970001B0304D51548184916F0D2F92120A36A53
:10598000590304D51148154916F0CAF922200D4CC7
:10599000A36A9A0304D50D48114916F0C1F92320D2
:1059A000A36ADB0304D509480E4916F0B9F924208F
:1059B000044A936A6FEA03436FEA1343936210BD8C
:1059C0001D20CBE700ED00E01311020894EA010866
:1059D0002B1102083E110208581102087611020824
:1059E0009B110208B511020870B506460D46284CF9
:1059F0002849294816F094F9A36AD9043CD52648C9
:105A0000264916F08DF91720A36A1A0504D52248F5
:105A1000234916F085F918201D4CA36A9B0512D561
:105A20001D48204916F07CF9A36BA26A100409D521
:105A30001D4A1948012115F0FAFE1EB1A36A23F48C
:105A40000043A3621920124CA36A590504D51248D9
:105A5000164916F065F91A20A36ADA050ED50E4824
:105A6000134916F05DF91B20094A936A43F47F43FA
:105A7000936200232B7070BD1620C5E7A36A9B04B8
:105A8000F2D505480B4916F04BF91C20ECE700BF96
:105A900000ED00E0E011020894EA0108F6110208A6
:105AA000071202081A1202083312020848120208EA
:105AB000631202087B1202082DE9F84380468946EA
:105AC0001746354D3549364816F02AF9AB6ADE06D9
:105AD00027D53449324816F023F91124AB6A1D0743
