:020000040800F2
:10000000A8E7002041660008DBF801082D6600081B
:100010002D6600082D6600082D660008000000000F
:100020000000000000000000000000000D67000854
:100030002D66000800000000A16600089D8E0008E3
:10004000BD680008BD680008BD680008BD680008FC
:10005000BD680008BD680008BD680008BD680008EC
:10006000BD680008BD680008BD680008BD680008DC
:10007000BD680008BD680008BD680008BD680008CC
:10008000BD680008BD680008BD680008BD680008BC
:10009000BD680008BD680008BD680008BD680008AC
:1000A000BD680008BD680008BD680008BD6800089C
:1000B000BD680008BD680008BD680008BD6800088C
:1000C000BD680008BD680008BD680008BD6800087C
:1000D000BD680008BD680008BD680008BD6800086C
:1000E000BD680008BD680008BD680008BD6800085C
:1000F000BD680008BD680008BD680008BD6800084C
:10010000BD680008BD680008BD680008BD6800083B
:10011000BD680008BD680008BD680008BD6800082B
:10012000BD680008BD680008BD680008BD6800081B
:10013000BD680008BD680008BD680008BD6800080B
:10014000BD680008BD680008BD680008BD680008FB
:10015000BD680008BD680008BD680008BD680008EB
:10016000BD680008BD680008BD680008BD680008DB
:10017000BD680008BD680008BD680008BD680008CB
:10018000BD680008BD680008BD680008BD680008BB
:08019000BD680008BD6800080D
:1001C00090F800F06DE9024520F007016FF0000C97
:1001D00010F0070491F820F040F049804FF000043F
:1001E0006FF00700D1E9002391F840F000F108001A
:1001F00082FA4CF2A4FA8CF283FA4CF3A2FA8CF352
:100200004BBBD1E9022382FA4CF200F10800A4FAB8
:100210008CF283FA4CF3A2FA8CF3E3B9D1E904230C
:1002200082FA4CF200F10800A4FA8CF283FA4CF343
:10023000A2FA8CF37BB9D1E9062301F1200182FAFD
:100240004CF200F10800A4FA8CF283FA4CF3A2FA03
:100250008CF3002BC6D0002A04BF04301A4612BA11
:10026000B2FA82F2FDE8024500EBD2007047D1E914
:10027000002304F00305C4F100004FEAC50514F0A3
:10028000040F91F840F00CFA05F562EA05021CBF74
:1002900063EA050362464FF00004A9E7000000008E
:1002A000A2EB0300704700BF02780B78012A28BF39
:1002B0009A42F5D16DE9044540EA0104CDE90267AF
:1002C0006FF0000C4FEA447212B380EA010414F09C
:1002D000070F6AD100F0070420F0070004F00305BF
:1002E00021F007014FEAC505F0E8042314F0040FDC
:1002F000F1E804670CFA05F462EA040266EA04060F
:100300000AD063EA0403624667EA0407664603E02C
:10031000F0E80423F1E8046782FA4CF582EA060467
:10032000A4FA8CF46CBB83FA4CF583EA0705A5FAB2
:100330008CF595B950E9022351E9026782FA4CF530
:1003400082EA0604A4FA8CF483FA4CF583EA0705E2
:10035000A5FA8CF52543DBD09CB92DBAB5FA85F406
:1003600024F0070427FA04F1DDE9026723FA04F315
:1003700003F0FF0001F0FF01FDE80445A0EB0100E0
:10038000704724BAB4FA84F424F0070426FA04F17E
:10039000DDE9026722FA04F202F0FF0001F0FF013A
:1003A000FDE80445A0EB0100704714F0030F3CD1B9
:1003B00010F0030428D150F8082B51F8083B82FABA
:1003C0004CF582EA0305A5FA8CF55DB950F8042CCA
:1003D00051F8043C82FA4CF582EA0305A5FA8CF543
:1003E000002DE8D02DBAB5FA85F424F0070423FADD
:1003F00004F122FA04F202F0FF0001F0FF01FDE82F
:100400000445A0EB010070474FEAC40420F003004C
:1004100050F8082B21F0030151F8083B0CFA04F4C2
:1004200062EA040263EA0403C9E710F003041AD085
:10043000A1EB040120F00300E40750F8042B06D0E0
:100440000FD28B785FFAA2F4E41A06D12BB1CB78E5
:100450005FFAB2F4E41A00D11BB920465DF8104BE4
:10046000704701F1040150F8042BCC0721F003017F
:1004700051F8043B48D824D222F07F4482FA4CF54C
:1004800094EA1325A5FA8CF50AD165B951F8043B15
:1004900084EA0204B4EB036F0ED150F8042BEBE7AF
:1004A0004FEA132355E035F07F454DD10878FDE83C
:1004B0000445C0F1000070474FEA126203F0FF03E9
:1004C00047E002EA1C4482FA4CF594EA1345A5FA87
:1004D0008CF50AD165B951F8043B84EA0204B4EB07
:1004E000034F0CD150F8042BEBE74FEA134330E0F5
:1004F00015EA1C4528D10B884FEA124229E04FEA41
:10050000124203EA1C4324E002F0FF0482FA4CF595
:1005100094EA1365A5FA8CF50AD165B951F8043B44
:1005200084EA0204B4EB032F09D150F8042BEBE763
:100530004FEA13630DE015F0FF0F05D10B684FEA8A
:10054000122223F07F4304E04FF00000FDE8044551
:10055000704712BA1BBA82FA4CF482EA0304A4FA76
:100560008CF5B5FA85F402FA04F203FA04F34FEAC3
:100570001260FDE80445A0EB136070470000000026
:1005800001F0FF01102A2BDB10F0070F08D010F844
:10059000013B013A8B422DD010F0070F42B3F6D148
:1005A000F0B441EA012141EA014122F007047FF061
:1005B00000070023F0E80256083C85EA010586EAB8
:1005C000010685FA47F5A3FA87F586FA47F6A5FAF4
:1005D00087F68EB9EED1F0BC01F0FF0102F0070200
:1005E00032B110F8013B013A83EA010313B1F8D1AB
:1005F0000020704701387047002D06BF354603388C
:10060000073815F0010F07D1013015F4807F02BFC4
:10061000013015F4C03F0130F0BC0138704700BF15
:10062000844641EA000313F003036DD1403A41D3FD
:1006300051F8043B40F8043B51F8043B40F8043BBC
:1006400051F8043B40F8043B51F8043B40F8043BAC
:1006500051F8043B40F8043B51F8043B40F8043B9C
:1006600051F8043B40F8043B51F8043B40F8043B8C
:1006700051F8043B40F8043B51F8043B40F8043B7C
:1006800051F8043B40F8043B51F8043B40F8043B6C
:1006900051F8043B40F8043B51F8043B40F8043B5C
:1006A00051F8043B40F8043B51F8043B40F8043B4C
:1006B000403ABDD2303211D351F8043B40F8043BEC
:1006C00051F8043B40F8043B51F8043B40F8043B2C
:1006D00051F8043B40F8043B103AEDD20C3205D3FC
:1006E00051F8043B40F8043B043AF9D2043208D0F4
:1006F000D2071CBF11F8013B00F8013B01D30B8866
:1007000003806046704700BF082A13D38B078DD043
:1007100010F003038AD0C3F10403D21ADB071CBF15
:1007200011F8013B00F8013B80D331F8023B20F87F
:10073000023B7BE7043AD9D3013A11F8013B00F8B8
:10074000013BF9D20B7803704B7843708B78837040
:100750006046704781F0004102E000BF83F0004333
:1007600030B54FEA41044FEA430594EA050F08BF4C
:1007700090EA020F1FBF54EA000C55EA020C7FEA10
:10078000645C7FEA655C00F0E2804FEA5454D4EB8D
:100790005555B8BF6D420CDD2C4480EA020281EA57
:1007A000030382EA000083EA010180EA020281EA8F
:1007B0000303362D88BF30BD11F0004F4FEA0131E1
:1007C0004FF4801C4CEA113102D0404261EB4101F0
:1007D00013F0004F4FEA03334CEA133302D0524276
:1007E00063EB430394EA050F00F0A780A4F1010432
:1007F000D5F1200E0DDB02FA0EFC22FA05F280186C
:1008000041F1000103FA0EF2801843FA05F3594151
:100810000EE0A5F120050EF1200E012A03FA0EFCD0
:1008200028BF4CF0020C43FA05F3C01851EBE371FA
:1008300001F0004507D54FF0000EDCF1000C7EEB17
:1008400000006EEB0101B1F5801F1BD3B1F5001F55
:100850000CD349085FEA30004FEA3C0C04F1010474
:100860004FEA445212F5800F80F09A80BCF1004F9D
:1008700008BF5FEA500C50F1000041EB045141EA1F
:10088000050130BD5FEA4C0C404141EB0101013CE8
:1008900028BFB1F5801FE9D291F0000F04BF0146D7
:1008A0000020B1FA81F308BF2033A3F10B03B3F1A9
:1008B00020020CDA0C3208DD02F1140CC2F10C0239
:1008C00001FA0CF021FA02F10CE002F11402D8BF97
:1008D000C2F1200C01FA02F120FA0CFCDCBF41EA63
:1008E0000C019040E41AA2BF01EB0451294330BD32
:1008F0006FEA04041F3C1CDA0C340EDC04F114040F
:10090000C4F1200220FA04F001FA02F340EA0300E5
:1009100021FA04F345EA030130BDC4F10C04C4F12B
:10092000200220FA02F001FA04F340EA030029460B
:1009300030BD21FA04F0294630BD94F0000F83F455
:10094000801306BF81F480110134013D4EE77FEA38
:10095000645C18BF7FEA655C29D094EA050F08BF84
:1009600090EA020F05D054EA000C04BF1946104665
:1009700030BD91EA030F1EBF0021002030BD5FEAA9
:10098000545C05D14000494128BF41F0004130BDD1
:1009900014F580043CBF01F5801130BD01F0004525
:1009A00045F0FE4141F470014FF0000030BD7FEA98
:1009B000645C1ABF194610467FEA655C1CBF0B4693
:1009C000024650EA013406BF52EA033591EA030FAA
:1009D00041F4002130BD00BF90F0000F04BF0021A2
:1009E000704730B54FF4806404F132044FF00005D5
:1009F0004FF0000150E700BF90F0000F04BF00214E
:100A0000704730B54FF4806404F1320410F00045B3
:100A100048BF40424FF000013EE700BF42004FEAAE
:100A2000E2014FEA31014FEA02701FBF12F07F432B
:100A300093F07F4F81F06051704732F07F4208BFE2
:100A4000704793F07F4F04BF41F40021704730B5E9
:100A50004FF4607401F0004521F000411CE700BF35
:100A600050EA010208BF704730B54FF000050AE0B8
:100A700050EA010208BF704730B511F0004502D5B9
:100A8000404261EB41014FF4806404F132045FEABB
:100A9000915C3FF4D8AE4FF003025FEADC0C18BF64
:100AA00003325FEADC0C18BF033202EBDC02C2F156
:100AB000200300FA03FC20FA02F001FA03FE40EAE8
:100AC0000E0021FA02F11444BDE600BF70B54FF0EC
:100AD000FF0C4CF4E06C1CEA11541DBF1CEA1355CA
:100AE00094EA0C0F95EA0C0F00F0DEF82C4481EA32
:100AF000030621EA4C5123EA4C5350EA013518BF52
:100B000052EA033541F4801143F4801338D0A0FB3E
:100B100002CE4FF00005E1FB02E506F00042E0FBEB
:100B200003E54FF00006E1FB03569CF0000F18BFF1
:100B30004EF0010EA4F1FF04B6F5007F64F5407499
:100B400004D25FEA4E0E6D4146EB060642EAC6212C
:100B500041EA55514FEAC52040EA5E504FEACE2E99
:100B6000B4F1FD0C88BFBCF5E06F1ED8BEF1004F9C
:100B700008BF5FEA500E50F1000041EB045170BD18
:100B800006F0004646EA010140EA020081EA03015C
:100B9000B4EB5C04C2BFD4EB0C0541EA045170BD58
:100BA00041F480114FF0000E013C00F3AB8014F1D2
:100BB000360FDEBF002001F0004170BDC4F100041B
:100BC000203C35DA0C341BDC04F11404C4F120059C
:100BD00000FA05F320FA04F001FA05F240EA0200F7
:100BE00001F0004221F0004110EBD37021FA04F62D
:100BF00042EB06015EEA430E08BF20EAD37070BDE7
:100C0000C4F10C04C4F1200500FA04F320FA05F045
:100C100001FA04F240EA020001F0004110EBD37047
:100C200041F100015EEA430E08BF20EAD37070BDB7
:100C3000C4F1200500FA05F24EEA020E20FA04F390
:100C400001FA05F243EA020321FA04F001F000413F
:100C500021FA04F220EA020000EBD3705EEA430EB0
:100C600008BF20EAD37070BD94F0000F0FD101F0DF
:100C70000046400041EB010111F4801F08BF013C18
:100C8000F7D041EA060195F0000F18BF704703F056
:100C90000046520043EB030313F4801F08BF013DDD
:100CA000F7D043EA0603704794EA0C0F0CEA135599
:100CB00018BF95EA0C0F0CD050EA410618BF52EA53
:100CC0004306D1D181EA030101F000414FF0000059
:100CD00070BD50EA410606BF1046194652EA430667
:100CE00019D094EA0C0F02D150EA013613D195EADB
:100CF0000C0F05D152EA03361CBF104619460AD123
:100D000081EA030101F0004141F0FE4141F470012C
:100D10004FF0000070BD41F0FE4141F4780170BD1C
:100D200070B54FF0FF0C4CF4E06C1CEA11541DBF81
:100D30001CEA135594EA0C0F95EA0C0F00F0A7F883
:100D4000A4EB050481EA030E52EA03354FEA0131B0
:100D500000F088804FEA03334FF0805545EA1313C3
:100D600043EA12634FEA022245EA111545EA10658B
:100D70004FEA00260EF000419D4208BF964244F122
:100D8000FD0404F5407402D25B084FEA3202B61A41
:100D900065EB03055B084FEA32024FF480104FF415
:100DA000002CB6EB020E75EB030E22BFB61A754689
:100DB00040EA0C005B084FEA3202B6EB020E75EB1C
:100DC000030E22BFB61A754640EA5C005B084FEA84
:100DD0003202B6EB020E75EB030E22BFB61A754651
:100DE00040EA9C005B084FEA3202B6EB020E75EB5C
:100DF000030E22BFB61A754640EADC0055EA060E1D
:100E000018D04FEA051545EA16754FEA06164FEA5F
:100E1000C30343EA52734FEAC2025FEA1C1CC0D10B
:100E200011F4801F0BD141EA00014FF000004FF098
:100E3000004CB6E711F4801F04BF01430020B4F159
:100E4000FD0C88BFBCF5E06F3FF6AFAEB5EB030C11
:100E500004BFB6EB020C5FEA500C50F1000041EB0E
:100E6000045170BD0EF0004E4EEA113114EB5C04DB
:100E7000C2BFD4EB0C0541EA045170BD41F48011AE
:100E80004FF0000E013C90E645EA060E8DE60CEAB6
:100E9000135594EA0C0F08BF95EA0C0F3FF43BAFD3
:100EA00094EA0C0F0AD150EA01347FF434AF95EA8A
:100EB0000C0F7FF425AF104619462CE795EA0C0F6E
:100EC00006D152EA03353FF4FDAE1046194622E73B
:100ED00050EA410618BF52EA43067FF4C5AE50EA15
:100EE00041047FF40DAF52EA43057FF4EBAE12E705
:100EF0004FF0FF3C06E000BF4FF0010C02E000BFE6
:100F00004FF0010C4DF804CD4FEA410C7FEA6C5CC8
:100F10004FEA430C18BF7FEA6C5C1BD001B050EA6B
:100F2000410C0CBF52EA430C91EA030F02BF90EA56
:100F3000020F0020704710F1000F91EA030F58BF15
:100F4000994208BF90422CBFD8176FEAE37040F077
:100F5000010070474FEA410C7FEA6C5C02D150EA15
:100F6000013C07D14FEA430C7FEA6C5CD6D152EAD0
:100F7000033CD3D05DF8040B704700BF8446104695
:100F800062468C461946634600E000BF01B5FFF794
:100F9000B7FF002848BF10F1000F01BD4DF808ED64
:100FA000FFF7F4FF0CBF012000205DF808FB00BF35
:100FB0004DF808EDFFF7EAFF34BF012000205DF88F
:100FC00008FB00BF4DF808EDFFF7E0FF94BF0120DC
:100FD00000205DF808FB00BF4DF808EDFFF7CEFFDD
:100FE00094BF012000205DF808FB00BF4DF808ED1C
:100FF000FFF7C4FF34BF012000205DF808FB00BFED
:101000004FEA410C7FEA6C5C02D150EA013C0AD104
:101010004FEA430C7FEA6C5C02D152EA033C02D1F6
:101020004FF0000070474FF0010070474FEA410257
:1010300012F5001215D211D56FF47873B3EB62522A
:1010400012D94FEAC12343F0004343EA505311F051
:10105000004F23FA02F018BF404270474FF00000E3
:10106000704750EA013005D111F0004008BF6FF021
:10107000004070474FF00000704700BF80F0004014
:1010800002E000BF81F0004142001FBF5FEA410360
:1010900092EA030F7FEA226C7FEA236C6AD04FEA60
:1010A0001262D2EB1363C1BFD218414048404140A5
:1010B000B8BF5B42192B88BF704710F0004F40F457
:1010C000000020F07F4018BF404211F0004F41F473
:1010D000000121F07F4118BF494292EA030F3FD03F
:1010E000A2F1010241FA03FC10EB0C00C3F1200352
:1010F00001FA03F100F0004302D5494260EB4000E1
:10110000B0F5000F13D3B0F1807F06D340084FEA4B
:10111000310102F10102FE2A51D2B1F1004F40EB40
:10112000C25008BF20F0010040EA030070474900A8
:1011300040EB0000013A28BFB0F5000FEDD2B0FA45
:1011400080FCACF1080CB2EB0C0200FA0CF0AABF68
:1011500000EBC25052421843BCBFD0401843704706
:1011600092F0000F81F4000106BF80F4000001320C
:10117000013BB5E74FEA41037FEA226C18BF7FEAE3
:10118000236C21D092EA030F04D092F0000F08BF25
:101190000846704790EA010F1CBF0020704712F00C
:1011A0007F4F04D1400028BF40F00040704712F14B
:1011B00000723CBF00F50000704700F0004343F0B0
:1011C000FE4040F4000070477FEA226216BF0846E6
:1011D0007FEA23630146420206BF5FEA412390EAA9
:1011E000010F40F4800070474FF0000304E000BF9F
:1011F00010F0004348BF40425FEA000C08BF704750
:1012000043F0964301464FF000001CE050EA010213
:1012100008BF70474FF000030AE000BF50EA010228
:1012200008BF704711F0004302D5404261EB410115
:101230005FEA010C02BF84460146002043F0B6433A
:1012400008BFA3F18053A3F50003BCFA8CF2083A5F
:10125000A3EBC25310DB01FA02FC634400FA02FC68
:10126000C2F12002BCF1004F20FA02F243EB02006F
:1012700008BF20F00100704702F1200201FA02FCD1
:10128000C2F1200250EA4C0021FA02F243EB0200C4
:1012900008BF20EADC7070474FF0FF0C1CEAD05208
:1012A0001EBF1CEAD15392EA0C0F93EA0C0F6FD0C9
:1012B0001A4480EA010C400218BF5FEA41211ED0A7
:1012C0004FF0006343EA501043EA5111A0FB013193
:1012D0000CF00040B1F5000F3EBF490041EAD37168
:1012E0005B0040EA010062F17F02FD2A1DD8B3F1E4
:1012F000004F40EBC25008BF20F00100704790F053
:10130000000F0CF0004C08BF49024CEA502040EAA4
:1013100051207F3AC2BFD2F1FF0340EAC25070476A
:1013200040F400004FF00003013A5DDC12F1190FA8
:10133000DCBF00F000407047C2F10002410021FA1A
:1013400002F1C2F1200200FA02FC5FEA310040F132
:10135000000053EA4C0308BF20EADC70704792F0AB
:10136000000F00F0004C02BF400010F4000F013AE3
:10137000F9D040EA0C0093F0000F01F0004C02BFDE
:10138000490011F4000F013BF9D041EA0C018FE74D
:101390000CEAD15392EA0C0F18BF93EA0C0F0AD053
:1013A00030F0004C18BF31F0004CD8D180EA010079
:1013B00000F00040704790F0000F17BF90F0004F12
:1013C000084691F0000F91F0004F14D092EA0C0FF4
:1013D00001D142020FD193EA0C0F03D14B0218BF87
:1013E000084608D180EA010000F0004040F0FE40CD
:1013F00040F40000704740F0FE4040F44000704769
:101400004FF0FF0C1CEAD0521EBF1CEAD15392EAE7
:101410000C0F93EA0C0F69D0A2EB030280EA010CD7
:1014200049024FEA402037D04FF0805343EA111170
:1014300043EA10130CF000408B4238BF5B0042F1CE
:101440007D024FF4000C8B4224BF5B1A40EA0C0073
:10145000B3EB510F24BFA3EB510340EA5C00B3EBA5
:10146000910F24BFA3EB910340EA9C00B3EBD10F93
:1014700024BFA3EBD10340EADC001B0118BF5FEAE5
:101480001C1CE0D1FD2A3FF650AF8B4240EBC2500E
:1014900008BF20F0010070470CF0004C4CEA5020CF
:1014A0007F32C2BFD2F1FF0340EAC250704740F41E
:1014B00000004FF00003013A37E792F0000F00F010
:1014C000004C02BF400010F4000F013AF9D040EA8E
:1014D0000C0093F0000F01F0004C02BF490011F422
:1014E000000F013BF9D041EA0C0195E70CEAD1531A
:1014F00092EA0C0F08D142027FF47DAF93EA0C0F01
:101500007FF470AF084676E793EA0C0F04D14B02E4
:101510003FF44CAF08466EE730F0004C18BF31F096
:10152000004CCAD130F000427FF45CAF31F0004390
:101530007FF43CAF5FE700BF4FEA4002B2F1FE4FDD
:101540000FD34FF09E03B3EB12620DD94FEA002385
:1015500043F0004310F0004F23FA02F018BF40425E
:1015600070474FF00000704712F1610F01D1420245
:1015700005D110F0004008BF6FF0004070474FF0F9
:10158000000070477BB972B90029BEBF00204FF040
:10159000004106E008BF00281CBF6FF000414FF07B
:1015A000FF3000F057B8ADF1080C6DE904CE00290A
:1015B00009DB002B1ADB00F062F8DDF804E0DDE95E
:1015C000022304B07047404261EB4101002B1BDB5A
:1015D00000F055F8DDF804E0DDE9022304B04042F4
:1015E00061EB4101524263EB43037047524263EBAC
:1015F000430300F044F8DDF804E0DDE9022304B021
:10160000404261EB41017047524263EB430300F0FB
:1016100036F8DDF804E0DDE9022304B0524263EB62
:101620004303704753B94AB9002908BF00281CBFBB
:101630004FF0FF314FF0FF3000F00CB8ADF1080C67
:101640006DE904CE00F01BF8DDF804E0DDE90223CB
:1016500004B07047704700BF430803F05533C01A09
:1016600000F03333800800F03330184400EB1010E2
:101670004FF0013300F00F305843000E70472DE952
:10168000F04786468C460846089E1546744619461D
:10169000002B40F0C2808542B2FA82F245D94AB1AD
:1016A000C2F1200300FA02FC2EFA03F3954043EA4C
:1016B0000C0C94404FEA154EA8B2BCFBFEF8230C6C
:1016C0000EFB18CC08FB00F943EA0C43994528D9D6
:1016D000EB1808F1FF3704D2994502D9A8F10207A7
:1016E0002B44A3EB0903A4B2B3FBFEFC0EFB1C339B
:1016F0000CFB00F044EA0344A04214D92C190CF16D
:10170000FF3304D2A04202D9ACF102032C44241AC4
:1017100043EA07401EB1D440002334607360BDE843
:10172000F0874746DDE76346F1E792BB431B0121A3
:101730004FEA154EAFB2B3FBFEFC200C0EFB1C3380
:101740000CFB07F840EA0343984562D9EB180CF10B
:10175000FF3004D2984502D9ACF102002B44A3EB30
:101760000803A4B2B3FBFEFC0EFB1C330CFB07F713
:1017700044EA0344A7424ED92C190CF1FF3304D29A
:10178000A74202D9ACF102032C44E41B43EA004017
:10179000C0E7C2F1200320FA03F1954090402EFAF1
:1017A00003F303434FEA154EAFB2B1FBFEFC0EFB51
:1017B0001C10190C0CFB07F841EA0041884504FA9B
:1017C00002F422D969180CF1FF3004D2884502D9FD
:1017D000ACF102002944A1EB08019BB2B1FBFEFC75
:1017E0000EFB1C110CFB07F743EA01439F420ED985
:1017F000EB180CF1FF3104D29F4202D9ACF1020187
:101800002B44DB1B41EA004192E76046E3E7614677
:10181000F7E76046A3E76346B7E7834206D916B900
:10182000002108467BE7C6E900E0F9E7B3FA83F751
:101830008FB9834201D3724508D8BEEB020460EB36
:10184000030301209C461EB9002168E73846FAE7E9
:10185000C6E9004CF8E7C7F1200CBB4022FA0CF4B3
:101860001C432EFA0CF120FA0CF3B84001434FEA66
:1018700014490EFA07F5B3FBF9F81FFA84FE09FBC9
:1018800018300B0C08FB0EFA43EA00439A4502FAA3
:1018900007F240D9E31808F1FF3004D29A4502D983
:1018A000A8F102002344A3EB0A0389B2B3FBF9F8C1
:1018B00009FB183308FB0EFE41EA03418E452CD983
:1018C000611808F1FF3304D28E4502D9A8F1020352
:1018D000214443EA0040A0FB0298A1EB0E014145E0
:1018E000CE46434602D306D14D4504D2B9EB020E93
:1018F00068EB04030138002EA6D0B5EB0E0261EBB5
:10190000030101FA0CFC22FA07F34CEA0303F94045
:10191000C6E9003198E74046C5E74346D9E70000ED
:1019200030B5BDB0544B0193544B554A55490093C3
:101930000120554B0BF092FB06A80BF09BF8002200
:10194000114606AB0BA80AF0A1FF024620B14F4892
:10195000652116F085FCFEE74D4A4E490BAB04A805
:101960000AF0DEFF024620B14848682116F078FCF4
:10197000FEE70CF045FA484B024604A947480BF035
:101980000BF8024620B141486A2116F069FCFEE7D7
:101990000CF036FA424B024604A942480AF0FCFF1A
:1019A000024620B139486B2116F05AFCFEE70CF0D4
:1019B00027FA3D4B024604A93C480AF0EDFF0246D7
:1019C00020B132486C2116F04BFCFEE7384A39480A
:1019D00003211DF020FD384B00930BA924A3D3E96C
:1019E000002303A80BF00CF8024620B12748702111
:1019F00016F036FCFEE718A80AF03EFD012206AB01
:101A00000BA918A800F05CF8024620B11F4873210A
:101A100016F026FCFEE703A918A80AF037FD0446D5
:101A200028B102467421194816F01AFCFEE718A8DE
:101A30000AF002FF194D04A928460AF009F90246E6
:101A400020B11248792116F00BFCFEE70134032C7B
:101A500005F10405EFD104A809F096FF024620B174
:101A60000A487B2116F0FCFBFEE73DB030BD00BF0D
:101A700000CA9A3B00000000A59F0008719F000863
:101A80004D9E000800580020F5130208D7370208C1
:101A9000EA3902080038020816380208DC5700202C
:101AA00026380208E057002036380208E4570020A4
:101AB00046380208A4210208B92E000800000000E0
:101AC00000285BD02DE9F0430D46B3B0002951D07A
:101AD0000446184616461F460AF0DAFF002849D089
:101AE000002E47D02A4990220EA8FEF799FD0EA994
:101AF00090222046FEF794FD65606846E6606D46DC
:101B000011F05CFA0FCD04F1180CACE80F000FCD0A
:101B1000ACE80F000FCDACE80F000FF26C09D9E96B
:101B200000892B68CCF80030C4E91C8967613B68E8
:101B30003969B0019847A06010B3002500E0A068A3
:101B400000EB8510314601350AF090FEAE42F6D129
:101B500004F14C000AF080FE0E49A2680023C4E99B
:101B600020132AB162691AB1E2680AB184F8883098
:101B7000002000E00B2033B0BDE8F0830B2070475D
:101B80000A20F8E7AFF3008000CA9A3B000000008B
:101B90000023020825C10008F0B593B01A9E7AB15F
:101BA00076B1044650B1D0F880303BB1C0680F46E2
:101BB000154610F053FE08B1237A2BB9012400E03A
:101BC0000B24204613B0F0BD04F1600EBEE80F00F8
:101BD0000DF10C0CACE80F00DEF80030CCF8003052
:101BE00003A80AF055FF0028EAD020680AF0AAF8F6
:101BF000002852D06946E06810F0ACFE014600288B
:101C00003BD120220DEB020016F0CCFA24A3D3E93D
:101C10000023DDE900018DF82070FFF7B3FCCDE96A
:101C20000902DDE91823CDE91023237A30687168B1
:101C3000B268012BF36808BF00250BAE012F0FC659
:101C40001ED8D4F880302A4608A89D6903A900232D
:101C5000A8470546002DB1D02068294600220AF089
:101C60004BF8D4F8803003A90446DB69284698472E
:101C7000002CA6D00AF04EFFA3E70AF04BFF9DE729
:101C8000B91E0129F9D8D4F880202B4608A89569F7
:101C900003A90022A8470546DCE74FF4967490E7B5
:101CA00000CA9A3B00000000002800F0D6812DE910
:101CB000F04F056B99B00446002D00F082819946E3
:101CC00043689246002B00F09780296C002900F0B1
:101CD000AC80002318461E46226952F823206AB1C0
:101CE000E2686F691A4457F822203AB1296947F827
:101CF00021202A6901322A61256B296C013340F1C8
:101D000000008B4270F10002E6D36FF00047CDE98E
:101D10000C66CDE90E665AEA09034FF0FF36CDE9AD
:101D20001267CDE91467CDE916670DF1300B00F0AD
:101D30009080002900F04C810025CDF8149029E016
:101D40002369CDE9086708A953F8080011F00AF9DA
:101D500040F22133984200F00281002862D1DDE98F
:101D6000072C1078DDF8248018AB03EBC00151E993
:101D70000893CC4578EB030306DA18AB03EB80003D
:101D800041E908C840F8302C236B196C01358D42AD
:101D900080F01C81236953F825004FEA850800284C
:101DA000F4D007A911F00AF80346002840F04A8150
:101DB00007980278012AC3D10DF11B018DF81B3061
:101DC00010F0D4FD002840F03D819DF81B202369D0
:101DD000002AB6D08DF8200053F808000DF1200835
:101DE000414611F085F8002840F02C819DF8203004
:101DF000002BC9D0256B2EE0C368002B7FF465AFA4
:101E00004369002B7FF461AFC369002B7FF45DAFA2
:101E1000436A002B7FF459AFC36A002B7FF455AFA0
:101E200040F2853019B0BDE8F08F6FF000434FF0FD
:101E3000FF32CDE91223CDE91423CDE916235AEA66
:101E40000903CDE90C11CDE90E110DF1300B40F075
:101E5000BF800DF1200800220023CDE90823CDE941
:101E60000A2341460291EA6B05F13403CDE90032C1
:101E700005F1100105F11C0305F12802281D13F0DE
:101E800093FA236B1F6C80461FB300252F462E4606
:101E900007E0236943F80920236B1A6C0135AA4235
:101EA00017D9226952F8250007A94FEA85090028A9
:101EB000F3D08DF81C6011F01BF80028B2D19DF80A
:101EC0001C20002AE5D0236B17461A6C0135AA4264
:101ED000E7D838F0020040F0B580656802463DB1B1
:101EE000996851F82210002947D00132AA42F7D34D
:101EF000E5684DB1236B0022596951F82210002981
:101F000044D00132AA42F7D3E5694DB1236B0022D8
:101F1000196A51F82210002941D00132AA42F7D3A0
:101F2000656A4DB1236B0022D96A51F8221000294D
:101F30003ED00132AA42F7D3E56A45B1236B0022B5
:101F4000996B51F8221079B10132AA42F8D3B8F155
:101F5000020F7FF467AF87F00107780062E723691B
:101F6000002243F808200FE7A36A43F82210E56A2D
:101F70000132AA42EBD2236BE2E7236843F8221036
:101F800065680132AA42B3D2236BA9E7A36843F87C
:101F90002210E5680132AA42B6D2236BACE7A369EE
:101FA00043F82210E56901329542B9D9236BAFE7B6
:101FB000236A43F82210656A0132AA42BCD2236B1D
:101FC000B2E74FF4617019B0BDE8F08FDDF81490FE
:101FD000BAF1010F79F1000338DB4FF0010810ADC1
:101FE00016AE5BF8040F08A998B110F0B3FC0028F6
:101FF0007FF418AF089AAB6809999B1AEA6862EBFC
:1020000001029A4579EB020103DB9A4691464FF0B3
:1020100001080835AE42E4D1256BB8F1000F1ED09F
:10202000B9F1000F10A3D3E90023ABBF5046002045
:1020300049460021FFF7A6FACDE90801CDE90A23B8
:1020400008A90FE7012019B0BDE8F08F4FF0FF3A63
:102050006FF000494FF00008C1E70B207047414680
:1020600000E700BFAFF3008000CA9A3B0000000009
:102070002DE9F04F016C9FB016461F46CDE904676D
:102080002B9D039049B1426C4A6001239340044662
:102090008B601AF0A3FE00232364B7F10009B4BFDC
:1020A000012300232B60764BBCBF29F00049CDF8FB
:1020B000149033EA090300F0AA80DDE90434002219
:1020C000184621460023CDE90801FEF767FF804648
:1020D00068B12A9A012313602C9B13B12C9A694B87
:1020E0001360694B0A930A981FB0BDE8F08F1CABD0
:1020F00001931DAB00930398DDE908231BF0A2F9BF
:102100005FEA1955824640F09880DDE91C85454418
:1021100005F23243202B40F38383C3F1400309FAD5
:1021200003F905F2124326FA03F349EA0300FEF726
:1021300053FC0123013DA1F1F8711193534B00228F
:10214000FEF70CFB48A3D3E90023FEF7BFFC48A32E
:10215000D3E90023FEF704FB064628460F46FEF7A8
:102160004BFC45A3D3E90023FEF7B0FC02460B4627
:1021700030463946FEF7F4FA06460F46FEF756FF9C
:1021800000228346002330463946FEF711FF00281F
:1021900040F01A83A8EB0508BBF1160F08F1FF34D5
:1021A00000F28B813A4D05EBCB05D5E90023DDE943
:1021B0000801FEF7FDFE002870D00023002C0BF173
:1021C000FF3B1093C0F27E8100230B93BBF1000F05
:1021D0006ADA0B9BA3EB0B030B93CBF10003CDE966
:1021E0000EB3289B092B4FF0000B65D8052B40F34D
:1021F0001C83043B28930025289B023B032B00F201
:102200002386DFE813F060045D04540438042A9A3E
:10221000C9F3130942F20F7359EA060913601CD17E
:102220002C9B002B00F02B861A4B0A9308332C9A18
:102230000A9813601FB0BDE8F08FDDE90812C2F301
:102240001303084643F07F51CDF84480A5F2FF35D3
:10225000DDF8708041F4401170E72C9B002B40F0BA
:10226000E7830D4B0A933EE761436F63A787D23F35
:10227000B3C8608B288AC63FFB799F501344D33F75
:102280000000F07FB9350208B83502080000F83FB9
:1022900008250208FC35020808360208B8F1000FCC
:1022A00040F3608410900B9000230F93289BCDF88F
:1022B00038B0092B5C4499D90023CDE92833012596
:1022C0004FF0FF330C950693039B00215964069B46
:1022D000189303981AF05CFD0A90002800F0BD8561
:1022E000039B0A9A1A64069B0E2B00F21581002D9F
:1022F00000F012810E9A002A40F33B84B24D02F0A6
:102300000F0305EBC303D3E9008913461511DA0562
:1023100040F1FA83AD4BDDE90801D3E90823FEF76C
:10232000FFFCCDE9120105F00F0503277DB1A74E93
:10233000EB0708D540464946D6E90023FEF7C6FB21
:102340000137804689466D1006F10806F0D14246F5
:102350004B46DDE91201FEF7E3FC80468946109BFF
:1023600043B19B4B002240464946FEF721FE002820
:1023700040F0F1843846FEF73FFB42464B46FEF7FD
:10238000A5FB944B0022FEF7EBF9069B0646A1F154
:102390005077002B00F0A9800E9B1993069B129397
:1023A0000A9B894D49464046CDE914675E1CFEF7FD
:1023B0003DFE129905EBC10353E902120746CDE930
:1023C0001612FEF719FB02460B4640464946FEF739
:1023D000C5F989460C993037DDE916238046FFB2EE
:1023E000002900F053847C490020FEF799FCDDE9C8
:1023F0001423FEF7B3F90A9D02460B46CDE91423D8
:102400002F7042464B46FEF7F1FD002840F09784BE
:10241000CDE91AB4CDF858A0129DDDE914AB002720
:102420002AE00137AF4280F2DE846C4B50465946B9
:102430000022FEF74BFB694B002282468B4640464A
:102440004946FEF743FB89468046FEF7EFFD04460A
:10245000FEF7D2FA02460B4640464946FEF77EF9A1
:10246000303406F8014B52465B4680468946FEF7FB
:102470009FFD002840F0B48442464B46544900205A
:10248000FEF76CF952465B46FEF792FD0028C8D075
:10249000199BDDF858A00A9A374603F1010802E0BB
:1024A000974200F07C843E4617F8013D392BF7D067
:1024B0000133DBB23B70454675E10123002C1093DC
:1024C000BFF682AEC8F101030B9300247EE63846C6
:1024D000FEF792FA42464B46FEF7F8FA3D4B0022D1
:1024E000FEF73EF90646A1F150773D4B404649467E
:1024F0000022FEF733F932463B4680468946FEF716
:1025000075FD002840F05A8440464946324607F19E
:102510000043FEF74DFD28BB1D9B002BC0F29280AF
:102520000E9A0E2A00F38E80274D0E9B05EBC305F5
:10253000D5E90034CDE90434299B002B19DA069B38
:10254000002B16DC0ED1264B0022DDE90401FEF73C
:10255000BDFA02460B46DDE90801FEF733FD00280F
:1025600000F02C844FF000090A9E4F46299BDD4362
:1025700025E2DDE90445DDE9088922462B4640468F
:102580004946FEF7CDFBFEF751FD0646FEF734FA4D
:1025900022462B46FEF79AFA0A9F0B460246494608
:1025A0004046FEF7DBF806F1300307F8013B069BD7
:1025B000012B00F012830125CDF818A09946DDE922
:1025C00004ABA8462CE000BF08250208E02402085E
:1025D0000000F03F00001C400000E03F00002440ED
:1025E0000000144052465B4620462946FEF798FB01
:1025F000FEF71CFD0646FEF7FFF952465B46FEF766
:1026000065FA08F101080B46024629462046FEF706
:10261000A5F806F13003C84507F8013B00F0DB825E
:10262000B94B0022FEF752FA0022002304460D4661
:10263000FEF7B4FC0028D5D00E9DDDF818A00135BA
:102640003E46B0E00C9A002A40F0D28000230F9D55
:102650000B9E0C931F4656B1002C08DDA6420B9A28
:102660003346A8BF2346D21A0B92F61AE41A0F9BE0
:1026700053B10C9B13B1002D40F0E88251460F9AE4
:1026800003981AF03BFD8246039801211AF052FC90
:102690008146BBF1000F40F0B681289B012B40F32F
:1026A000CC810120204410F01F0000F09A80C0F17E
:1026B0002003042B40F3DA810B9BC0F11C00034480
:1026C0000B93064404440B9B002B05DD51460398F5
:1026D0001A461AF06DFD8246002C05DD4946039826
:1026E00022461AF065FD8146109B002B40F0708158
:1026F000069B002B40F348810C9B002B40F0A480EC
:102700000E9D0135DDF82880069CDDF80CB0012611
:1027100007E0514600230A2258461AF069FB0136A9
:1027200082464946504619F005FFA64200F13003A3
:1027300008F8013BEDDB069A002AC8BF16460A9A44
:10274000D8BF012602EB060B002451460122039854
:1027500004931AF02DFD494682461AF0A1FD002887
:1027600040F3E3810A9A02E05A4500F0E9815E46AF
:102770000BF1FF3B16F8013C392BF5D001338BF8F8
:102780000030DDF80C80494640461AF027FB57B16F
:102790002CB1BC4203D0214640461AF01FFB0398DF
:1027A00039461AF01BFB039851461AF017FB002319
:1027B00033702A9B1D602C9B002B3FF494AC0A982D
:1027C0001E601FB0BDE8F08F5846FEF715F932467F
:1027D0003B46FEF7E3FB00287FF4DCAC0BF1FF3B4C
:1027E000D8E41C230B9A1A440B921E441C446AE73B
:1027F000289A012A40F3A981069A0F9B551EAB42E5
:10280000C0F26B81002AA3EB050580F2DD820B9BF1
:10281000069A9E1A039801211AF08CFB07461AE7C4
:10282000C3F1200306FA03F081E40125E4E439460C
:10283000002303980A221AF0DBFA189B002B0746A4
:1028400040F3EF820E950693002E00F33F81BBF11B
:10285000000F40F0DF81B8460A9E069C731E1C44A0
:10286000049B0C9403F00103039C0F9349465046CC
:1028700019F060FE3946834650461AF011FD424673
:102880004946054620461AF02BFDC26801460BF169
:102890003003002A3AD1089050460B931AF000FDFD
:1028A0000899069020461AF099FA069A0B9B002A7E
:1028B0005AD1289A1AB90F9A002A00F09A82002D4C
:1028C00045DB0C9AB346B2420BF8013B00F0B981EC
:1028D000514600230A2220461AF08AFA47458246CA
:1028E00039464FF000034FF00A02204636D01AF066
:1028F0007FFA4146074600230A2220461AF078FA5A
:102900005E468046B2E700BF00002440039806936D
:102910001AF064FA002D069B06DB049A289902F04F
:1029200001020D432A432AD1514601220398049300
:102930001AF03EFC494682461AF0B2FC0028049B7D
:1029400040F3E880392B00F02F820BF131030E9D0C
:1029500006F8013B3C460135474612E71AF048FAB3
:102960005E460746804681E7002DC0F27D822899A9
:102970000D430F990D4300F07782002AA1DD392B1A
:1029800000F012820133E2E7289B022B7FF7B4AEFE
:10299000069B002B40F01D814946052203981AF042
:1029A00027FA0146814650461AF07AFC002840F387
:1029B00010810A9E0E9D312306F8013B01350398D4
:1029C000494601351AF00AFA002F7FF4E8AEEAE62C
:1029D000494650461AF064FC0028BFF689AE5146BD
:1029E000002303980A221AF003FA0E9B5D1E0C9B2B
:1029F0008246002B7FF41BAF189B002B40F3FF8116
:102A00000E9D06937EE601465A4603981AF076FB21
:102A1000289B012B81466CDD4FF0000BD9F810305C
:102A200009EB830318691AF033FAC0F1200039E684
:102A3000924B0A930333FFF7FABB049B002B7FF4FE
:102A400030AEDDE90412C2F31303002B7FF429AE8C
:102A50008B4B134023B10B9B01330B9301340123A8
:102A6000BBF1000F40F0AE819B461AE63FF42BAE5F
:102A7000C0F13C03B6E601230C93299B0E9A134444
:102A800018930133012B1E460693B8BF0126172E5B
:102A900040F3D581012204235B0003F11400B0420E
:102AA000114602F10102F7D9039B596411E4012395
:102AB0000C93299B002B33DD189306931E46E6E703
:102AC00000230C93D9E700230C93F2E739460398CF
:102AD00032461AF06DFB0746B9E60F9B069A0F9532
:102AE000EB1A9B440B9B1E46134414440B93002586
:102AF00090E6049B002B8FD1DDE90401C1F31303A1
:102B00000A46002B88D1A3E7DDE908230227CDE997
:102B100012230BE47FF41BAFDA077FF518AF11E740
:102B2000012329930693FFF7CFBB03D1049BDB0757
:102B30003FF518AE5E461BF8013D302BFAD020E67B
:102B40000A9A3123013513701BE6119A002A00F00E
:102B5000F98003F233430B9A0F9D16461A441C4426
:102B60000B9257E6C8F1010304460B931090FFF750
:102B70009BBB00F0EB800E9B424D5E4206F00F03C4
:102B800005EBC303D3E90023DDE90801FDF79EFF50
:102B90003511CDE9120100F04D813B4E0023022793
:102BA00080468946E80709D5D6E9002340464946CC
:102BB000FDF78CFF01378046894601236D1006F131
:102BC0000806EFD1002B7FF4CAABDDE91289FFF7CD
:102BD000C6BB0A9ECAE4DDF818A00E9D02460B464D
:102BE000FDF7BEFD02460B46CDE906230135DDE9C2
:102BF0000423A846FEF7FAF940B9DDE90423DDE92C
:102C00000601FEF7CBF918B1F10701D50A9A4AE49B
:102C10003E46C8E5796803981AF0BAF805460028D8
:102C200000F026813B6902339A0007F10C010C3059
:102C3000FDF7F6FC0398294601221AF0B9FA8046FE
:102C40000AE60E9D3C46013547467EE5DDF80C80E0
:102C500039462A4640461AF051FA5246014607467E
:102C600040461AF095F95146824640461AF0B6F8A9
:102C70000F9B5B1B0F933FF407ADFFE40836020880
:102C80000000F07F08250208E0240208DDE91401B5
:102C9000FDF71CFF0A9B1F70129B012BCDE90C0155
:102CA00000F0C680129F0A9BCDF844B01F447C4BB5
:102CB000002240464946FDF709FF89468046FEF757
:102CC000B5F98346FDF798FE0BF1300B02460B4633
:102CD00040464946FDF742FD06F801BBB742804633
:102CE0008946E4D1DDF844B06E4B0022DDE90C01E9
:102CF000FDF736FD02460B4640464946FEF776F99B
:102D0000002867D1DDE90C2366490020FDF726FD88
:102D100002460B4640464946FEF74AF948B91D9B14
:102D2000002BFFF693AC0E9B0E2B3FF78FACFFF7FB
:102D3000FCBB3E46013F16F8013C302BF9D0199DF3
:102D4000013530E51C9BC3F1360304E7DDE9088952
:102D50000227FFF704BB069B002B3FF4B8AB189B80
:102D6000002B7FF7D9AB0E9A1293013A4C4B199274
:102D7000404600224946FDF7A9FE80468946781C58
:102D8000FDF73AFE42464B46FDF7A0FE464B0022B9
:102D9000FDF7E6FC0646A1F15077FFF701BB08F10D
:102DA00001083123FFF786BB0E9D0A9AB3463923EB
:102DB0003C460BF8013B01354746D8E44FF000098B
:102DC0004F46F6E59B4629E60B9B1E4613441444EA
:102DD0000B931FE5199B0A9A03F10108FFF763BBE8
:102DE000DDF858A0ABE7DDE91AB4DDF858A0FFF72D
:102DF00093BB392BD8D0002D3FF7A7ADA7E5289B73
:102E0000022B0ADC189B069349460E9D19F092FB93
:102E10000A9A00F1300313708DE4189B06930E9507
:102E2000B6E5289B022BF8DC189B0E9506930BE564
:102E3000374659E7DDE912890227FFF790BA039B6D
:102E400000215964FFF745BA039B00255D642946BC
:102E5000184619F09DFF0A90A8B9144B1448002297
:102E60004FF4D5711BF082FB002A7FF770AD5BE554
:102E70000E4B0F482A4640F2EA211BF077FB0D4B20
:102E80000A93FFF730B9039B0A9A1A644FF0FF3395
:102E90000122299518930C920693FFF73DBB00BFC2
:102EA000000024400000E03F00001C400C360208F7
:102EB00020360208FC3502082DE9F041002800F018
:102EC0008380424E4248434D434F1BF08FFD3146B5
:102ED0003F481BF086FD41481BF088FD29463F48CE
:102EE0001BF07FFD3E481BF081FD39463C481BF03E
:102EF00078FD7068FEF77CF93A49FEF781FA0446DE
:102F00003068FEF775F901462046FEF7BDF8064623
:102F10006868FEF76DF93349FEF772FA04462868CF
:102F2000FEF766F901462046FEF7AEF805467868DA
:102F3000FEF75EF92B49FEF763FA04463868FEF7A0
:102F400057F901462046FEF79FF82749002288607E
:102F5000044626480E604D6008F0CEFE024618B1C9
:102F600023484E2115F07CF900222249224808F01E
:102F7000C3FE024618B11E484F2115F071F9002218
:102F80001E491F4808F0B8FE024618B118485021E3
:102F900015F066F93046FDF741FD02460B4619482B
:102FA00015F05EF92846FDF739FD02460B46164836
:102FB00015F056F92046FDF731FDBDE8F041024617
:102FC0000B46124815F04CB9BDE8F081F8570020C7
:102FD000CC1C0208F0570020E8570020B01C020863
:102FE000941C020800247449D0570020DC570020AC
:102FF0004C370208D4570020E0570020D857002053
:10300000E45700207737020897370208B7370208DD
:103010002DE9F04F91B08407009302F0040302936E
:10302000C2F3C20303F10103DDF868800392054691
:103030000E46059340F0BA81041D30B1072909D826
:103040006FF01B0011B0BDE8F08F01F007063444AB
:10305000C6F10806009B4FF00009591E4FF0040A04
:103060004FF0FF330193CDF810904F46CB465346B7
:103070000DB1009A22600598002800F3E880984876
:10308000009A824203D397488242C0F0E080039ABC
:10309000A4EB050E92074FEA9E0000F103810F2F6B
:1030A00000F2B180002D00F0058107F140020DEB28
:1030B000020C019A0CF8200C0CF8102C049801302A
:1030C0000490E7E07A285DD84B280ED8472859D8D5
:1030D00029282DD8252852D054D820287AD0233812
:1030E000D0F1000B4BEB000B74E04C382E2849D884
:1030F000DFE800F070484848484848484848484891
:103100004B484848484848484859484B4B595959F2
:10311000704B6D487048184B184848827F4B4848A0
:103120004B487F0000204FF0000B4FF0040A38E0BE
:103130002A38C0B2012202FA00F010EA0E0F49D17B
:1031400010F0625C2FD110EA020B43D06046013CC4
:103150005444B4FBFAF40AFB04F4002D61D0A3EB51
:10316000050CA444B4453FF66BAF002868D1042B8E
:1031700047D158F8043B2360043404232AE0019A21
:10318000013A01924FF0000B24E011F8010C6C2879
:1031900034D111F8023C00206C2B8346C5D14FF08E
:1031A000080A5346D3E708F1070828F00708073450
:1031B000F8E802AB24F0070435B106982044B04289
:1031C0003FF63EAFC4E900AB08344FF0000B4FF0C0
:1031D000080A534611F8010F002878D0BBF1000F00
:1031E0007FF470AF2528F5D1019B013301934FF097
:1031F000010B4FF0040AECE7584694E700208346A1
:10320000A5E7082B02D06FF015001BE708F10708AF
:1032100028F00708F8E80223C4E90023083408234B
:10322000D8E768B9042B02D108F10408A4E7082BF9
:10323000E9D108F1070828F0070808F10808EDE7C8
:10324000059A013A059258F8042B009210E7039A68
:10325000900720D5A4EB050E4FEA9E004FF0010C1D
:10326000BEF5007FCFD20F2FCDD8F5B107F14002C8
:103270000DEB020EC0B2019A0EF8200C0EF8102CC5
:10328000BCF1000F3FF41AAF60F07F000EF8200C85
:1032900009F101090137C5F10802043406924FF61D
:1032A000DA7E97E74FF0000CDAE7BCF1000F01D0AF
:1032B0000136EFE7029802360028EBD10098CDE9FD
:1032C0000631FCF77DFFDDE906310644E2E7631BCA
:1032D000B3F5806F97D23DB9A6F10804E018B1E6C6
:1032E00098190208604D0208029A28609B082B700A
:1032F0009DF81030C2B1EB7085F80290B9F1000F63
:1033000005D008A80022C5F1010C97420ED1C5F1E5
:1033100001030DF120084FF0000A01930DF1300B6D
:10332000574512D1601B8DE66B70E5E710F8013B45
:10333000190608D50CEB040EB64503F07F033FF6E3
:103340007FAE04F8013B0132DFE7B9F1000F03D093
:1033500098F90020002A17DB029BD3B11AF80B2042
:1033600004F8012B0022019B18191044B0423FF6CB
:1033700067AE98F8000004F8010B0099039220460C
:10338000FDF74EF9039A14440AF1010A08F1010805
:10339000C6E798F8002055F822300093029B45F8C4
:1033A00022300098FCF70CFF421CDCE76FF00D00A8
:1033B00048E600BF2DE9F04F97B000AF90F802A0AB
:1033C000D7F880B03B62CBF3C0030446FA62BB611E
:1033D000894641B9457800780AEB800020444D4584
:1033E00017D8A0EB0409E378FB61BAF1000F02D013
:1033F0001BF0010F16D1FB6953BBFB6A1BB13A6A84
:103400004946204698474D4628465C37BD46BDE8AC
:10341000F08F461C3046FCF7D3FE0130304409F1F2
:103420000109DCE7237862687A62FA6A99007961B7
:1034300004EB8301002A40F000814D460E4601EB6B
:103440000A094FF000084E454CD101EB0A0610E086
:103450001BF0020FD1D023789A007A6162687A62F9
:10346000FA6A04EB8301002A77D14D4601EB0A0684
:1034700090461BF0050F0CBF02230123FB62FB6982
:1034800006EB430A0BF00203BB625645BCD016F8AC
:10349000021B16F8013C54F82390994B994502D32E
:1034A000984B994536D3BB69002B40D0786A1BF006
:1034B0003BFB00283BD0E9468AB06A46924B5361F9
:1034C0007B6AC2E906314FF4007313848F4B42F8D4
:1034D000103F8F4800234FF4125101F0D3F8023D02
:1034E000CD46D2E716F8013BF96254F82300FCF709
:1034F00067FED7F88430F96A01304BB1D7F88830CD
:1035000098453EBFD7F8843023F8180008F1010829
:10351000054498E7BB6923B1786A1BF005FB0028D6
:10352000C9D11BF0010F05D1FB6AED1AADE7BB6AEB
:10353000002BAAD04846FCF743FED7F8843053B19D
:10354000D7F8883098453FBFD7F88420431C22F82D
:10355000183008F10108054497E7BAF1000F72D05E
:103560001BF0040672D0D046002607F148005246F0
:103570003B61B962FDF754F8B96A3B6901EB0A0295
:10358000BA62FA69F9695200FA60BA6A02EB41025A
:103590003A610BF00202BA603A69B96A8A4257D1BD
:1035A00062787A621BF0020F32440CBF4FEA580176
:1035B00000211BF0010FD2B240F09F801BF0040FDE
:1035C00014BF40460020BB616270A070E1703A6A8F
:1035D0007969FB6A20469847051EFFF615AFBB695F
:1035E00023707B6A6370FB69E37041463A6AFB6A49
:1035F00084F802A007F148009847B0F10008C0F233
:10360000BB807B693A6AA9EB0A01C91AFB68C91A2F
:10361000D7E90A0398470028C0F2B080A84408EB15
:1036200000054FF0000B07F1380AB34572D30021B3
:103630003A6AFB6A08469847E6E656464FF00008A5
:1036400007F1380093E75646D04697E7B04695E72E
:10365000BA6A12F8021BBA6212F8015C284A54F8DE
:103660002500904202D3274A90421ED3BA6932B154
:10367000786A7B601BF058FA7B6800288CD1BA68A6
:1036800002BB08F1280207F1300C08F10100944454
:1036900007F1580252FA80F008F102080CF8101CE9
:1036A0005FFA88F800F8105C76E7BA693AB1786A90
:1036B0007B601BF039FA7B6800287FF46DAF1BF04C
:1036C000010F09D006F1280207F13000711C16180D
:1036D00006F8205CCEB25FE71BF0040F3FF45CAF4E
:1036E00008F1280207F1300008F1010102EB00089F
:1036F00008F8105C5FFA81F84EE7002063E700BF2E
:1037000098190208604D020883380208040000017D
:10371000542102081BF80A3087F8373054F82390F8
:10372000D7F884302BB3D7F888309B4521D2D7F80F
:10373000843033F81B803A6AFB6A012107F13700B5
:10374000984700281ADB0544B8F1000F06D1484617
:10375000FCF736FD00F101081FFA88F83A6AFB6AA7
:10376000414648469847002808DB05440BF1010B09
:103770005BE74FF00008DEE7454645E6054643E6D1
:1037800030B50446EFF31185102383F31288BFF39D
:103790006F8F044B0FCB84E80F0085F31188BFF3C4
:1037A0006F8F30BD380F002001281FB50C4605D0A3
:1037B00004281DD06FF0150004B010BD1EF041F8B4
:1037C00042F210720023FDF72DFF104B5A43C4E95B
:1037D0000001A2606846FFF7D3FF694620461BF050
:1037E000C8F918B90A4B0FCB84E80F000020E3E7B3
:1037F0001EF027F842F210720023FDF713FF034B6F
:103800005A43C4E90001A260F0E700BFA0860100AE
:1038100060220208014B1860704700BF4808002072
:1038200030B587B00025CDE903010446009503A912
:103830000548059500F06EF8DDE904309842B8BF00
:10384000255407B030BD00BFE5EB0108F0B5094EC7
:10385000016802460A2700200B4601311C78355DBD
:103860006D0701D41360F0BD07FB0043A3F13000E6
:10387000F2E700BF753402082DE9F84F15469A4665
:10388000D378234A12F803B06F2B81460F460BF012
:10389000030B2BD026D8582B0CBF10260A26DDF898
:1038A00028803246002348463946FDF7BBFE092AE8
:1038B00008F1FF38D4B21ED83034B145E4B277F104
:1038C000000788F8004001D3D04511D82B789B061B
:1038D00005D5082E15D1AB7843F00803AB704046F0
:1038E000BDE8F88F03F0F703702BD5E70826D6E77D
:1038F00081460F46D5E7BBF1010F0CBF3734573473
:10390000DBE7102EEBD1AB7843F01003E6E700BF06
:10391000753402082DE9F04F97B08A460390164699
:103920001C460025307808B9284656E325280AD0D9
:10393000039B514698470028C0F24F83731C013502
:103940000493049EEEE71822002110A814F02AFC2C
:103950007378252B00F0A3800023711C98469E46A7
:103960009C4618460F4611F8012B2B2A00F0C68002
:1039700000F2BD80202A00F0C480232A00F0C48019
:103980002BB19DF8483043F040038DF84830B8F132
:10399000000F05D09DF8483043F020038DF84830E3
:1039A000BEF1000F05D09DF8483043F010038DF8AC
:1039B0004830BCF1000F05D09DF8483043F00803B3
:1039C0008DF8483028B19DF8483043F004038DF855
:1039D00048309DF8483003F04401442903D16FF387
:1039E00086138DF848309DF84830099743F08003DE
:1039F0002A2A8DF8483040F08C809DF8493043F0F9
:103A000001038DF849307B1C1A782E2A9DF8492035
:103A10000CBF0121002161F341028DF849200CD136
:103A20005A1C09925A782A2A40F083809DF849202E
:103A300042F004028DF8492002331A786C2A00F013
:103A4000A48000F28680682A00F08C806A2A00F048
:103A5000A5804C2A00F0AA801A4612F8013B049275
:103A6000782B9DF849208DF84B3000F217816D2B93
:103A700000F2A980692B00F21181572B00F2BE8061
:103A8000412B03D0453B022B00F208819DF84A30C0
:103A9000042262F302038DF84A300123CAE08DF854
:103AA0004B30B31C04939DF84930D90740F1FD8099
:103AB00054F8048BB8F1000F07DA9DF8482042F063
:103AC00004028DF84820C8F100085A0740F1F6803A
:103AD00054F804BBBBF1000F80F2F5809DF849302B
:103AE0006FF341038DF849304FF0FF3BEBE02D2A97
:103AF0000DD0302A7FF444AF012333E74FF0010C9F
:103B000030E74FF0010E2DE74FF001082AE70120C2
:103B100028E709A8FFF79AFE099BBB423FF474AF60
:103B20009DF848201390C00F60F341028DF84820A3
:103B30006AE709A8FFF78AFE9DF848301490C3F39E
:103B4000400242EAD07262F341038DF84830099B8B
:103B500073E7742A26D07A2A7FF47EAF9DF8492035
:103B600006210CE05A78682A9DF8492006D10121E7
:103B700061F3C6028DF8492002336DE7022161F33B
:103B8000C6028DF84920013366E75A786C2A9DF801
:103B9000492001D10421EBE70321F0E79DF84920FA
:103BA0000521ECE79DF849200721E8E7BDF848200A
:103BB00022F4F04222F0020242F4804242F0020279
:103BC000ADF84820DFE76E3BD9B201238B4040F2CD
:103BD00082410B4238D113F0240F52D1DF075DD55B
:103BE0009DF84A30032161F302038DF84A3002F058
:103BF0007803A3F14000434243411BE0A3F1580185
:103C0000C9B2012000FA01F111F4624F7FF43EAF16
:103C100040F6010739421DD111F4043F3ED09DF812
:103C20004A3060F3020302F07802402A8DF84A30ED
:103C300034D000239DF84820C2F340010B4363F3C6
:103C400041028DF848202EE79DF84A30022161F3A9
:103C50000203E8E79DF84A10022002F0780260F3C0
:103C60000201402A8DF84A1002BF9DF8481041F029
:103C700001018DF84810632BDBD1131E18BF0123FF
:103C8000D8E79DF84A30032161F3020312F0780F60
:103C90008DF84A3014BF01230023CBE79DF848304C
:103CA00043F001038DF84830C3E79DF94820002A0E
:103CB000B4BFDDF84C804FF0FF3806E79F077FF573
:103CC00013AFDDF850B09DF849100023CDE9133350
:103CD0009DF84A3003F00703012BC1F3C30132D131
:103CE000CB1E042B04D8DFE803F02045452020003C
:103CF000236801294FEAE372CDE910321BD19DF907
:103D00004030DA17CDE9103204349DF8483013F012
:103D100003074FD0049B0398324651461AF0ACFF7C
:103D20000028C0F25A8105440BE654F8043BDA1728
:103D3000CDE91032E9E70229E6D11AB243F3C033E4
:103D4000CDE91023E0E7022B24D1CB1E042B04D8AD
:103D5000DFE803F0181010181800012954F8043B8C
:103D60004FF0000214D00229CDE91032CDD19BB220
:103D70001093CAE7073424F00704F4E80223CDE9DE
:103D80001023C2E754F8043B109300231193BCE7BF
:103D9000DBB2CDE7042B08D1073424F00704D4E9C3
:103DA00000230834CDE91023AFE7032BADD154F83D
:103DB000043BDDE79DF84B0078283FF6C2AD622852
:103DC0001ED8252850D058287FF4BBAD0DF13E03F6
:103DD0000093DDE910010AAB12AAFFF74DFDBBF11C
:103DE000000F814680F2C280B9F1000F3FF4A9AD07
:103DF0000DF13E06A6EB0903002F7BD0013379E0DD
:103E0000633815283FF69DAD01A252F820F000BF9F
:103E1000E33E0008413F00084339000843390008E9
:103E20004339000843390008413F0008433900087E
:103E30004339000843390008433900088F3F000820
:103E4000673F0008A13E00084339000843390008D5
:103E5000793E000843390008673F000843390008ED
:103E600043390008673F0008039B514698470028E4
:103E7000C0F2B380013564E5BBF1000FDDF840907E
:103E80000ADB5946484614F063FDB9F1000F3FF4D0
:103E900058AD09EB000620E04846FCF791F9F8E739
:103EA0001098002800F087800DF13E060AAB0096BE
:103EB00012AA0021FFF7E0FCBDF84A3003F0EF033F
:103EC00043F4F04343F01003BBF1000F8146ADF81B
:103ED0004A304ADA00283FF434ADA6EB0903002744
:103EE00008E0109B8DF8283000270DF129060DF110
:103EF000280901239DF84A1011F01002069260D0A3
:103F00000233139A059213444A0644BF14995B186E
:103F1000B8F1000F6EDDA8EB03089DF84830580794
:103F2000C3F3800B66D459065AD53FB1039B514663
:103F300038469847002850DB01355F46302350E073
:103F40001E075CBFC3F300135F01DDE9102348BF08
:103F50002B27002BBFF63AAF524263EB4303CDE968
:103F600010232D2732E7002730E700279DF848105F
:103F70000DF13E03A3EB09036FF386119B458DF80A
:103F800048107FF631AFABEB030313932CE7109B84
:103F900007293FF6D6ACDFE801F00C04060C080850
:103FA0000C0C1D70CDE41D80CBE4EA17C3E9005270
:103FB000C7E41D60C5E4314E0746A6F10509052397
:103FC00098E7080748BF01339BE718460793514617
:103FD000039B98470028079B04DA17B0BDE8F08FD1
:103FE0002023C346594600290BF1FF3BEDDC454435
:103FF0006D1AD84637B1039B51463846984700287A
:10400000EBDB01359DF84A30DA0601D41B0706D5F3
:10401000039B5146302098470028DEDB0135069B84
:104020003BB19DF84B00039B514698470028D4DBD9
:104030000135059F2F4406E0039B514630209847E9
:104040000028CADB01357B1B002BF5DC03983346C7
:104050004A4651461AF010FE0028BEDB0544A8442B
:10406000A8EB0503002B7FF76CAC039B5146202087
:1040700098470028B1DB0135F2E700BF3C39020860
:1040800070B5204B82689A4216DDD0E900160129EE
:1040900076F1000503F1010392FBF3F34FEAE374B9
:1040A0001DDAC91844EB0604C0E90014164901FBE7
:1040B00003238360012070BD002AFBDAD0E90041B0
:1040C0000029124EA3EB0203B3FBF6F310DA01F161
:1040D00000459C4275F100050ADA0020EBE7CD436C
:1040E0009D426FF00045A5EB0605A541D9DAF4E73E
:1040F000E41A61F1000106FB0322C0E9004182607D
:10410000D8E700BFFFC99A3B003665C400CA9A3B96
:10411000034A536823F0020353600020704700BF36
:10412000002004E0084B1A6842F480721A601A6892
:1041300042F400721A601A6842F480621A60034BFB
:10414000034A1A60704700BF003C0240C4090020C7
:104150000024F4002DE9F047DFF8588004460746B4
:104160004FF0010914B93846BDE8F08794FAA4F578
:10417000B5FA85F509FA05F32E0108EB05156FEA86
:10418000030A24EA03042B7B002BEBD058F80630FB
:104190001B694BB94644042273682846196807EA2C
:1041A0000A071BF0C8F8DDE7284698470028D9D150
:1041B000F0E700BF4C22020830B51049104889B022
:1041C00000221DF040FB0F4D0F4900220023CDE9D6
:1041D000062300240E23CDE90334CDE901440B4B23
:1041E00000944FF44072284606F01EFC0849284609
:1041F0001DF0F1F9204609B030BD00BF154200089E
:10420000E0130020480F0020C07400203145000852
:104210005C390208014806F0AFB900BF500E00201B
:104220002DE9F047804620480F461BF05CF8064613
:10423000002832D000252846BDE8F087237B83B1D3
:104240002368DB680BB120469847636883F80690C3
:1042500023681B69CBB963680422196820461BF0E8
:104260006AF8013610345445E8D3B8F1000FE2D0B3
:10427000002DDFD02846FFF76DFF0546002FF7D051
:10428000002164201DF047FAF2E7204698470028F5
:10429000E1D009FA06F31D43E3E7044CDFF810A070
:1042A00005464FF00109DEE7185800204C220208AD
:1042B0005C220208014B53F820007047E4250208F5
:1042C00008B5034608462BB1044A136000F074FC9D
:1042D000002008BD6FF01500FBE700BF4C08002070
:1042E00010B5044C237813B9034806F045F90123AF
:1042F000237010BD726C0020500E002010B50446D3
:104300000B481AF0F0FF5CB1BFF35B8F094B53E829
:10431000001F013943E80012002AF8D1BFF35B8F78
:1043200005481DF09CFA0548BDE8104006F024B988
:104330001058002014580020E0130020500E0020D8
:104340000020064BBFF35B8F014653E8000F43E8A4
:104350000012002AF9D1BFF35B8F7047105800207C
:1043600070B5FFF7EDFF084C084E0546B44200D388
:1043700070BD63685B792BB123685B6813B1294614
:10438000204698471034F1E74C2202085C220208CC
:1043900010B5044C044920461AF088FD034B1C60FC
:1043A00010BD00BF9C0D0020D02502080858002039
:1043B0000D4A0E48002310B513700D4A13600D4AC4
:1043C0004FF47A711360FFF77BFFFFF7E1FF0A4BB1
:1043D0000A4918468B4200D310BD1A1A5C681211A4
:1043E000013222711033F5E7736C002001F30108EC
:1043F00010580020145800204C2202085C220208A9
:1044000001460022014800231AF071BD9C0D0020D6
:1044100001481AF00ABE00BF9C0D0020024B014665
:1044200018681AF05DBE00BF0858002001481AF055
:1044300092BE00BF9C0D002070B5264B1878002856
:1044400046D0FFF7E5FF054600283ED1224B234C1E
:104450001B68002B12DD1DF0F4F90A220023FDF782
:10446000E1F8D4E90032C01A40F2E93361EB02010D
:10447000984271F1000101D3FFF772FFD4E90032D5
:1044800013F57A7342F10002C4E90032BDE87040CE
:10449000FFF7CCBF63685B7923B1236829461B68AB
:1044A000204698471034B442F4D32846FFF7B6FFAD
:1044B000BFF35B8F0A4B53E8001F013943E800123A
:1044C000002AF8D1BFF35B8FC0E7064C064EEAE73F
:1044D00070BD00BF726C002010580020D81300205F
:1044E000145800204C2202085C22020870B50D4DC1
:1044F000297861B90120FFF793FE0B4C0B4EB442B3
:1045000006D3FFF799FF0028FBD101232B7070BD64
:1045100063685B791BB1236820469B689847103419
:10452000EDE700BF736C00204C2202085C220208F9
:1045300000212DE9F0470846FFF772FE044648B314
:104540004FF4FA784FF0000906F02AFD1A4B186074
:1045500030B11A4B1B68092B02DD194806F00CF824
:10456000184FDFF85CA0002544B12046FFF7F2FDAC
:10457000044618B94FF0FF384FF0FF39FFF75CFFE2
:10458000064628B9B5B942464B46504606F02EF8C5
:104590003546E9E74FF0FF384FF0FF39D4E72B6895
:1045A0009B691BB100221146284698471035BD4231
:1045B000F5D3E8E7044DFAE70C5800201458002022
:1045C000500E00205C2202084C22020813B5184845
:1045D0001AF089FE174B1B7873B1EFF31184102387
:1045E00083F31288BFF36F8FFFF726FF84F31188E0
:1045F000BFF36F8F02B010BD0F4B1B68002BF9D0BB
:1046000050B900220023CDE900230C4842F2107279
:10461000002306F0B7FFEDE70928EBD107481DF0AE
:104620001EF9074802B0BDE8104005F0A5BF00BF65
:1046300014580020736C00200C580020E013002058
:10464000500E002010B5064B1B68044698472146C3
:10465000A06004481AF0CAFCBDE81040FFF7B6BFDE
:104660004C0800209C0D0020044A054B9B1AB1EB1E
:10467000D30F34BF52F831000020704744210208A4
:104680004C2202082DE9F04F8FB004AFC1F34A2845
:10469000B8600D4691467B600C0DB8F1000F63D0F9
:1046A000002607F114034FF0040B4FF00A0AC7F875
:1046B0000C80C7E907667E620193CDF808B0CDF89B
:1046C00000A007F11C03F96832464846FEF772FE67
:1046D000B0F5006F03461CD36C468AB0D9F80410BD
:1046E00004AB2648C3E9050140F2FF71D9611A46BF
:1046F0004FF400711984224B42F8103F2148334691
:104700004FF41251FFF7BEFFA5462C37BD46BDE85A
:10471000F08FC0F30A0804F11700184420F00700D6
:1047200080083B60FFF76CFE68F35325044690B1A8
:104730003B68154AC7E9083600F1100107F1140378
:10474000F961CDE900A3CDF808B0F96807F11C03C1
:104750004846FEF72FFE68F353257B68B9682A4662
:1047600020461AF008FED0E704F1170020F00700F9
:104770008008FFF745FE0446EDE700BF71390208E7
:10478000040000018C21020849F301082DE9F04FD3
:1047900087B0DDE91279DDE9105A044603919346AA
:1047A0009846BFB1CDF800903B46524610210020FC
:1047B000CDF81490FEF72CFCB0F5006F06460AD336
:1047C000184A194840F2FF73022107B0BDE8F04FC4
:1047D0001AF02ABE3E4605F11700304420F00700CB
:1047E00004F007048008FFF70BFE0BF0070BE40052
:1047F00044EA8B1444EA462444EA0554054640B191
:104800003FB1CDF800903B46524631461030FEF79E
:10481000FFFB039943462246284607B0BDE8F04F08
:104820001AF0A9BDB03902088C210208406820B1F5
:10483000034BC01A40F3CF0070474FF0FF30704772
:10484000442102080EB403B503AB014653F8042B10
:10485000044801931AF019FE02B05DF804EB03B0AE
:10486000704700BF99F40108CA0605D48B064CBFF7
:1048700002490349FFF7E6BF704700BFE939020864
:10488000E83902082DE9F04F89B09A46149B069347
:104890009DF84CB0159B0593169B179E04930446F8
:1048A0000D469046BBF1000F00F09D8006F480732A
:1048B00007931AF03EFD06F00209024600283ED09A
:1048C00092492046FFF7BEFF0746B9F1000F08D016
:1048D00016F0440F35D18E492A462046FFF7B2FF25
:1048E000074406F0010353B18A4B8B4953F82B2040
:1048F0008A4B2046002A08BF1A46FFF7A3FF06F49A
:104900008073002B49D006F00803002B63D1B8F167
:10491000000F66D0824942462046FFF793FF0546C6
:10492000069B3D44002B6DD1049B002B73D1F307F4
:1049300000F1E58031462046FFF796FFD9E00746B3
:10494000C3E7784B18680028CAD0774B4FF47A79C0
:104950001B68B5FBF3F54FF46163B5FBF0F100FBA9
:10496000115509FB05F54FF03C0CB1FBF3F203FBCD
:104970001211B5FBF0FEB1FBFCF300FB1E550CFB66
:10498000131109FB05F50091B5FBF0F56749CDE979
:1049900001E52046FFF756FFA2E706F00803EBB15A
:1049A000634B644953F82B202046FFF74BFF054625
:1049B000B8F1000F05D05A4942462046FFF742FFA2
:1049C0000544BAF1000FABD05B4952462046FFF7D1
:1049D00039FF0544A4E74FF0000AE1E706F00805B7
:1049E000E6E745469CE7BAF1010F069B06D1002B8E
:1049F00065D1049B002B7CD000250CE0002BF8D067
:104A00004E485DE04E48069B4E4922461AF05BF840
:104A1000049B002B69D0DFF83081DFF83091049FD0
:104A20003146102F204628BF1027FFF71DFF4FF0FB
:104A3000000A554546DC059B49461A782046FFF793
:104A400001FF4FF0010A1AF0070F03D1414620463B
:104A5000FFF7F8FE57453CD9059B494613F80A2055
:104A60002046FFF7EFFE0AF1010ABAF1100FEAD172
:104A7000374920464FF0000AFFF7E4FE5246059BF7
:104A80009A5C344B995C11F0970F08BF2E22324983
:104A90002046FFF7D7FE0AF1010ABAF1100F1DD028
:104AA0001AF0070F03D141462046FFF7CBFE5745CA
:104AB0005246E4D841462046FFF7C4FEEBE72048C3
:104AC0005D46A0E741462046FFF7BCFE0AF1010A19
:104AD000AFE722492046FFF7B5FEC4E7059B3B44FC
:104AE0000593049BDB1B049399D1BBF1000F7FF46A
:104AF0001EAF204609B0BDE8F04F1AF0B9BC074A16
:104B000005492046FFF79EFE14E700BFF039020872
:104B1000F4390208F4250208193A0208EB390208B0
:104B20001C3A0208205800201C580020FD390208B9
:104B300008260208203A0208263A0208CFF40108A3
:104B400099F401088BF40108333A02082B3A020861
:104B5000353A020875340208373A0208313A020839
:104B600073B542F20F738B4228BF0B4605680F4A9C
:104B70000446052168461AF054F863680C495B68DE
:104B800006460B2228461AF065FC636832466946E1
:104B900028465B681AF05EFC636806495B681B2266
:104BA00028461AF057FC02B070BD00BF9A450208B3
:104BB000563A02083A3A0208074A00210123904275
:104BC00006D8064A01B901231360054B18607047E7
:104BD00040085B000121F2E740420F001C58002012
:104BE00020580020F8B5074F0D4604464618B44239
:104BF00001D12846F8BD14F8011BBB6801485B6869
:104C00009847F4E7EC1B0208014B03600020704753
:104C100050260208F0B40D4B0D4E5F6A0D4BB342A7
:104C200003D36FF08500F0BC70475C68BC420AD3C8
:104C30001D6945B194F802C08488E4B2A44502D14C
:104C40002B46F0BC18472433E9E700BF505800203A
:104C5000340F0020100F00202DE9F047144CDFF82E
:104C60005480DFF8549005460E461746444503D35A
:104C70006FF08500BDE8F0876268D9F824309A4269
:104C800013D3A3698BB1A9889078C9B2884205D1A2
:104C90003A4631462846BDE8F04718475279012A7E
:104CA00003D13A463146284698472434DEE700BF10
:104CB000100F0020340F0020505800202DE9F04143
:104CC0000B4CDFF8308005460E461746444502D3AC
:104CD0006FF0850009E063690BB92434F6E73A46C2
:104CE0003146284698470028F7D1BDE8F08100BF3B
:104CF000100F0020340F0020024B00221A605A606F
:104D0000704700BF0B59002070B50B4B0B4CA342F2
:104D100001D3002070BD196A1E7F00220439D5B26C
:104D2000AE4201D82433F2E7013211F83250854205
:104D3000F5D10120EEE700BF100F0020340F002056
:104D400073B58488E4B263060D468DF8074007D03A
:104D50002046FFF7D9FFB0B1144B93F8BA0090B1D9
:104D6000124E23468DB1124A124803211AF02BFC31
:104D70009DF8070002F0FCFBF3691BB10DF1070180
:104D800008209847012002B070BD0B4A0948032152
:104D90001AF019FC9DF8070002F00CFCF369002BD7
:104DA000F0D00DF107010920EBE700BF50580020BB
:104DB0009C3A020834220208AF3A020808B5044AB5
:104DC0000346012103481AF0FEFB002008BD00BF86
:104DD000C43A02083422020838B5054602F040FC05
:104DE00010F1780F044611D10D4A0E482B460221CE
:104DF0001AF0E9FB28461AF0E8FB0B4AD2F8C43057
:104E000023EA0003C2F8C430002407E00028F1D0F0
:104E1000064A04482B4601211AF0D5FB204638BD2E
:104E2000DF3A02083422020850580020003B0208F2
:104E300008B509480378C3F341130A3350F8233007
:104E40003BB100F1080200F110019847C043C00FC8
:104E500008BD1846FCE700BF5058002004282DE983
:104E6000F74FDFF89C9004460F4615D001282FD14C
:104E7000DFF8908098F8B93053B300F0B1FE224DBE
:104E80004D4522D22A6A4FF0000A2B7F5FFA8AF63C
:104E9000B34204D82435F3E7FFF72EFFE8E702EB2F
:104EA000C6060192307902F0DBFB834630791AF0B6
:104EB0008CFBD8F8C430019A23EA0003BBF1000F41
:104EC000C8F8C4300AF1010ADFDA002388F8B930E3
:104ED0000D4D4D4508D30B4B1B6A6BB1394620462F
:104EE00003B0BDE8F04F1847EB681BB13A462146C6
:104EF000284698472435ECE703B0BDE8F08F00BFA3
:104F0000340F002050580020100F002073B50446C5
:104F100080788DF8000023796279294D43EA0223D5
:104F2000ADF80230E37803F003038DF804301AF093
:104F30004CFBD5F8C430184206460CD0A478204665
:104F400000F030FE2046FFF747FF1CF03EFB10B993
:104F500096201CF0FFFB68461AF0FEFD10F1780F5A
:104F60009DF800301BD1174A174802211AF02BFB7D
:104F70009DF8000002F044FB10F1780F19D19DF864
:104F80000030124A104802211AF01DFBD5F8C43037
:104F90000120334385F8B900C5F8C43007E0002884
:104FA000E6D00B4A084801211AF00DFB002002B0A0
:104FB00070BD0028EAD09DF80030064AF2E700BF35
:104FC00050580020223B020834220208693B0208A4
:104FD000453B0208893B02082DE9F047A84EB3691A
:104FE00004460F461546FBB9237803F01F03012B37
:104FF00000F09E80022B00F0068133BB94F9000084
:105000002A686178002834DA062912D008292BD0C2
:10501000D9B901231370517096F8C3305B0043F087
:1050200001031370022328E198470028DCD10020F7
:105030000DE06288100A011F0129844605D907285E
:1050400003D8716AD2B20C781CB96FF01500BDE8B4
:10505000F0874E78664503D19A4200F0098101330A
:105060002144F0E70B7808E196F8BA301370012379
:1050700003E101390829E8D801A353F821F000BF62
:105080001B5100084B500008295100084B500008E4
:10509000A55000084B5000084B5000084B5000082A
:1050A000B35000086088C0B202F0EEF90028BED00C
:1050B000CBE76388756A63BBFFF71EFE638886F8DB
:1050C000BA30F369002BB2D06E4903209847AEE79F
:1050D0006B78042B10D0052B11D0022B04D16F79E3
:1050E0006388BB4208BF01202B781D442B78002B1E
:1050F000EED10028A9D0DFE795F80380F4E76388B4
:10510000BB42F1D1B8F1000FEED12846FFF7FEFE09
:10511000EAE7FF270020B846E8E76388012B94D12F
:10512000002386F8C33082E76388012B8DD1F8E72E
:1051300096F8BA30D5F800C0002B86D0A388756ADF
:105140005FFA83FE2A46107800283FF47EAF51783C
:10515000022904D192F80480F04500F295800244BF
:10516000F1E78CF800208CF8012039605FE71544E6
:1051700096E00B2A7FF469AF00274FF0FF08C14685
:10518000BA4606E06B78042B0FD0052B21D02B7884
:105190001D442B78002BF5D1F36913B1514607203C
:1051A0009847002F7FF443AF4FE795F80280A3881C
:1051B00095F803909845EAD163889945E7D1B8F10D
:1051C000070F1DD806EB0803AA4683F8BB900127FA
:1051D000DDE7A3884345DAD16388DBB24B450AD0CB
:1051E000AF78384600F0DEFC3846FFF7F5FDB0FA40
:1051F00080F77F09CBE72846FFF788FE0746C6E71A
:10520000AA460027C3E794F900206378002A19DA38
:10521000002B7FF41AAFA3882D68DCB25B060AD09E
:105220002046FFF771FD00283FF40FAF96F8BA3023
:10523000002B3FF40AAF294620461AF0A2FC0023B7
:105240006B70EFE6012B08D0032B7FF4FEAE638872
:10525000002B7FF4FAAE012103E0618800297FF47E
:10526000F4AE2046FFF76CFD00287FF4E0AEECE6DC
:10527000022829607FF4F6AE4B883B60D7E600BF7A
:10528000505800200A59002094F900006278002844
:10529000BFF66FAF002A3FF464AF0A2A7FF4D5AEA1
:1052A0002A78002A3FF4D1AE697804297FF45FAFF1
:1052B000A9788B427FF45BAF072B96BF9B19002325
:1052C00093F8BB308CF80030D1E600BF2DE9F84FE1
:1052D000DFF83CB0DFF83CA005460F469046994603
:1052E00004264B4642463946284602F0E7F910F1BB
:1052F0000B0F044609D12B465A46022150461AF09C
:1053000062F905F0A9FD013EEBD12046BDE8F88F1A
:10531000AA3B02083422020813B5164C237DF3B9C8
:10532000E268A168019201AB8020FFF7CFFF019AEC
:10533000A3681344A360E3689B1AE3606BB962B18E
:105340002369E2889A4208DD94F8C82093FBF2F1C1
:1053500002FB11330BB90123237502B010BD0023EA
:105360001A4619468020237502B0BDE8104002F0AD
:10537000A5B900BF505800207FB500230D4601930A
:105380000646002862D100293AD108220B460DEBCF
:1053900002011AF003FC002804DA802002F0E8F889
:1053A00004B070BD2E4C029A2260039A626004F130
:1053B0003802A2609DF90820BDF80E302575002A3C
:1053C000C4E903550FDB802B09D9264A2648012161
:1053D0001AF021F8802002F0CBF82846DEE713B15E
:1053E000C4E90333DCE7FFF723FD0028D5D0E288CA
:1053F00023699A42D4BFE260E360FFF78DFFCFE7F5
:10540000174CD4E90212002A01AB05DC02461AF05F
:10541000C5FB0028C4DAC0E71AF0C0FB002804DA94
:10542000802002F0A5F83046B8E7019AA36813443B
:10543000A360E3689B1AE360002BB1D104F1380349
:10544000A360FFF7F5FC0028D7D1A6E78028A7D1F5
:10545000034BDA68002AD0D11B7D002BCDD19FE70A
:1054600050580020D13B020834220208054B064A5E
:105470009A62064ADA62064A1A63064A58629A61D2
:105480000020704750580020D94F0008154C0008E4
:10549000BD4C0008594C00082DE9F34104464C4D21
:1054A0004C484FF0FF334FF0FF3204F09DFF95F86A
:1054B000B8306BB1484A4948022119F0ACFF6FF08F
:1054C0007704444805F008F8204602B0BDE8F081B2
:1054D0006B6A6BB900F0D4F8FFF7C8FF6B6A3BB991
:1054E0003F4A3E48012119F096FF4FF0FF34E8E7AC
:1054F0003C482C62E8616E6A01F0C0FF01F0F2FEE8
:10550000041EDEDB00F08EFB041EDADB7378012B59
:1055100001D1F3793BB9344A3048012119F07BFFBE
:105520006FF01504CDE70026684685F8C830ADF861
:1055300002308DF804608DF800601AF00DFB041E37
:10554000BFDB802768468DF800701AF005FB041E4B
:10555000B7DB264930461AF0F4FA041EB1DB2349C2
:1055600038461AF0EEFA041EABDB214CDFF88480DB
:1055700044451AD3002002F043F8041EA1DBD5F8FD
:10558000C430802043F00103C5F8C43002F038F87D
:10559000041E96DBD5F8C43043F48033C5F8C4301C
:1055A000012385F8B83000248BE7276A0026227F84
:1055B000F3B29A4201D82434DAE707EBC30257F872
:1055C000331010791AF0BDFA01360028EFD08CE7BD
:1055D00050580020240E0020EA3B02083422020822
:1055E0000D3C02085D4E0008323C02087953000869
:1055F000100F0020340F002030B51F4B8BB005AAD0
:1056000003F1100518685968144603C40833AB4207
:105610002246F7D11B7823701022002101A812F036
:10562000C1FD12220021154812F0BCFD102101A875
:1056300002F044FE00281BDD0828B8BF0820093806
:1056400001AB0E491A18002012F8013F0AAC04EB16
:10565000131403F00F0328336B44013014F8144C77
:1056600013F8143C0C7008284B7001F10201EBD1C7
:1056700002480BB030BD00BF6C3C0208766C0020C5
:105680002DE9F04F8A4B87B093F800A000AFBAF134
:10569000000F04D087481C37BD46BDE8F08F854C0D
:1056A00000264FF00119FE603546B04623783BB91D
:1056B000814B02349C42F3D17D4A01231370E9E708
:1056C0006378052B1DD8DFE813F0AF000600F0006B
:1056D000AF001F005000402387F810A07B8287F89E
:1056E00014A007F1100001F02BFF40B108237B82CA
:1056F00007F1100001F024FF08B1A7F812A07B8A7F
:10570000E37123781C44D1E7E378002BF9D1A37827
:1057100013B3FB680133DBB2FB60F2E76B689C42BA
:105720001CD02435654B9D42F8D36D4688B06A463F
:10573000634BC2E90534032342F8103F614800235C
:105740004FF4C251FEF79EFFAD465E485E4A01210E
:1057500019F061FE00209EE75C4DE3E7AB68002B8B
:10576000D7D0F96820469847D3E7002D5AD1584A38
:105770005448012119F04FFEE7E72B6AA07803EBAC
:10578000C2010B79984247D14FF0010BE07800F04D
:1057900003003875207994F805C040EA0C2078821F
:1057A00094F9020000285FFA8BF328DA0BF110005D
:1057B0004FF0010C0CFA00F010EA090F27D143F06A
:1057C0008000387407F11000C7E90031BA6001F0B9
:1057D000B7FED7E901123B68C8B93A7CA27012F053
:1057E000800F18BF10330A7118BFDBB24FF00102EF
:1057F00014BF9A4002FA0BF249EA020981E701203C
:1058000000FA0BF010EA090F01D11846D9E70BF1A5
:10581000010BBBF1100FB9D101322B7F9A42ACD3EF
:105820002C4AA5E70022F8E7032E24D1FFF7E4FE77
:105830008346A0B1FAF7C4FC034680B1102806D015
:10584000B860254A1F48022119F0E5FDBB68102BFE
:10585000A8BF10231A465946A01CFAF7E1FE237888
:105860006FF00201E218091B04EB5303D14209D582
:105870000136F6B245E7002EF1D1B8F1000F08D19C
:10588000164A75E702F801AC13F8010902F8020D97
:10589000ECE7A4EB080388F80230C3F3072388F889
:1058A0000330FB6888F80430E2E7A04629E700BF30
:1058B000756C0020680E00200F0F0020340F0020B0
:1058C0007D3C02082C220208633D0208100F0020D4
:1058D0009D3C0208DE3C0208FB3C0208463D0208F3
:1058E00010B5094B00211A461C78844205D15C682A
:1058F0001CB1482303FB012010BD0131042903F131
:105900004803F1D10020F7E71C5900202DE9FF41A1
:1059100050F8303C10F8346C103304460AD1036957
:1059200050F8282C98073DD5D2B9590715D5002332
:1059300044F8303C54F8303C10330BD054E909752E
:1059400054F81C8C1BF041FE002857D032482146E9
:105950001BF01BFE04B0BDE8F08143F0040323619B
:1059600003AB54F82C1C3046FFF7B0FC034640B1A3
:105970002A4A2B480096012119F060FD6FF01503AB
:10598000D6E7039A54F82C3C134444F82C3C54F8C2
:10599000283C9B1A44F8283C54F8243C134444F80F
:1059A000243CC7E703AB54F82C1C304601F0F0FE52
:1059B00003460028DCD1039D54F82C3C2B4444F8CA
:1059C0002C3C54F8283C5B1B44F8283C54F8243CFD
:1059D0002B4444F8243C002DA9D030461AF0ECF8B2
:1059E000B5FBF0F303FB1055002DA0D154F8283C73
:1059F000002B9CD0304601F013FF9BE744F8200CAD
:105A0000A4F1180004F0B8FD002DA3D04246394699
:105A10003046A8479EE700BF18140020913D0208B9
:105A20003C2202084B1E012B73B506460D4614D8C6
:105A3000FFF756FF044690B9012D0ED101AB0122AC
:105A40000DF10301304601F0A3FE019B002BF5D1BF
:105A50000C4A0D48012119F0DEFC02B070BD1BF0AC
:105A6000B4FD04F1340108B1012D05D1084602B09E
:105A7000BDE87040FFF74ABF044802B0BDE870407F
:105A80001BF083BDAE3D02083C2202081814002022
:105A90002DE9F74F064601911746984619F0D3FDB8
:105AA000044600286FD1EFF311830093102383F392
:105AB0001288BFF36F8FDFF8D4900022002348468E
:105AC00004F094FDA0B9DFF8C8A0482262430AEBB5
:105AD000020BDBF8045015F1100F1ED12D4A2E4891
:105AE0003346012119F0A0FC484604F045FD0BE0C7
:105AF0000134042C09F14809DFD1284A2648012144
