:020000040800F2
:10000000C0260020551E000861640008411E00083B
:10001000411E0008411E0008411E000800000000AB
:10002000000000000000000000000000891E000821
:10003000411E0008000000006D200008A5360008E1
:10004000E5200008E5200008E5200008E52000087C
:10005000E5200008E5200008E5200008E52000086C
:10006000E5200008E5200008E5200008E52000085C
:10007000E5200008E5200008E5200008E52000084C
:10008000E5200008E5200008E5200008E52000083C
:10009000E5200008E5200008E5200008E52000082C
:1000A000E5200008E5200008E5200008E52000081C
:1000B000E5200008E5200008E5200008E52000080C
:1000C000E5200008E5200008E5200008E5200008FC
:1000D000E5200008E5200008E5200008E5200008EC
:1000E000E5200008E5200008E5200008E5200008DC
:1000F000E5200008E5200008E5200008E5200008CC
:10010000E5200008E5200008E5200008E5200008BB
:10011000E5200008E5200008E5200008E5200008AB
:10012000E5200008E5200008E5200008E52000089B
:10013000E5200008E5200008E5200008E52000088B
:10014000E5200008E5200008E5200008E52000087B
:1001500053B94AB9002908BF00281CBF4FF0FF312E
:100160004FF0FF3000F00CB8ADF1080C6DE904CE93
:1001700000F010F8DDF804E0DDE9022304B0704778
:10018000704700BF034613F8012B002AFBD1181A51
:10019000013870472DE9F0478C468E46089E15467B
:1001A00004461946002B40F0D080724547D9B2FA78
:1001B00082F74FB1C7F120030EFA07FC20FA03F3D0
:1001C000BD4043EA0C0CBC404FEA154EA8B2BCFB44
:1001D000FEF8230C0EFB18CC08FB00F943EA0C4395
:1001E000994528D9EB1808F1FF3204D2994502D974
:1001F000A8F102022B44A3EB0903A4B2B3FBFEFC5B
:100200000EFB1C330CFB00F044EA0344A04214D95B
:100210002C190CF1FF3304D2A04202D9ACF1020335
:100220002C44241A43EA02401EB1FC4000233460EF
:100230007360BDE8F0874246DDE76346F1E7002AD8
:1002400079D0B2FA82F3002B3FD01946C1F12003D6
:1002500002FA01F52EFA03F20EFA01FE20FA03F378
:1002600043EA0E034FEA154E00FA01F4B2FBFEFC1E
:10027000AFB20EFB1C201A0C0CFB07F842EA00423E
:1002800090455AD9AA180CF1FF3004D2904502D9F2
:10029000ACF102002A44A2EB08029BB2B2FBFEFCC6
:1002A0000EFB1C220CFB07F743EA02439F4246D990
:1002B000EB180CF1FF3204D29F4202D9ACF10202DA
:1002C0002B44DB1B42EA004202E0AEEB02030122B8
:1002D0004FEA154EAFB2B3FBFEFC200C0EFB1C33F5
:1002E0000CFB07F840EA034398452AD9EB180CF1B8
:1002F000FF3004D2984502D9ACF102002B44A3EBA5
:100300000803A4B2B3FBFEFC0EFB1C330CFB07F787
:1003100044EA0344A74216D92C190CF1FF3304D246
:10032000A74202D9ACF102032C44E41B43EA00408B
:100330000F46114678E71F2188E76046ABE7624623
:10034000BFE76046DBE76346EFE7734506D916B9BA
:10035000002108466DE7C6E9000EF9E7B3FA83F716
:1003600087B9734501D3824207D8841A6EEB030321
:1003700001209C461EB900215BE73846FAE7C6E932
:10038000004CF8E7C7F1200CBB4022FA0CF51D43E6
:1003900020FA0CF12EFA0CF30EFA07FE41EA0E01D8
:1003A0004FEA154900FA07F4B3FBF9F81FFA85FE86
:1003B00009FB18300B0C08FB0EFA43EA00439A4580
:1003C00002FA07F240D9EB1808F1FF3004D29A453F
:1003D00002D9A8F102002B44A3EB0A0389B2B3FBB4
:1003E000F9F809FB183308FB0EFE41EA03418E457C
:1003F0002CD9691808F1FF3304D28E4502D9A8F12F
:100400000203294443EA0040A0FB0298A1EB0E013D
:100410004145CE46434602D306D14C4504D2B9EB02
:10042000020E68EB05030138002EA4D0B4EB0E02D7
:1004300061EB030101FA0CFC22FA07F34CEA030317
:10044000F940C6E9003196E74046C5E74346D9E79B
:100450002DE9F04F524E534897B0306007F0B5F990
:1004600030B9514805F029FD002017B0BDE8F08FE4
:100470004E49306805F0A1FC4D4805F01EFDDFF83F
:100480003481404607F0A1F948B9D8F800104A482D
:1004900005F013FD4949306805F08FFCE4E7D8F812
:1004A0000830474C03934FF00109039B41485B68B8
:1004B000032106AA9847011E19DBDDE906530493C0
:1004C000404B049AA5FB03B703FB0277394632A3DE
:1004D000D3E900235846FFF73BFE4FF0FF3A3A4B73
:1004E0000590DA4573EB070706D26FF085013748B0
:1004F00005F0E3FC3649CEE7049BA4FB057504FB3D
:100500000355384624A3D3E900232946FFF720FEEC
:100510002D4ABA45AA410346E7D3059A824202D240
:100520006FF01501E3E700220092039A032115689A
:10053000059A4046A847011ED9DB2648214605F00A
:10054000BCFC254A2346402106A805F0C7F900282F
:1005500003DD306806A905F030FCB9F1000F0BD1BE
:10056000174B9C4211D9A4F5C334A03C002142F2A0
:10057000107007F061FA98E7184B04F5C334A03403
:100580009C42F3D34FF0000901E04FF001091C46F3
:10059000ECE700BFAFF3008000CA9A3B0000000008
:1005A000000D00209C7E000886840008A0840008BE
:1005B000C2840008D47E0008D9840008FC840008A6
:1005C00060AE0A00002D3101FFC99A3B1A85000870
:1005D0003F850008628500087685000860182300C2
:1005E000014B1B68184700BFB0000020014B18608A
:1005F000704700BFB000002030B5044685B00D46FE
:1006000010220021684607F0DCFA02238DF8023040
:100610002A46044B01932146684605F089F905B046
:1006200030BD00BFE105000880B505460E461746FF
:10063000984604F0BBFE034601F066FDDFF8189013
:10064000044649F80030424630463946A84754F837
:10065000090001F0F5FC00BF08000000034A5368E0
:1006600023F0020353600020704700BF002004E025
:1006700008B54168054883681B680C311BB1984771
:1006800000EAE07008BD6FF05700F9E7687D0008E8
:10069000192810B502D90024204610BD044B53F888
:1006A0002040204607F091F80028F5D1F3E700BF7D
:1006B000CC820008084B1A6842F480721A601A68EB
:1006C00042F400721A601A6842F480621A60034BA6
:1006D000034A1A60704700BF003C0240240100201A
:1006E0000024F400014B03600020704734830008AD
:1006F000F0B40D4B0D4E5F6A0D4BB34203D36FF058
:100700008500F0BC70475C68BC420AD31D6945B1E6
:1007100094F802C08488E4B2A44502D12B46F0BC10
:1007200018472433E9E700BF840D00204002002071
:100730001C0200202DE9F047144CDFF85480DFF84C
:10074000549005460E461746444503D36FF0850086
:10075000BDE8F0876268D9F824309A4213D3A369C0
:100760008BB1A9889078C9B2884205D13A46314602
:100770002846BDE8F04718475279012A03D13A4686
:100780003146284698472434DEE700BF1C0200208B
:1007900040020020840D00202DE9F0410B4CDFF8D1
:1007A000308005460E461746444502D36FF085005B
:1007B00009E063690BB92434F6E73A463146284626
:1007C00098470028F7D1BDE8F08100BF1C02002047
:1007D0004002002010B5044602F0D2F810F1780F64
:1007E00000D050B9054A204605F096FCD2F8C43036
:1007F00023EA0003C2F8C430002010BD840D00209D
:10080000024B00221A605A60704700BF3F0E002062
:1008100070B50B4B0B4CA34201D3002070BD196A7D
:100820001E7F00220439D5B2AE4201D82433F2E74C
:10083000013211F832508542F5D10120EEE700BFB8
:100840001C0200204002002073B58488E4B26306D5
:100850000D468DF8074007D02046FFF7D9FF78B145
:100860000D4B93F8BA0058B10B4E204655B102F02B
:1008700033F8F3691BB10DF10701082098470120F7
:1008800002B070BD02F03EF8F369002BF7D00DF115
:1008900007010920F2E700BF840D002008B50948D0
:1008A0000378C3F341130A3350F823303BB100F10E
:1008B000080200F110019847C043C00F08BD184658
:1008C000FCE700BF840D002004282DE9F14FDFF87C
:1008D000989004460F4616D001282DD1DFF88C8061
:1008E00098F8B93043B300F0D9FD214D4D4520D2E1
:1008F000D5F820B04FF0000A2B7F5FFA8AF6B3429A
:1009000004D82435F2E7FFF77BFFE7E70BEBC606D9
:100910000AF1010A307902F033F80246307905F025
:10092000FBFBD8F8C430002A23EA0003C8F8C4301F
:10093000E2DA002388F8B9300D4D4D4508D30B4B52
:100940001B6A6BB13946204601B0BDE8F04F18472D
:10095000EB681BB13A462146284698472435ECE718
:1009600001B0BDE8F08F00BF40020020840D0020E0
:100970001C02002073B586788DF8006003794279F7
:100980001C4C43EA0223ADF80230C378304603F032
:1009900003038DF8043005F0BFFBD4F8C4301842CF
:1009A00005460BD0304600F05BFD3046FFF712FFE6
:1009B00006F0CBFF10B9962007F057F8684605F00F
:1009C00009FE10F1780F03D010B1002002B070BD05
:1009D0009DF8000001F0B0FF10F1780F01D0002861
:1009E000F3D1D4F8C43001202B4384F8B900C4F803
:1009F000C430EBE7840D00202DE9F047A94EB36920
:100A000004460F4690466BB9237803F01F03012B71
:100A100000F0A280022B00F0078143B16FF01500B7
:100A2000BDE8F08798470028EED10020F8E794F958
:100A300000206178002A2FDA062910D00829D8F87A
:100A4000002024D00029E9D101231370517096F8B9
:100A5000C3305B0043F001031370022320E162887E
:100A6000100A011F01290546D8D90728D6D8D1B2C6
:100A7000726A1478002CD1D05678AE4203D19942D4
:100A800000F0088101332244F3E7137808E196F877
:100A9000BA301370012303E101390829BED801A33C
:100AA00053F821F03F0B00081D0A00084F0B000807
:100AB0001D0A0008C90A00081D0A00081D0A0008CE
:100AC0001D0A0008D70A00086088C0B201F086FE3F
:100AD0000028AAD0A2E763883BB1FF27756A0020EF
:100AE000B8462B786BB9002898D0FFF789FE638849
:100AF00086F8BA30F369002B97D06B4903209847EA
:100B000093E76B78042B0DD0052B0ED0022B06D16A
:100B10006F796388BB4208BF40F00100C0B22B78F8
:100B20001D44DEE795F80380F9E76388BB42F6D100
:100B3000B8F1000FF3D12846FFF71CFFEFE76388F9
:100B4000012B7FF46BAF002386F8C3306DE7638819
:100B5000012B7FF463AFF7E796F8BA30002B3FF430
:100B60005DAFA388756A5FFA83FC2A461178002975
:100B70003FF454AF5078022804D192F804E0E645DF
:100B800000F294800A44F1E70A704A7038604CE73A
:100B9000154499E00B2A7FF441AF00274FF0FF087E
:100BA000C146BA4606E06B78042B0FD0052B21D046
:100BB0002B781D442B78002BF5D1F36913B15146E6
:100BC00007209847002F7FF430AF27E795F8028081
:100BD000A38895F803909845EAD163889945E7D1B1
:100BE000B8F1070F1DD806EB0803AA4683F8BB909F
:100BF0000127DDE7A3884345DAD16388DBB24B45A3
:100C00000AD0AF78384600F02BFC3846FFF7E2FDFB
:100C1000B0FA80F77F09CBE72846FFF7ABFE07461F
:100C2000C6E7AA460027C3E794F900206378002AA4
:100C30001ADA002B7FF4F2AEA388DDB25B060AD08D
:100C40002846FFF7E5FD00283FF4E8AE96F8BA30F5
:100C5000002B3FF4E3AED8F800402846214605F0CB
:100C6000D5FC00236370F8E6012B08D0032B7FF43A
:100C7000D5AE6388002B7FF4D1AE012103E06188FB
:100C800000297FF4CBAE2046FFF7DEFD00287FF47D
:100C9000CCAEC3E60228C8F800207FF4F6AE538835
:100CA0003B60C2E6840D00203E0E002094F9001047
:100CB00062780029BFF66EAFD8F80010002A3FF422
:100CC00063AF0A2A7FF4AAAE2A78002A3FF4A6AEC0
:100CD000687804287FF45CAFA87883427FF458AF2B
:100CE000072B96BF9B19002393F8BB300B70D1E6FE
:100CF00013B5164C237DF3B9E268A168019201ABEC
:100D0000802005F017FA019AA3681344A360E368F2
:100D10009B1AE3606BB962B12369E2889A4208DDED
:100D200094F8C82093FBF2F102FB11330BB90123B5
:100D3000237502B010BD00231A4619468020237582
:100D400002B0BDE8104001F03DBE00BF840D0020A0
:100D500030B585B0002302460D460193002858D1D6
:100D6000002935D108220B460DEB020105F05BFC92
:100D7000002804DA802001F0AFFD05B030BD2A4C18
:100D8000029A2260039A626004F13802A2609DF91F
:100D90000820BDF80E302575002AC4E903550ADB8A
:100DA000802B04D9802001F097FD0020E3E713B1E8
:100DB000C4E90333E1E7FFF771FD0028DAD0E288E8
:100DC00023699A42D4BFE260E360FFF791FFD4E762
:100DD000154CD4E90215002D01AB04DC05F023FC11
:100DE0000028CADAC6E72A4605F01DFC0028D9DB30
:100DF000019AA3681344A360E3689B1AE360002B85
:100E0000BBD104F13803A360FFF748FD0028DCD113
:100E1000B0E78028B1D1044BDA68002AD5D11B7D18
:100E2000002BD2D1A9E700BF840D0020054B064A54
:100E30009A62064ADA62064A1A63064A58629A6158
:100E400000207047840D0020F9090008F106000811
:100E500099070008350700082DE9F3410446454D80
:100E600045484FF0FF334FF0FF3203F05DFD95F83A
:100E7000B830002B78D16E6A76B900F0CBF8FFF766
:100E8000D5FF6E6A46B94FF0FF343B4803F0BEFD14
:100E9000204602B0BDE8F08138482C62E86101F0DC
:100EA00097FC01F0D9FB041EEFDB00F019FB041ED8
:100EB000EBDB7378012B5AD1F379002B57D0002646
:100EC000684685F8C830ADF802308DF804608DF8BA
:100ED000006005F07FFB041ED7DB802768468DF895
:100EE000007005F077FB041ECFDB2549304605F086
:100EF00057FB041EC9DB2249384605F051FB041E8E
:100F0000C3DB204CDFF8808044451AD3002001F079
:100F100013FD041EB9DBD5F8C430802043F0010373
:100F2000C5F8C43001F008FD041EAEDBD5F8C430AE
:100F300043F48033C5F8C430012385F8B830002469
:100F4000A3E7276A0026227FF3B29A4201D824340D
:100F5000DAE707EBC30257F83310107905F020FBEE
:100F600001360028EFD08EE76FF077048DE76FF041
:100F700015048AE7840D002060010020C9080008DC
:100F8000510D00081C0200204002002030B51F4B0C
:100F90008BB005AA03F1100518685968144603C4FC
:100FA0000833AB422246F7D11B78237001AC1022E4
:100FB0000021204606F005FE12220021144806F00A
:100FC00000FE1021204601F0F9FF00281ADD082854
:100FD000B8BF082009380E4A0444002114F8013F24
:100FE0000AA800EB131003F00F0328336B44013100
:100FF00010F8140C13F8143C10700829537002F107
:101000000202EBD102480BB030BD00BFFB850008E7
:10101000391000202DE9F04F724B93F800B087B0E3
:10102000BBF1000F03D0704807B0BDE8F08F6E4CE5
:1010300000264FF0011AB0463546B14623783BB939
:101040006A4B02349C42F3D1664A01231370EAE7EB
:101050006378052B05D8DFE803F08F07038F1F3B6C
:10106000A14623781C44E9E7402304A88DF810B07A
:10107000ADF812308DF814B005F09DFA40B1082398
:1010800004A8ADF8123005F096FA08B1ADF812B028
:10109000BDF81230E371E4E7E378002BE1D1A378E7
:1010A0006BB108F101085FFA88F8DAE76B689C42D7
:1010B00007D024354E4B9D42F8D30020B4E74D4D68
:1010C000F8E7AB68002BECD0414620469847E8E7AC
:1010D000002DF2D000222B7F9A42EED2296AA0780E
:1010E00001EBC2010B79984244D10127E07800F06E
:1010F00003008DF81400207994F805C040EA0C2014
:10110000ADF8120094F902000028FBB228DA07F1CA
:1011100010004FF0010C0CFA00F010EA0A0F26D173
:1011200043F080008DF8100004A8CDE9021301926D
:1011300005F041FADDE90121039BC0B99DF81020BB
:10114000A27012F0800F18BF10330A7118BFDBB203
:101150004FF0010214BF9A40BA404AEA020A80E7FF
:101160000120B84010EA0A0F01D11846DAE701372A
:10117000102FBBD10132AEE7032E1AD1FFF706FFC5
:10118000074650B1FEF7FEFF024630B11028A8BF57
:1011900010223946A01C06F006FD23786FF00201EC
:1011A0001A19091B04EB5303D14213D50136F6B2C9
:1011B00057E7002EF1D1B9F1000F3FF47EAFA4EB59
:1011C000090389F80230C3F3072389F8033089F84B
:1011D0000480EBE702F801BC13F8010902F8020DE4
:1011E000E2E700BF38100020740100201B0200203D
:1011F000400200201C02002010B5094B00211A46B5
:101200001C78844204D15C6814B102EB811010BDDB
:101210000131042903F14003F2D10020F7E700BFB8
:10122000500E00202DE9F34150F8283C10F82C6CAA
:10123000103304460AD1036950F8202C980736D59C
:10124000D2B9590715D5002344F8283C54F8283C56
:1012500010330BD054E9077554F8148C06F075FB65
:1012600000284FD02E48214606F053FB02B0BDE8BF
:10127000F08143F00403236154F8241C01AB304691
:1012800004F058FF10B16FF01503DDE7019A54F830
:10129000243C134444F8243C54F8203C9B1A44F862
:1012A000203C54F81C3C134444F81C3CCEE754F852
:1012B000241C01AB304601F0D5FB0028E3D1019D91
:1012C00054F8243C2B4444F8243C54F8203C5B1B49
:1012D00044F8203C54F81C3C2B4444F81C3C002DA2
:1012E000B1D0304605F0ADF9B5FBF0F303FB105576
:1012F000002DA8D154F8203C002BA4D0304601F09A
:10130000DFFBA3E744F8180CA4F1100003F0CEFBB8
:10131000002DABD0424639463046A847A6E700BF6D
:10132000400200204B1E012B73B506460D460FD818
:10133000FFF762FF044668B9012D09D101AB012214
:101340000DF10301304601F08DFB019B002BF5D11F
:1013500002B070BD06F0F9FA04F12C0108B1012DBC
:1013600005D1084602B0BDE87040FFF75BBF0348F7
:1013700002B0BDE8704006F0CCBA00BF40020020C9
:101380002DE9F74F064601911546984604F01DFFDA
:10139000044600285BD1EFF3118A102383F31288EF
:1013A000BFF36F8FDFF8ACB000220023584603F084
:1013B000B1FB70B9DFF8A090A70109EB8414636852
:1013C00013F1100F14D10193584603F06FFB019BEA
:1013D00006E00134042C0BF1400BE5D16FF00B0358
:1013E0008AF31188BFF36F8F184603B0BDE8F08F02
:1013F000019B2061C4E902350C9B63610D9BA361D5
:1014000030466FF00F0309F80760C4F83C80636052
:1014100005F017F958B1304605F013F9B5FBF0F3B4
:1014200003FB10551DB1E36B43F00403E36318F0B5
:10143000020F07D007F12C010848494406F069FA69
:101440000023CDE7304601F03BFB0346C8E76FF0D1
:101450000F03C9E76C0E0020500E00204002002050
:1014600010B5EFF31184102383F31288BFF36F8F4D
:10147000FFF7C2FE50B14368103307D16FF08B0302
:10148000436000F12C01044806F043FA84F311880C
:10149000BFF36F8F10BD00BF40020020F8B50E4CA7
:1014A00004251027EFF3118687F31288BFF36F8F9F
:1014B0006368103307D16FF08B030848636004F151
:1014C0002C0106F026FA86F31188BFF36F8F013DD9
:1014D00004F14004E6D1F8BD500E00204002002087
:1014E00038B5094C00250949204606F0F6F90122D5
:1014F000A4F110001146013506F0B3F9042D04F1F2
:101500004004F0D1002038BD7C0E002025120008D8
:101510000169012381F84B300B6833B191F84930F0
:101520001BB10248083106F0F4B9704740020020B0
:101530000169012381F84A300B6833B191F84830D2
:101540001BB10248083106F0E4B9704740020020A0
:1015500070B50569EFF31186102383F31288BFF38A
:101560006F8FD5F8900004F004FD044686F31188CF
:10157000BFF36F8F30B104480022002305F118013A
:1015800003F026FC204670BD4002002070B5012308
:1015900082F8483013680D4614463BB192F84A3041
:1015A00023B10E4802F1080106F0B3F9D4F89030E7
:1015B0005A89DB889A4205D17DB904F118014FF4AC
:1015C0007A7204E004F11801002DF8D00022BDE881
:1015D00070400248002303F0FBBB70BD40020020B6
:1015E00070B50E4681880446C9B21548154604F008
:1015F000C8FD10B394F900206378002A16DB202B75
:1016000004D0222B0ED06FF085000AE02B681A68F8
:1016100040F8102C9A8820F80C2C9B7900F80A3C92
:10162000002070BD638800F8093CF9E7212BEAD15E
:101630001038072328603360F2E76FF01200F0E7FC
:10164000540F002008B50146034804F0A8FD10B16E
:10165000012300F8073C08BD540F00200D4A034643
:101660000021A0F848101068C3F89400908892797F
:10167000A3F8980083F89A2083F89C1083F89B10B5
:10168000A3F89E1083F8A010402203F14C0006F04E
:1016900098BA00BF1882000810B504690023C4F886
:1016A000A8300C4BC4F8A400596804F1A80269B929
:1016B000C3E9002204F10800074906F00EF904F11D
:1016C0001800064906F035F9002010BD0A605A607E
:1016D000F0E700BF540F0020F5610008A9170008CB
:1016E00030B54FF40033426805690D4C85B042F2C5
:1016F000A100CDE90103002385F89D30106AADF803
:101700000C1000790A2201A904F014FD95F89D300F
:1017100023B9012006F033F8013CF7D105B030BD04
:10172000A186010073B504698DF80710002384F8C1
:1017300048301025EFF3118685F31288BFF36F8FC1
:101740000122D4F890000DF1070104F012FC86F399
:101750001188BFF36F8F012810D006F0F6F8B0B1F2
:101760000F4BBFF35B8F012253E8001F002903D109
:1017700043E800200028F7D1BFF35B8F0A22002343
:1017800004F11801074803F023FB02B070BD94F880
:10179000A130002BE4D000210A2006F04DF9C9E762
:1017A000500F002040020020F0B5D0F88C305B686C
:1017B0001B6A1F7D85B00546384604F006FD0646C7
:1017C00050BB95F886303BB3A86F0146C38831F80B
:1017D0000A2F9B1A9BB2B3F5807F28BF4FF480730A
:1017E00003AA04F077FB0446B0B18306A5F1180301
:1017F00008BF00F1FF3485F830600193074B03996F
:101800000093224602233846FFF7BAFDA86F22460E
:1018100000F10A0104F094FB05B0F0BD8D1500083D
:1018200037B514460A1E054621DDD4F88C0004F1B4
:101830004C0104F09EFB012384F8493023683BB13E
:1018400094F84B3023B1114804F1080106F061F817
:10185000D4F88C209388918912695B1A9BB2D31AB1
:101860003F2B04D8012384F8A03003B030BD94F896
:101870009E30002BF9D0064B0093019401234022A7
:1018800004F14C012846FFF77BFDEEE74002002003
:101890002118000873B50D4601461D4804F065FC8B
:1018A000044610B3691EA0F1A40605291DD8DFE87F
:1018B00001F01E1C031E242810F8061CA9B9036899
:1018C0005D68012300F8063C2B6A3246187BFFF75F
:1018D000A7FF14F85C2C42B92B6A187D0D4B0093BE
:1018E000019602231146FFF74BFD02B070BD304652
:1018F00002B0BDE87040FFF7B1BE012304F8053C1B
:10190000F3E710F8053C002BEFD00023F6E700BF0B
:10191000540F00208D15000813B50024074908480E
:1019200000944FF0FF334FF4806203F011FA054941
:10193000034806F010F8204602B010BD80100020C9
:10194000400200201686000808B50348034A00211B
:10195000121A04F07DFD08BD400200205010002046
:101960000748084A084908B5121A04F073FD0748E9
:10197000074A0849BDE80840121A04F06BBD00BFD1
:101980000000002040020020108B00080000002012
:1019900000000020108B000838B505460C4699B1B0
:1019A000D1E901230F48096804F087FAD4E9042338
:1019B000E1680D4804F081FAE1690C4804F07DFA11
:1019C000A1690B4804F079FA012D05D1EFF30581E7
:1019D0000848103904F071FA21462846BDE838401D
:1019E00002F0AEBD1F8600084F8600087F86000803
:1019F0008F860008BE86000830BFFFF7FDBF00BF1E
:101A00002DE9F0410B4EDFF8308006EB0807CC1BC8
:101A1000054632460949204606F0C5F8A019424657
:101A20000021083C06F0CDF82C6707F10800BDE85E
:101A3000F08100BF000000000400000010820008D8
:101A40002DE9F843324D804632488946174604F066
:101A500034FAAB6ADE0622D52F4804F02EFA1124A0
:101A6000AB6A1D0703D52D4804F027FA1224284D30
:101A7000AB6A980715D52A4804F01FFA6E6BAB6A5B
:101A8000190642D52748314604F017FAB9F1000F7C
:101A900003D0AB6A23F08003AB62132403E010246D
:101AA000DEE76FF015061A4DAB6ADA0703D51E485C
:101AB00004F003FA1424AB6A9B0603D51B4804F018
:101AC000FCF91524124B9A6AD50602D49A6A90073B
:101AD0000AD55B68190507D54146304600F066FA1D
:101AE00010B180F309880224094B9A6A920642BF1A
:101AF0005A6A22F400525A629A6A42F0FF029A62CB
:101B000000233B702046BDE8F8836FF01506C4E75C
:101B100000ED00E0D2860008E98600081D87000875
:101B2000318700084A87000861870008818700081C
:101B300010B51D4C1D4804F0C0F9A36A990130D5B9
:101B40001B4804F0BAF91E20A36ADA0103D519482C
:101B500004F0B3F91F20144CA36A1B0303D51648E5
:101B600004F0ABF92120A36A590303D5134804F00C
:101B7000A4F922200C4CA36A9A0303D5104804F060
:101B80009CF92320A36ADB0303D50E4804F095F9E2
:101B90002420054A936A6FEA03436FEA1343936272
:101BA00010BD1D20D0E700BF00ED00E0B1870008A8
:101BB000CA870008DE870008F9870008188800082F
:101BC0003E8800085988000870B5244C0646244811
:101BD0000D4604F072F9A36AD90435D5214804F002
:101BE0006CF91720A36A1A0503D51F4804F065F99C
:101BF00018201A4CA36A9B050FD51C4804F05DF908
:101C0000A16BA36A180407D5194804F056F91EB150
:101C1000A36A23F40043A3621920104CA36A590558
:101C200003D5144804F049F91A20A36ADA050DD542
:101C3000114804F042F91B20084A936A43F47F4399
:101C4000936200232B7070BD1620CBE7A36A9B0420
:101C5000F2D50A4804F031F91C20EDE700ED00E070
:101C6000858800089C8800081D870008AE88000849
:101C7000C8880008DE880008FA8800088187000804
:101C80002DE9F0415D4B5F688AB00446C7F3080652
:101C9000002585F31188BFF36F8F02F07F43B3F106
:101CA0007F4F06D102F00C03082B13D1544804F0E7
:101CB00004F900252C464FF00008F31E8DF807802C
:101CC000092B00F28C80DFE803F00A80847C8A8A8A
:101CD0008A8A8A8810074CBF0C460125EBE74948E1
:101CE000464E04F0EAF88DF80780F36A9A0704D5A7
:101CF000454804F0E2F800232AE0F36A002B01DAF9
:101D00004248F6E7F36A5B00F5D5414804F0D5F8A0
:101D10007369A26943F480737361BFF34F8FBFF39C
:101D20006F8F32F8023C726922F480727261BFF3E5
:101D30004F8FBFF36F8F03F47F42B2F55F4F27D110
:101D4000DBB2022B24D12168324804F0B6F82368B4
:101D50009DF80720CAB902AE04F120072068616827
:101D6000324603C20834BC421646F7D1099A002D08
:101D700041D0C2F3080121B96FEA52226FEA422230
:101D8000099202A91846FFF707FE0AB0BDE8F081E4
:101D90001A4B9A6AD2B232B10DF1070201212046E4
:101DA000FFF74EFE0FE09A6A12F47F4F05D00DF157
:101DB00007010120FFF708FF05E09B6AB3F5803FAC
:101DC00099D3FFF7B5FE0346C2E70DF107020021E4
:101DD000E5E70DF107010020ECE70F4889E70F4B1D
:101DE0000F49104817F4F87FA6F1100208BF1946F2
:101DF00004F063F87FE76FF30802C1E700ED00E04D
:101E0000418900086D89000885890008A7890008B4
:101E1000B6890008D6890008F389000813890008EC
:101E200028890008188A0008044B5A6942F01002F9
:101E30005A615A6922F008025A61704700ED00E0C9
:101E4000EFF30880EFF3098101B57246FFF718FF41
:101E500001BD00BF0A4880F30888102080F3118874
:101E600008484FF40461401880F30988EFF31480A8
:101E70000221084380F31488BFF36F8F00F05EF8EF
:101E8000C0260020001900201EF0040F0CBFEFF345
:101E90000880EFF30980816911F8021C0229FFD044
:101EA00001B5724604F0D8FA01BD00BF40B2002867
:101EB00007DB044A4109012300F01F00834042F878
:101EC0002130704700E100E040B200280CDB4309FC
:101ED000064900F01F0020330122824041F82320F0
:101EE000BFF34F8FBFF36F8F704700BF00E100E07B
:101EF00040B20028A8BF00F1604001F10101B8BF65
:101F0000064B4FEA0111ACBF00F5614000F00F0035
:101F1000C9B2B4BF195480F80013704714ED00E043
:101F2000044B054A23F07F039360BFF34F8FBFF349
:101F30006F8F70470000000800ED00E008B5FFF764
:101F4000EFFF0B4AD2F8883023F47003C2F88830D0
:101F5000EFF3148323F0040383F31488BFF36F8F2C
:101F6000FFF7F2FCFFF7FCFC00F0B0F802F0B0FB6A
:101F700000ED00E042F8203C009B42F81C3C0A497E
:101F8000019B42F8183C029B42F8143C21F00101ED
:101F90004FF0807342F8043C42F8081C0023203ABA
:101FA00002654367704700BF29060008094A0346D7
:101FB000906870B113F1160F006E05D0A0F14002C9
:101FC000934205D3834203D2814228BF0020704749
:101FD000002070470410002008B515460B4A0C4B32
:101FE0009060026F1A600E4600F0A0F82C4686F34F
:101FF00009880020034B9847204600210022002337
:10200000014C20477D6400082906000804100020C8
:102010005C0F0020014B10221A61704700ED00E0B8
:10202000054B5A699B689A421FBF044A536843F0A4
:1020300080535360704700BF0410002000ED00E0A3
:10204000084B9B6883420BD1EFF3058343B1064BEA
:102050005A6842F080525A605A6A22F400425A6228
:1020600003F0AAB90410002000ED00E014498A68CA
:102070004FF030001044EFF3098C80E8F01F10207F
:1020800080F31288BFF36F8F0E4F4FF000664A69DE
:102090008A603E60106F0C4C2060506F00235367C5
:1020A00080F3118804B5104600F040F8BDE8044004
:1020B00002F1300090E8F01F8CF3098870470000AF
:1020C0000410002004ED00E05C0F00200448002311
:1020D0001021C2180133442B82F80013F9D1704744
:1020E00000E100E008B5EFF30583064A103B02EB80
:1020F000C30152F8330049688847BDE80840FFF73C
:102100008FBF00BFF07E00080148006870470000E4
:102110005C0F0020024B034A0348012100F076B80F
:10212000000002200000002034830008036E054AEE
:10213000403B1360044B4021C2E9011310460121CA
:1021400000F06EB8600F002000000B15084AC2F8BE
:1021500098000B6823F01F03034343F01003C2F8F9
:102160009C308B6843F00103C2F8A030704700BF79
:1021700000ED00E02DE9F043DFF8608085B00E4609
:102180001F4604464FF00009B14523DA6068D8B114
:102190003FB1411E08421BD11F2819D9236819429B
:1021A00016D12368019304F07DF9A36803430393D8
:1021B000D8F89050C5F30725D0B2013DA84207D802
:1021C00001A9FFF7C3FF421C09F101090C34DBE749
:1021D0006FF01502104605B0BDE8F08300ED00E099
:1021E000044B0522C3F89420BFF34F8FBFF36F8FCA
:1021F000704700BF00ED00E0BFF35F8F024B00228D
:10220000C3F89420704700BF00ED00E010B5034C08
:1022100001232278FFF7AEFF207010BD4B10002085
:1022200008B50B4A00231278FFF7A4FF10F1160F30
:1022300007D0084A0021D2F89030C3F30723984210
:1022400000DB08BDC2F89800C2F8A0100130F2E728
:102250004B10002000ED00E02DE9F0435A4B5B4DA0
:10226000D3F890302C68C3F307239C4285B000F26A
:10227000A780FFF7C1FF00200C2684421AD1544EDC
:10228000DFF8449134706846FEF72CFA514C524DF9
:1022900080460027B84514D133784B490020D1F847
:1022A0009020C2F307229342C0F28480FFF798FF88
:1022B000002045E0696806FB0011FFF747FF013089
:1022C000DBE7009800EB07114FEA071CCB682340BF
:1022D000B3F5000F4DD00AD8B3F5001F33D0B3F5D6
:1022E000800F3BD0B3F5801F13D00137D2E7B3F195
:1022F000007F47D0B3F1805F4DD0B3F1807FF4D140
:1023000050F80C3088684A6804F0CCF840F08870C7
:1023100009E050F80C3088684A6804F0C3F840F0CF
:10232000885040F43020CDE901230390D9F8903053
:102330003078C3F30723013B984234D96FF015007E
:1023400005B0BDE8F08350F80C3088684A6804F0A6
:10235000A9F840F0885040F40020E4E750F80C3031
:1023600088684A6804F09EF840F0C06040F400308D
:10237000D9E750F80C3088684A6804F093F840F0C8
:102380008270D0E750F80C3088684A6804F08AF808
:1023900040F48020C7E750F80C3088684A6804F0A1
:1023A00081F82843BFE701A9FFF7D0FE3378013356
:1023B00033709AE7C1F89830C1F8A00001336EE796
:1023C0004FF0FF30BCE700BF00ED00E040830008A5
:1023D0004B1000200000F0FF0000021108B5024B76
:1023E0001B689847002008BD6C0F0020034B044A6F
:1023F0001860937843F00203937070476C0F0020CD
:10240000F400002008B50649064821F00701C1F193
:10241000005202F5003203F00DFD002008BD00BFA0
:10242000472D0020700F002007B5084A92E80300EE
:10243000CDE9000106488268126822B169469047DA
:1024400003B05DF804FB6FF05700F9E71082000855
:10245000687D00081F2809D8012303FA00F0044B07
:102460005B6998430CBF0120002070470020704733
:10247000003C014000F01F021F284FF0010303FA47
:1024800002F39DBF024A002053616FF015007047B0
:10249000003C0140044B1844002301338B4200F8F8
:1024A000012BFADB704700BF340100202DE9F04119
:1024B000104F054600264FF001086B78F4B2A34296
:1024C00001D8BDE8F0812B781C442046FFF7C2FFFD
:1024D00068B12046FFF7CEFF57F834303BB107EB29
:1024E000C40204F01F04516808FA04F0984701364A
:1024F000E3E700BF7C0F0020034660B1B0FA80F232
:10250000C2F11F02D2B205498856054A11680B4331
:102510001360FFF7CBBCFF22F5E700BF34010020BA
:10252000003C0140024A136823EA0003136070472D
:10253000003C0140032921D8DFE801F0020C10190A
:102540000F4B9A6822EA00029A60DA6822EA0002D7
:10255000DA6070470A4B9A680243F5E7084BDA687D
:102560000243DA609A6822EA00029A607047044BDC
:102570009A6802439A60DA681043D860704700BFD7
:10258000003C014030B5B0B1B0FA80F3C3F11F0395
:10259000DBB20B4850F833408C4204D100EBC3054A
:1025A0006D68954205D044B940F8331000EBC30084
:1025B0004260002030BDFF23EBE76FF00F00F9E72A
:1025C0007C0F002060B1B0FA80F3C3F11F03DBB2CF
:1025D000044A002142F8331002EBC30251607047F5
:1025E000FF23F5E77C0F002000F003020432920085
:1025F0000F23934043EA9000C3B20233054A52F8D6
:102600002320030C02EA104093FAA3F3B3FA83F3F6
:10261000D84070470038014020F08002032A0BDCCC
:10262000064B10F0800FA3F1900114BF1846084626
:10263000242303FB02007047002070475808002045
:10264000014801F03FB900BFE00200200146014807
:1026500005F0F8B86809002030B58BB0514C204621
:1026600005F0B3F8002800F09980A568AB6913B9AC
:102670006FF004002FE04C490022204698470028C4
:10268000F6D12B68002BF3D0484920469847002804
:10269000EED1EB68002BEBD02046434909AA9847BE
:1026A00004460028E4D1424B099A9A4215D1414D83
:1026B0004FF0A0432B6004232B714FF44073A87399
:1026C000EB8001464FF410733B482B8109AA04F0BC
:1026D0003EF9002804DA0BB030BD6FF08500FAE750
:1026E000099B22461979186804F044F90028F2DBA6
:1026F000304804F0CBFB0028BAD12E4804F055FC3A
:102700000028B5D12B4804F030FC04460028AFD196
:10271000402385F8EC0485F87C05A5F8E834A5F895
:102720007835264D2348A02104F0ABFD1022214628
:10273000A5F28C5004F086FD012211462846013492
:1027400005F08FF8042C04D01A4824353022E1B269
:10275000F0E71B4910230222A1F5947005F063F8FD
:10276000002200230024CDE906236FF00D0301228F
:10277000CDE903321349144B144800944FF480629E
:10278000CDE9014402F09AFB224621464320FFF79F
:10279000AFFB4320FFF78AFB20469CE76FF0120057
:1027A00099E700BF687D00088883000880830008DF
:1027B000006CDC02E0020020608300086C0800204E
:1027C000900A0020C014002039280008E8080020E2
:1027D000014BC3F8E4047047E0020020014608B54D
:1027E000044804F008FC002814BF6FF00400002027
:1027F00008BD00BFE002002008B5134602060146EE
:1028000005D5802800D12BB16FF0150010E0402BCA
:1028100028BF402321F080020648920102F5D662CB
:10282000024404F05AFC002814BF6FF0040000209A
:1028300008BD00BFE00200201C4B13B5A3F5D16416
:102840001A484FF0FF324FF0FF3301A902F00AF8A7
:102850009DF80500FF2808D1D4F8E434002BEFD010
:102860009DF8040000219847EAE7242200F07F0346
:10287000534302064CBF03F5AF6303F59D63234446
:102880009B68002BDCD09DF8041098479DF804004D
:102890000028D5D1B4F8A224002AD1D094F99C34D0
:1028A000002BCDDB0249FFF7A7FFC9E7680900202D
:1028B00090090020030610B50C4607D431B101463B
:1028C000044804F027FC2060002010BD6FF01500C4
:1028D000FBE700BFE002002038B50546FFF79CFE8D
:1028E000044638B10648294604F036FC28B90123CD
:1028F000637138BD6FF01500FBE76FF00400F8E777
:10290000E002002038B50546FFF786FE044650B1C8
:10291000437933B10748294604F055FC30B960715A
:10292000E060002038BD6FF01500FBE76FF0040099
:10293000F8E700BFE002002070B50446FFF76CFE28
:102940000546A0B10D4E037902882146304604F0B9
:1029500065FB78B963B2002B0BDD06EB84112A8886
:10296000204601F5D661BDE87040FFF745BF6FF026
:10297000150070BD6FF00400FBE700BFE00200200F
:1029800010B50446FFF748FE90B10B4883681B69F9
:102990001BB10A499847022801D0002010BD084801
:1029A000214604F070FB0028F7D06FF00400F5E733
:1029B0006FF01500F2E700BF687D00088083000813
:1029C000E00200202DE9F843064689461546984660
:1029D000FFF722FE00283AD0330638D500F114075D
:1029E00000220023384602F095F8044690BB04F01C
:1029F000ACFF10B94320FFF767FA802E02D1402DBB
:102A000028BF40254A4616482B46314604F08AFB2B
:102A1000024698B1384602F049F86FF0040404F019
:102A200094FF10B94320FFF741FAB4B9B8F1000F91
:102A300001D0C8F800502046BDE8F883802EEED1C2
:102A4000002DECD001463046FFF7D6FEE7E76FF0E9
:102A50001504F0E76FF00A04EDE76FF00404EAE70D
:102A6000E00200202DE9F8430446884691461F46BF
:102A7000FFF7D2FD0546F0B12306C6681BD4B8F1B6
:102A8000000F13D003690D49A4014E4504F5D66427
:102A900028BF4E461C4432462144404605F083F888
:102AA000EB689B1BEB602B6933442B6107B13E60E5
:102AB0000020BDE8F8836FF01500FAE7E00200207F
:102AC00010B50446FFF7A8FD68B123060BD4C36810
:102AD0000BB1002010BD0549028801EB841120468E
:102AE000FFF78AFEF5E76FF01500F3E79009002085
:102AF00013B5002340228021124804F08FFA0023EE
:102B0000402219460F4804F089FA0E4B03F28C500C
:102B10001C4601F0CBFF04F5B66001F0C7FF04F2DC
:102B2000D45001F0C3FF04F5BF6001F0BFFF064BB6
:102B30001B88ADF804300022002301A8FFF786FDB2
:102B400002B010BDE00200201F82000807B5064B4E
:102B50005B88ADF804300022002301A8FFF776FD62
:102B600003B05DF804FB00BF1F82000807B5064BE9
:102B70009B88ADF804300022002301A8FFF766FD12
:102B800003B05DF804FB00BF1F82000807B5064BC9
:102B9000DB88ADF804300022002301A8FFF756FDC2
:102BA00003B05DF804FB00BF1F82000807B5064BA9
:102BB0001B89ADF804300022002301A8FFF746FD71
:102BC00003B05DF804FB00BF1F82000813B50C4B77
:102BD0000822D3F8A014D3F89C04C3F8F42403F516
:102BE000D664002284E80300C3F8F824ADF804207A
:102BF0000023002201A8FFF729FD02B010BD00BF8D
:102C0000E002002038B508883B4BC0F30B001628C3
:102C10001B680D4614463ED810B96FF0850039E0A8
:102C200001381528F9D801A252F820F0892C0008A3
:102C3000E52C0008852C0008E52C0008E12C000894
:102C4000BF2C0008CF2C00081B2C00081B2C0008F0
:102C50001B2C00081B2C00081B2C00081B2C000838
:102C60001B2C00081B2C00081B2C00081B2C000828
:102C70001B2C00081B2C00081B2C0008892C0008AA
:102C8000892C00084FF4FA4323602968B1F5805F6E
:102C90002AD2002038BD44280ED82F28BDD900F5EF
:102CA0007D61C1F30B0101228A4014490A42EBD134
:102CB0004028B2D15B08E7E7A828E5D0ADE700F0EF
:102CC000CFF8C0221923B0FBF3F35343F2E700F02F
:102CD000C7F8C0221923B0FBF3F353439B08D3E793
:102CE000074BD1E70023CFE7C1F313310131B3FB29
:102CF000F1F32360CDE700BF240100201101100093
:102D000040787D01162808D8054BC34013F0010F09
:102D10000CBF6FF08500002070476FF08500704792
:102D2000EA00600070B5494C494D00F0B9F8204602
:102D300003F040FD00F092FDAB68464AC3F3031375
:102D4000D35C20FA03F613781C41A64202D2204637
:102D500001F094FB2B6823F480232B602B6843F451
:102D600080332B603A4B1A689103FCD55A6F42F0BE
:102D700001025A675A6F9207FCD59A6802F00C025A
:102D8000082A17D11A68950707D41A6842F0010279
:102D90001A602F4A13689807FCD52D4B9A6822F0C9
:102DA00003029A609A6812F00C0FFBD19A6822F025
:102DB000F0029A60264D2B6823F080732B602B68FD
:102DC0009901FCD4244AD2F8043823F44033C2F8E1
:102DD0000438D2F8043823F0706343F08063C2F8FB
:102DE000043800F041F82B6843F080732B60184BD7
:102DF0001A689201FCD59A6822F0F0029A609A68EB
:102E000022F0030242F002029A609A6802F00C0279
:102E1000082AFAD1A64202D3204601F02FFB0F4B1D
:102E20000A4A1A600A4B9A6822F4E05242F480522D
:102E30009A609A6822F460429A60D3F88C2022F05B
:102E40008072C3F88C20002070BD00BF00D8B80588
:102E500000380240FE8A00080030024024010020B1
:102E60000048704740787D01084B09495A68114075
:102E7000084A0A435A605A68074922F440325A60A5
:102E80005A681140054A0A435A60704700380240A8
:102E90000080BFFF193040000080BFF019304004AF
:102EA000064B1A6C42F0805282B01A641B6C03F01D
:102EB00080530193019B02B0704700BF003802406D
:102EC00008B5074804F081FC38B10648FFF78EFAD0
:102ED0000448FDF78BFB002008BD6FF01200FBE7F4
:102EE000B87E0008E92E00080A2838B5074D0446C8
:102EF00004D1AB680D215B6828469847AB6803484E
:102F00005B68E1B29847204638BD00BFB87E000834
:102F10002DE9F843D0F804900746D9F80800904608
:102F20000D461E4603F01CFBB8F5001F044616D1E3
:102F30002846D9F80840FFF757FB84420CD12946B0
:102F400003F00EFB0446FFF7EDFA2046FFF73AFBCD
:102F500000212046FFF7EEFA0020BDE8F883B8F51F
:102F6000800F20D0B6F1806F19D0B6F1C06F18D0A5
:102F7000B6F1007F1AD102260F493A462046FFF7E4
:102F800001FBB0B9D9F80810284603F0EEFA204644
:102F90003146FFF7CFFA2046FFF7AEFADCE701260D
:102FA000EAE70326E8E76FF08500D6E76FF0150043
:102FB000D3E76FF00F00D0E7236900081FB50C4B73
:102FC000D3F8182A12BA0192D3F8142A12BA02922C
:102FD0000C29D3F8103A28BF0C211BBA0C460A461C
:102FE00001A9039304F0DFFD204604B010BD00BF2B
:102FF0000070FF1F2DE9F0410C4604F1FF3C19461B
:103000004368BDF818701D68BCF1030F15D8B5F101
:10301000804F06D07C48854203D0B2F5803F00F255
:10302000F0807A48042C50F82C6016BF78480024B1
:1030300050F82C40F80503D51CB96FF0150006E0D8
:10304000344632B92B6A23EA04032B620020BDE820
:10305000F0819B68002B40F0828002F1FF3807F07E
:103060000100402C4FEA400000F0908000F2858083
:10307000042C00F08D80102C00F08C80012C14BFEB
:1030800006230023634F2A6A17F803E0022707FA92
:103090000EF300FA0EF022EA030303432B625E4BA9
:1030A000284653F82C309847C5F82C802B6A34EA10
:1030B0000303CBD0402E7AD070D8042E79D0102EB6
:1030C00079D0012E14BF06230023544F544817F81B
:1030D00003C010F803E005F11801732351F80C2028
:1030E00003FA0EF322EA0303602202FA0EF21343FC
:1030F000402C41F80C306BD061D8042C6AD0102CD5
:103100006AD0012C14BF06230023DFF818C16A68B7
:103110001CF803C04FF4807303FA0CF322EA030394
:103120006B602B6A1C432C622B68402E43F080039B
:103130002B605ED054D8042E5DD0102E5DD0012EB1
:1031400014BF06230023FA5CC05C8C58082383401C
:1031500023438B506B6943F001036B6176E7102BBF
:1031600001D1013979E723F04000202801D0402B1C
:1031700047D149084FEA520871E7B4F5807F0BD078
:10318000B4F5806F14BF062305237BE7032379E79B
:10319000012377E7022375E7042373E7B6F5807F01
:1031A0000BD0B6F5806F14BF062305238DE70323EC
:1031B0008BE7012389E73B4687E7042385E7B4F5DE
:1031C000807F0BD0B4F5806F14BF062305239CE7E6
:1031D00003239AE7012398E7022396E7042394E761
:1031E000B6F5807F0BD0B6F5806F14BF062305239C
:1031F000A9E70323A7E70123A5E70223A3E7042305
:10320000A1E76FF0850022E7000C0040F48300087E
:10321000E8830008E98A0008D8830008F78A0008D4
:10322000F08A0008E28A00082DE9F743574F466804
:10323000D7F80890D0F81080D9F800303468716958
:103240002BB96FF05705284603B0BDE8F083384628
:103250009847051EF7DBB369012B40F29380716933
:10326000D9F818300831002BEBD0002238469847A7
:1032700005460028E7D17169D9F80C300831002BD8
:10328000DFD06A463846984700280FDB009BC8F815
:103290000030D8E901018368DB6803B19847F06921
:1032A00001AA002103F053FB002801DA0546CAE712
:1032B000019B00221979186803F05CFB0028F5DBFC
:1032C0007368A3620023E362314B9C421CD0B4F1CB
:1032D000804F19D0A3F57C439C4215D003F5806341
:1032E0009C4211D003F580639C420DD003F59A33C4
:1032F0009C4210D1236823F440732360244B9C42EA
:1033000015D10023236315E02368B26823F070030E
:1033100013432360EEE71F4B9C42EBD003F5806321
:103320009C42E7D033694BB36FF085058BE7B4F16E
:10333000804F17D16368326923F0700313436360D1
:10334000134B9C421AD1636CF26823F0FF031343C2
:103350006364636C43F400436364236843F00103D4
:10336000236070E70C4B9C42E4D003F580639C42E1
:10337000E0D003F580639C42D4D1DBE7F368002BF7
:10338000EBD0D1E76FF015055DE700BF687D000861
:1033900000000140004401400004004043681B68F5
:1033A00003F1140252E8002F42F0010203F114006D
:1033B00040E800210029F3D10D4A934207D0A2F53D
:1033C0004C42934203D002F55042934203D11A6912
:1033D00042F040021A6103F10C0252E8002F42F45D
:1033E000807203F10C0040E800210029F3D17047FE
:1033F0000010014043681B6803F1140252E8002FDB
:1034000022F0010203F1140040E800210029F3D169
:103410000D4A934207D0A2F54C42934203D002F5E5
:103420005042934203D11A6922F040021A6103F11B
:103430000C0252E8002F22F4807203F10C0040E8E5
:1034400000210029F3D1704700100140F8B50C4667
:10345000036941681E682379012B35D09A1E5542B5
:103460005541AD026279022A9CBF384F37F812C02D
:10347000A27988BF4FF4005C042A28D0003B18BF13
:1034800001231B03E279012A0A680CBF4FF440773D
:103490000027A642D1681DD121F4B05129430B4326
:1034A000D360136923F4405343EA0C031361436868
:1034B0001A68536923F440733B4353613168406891
:1034C000BDE8F84003F095BB4FF4C065CAE74FF480
:1034D0008053D7E701F4C0618D421FBFD16821F44A
:1034E000C0612943D160426811680A6902F4405200
:1034F00094451FBF0A6922F4405242EA0C020A6155
:1035000042681168CA6802F4805293421FBFCA68B9
:1035100022F480521343CB6043681A68536903F462
:1035200040739F421FBF536923F440733B43536171
:1035300021683368994206D0406803F05AFB08B905
:1035400023683360F8BD0020FCE700BF80840008DA
:10355000F8B543681D6803691E680B79012B0C469A
:103560001AD0991E4A424A41920294F805C0A7799E
:10357000BCF1020F96BF2B494FF4005131F81C10DB
:10358000042F00D083B1A3F1030EBEF1010F06D8C2
:103590006FF085031846F8BD4FF4C062E5E70BB144
:1035A000042FF5D04FF48053B1F5805F31D0B1F5E1
:1035B000405F30D000290CBF012103218C45E7D1A9
:1035C0005BB3002A0CBF042303239F42E0D1E379BD
:1035D00063B1012BDCD1144B9D4207D0A3F54C43C2
:1035E0009D4203D003F550439D42D1D1EB6823F4B3
:1035F0000053EB602146FFF729FF03460028C7D19F
:10360000EA6842F40052EA6094E8030086E80300A6
:10361000C0E70021D2E70221D0E7002A0CBF032334
:103620000223D2E780840008001001404FF0E0231D
:103630000D4A9969126818699B69002908BF1146EB
:10364000002B08BF134610F4803F084801D199426F
:1036500005D20168114401604FF0E021096900685A
:103660001044C01A704700BF00100020FC0F00205B
:10367000094B102283F82320084B4FF416521A608E
:10368000074B002018604FF0E02342F27F525A614E
:10369000072298611A61704700ED00E000100020D9
:1036A000FC0F0020684620F007018D4619B5FFF792
:1036B000BDFF114B1149D3E900420868001942F1DE
:1036C0000002C3E900020E4A00230B60D2E9004168
:1036D0004FF41653001BB0FBF3F043431B1941F1A9
:1036E0000001C2E9003102F055F8FEF799FCBDE88F
:1036F00019408546704700BFB80A0020FC0F002023
:10370000B00A00202DE9F041364E89B1421C0AD1A1
:103710004FF0E022136923F0010313614FF07F4360
:103720003360BDE8F0813568012806DC00240AE03A
:10373000431C3568F8D140F2D26040F2D36398421E
:10374000A8BF1846441EEFF31187102383F3128895
:10375000BFF36F8FFFF76AFF23494FF0E023D3F8E1
:1037600018C0D1E90023801843F10003C1E9000328
:103770001E4B00221A601E4B1A68831A2DD44FF478
:10378000165E42F27F5814FB0E841C44131AB4FBDD
:10379000FEF40EFB0433B3F5806F164A38BF4FF4C6
:1037A0008063934228BF13464FF0E0223360946950
:1037B000013B536100239361A445D1E90032ACEB96
:1037C00004000DD20544EB1842F10002C1E90032B9
:1037D00087F31188BFF36F8FA3E74FF48063E3E7AC
:1037E000C318F1E700100020B80A0020FC0F0020E9
:1037F000B00A002000C3FF0038B5EFF31185102395
:1038000083F31288BFF36F8F084B1C68084B1B684B
:10381000E41AFFF70BFF85F31188BFF36F8F4FF4A6
:1038200016532044B0FBF3F038BD00BFB80A0020A7
:10383000B00A002038B5EFF31185102383F3128806
:10384000BFF36F8F044B1C68FFF7F0FE85F3118800
:10385000BFF36F8F204438BDB80A002008B5134964
:103860008B6803F00C03042B1CD0082B1CD14A6876
:103870004B68496813F4800314BF0D480D48C1F329
:10388000881118BF002302F03F02A1FB0001FCF7E2
:103890005FFC064B5B68C3F3014301335B00B0FB85
:1038A000F3F008BD0248FCE70248FAE7003802409E
:1038B00040787D010024F400014B1868704700BF78
:1038C000240100202DE9F04F066889B004463046F7
:1038D00003F043FF0390002840F05281206803F07A
:1038E0000EFF002800F04C81D6F808382068C3F39A
:1038F0000D23C4F8D43403F002FF870741BF2268C8
:10390000536903F002035361206803F0F8FEC00618
:1039100006F500652DD52268936923F010039361A5
:10392000D6F8208008F4F013B3F5802F08F00F07C5
:1039300040F0298147F6F07318EA030F14D02423CE
:1039400003FB0747C8F30A19D7F860124A46304606
:1039500003F034FED7F860324B44C7F86032D7F832
:1039600068324B44C7F868322268936943F0100309
:103970009361206803F0C3FE010300F11781206802
:1039800003F0BDFE42030CD5206803F0C4FE2746B9
:10399000049006F5106B4FF0000A049B002B40F0DA
:1039A000CF81206803F0ABFE002813DA6B6823F0A8
:1039B00001036B6094F8CC34012B40F06982002144
:1039C00084F8CC14204603F060FC2268536903F0AD
:1039D00000435361206803F092FE02050AD5AB68EC
:1039E000DB0702D52046FFF7D1F82268536903F4BC
:1039F00000635361206803F082FEC70433D56B680F
:103A000023F001036B601021206803F0E7FC06F54A
:103A100010634FF67F3122790398824200F23C8294
:103A2000EB6943F00113EB61E37B002B00F0508264
:103A3000D5F8843043F00B03C5F884306B6C43F049
:103A40000B036B64D6F8003823F4FE63C6F8003825
:103A500004F29C42A179206800F0EAFC22685369D4
:103A600003F480535361206803F049FE800416D5A7
:103A7000206803F076FE206803F0FBFCE071276805
:103A8000FFF71AFFE2790146384600F05FFA204658
:103A9000FFF72EF82268536903F40053536120683E
:103AA00003F02DFE010707D5204603F0A2FA226895
:103AB000536903F008035361206803F020FE0206F7
:103AC00000F11182206803F01AFEC3020CD5A04653
:103AD00006F5126901272379BB4200F21D82226894
:103AE000536903F480135361206803F008FE8702D2
:103AF00029D5234606F532610122207990421DD94D
:103B000093F87C720868012F40F01C82002880F234
:103B10001982D4F8D4C48CEA1040C00700F1128294
:103B200083F87B72B06940F08000B0617069000674
:103B300000F108826B6843F400736B60226853697C
:103B400003F400135361206803F0D9FD410007D549
:103B50002046FEF7FBFF2268536903F08043536160
:103B6000206803F0CCFD42070AD523685D686B0727
:103B700002D52046FEF7FAFF226853682B435360B4
:103B800009B0BDE8F08FB3F5402F7FF4EDAE082209
:103B900004F29C41304603F011FD242303FB074748
:103BA000C8F30A18D7F868324344DBE6206803F00C
:103BB000AAFD06F530680490A2460027049B002B5E
:103BC0003FF4DDAE049BDB0779D55FFA87FB206805
:103BD000594603F0A8FD10F0010F81461FD00123C4
:103BE000C8F80830206894F806C0016C00F530630E
:103BF00003EB4713BCF1010F9A6840F08B8012F081
:103C0000080F07D0B048814209D9120407D54FF4F4
:103C1000004203E012F0200F5AD020229A6019F0DF
:103C2000080F21D00823C8F808302368A6491A6C69
:103C300003F5306303EB47138A42986804D9010403
:103C400044BF4FF40040986020460592FEF7BEFF47
:103C5000059A9D498A4207D9A179012904D1206892
:103C600004F29C4200F0E4FB19F0100F1CBF10237B
:103C7000C8F8083019F0020F14D07369180642BF53
:103C80006B6843F480636B609AF85732012B06D15E
:103C900000238AF857325946204603F0ABF9022335
:103CA000C8F8083019F0200F1CBF2023C8F80830CE
:103CB00019F4005F1CBF4FF40053C8F80830049B90
:103CC0005B080137049308F120080AF1240A75E71C
:103CD000DFF8F4C1614501D9120498D41A69DAF801
:103CE0007432C2F312029B1ACAF868326FB9D4F860
:103CF00064222AB904F29C42012100F099FB04E0FD
:103D0000D4F860221A44C4F860225946204602F0D2
:103D1000A1FC84E7DFF8B4C1614507D111043FF588
:103D200076AF9006F1D520229A60EEE7002FECD115
:103D3000D4F86432002BE8D104F29C423946DCE727
:103D4000049BD90740F19B805FFA8AF320680793B0
:103D5000194603F0F1FC10F0010F804620D06B6B88
:103D600001210AF00F0201FA02F223EA02036B6357
:103D7000CBF80810A17901290DD1D7E90723134405
:103D80003B62BAF1000F06D1636A23B9206804F2DE
:103D90009C4200F04DFB5FFA8AF1204602F074FC71
:103DA00018F0080F1CBF0823CBF8083018F0100FCC
:103DB0001CBF1023CBF8083018F0400F1CBF402365
:103DC000CBF8083018F0020F10D05146304603F0FF
:103DD00005FBFB7D012B06D10023FB755FFA8AF101
:103DE000204602F066FC0223CBF8083018F0800F62
:103DF00045D0D7E909329A4241D8A3EB0208FB69C2
:103E000021680591984528BF984601F5106308F18F
:103E1000030803EB4A134FEA98080693069B996937
:103E200089B24145D7E9093227D393420BD8059B84
:103E30000AF00F00D3F834280121814022EA010260
:103E4000C3F834281BE0A3EB0209FB69079A059825
:103E5000994528BF9946A3790093396A1FFA89F3D7
:103E600003F099FB3B6A4B443B62BB6A09F10308D0
:103E70004B444FEA9808BB62D0E79342D7D9049BE2
:103E80005B080AF1010A049324370BF1200B84E547
:103E90002046FEF78BFE98E599601A6822F400121E
:103EA0001A60C3F80812D3F8002222F40012C3F8F3
:103EB0000022D3F8002242F00062C3F80022039AE5
:103EC000013203922033A6E50A30544F0A31544F91
:103ED0006B6943F4005343F02B036B612B6943F090
:103EE0000B032B61AEE5B36923F08003B3610127B7
:103EF00004F257284FF024092379BB427FF6E2AD44
:103F000009FB07F318F80330012B03D1F9B220465F
:103F100003F08AF90137EFE798F83C30D9F8002030
:103F2000012B09D1002A07DA67F07F0188F83B30BE
:103F3000C9B2204603F078F9013708F1240809F1E5
:103F40002009C8E5013224332031D6E5022A4AD1BE
:103F5000274B284A0B44934239D9274B274A0B4415
:103F6000934236D9264AA1F57403A3F51053934220
:103F700031D9244AA1F18373A3F5E74393422CD3AB
:103F8000214B224A0B44934229D9214B214A0B440D
:103F9000934226D3204B214A0B44934223D3204AF9
:103FA000A1F1B773A3F5585393421ED31D4B1E4A7C
:103FB0000B4493422CBF06230723C26822F470529D
:103FC000C260C26842EA8323C360002070470F23A7
:103FD000F3E70E23F1E70D23EFE70C23EDE70B23C7
:103FE000EBE70A23E9E70923E7E70823E5E700BF52
:103FF000405327FFFF340C00401E1BFF3F420F00C1
:104000007F4F120020D6130060B6E5FE5FE3160076
:1040100000D3CEFE40771B00C05BB3FEC0912100F1
:1040200020753800E05459FEE09C410084B02DE931
:10403000F843044609A880E80E0000239DF8246098
:104040009DF82E50194603F1400204EB8202013321
:104050000F2B5160F7D104F50067002D6CD17B6800
:1040600043F002037B60A36B43F40013A363A36BD1
:1040700023F40023A363A36B23F48023A36300230F
:10408000C4F8003E9DF82930012B5FD19DF8271020
:10409000002959D1204603F0E5F91021204603F00C
:1040A0009DF90146204603F0BCF90843C0B2002345
:1040B00000383B6118BF01207B6104F51062FB6191
:1040C00019464FF0904C4FF0006E4FF67F389E42ED
:1040D0003ED8002204F5306311464FF0904C4FF06B
:1040E000006E4FF67F38964245D83B6923F48073C3
:1040F0003B610023A3616FF0804363619DF826302C
:104100001BB9A36943F01003A361A269234B1343B6
:10411000A3619DF82A301BB1A36943F00803A36192
:10412000012D01BFA36943F0804343F00403A36161
:10413000BDE8F84304B07047A36B23F40013A363F6
:10414000A36B43F4002399E71946A3E70321A1E7F2
:10415000D2F80090B9F1000F0BDA3BB9C2F800E0D9
:1041600011610133C2F808802032B0E7C2F800C004
:10417000F6E71160F4E7D3F80090B9F1000F0BDA1D
:104180003AB9C3F800E019610132C3F8088020335E
:10419000A9E7C3F800C0F6E71960F4E700383C80EF
:1041A00030B54A780B78012A00EB431300F5006024
:1041B00029D1D3F80029002A0BDAD3F8002942F0DC
:1041C0000062C3F80029D3F8002942F08042C3F806
:1041D00000290A78C56B012402F00F0204FA02F2EA
:1041E00025EA0202C2630978C26901F00F018C401E
:1041F00022EA0402C261D3F80019174A0A40C3F840
:104200000029002030BDD3F8002B002A0BDAD3F8A8
:10421000002B42F00062C3F8002BD3F8002B42F0D1
:104220008042C3F8002B0A78C56B012402F00F020C
:1042300004FA02F225EA0242C2630978C26901F077
:104240000F018C4022EA0442C261D3F8001B034AEA
:104250000A40C3F8002BD4E7007833EC0078F3EF82
:10426000F7B54B7891F800C06E4D6F4E012B00EB07
:104270004C1440F089800F6904F510633FBB1F693F
:104280003D401D611D6945F400251D611D693540D6
:10429000012A1D614DD1CA6902B15A610B79012B06
:1042A0000CD1D0F8083813F4807FD4F800390CBF53
:1042B00043F0005343F08053C4F80039D4F8003978
:1042C00043F00443C4F80039002003B0F0BD1F6977
:1042D0003E401E611E6935401D610D698E68BCF14E
:1042E000000F0CD1B54288BF0E611D6945F4002551
:1042F0001D610D691E69C5F312053543C8E74B4FB3
:10430000D3F810C03544013DB5FBF6F5AEB207EA6F
:10431000C54545EA0C051D610D79012DE9D11D69E1
:1043200025F0C0451D611F69750705F0C0453D4377
:10433000DEE7D4F8003943F00443C4F800390B79C0
:10434000012B0DD00B69002BBED00A78D0F8344871
:1043500002F00F02012393402343C0F83438B3E73F
:10436000D0F8083813F4807FD4F800390CBF43F03C
:10437000005343F08053C4F8003900920B8A0A7846
:10438000C96803F008F99FE7D4F8107B3E40C4F8F1
:10439000106BD4F8106B3540C4F8105B04F5306333
:1043A0000E698D68BCF1000F27D106B10D610D6259
:1043B0001E69C5F3120535431D611D6945F40025CD
:1043C000012A1D6102D1CA6802B15A610B79012B21
:1043D0000CD1D0F8083813F4807FD4F8003B0CBF20
:1043E00043F0005343F08053C4F8003BD4F8003B43
:1043F00043F00443C4F8003B66E7002ED8D02E44B7
:10440000013EB6FBF5F6B6B275430D62074D1F6966
:1044100005EAC6453D431D610D6A1E69C5F31205D7
:104420003543CDE7FFFF07E00000F8FF0000F81F6D
:1044300030B5114C056CA54200F5306303D9D0F8B6
:10444000004B002C16DB00241C611C6944F4002482
:104450001C611C6944F018041C611C69012944F0AA
:10446000C0441C6101BF5A61D0F8003B43F0802377
:10447000C0F8003B002030BD0A30544F002850D017
:104480002A4B1B6803F44043B3F5404F19D1284B26
:10449000984218D8274B984217D8274B984294BF78
:1044A0000023012321490A6802F44042B2F5004F7B
:1044B00010D1204A90420AD9D3B1012B38BF012331
:1044C00008E00023EEE70323ECE70223EAE71A4AB9
:1044D0009042F2D80A6802F44042B2F5804F0CD103
:1044E000144A904206D9D3B1012B38BF012304E00E
:1044F0000223EFE7104A9042F6D810490A6822F0EA
:1045000007021A430A600A6802F0070293420AD0BF
:10451000086800F00700C01A18BF01207047022386
:10452000EBE7012070470020704700BF007000409B
:10453000804A5D050090D00380C3C901003C024061
:1045400038B5EFF31185102383F31288BFF36F8F13
:10455000064B9C6803F04CF985F31188BFF36F8F0D
:104560002046BDE83840FDF76BBD00BF04100020B9
:1045700038B50A4B53F82040013053F82050A5427B
:1045800000D838BD606830B1037EDB0701D403F08A
:1045900004F90834F3E723689847FAE75C840008D5
:1045A00070B52A4B2A4C2B4D86B0012203201A707D
:1045B000FFF7DEFF01F064F90420FFF7D9FF26467C
:1045C000AE4204F130040FD300F02CFE204CAC427C
:1045D00026D300F03BFEFBF73BFF1F4A938923F0F5
:1045E0000103938106B070BD54F80C3C059354F858
:1045F000103C049354F8143C039354F8183C029371
:1046000054F81C3C019354F8203C009354E90A23CD
:1046100054E90C0100F006FC54F8303C5E65CEE72E
:10462000D4E90A23B3F1FF3F08BFB2F1FF3F05D041
:1046300052EA0301206803D103F028FA3034C6E7B8
:104640000649183001F016F8F8E700BF4C100020BA
:104650001081000810810008400B0020137A000828
:1046600070B5002386B00122CDE90423134E144D0A
:1046700001930F22CDE902321249142303FB0055A6
:1046800006EBC01604464FF4C07000FB04110E4B3D
:1046900000954FF4A072304600F0C4FB337C0B4A07
:1046A000EE6023F0040333744FF4046304FB03331C
:1046B00013442C746B6006B070BD00BFC00A0020AC
:1046C0000410002040210020F77700080019002086
:1046D0007FB50020FFF74CFF284B83F30888284C58
:1046E000636943F4007363610025F02384F822308A
:1046F000E57725766576A57684F82050636A43F4DD
:10470000E0236362FDF790FBFDF784FC4FF0FF337D
:10471000A362E362FDF7A0FDFDF7FCFC19481A4C0B
:1047200000F0F8FBFBF7C6FF0120FFF721FF022096
:10473000FFF71EFF00F0B4FD144B15495C61154BEB
:10474000059301234FF48062CDE90353CDE9015570
:10475000114B0095204600F065FB237C064623F0B4
:1047600004032046237403F031F92846FFF778FF4D
:10477000094A31462046FDF72FFC00BF40210020AA
:1047800000ED00E0C00B0020400B002004100020D2
:10479000C02200208B8A0008A1450008F7B50D460D
:1047A00004469DF82010EFF31187102080F3128843
:1047B000BFF36F8F266AE06886423FD22668B44214
:1047C00019D0C6B1304603F021F806F1180003F005
:1047D000B6F954F8082F70692946002503F0E3F96B
:1047E0003046B56703F0F2F82046394603F021F968
:1047F000284603B0F0BDA268A9B1E069294603F0DC
:10480000D2F9E369A26813446269E361934201D17A
:104810002369E361236A01332362002087F311884F
:10482000BFF36F8FE5E7A0692369984208BF60690D
:10483000801AA061294603F0B6F9EBE752EA0301BA
:104840000BD00749896804F108004D61CDE90023C8
:104850003946224600F044FCCBE76FF02200DDE74A
:1048600004100020F7B504460846EFF31186102126
:1048700081F31288BFF36F8F216A00293AD0A268B2
:10488000A16903F090F9A369A268256813446269DD
:10489000A361934204BF2369A361236AAC4203F17D
:1048A000FF33236235D02846002D33D002F0AEFF0F
:1048B00005F1180003F043F96969A268E06903F0A3
:1048C00072F9E369A26813446269E361934204BF29
:1048D0002369E361236A0027013323622846AF6717
:1048E00003F074F804F10800314603F0A2F83846EA
:1048F00003B0F0BD52EA030111D00A49896848614A
:10490000CDE900233146224604F1080000F0E8FB1F
:10491000EEE7002086F31188BFF36F8FE8E76FF0B2
:104920002200F7E7041000202DE9F3410446174662
:104930001E46EFF31188102383F31288BFF36F8FA5
:10494000304BC2689B6872B18068984217D057EAB2
:10495000060216D188F31188BFF36F8F6FF00F0036
:1049600002B0BDE8F08193F90E1021610132C4E973
:10497000023288F31188BFF36F8F0020F0E72169BE
:10498000F3E793F90E1090F90E30994230DA99421C
:10499000A8BF194602F05DFF0546CDE900761A482A
:1049A0002246414600F09CFB0028E6D0EFF311863A
:1049B000102383F31288BFF36F8FA068D0B12368F0
:1049C00021699C420AD04BB193F90E309942A8BF9D
:1049D00019466FF07F039942B8BF194602F039FFBC
:1049E00040B10948314603F024F86FF00A00B7E7F8
:1049F0000025D2E7002DF4D186F31188BFF36F8F25
:104A0000F3E700BF041000204D100020F8B58368C4
:104A10000546002B3FD0234A926893423ED1C3689B
:104A2000012B03D9013BC3600020F8BDEFF31187D0
:104A3000102383F31288BFF36F8F0169806802F03F
:104A400008FF2C68A54207D10023C5E9023387F38C
:104A50001188BFF36F8FE7E7002CF5D0D4E900325F
:104A600013605A60237C002623F002032374C4E9F8
:104A70000066A66004F1180003F061F8AC6094F9D8
:104A80000E302B612046A66702F0A0FF064839468B
:104A900002F0CFFFC8E76FF01500C6E74FF0FF3018
:104AA000C3E700BF041000204D10002070B5EFF3E5
:104AB0001186102383F31288BFF36F8F0468A0421E
:104AC0001AD0CCB1D4E9003213605A60237C00259F
:104AD00023F002032374C4E90055A56004F1180013
:104AE00003F02DF82046A56702F070FF3146084814
:104AF000BDE8704002F09DBFD0E902329A4218BF73
:104B00000133836086F31188BFF36F8F70BD00BFE0
:104B10004D10002013B5EFF31181102484F3128897
:104B2000BFF36F8F846844B1013C846081F31188C6
:104B3000BFF36F8F002002B010BD52EA030406D10C
:104B400081F31188BFF36F8F6FF00F00F3E7CDE9AA
:104B500000230246014800F0C3FAECE74D100020A4
:104B60002DE9FF414F4E04461027EFF3118887F3DC
:104B70001288BFF36F8FD4F88450F5B9022104F185
:104B80009C0002F07AFE002868D004F1940500220F
:104B90000121284602F09AFF0028F8D10023029351
:104BA0004FF0FF324FF0FF33CDE90023414604F1CF
:104BB0008C023D4800F09EFCD7E7D4F888202B6893
:104BC000C4F88430954208BFC4F88830D4F89C30CB
:104BD00043F00203C4F89C30EB6823F0040343F075
:104BE0000103EB606B6888F31188BFF36F8F284671
:104BF0009847EFF3118887F31288BFF36F8FEB6844
:104C0000D80623F0010236D4EA60EB689A0716D57D
:104C1000306823F00203EB6088B10368002170B1B3
:104C20004268954235D1036869BB7268336090422F
:104C300000D17360002340F8083BFFF737FFD4F83A
:104C40009C3023F00203C4F89C3088F31188BFF332
:104C50006F8FDB0589D400F02BFB86E7D4F89C30FE
:104C6000D9069BD5C4F89C0088F31188BFF36F8FD9
:104C700004B0BDE8F08123F01103EB6005F11000F2
:104C8000FFF714FFC1E70B607368984208BF7160BB
:104C9000D0E701461BB11A6818461346BFE71A460B
:104CA000FAE700BF241000204D100020F8B5C368BB
:104CB0009A0704460E46C3F3400542D45F0742D428
:104CC0000B680BB983680B60E368D80744BFA3681F
:104CD000336037684CBF0225012557B31B4B9A68D8
:104CE000D7F880309A421ED102F02FFE80F00100EA
:104CF000C0B2D7F89C30D907C3F380021CD5F2B1FB
:104D0000F8B100232360D7F8883073B9C7E921448C
:104D1000384602F0BDFDE36843F00403E360336806
:104D2000A3602846F8BD0020E3E71C60C7F8884070
:104D3000EEE76FF0150506E06FF0120503E01B07C4
:104D4000DFD56FF00F0500233360EAE70410002081
:104D5000F0B589B004460020C4E921000E9D04F19D
:104D60008C00C4E9230004F19400C4E9250055B384
:104D70002879002840F2011008BF0120C4F89C00E7
:104D800000204FF0FF364FF0FF37CDE90330CDE97B
:104D90000100CDE906670D4B0094204600F08EF827
:104DA00055B1296811B1204602F0D5FD6B791BB1D0
:104DB000A38943F00103A381204602F067FEC4F8F3
:104DC000804009B0F0BD0120D8E700BF614B00086A
:104DD00037B501900846EFF31184102181F3128852
:104DE000BFF36F8FC16811F01E0F16D153EA020591
:104DF00008D101A9FFF75AFF84F31188BFF36F8F21
:104E000003B030BD41F00801C160019981620449DD
:104E1000103000F02FFC0120EEE70020ECE700BF8F
:104E20009F7800082DE9F043073285B022F0070291
:104E30000E461F461099818100F158037F32C0E968
:104E400016330446002322F03F02042183600174DC
:104E50003F2A0F98A073C4E90633E37306F14009B3
:104E6000A2F1400805D883F31188BFF36F8F08467D
:104E700002DFB51829462046FCF7C2FD07300E9B1D
:104E800020F00700A066C4E9189802930D9B0193D7
:104E90002D1A0C9B00932A463B4631462046FDF7CF
:104EA00069F800236365044B9B6803B1DB6EE3661E
:104EB000284605B0BDE8F08304100020F0B587B0A7
:104EC00000250595109D04950F9D03950E9D029557
:104ED000DDE912760D9D01950C9D00950446FFF7C6
:104EE000A1FFB6F1FF3F08BFB7F1FF3F05D056EA7B
:104EF000070305D1204602F0C9FD204607B0F0BDEA
:104F00003A46334604F11800014900F0B3FBF4E7D8
:104F1000137A00080123037483810023C0E9183346
:104F2000C366014B9860704704100020094A9368DB
:104F30006FF00A019967084958674B6843F080533E
:104F40004B60002383F31188BFF36F8F9368986FD2
:104F5000704700BF0410002000ED00E070B590F92C
:104F60001020037C002A2FDBD9062DD11A4C63F0C8
:104F70007F032246037452F8183FE169934207D138
:104F8000C0E900210860E0610FE09942F8D01B6899
:104F9000002BF5D093F90E6090F90E50AE42F4DD7F
:104FA0005968C0E9003108605860A569954200D091
:104FB00005B9E568A3681A7CD20606D1DA897F2A8A
:104FC00003D9AA690AB9636170BDAB4202D0284611
:104FD00000F0D2FA6561F7E70410002038B590F9C7
:104FE0001020037C002A014604DA03F07F030374D7
:104FF00002F0B4FC0D4D2A46AB6852F8184F9442AB
:1050000000D004B9EC688B4207D01A7CD20604D1D8
:10501000DA897F2A01D9A2692AB1A34202D02046A7
:1050200000F0AAFA23466B6138BD00BF04100020CF
:10503000B3F1FF3F08BFB2F1FF3F03D00249183080
:1050400000F018BB704700BF137A0008034648B948
:10505000EFF3058232B9064A51699268914201D054
:10506000FFF764BF83F31188BFF36F8F704700BFF2
:105070000410002038B5184CA168E0690B68814223
:1050800014BF1A46002249680B605960A368E169A1
:105090002AB9124AC3E900210B60E3610AE092F9E0
:1050A0000E5093F90E00854212DD5168C3E90021CC
:1050B0000B605360A569094B9D4200D005B9E568B6
:1050C000A3689D4202D0284600F056FA656138BDBB
:1050D0008A42DED01268DBE7041000201C1000209A
:1050E000F8B50E4B0C4611460D4A98681060DDE984
:1050F0000667EFF31182102282F31288BFF36F8FDD
:105100009D68284602F03CFC284632463B46FFF7A5
:105110008FFF2046BDE8F840FFF708BF04100020CD
:105120002C100020F8B50446EFF31187102383F309
:105130001288BFF36F8F037C03F01F02002A0CBF9D
:105140000126002649B235D103F07F03037402F033
:1051500005FC294D037C817363F07F032A460374A9
:1051600052F8183FE869934207D1C4E9002004606F
:10517000EC610DE09842F8D01B68002BF5D093F954
:105180000EC08C45F6DD5968C4E900310C605C60E6
:10519000AC69944200D004B9EC68AB689C4202D080
:1051A000204600F0E9F96C6187F31188BFF36F8F37
:1051B0003046F8BD9B071CD5856802F0CFFB817394
:1051C0002B689D4209D16B68C4E900531C606C6078
:1051D000EAE76A689A42F6D01B68002BF3D093F98D
:1051E0000E208A42F5DD5A68C4E9003214605C6022
:1051F000DAE78173D8E700BF04100020034648B9FE
:10520000EFF3058232B9064A51699268914201D0A2
:10521000FFF78CBE83F31188BFF36F8F704700BF19
:1052200004100020EFF31181102383F31288BFF3E1
:105230006F8F054B9A68D37B013BD37381F3118841
:10524000BFF36F8F704700BF0410002070B5EFF3FD
:105250001186102383F31288BFF36F8F0F4DAB6855
:10526000DA7B0132DA732A4652F8184F944200D0A2
:1052700004B9EC681A7CD20604D1DA897F2A01D9F4
:10528000A2692AB19C4202D0204600F075F923465B
:105290006B613046BDE87040FFF7D8BE04100020B7
:1052A000024B03F11802C3E90622704704100020E4
:1052B00070B5EFF31186102383F31288BFF36F8F5D
:1052C0001A4CA168E0690B68814214BF1A4600229B
:1052D00049680B605960A368E1692AB9144AC3E9B7
:1052E00000210B60E3610AE092F90E5093F90E0081
:1052F000854216DD5168C3E900210B605360A56942
:105300000B4B9D4200D005B9E568A3689D4202D0D1
:10531000284600F031F965613046BDE87040FFF77E
:1053200005BE8A42DAD01268D7E700BF0410002019
:105330001C100020F8B550EA010306460C4603D1C4
:10534000FFF7B6FF0020F8BDEFF31187102383F3BA
:105350001288BFF36F8F124D124BA8681860FFF7C9
:105360003DFEA868104923463246183000F082F905
:10537000AA68137C43F00403137404463846FFF70D
:10538000D5FDAB68D3E90A23B3F1004F08BF002A6B
:10539000D8D102F0FCFB201A20EAE070D3E700BF6E
:1053A000041000202C100020137A0008014B98688C
:1053B000704700BF041000202DE9F8430446878998
:1053C000EFF31186102383F31288BFF36F8F037CF2
:1053D000190705D586F31188BFF36F8FBDE8F883F1
:1053E000D90943F008026FD10274A36813B12046B3
:1053F00002F0BCFA04F1180002F0A1FBA56D04F163
:105400005808A84511D04FF0000975B1284602F0A0
:10541000ADFA05F1180002F092FBC5F87890284625
:10542000FFF79CFDA56DA845EFD1DFF8BC80D8F84B
:1054300008309C4250D1EFF30589B9F1000918BF3B
:105440004FF00109D8F81850284A954200D00DB9FC
:10545000D8F80C50AB4202D0284600F08DF8204618
:10546000C8F8145001F007F8B9F1000F02D0204835
:10547000FFF750FDD8F808309C4230D1EFF3058398
:105480006BBBA289D20711D586F31188BFF36F8F4A
:1054900083F31188BFF36F8F0423184602DFEFF305
:1054A0001186102383F31288BFF36F8F3046FFF706
:1054B0003DFDFB0792D5002383F31188BFF36F8F67
:1054C0000423184602DF89E703F07F0343F0080353
:1054D000037402F043FA88E74FF00009B2E786F35D
:1054E0001188BFF36F8FE4E7041000201C10002028
:1054F000C00B0020D3B5DDE90667089CCDE9006745
:10550000FFF7EEFD1CB1034B9B685B69236002B0A3
:10551000D0BD00BF04100020027C12F01F02034621
:1055200010D10A4988420DD00949086868B1D98963
:105530007F2909D893F90E20064B1B689A42B8BF01
:10554000002070470020704710467047C00A0020B6
:105550002801002030100020044BC01A044BC0105A
:105560005843044B01221A54704700BF400C0020DE
:10557000ABAAAAAA4D10002070B50C4B0C4D1E7C96
:10558000FFF7CAFF182303FB06550446284602F01E
:10559000D6FA084B00229A553CB1621E28460649AD
:1055A000BDE87040D31700F065B870BD041000204E
:1055B000400C00204D1000205955000838B5EFF37D
:1055C0001185102383F31288BFF36F8F0F4B104A9E
:1055D0009C681068A04206D1FFF7CEFF85F31188C2
:1055E000BFF36F8F38BD00211B7C1160094AD35C6B
:1055F000002BF3D02046FFF78FFF0028EED0237C4E
:10560000DB0601D1FFF736FD2046E5E70410002058
:105610002C1000204D100020024B1868984208BF43
:10562000002070472C010020034B1B680BB9FEF7CC
:10563000E3B80020704700BF3410002030B570B1CF
:105640000B4B5B6898420AD0036843B1D3E904214D
:10565000D0E90445121941EB0501C3E90421D0E961
:10566000003213605A600023C0E9003330BD00BF30
:105670002C010020B3F1FF3F08BFB2F1FF3F2DE93D
:10568000F84F0446994615461F467AD08160EFF3DD
:105690001188102383F31288BFF36F8FB9F1000FC5
:1056A000DFF8E4A020DBFFF7BFFFDAE900270135D0
:1056B00049F100092D1849EBE073C4E90453AD1812
:1056C000064643EB07074FF00109FFF7A5FFDFF898
:1056D000BCE0DEF804A00346EBB9C4E900EACAF86E
:1056E0000040CEF8044028E0DAE900126FF0010330
:1056F0005B1A4FF0FF3161EB02025B1B62EB0902A8
:10570000012B72F10001BCBF01230022C0E9043269
:105710004FF00009D9E7D3E9041CD4E904208A42F8
:1057200070EB0C0B24DA891A5A686CEB0000C3E9A1
:105730000410C4E9003214605C60FFF76DFF84421E
:105740000ED1134B1B685BB9B9F1000F02D1FFF703
:105750006BFF0646304602F0DBF90021FDF7D2FF71
:1057600088F31188BFF36F8F28463946BDE8F88F5C
:10577000521A60EB0C005345C4E90420ADD01B68FD
:10578000AAE700252F46EFE7580C00202C01002047
:10579000341000202DE9F0470246EFF31185102365
:1057A00083F31288BFF36F8FDFF89C90DFF89C8043
:1057B000C9F80000FFF730FF00260027D8E90013E2
:1057C0004FEAE27E50B1D0E9044CA2427EEB0C0AD3
:1057D0001BDAA41A6CEB0E06C0E9044652184FF00F
:1057E000000443EB0E032046C8E90023C9F800403B
:1057F00002F08EF92146FDF785FF85F31188BFF38E
:105800006F8FBDE8F047FFF7D9BE611843EBE47333
:10581000C0E90467C8E90013FFF710FF85F311889A
:10582000BFF36F8F83689847EFF31185102383F3DD
:105830001288BFF36F8FD9F80020121BC9F800201F
:10584000FFF7EAFEBAE700BF34100020580C002032
:1058500010B5EFF31184102383F31288BFF36F8F19
:10586000FFF7E2FE054A0346D2E90001181841EBB2
:10587000E37184F31188BFF36F8F10BD580C0020C3
:10588000014800F01ABB00BF908A000838B5064CEA
:10589000064DAC4201D3002038BDD4E901122046A8
:1058A00002F079F91434F4E760010020600100206F
:1058B00007B5074B0093074907484FF0FF334FF4F4
:1058C0008062FFF745FA002003B05DF804FB00BFDB
:1058D0007484000800270020600C00200CB430B550
:1058E0008BB004460D462022002102A802F069F97F
:1058F00002238DF80A30002D0C4B0393069412DB23
:1059000001D06B1E1C440FAA0E99079402A80192A5
:1059100000F00EF815B1069B00221A700BB0BDE81E
:10592000304002B070470024EDE700BF997C0008CA
:105930002DE9F04F8BB04368009383789C07804635
:10594000924640F1F98000250878002800F0F680A2
:1059500025280AD04B1C019301354146009B9847EE
:105960000028C0F2E3800199EEE74E788B1C252ECB
:105970000193F1D00027B9463C460A221F2C22D8B9
:10598000A6F12003102B20D8DFE803F0141F1F1A04
:105990001F1F1F0B1F1F1F121F171F1F090044F07F
:1059A0000104019B13F8016B0193002EE6D13AE04C
:1059B00044F0020444F00404F3E744F00804F0E780
:1059C00044F01004EDE77F2C24D8A6F13003092B16
:1059D00008D860064EBF02FB073702FB093944F0C6
:1059E0002004DEE72A2E0DD161065AF8043B53D479
:1059F000002BA7BF44F020049946C3F1000944F0EE
:105A00002804CEE72E2E05D1630600F1978044F0DE
:105A10004004C6E76C2E2ED028D8682E32D06A2ECD
:105A200037D04C2E35D0002F46F02003B8BF24F0DD
:105A30004004A3F16502BCBFA4B20027022A01D929
:105A4000612B2BD10AF1070A2AF0070A9C4E0AF1B2
:105A5000080A0727210760D506EB070B34465C458B
:105A60005DD1AE1BA219A9EB070959E1742E98D09C
:105A70007A2E96D0D7E7260648BF44F4007444F047
:105A800080048EE7E00548BF44F4007444F4807459
:105A900087E744F4207484E71F4682E7A6F1630297
:105AA000122A00F2D880DFE812F013004D00D60071
:105AB000D600D600D6004D00D600D600D600D600BF
:105AC000D600E800D100D600D6001A00D600A0000B
:105AD0005AF8043B8DF81030012704AEBAE75AF8A3
