:020000040800F2
:1000000068060120E55A0008F7BD0108D15A00082A
:10001000D15A0008D15A0008D15A00080000000047
:10002000000000000000000000000000195B000854
:10003000D15A000800000000095D0008D9920008AC
:10004000995D0008995D0008995D0008995D0008B8
:10005000995D0008995D0008995D0008995D0008A8
:10006000995D0008995D0008995D0008995D000898
:10007000995D0008995D0008995D0008995D000888
:10008000995D0008995D0008995D0008995D000878
:10009000995D0008995D0008995D0008995D000868
:1000A000995D0008995D0008995D0008995D000858
:1000B000995D0008995D0008995D0008995D000848
:1000C000995D0008995D0008995D0008995D000838
:1000D000995D0008995D0008995D0008995D000828
:1000E000995D0008995D0008995D0008995D000818
:1000F000995D0008995D0008995D0008995D000808
:10010000995D0008995D0008995D0008995D0008F7
:10011000995D0008995D0008995D0008995D0008E7
:10012000995D0008995D0008995D0008995D0008D7
:10013000995D0008995D0008995D0008995D0008C7
:10014000995D0008995D0008995D0008995D0008B7
:10015000995D0008995D0008995D0008995D0008A7
:08016000995D0008995D00089B
:1001700001F0FF01102A2BDB10F0070F08D010F858
:10018000013B013A8B422DD010F0070F42B3F6D15C
:10019000F0B441EA012141EA014122F007047FF075
:1001A00000070023F0E80256083C85EA010586EACC
:1001B000010685FA47F5A3FA87F586FA47F6A5FA08
:1001C00087F68EB9EED1F0BC01F0FF0102F0070214
:1001D00032B110F8013B013A83EA010313B1F8D1BF
:1001E0000020704701387047002D06BF35460338A0
:1001F000073815F0010F07D1013015F4807F02BFD9
:10020000013015F4C03F0130F0BC0138704700BF29
:1002100081F0004102E000BF83F0004330B54FEAB7
:1002200041044FEA430594EA050F08BF90EA020F24
:100230001FBF54EA000C55EA020C7FEA645C7FEAB7
:10024000655C00F0E2804FEA5454D4EB5555B8BFDA
:100250006D420CDD2C4480EA020281EA030382EA4B
:10026000000083EA010180EA020281EA0303362DDD
:1002700088BF30BD11F0004F4FEA01314FF4801CB0
:100280004CEA113102D0404261EB410113F0004FC2
:100290004FEA03334CEA133302D0524263EB430379
:1002A00094EA050F00F0A780A4F10104D5F1200E17
:1002B0000DDB02FA0EFC22FA05F2801841F1000172
:1002C00003FA0EF2801843FA05F359410EE0A5F146
:1002D00020050EF1200E012A03FA0EFC28BF4CF077
:1002E000020C43FA05F3C01851EBE37101F000452D
:1002F00007D54FF0000EDCF1000C7EEB00006EEB3A
:100300000101B1F5801F1BD3B1F5001F0CD34908C3
:100310005FEA30004FEA3C0C04F101044FEA44521A
:1003200012F5800F80F09A80BCF1004F08BF5FEAA1
:10033000500C50F1000041EB045141EA050130BD81
:100340005FEA4C0C404141EB0101013C28BFB1F593
:10035000801FE9D291F0000F04BF01460020B1FADE
:1003600081F308BF2033A3F10B03B3F120020CDAB1
:100370000C3208DD02F1140CC2F10C0201FA0CF08F
:1003800021FA02F10CE002F11402D8BFC2F1200CF4
:1003900001FA02F120FA0CFCDCBF41EA0C019040AA
:1003A000E41AA2BF01EB0451294330BD6FEA0404F3
:1003B0001F3C1CDA0C340EDC04F11404C4F12002DE
:1003C00020FA04F001FA02F340EA030021FA04F3F0
:1003D00045EA030130BDC4F10C04C4F1200220FA47
:1003E00002F001FA04F340EA0300294630BD21FA85
:1003F00004F0294630BD94F0000F83F4801306BF4B
:1004000081F480110134013D4EE77FEA645C18BF3E
:100410007FEA655C29D094EA050F08BF90EA020FD5
:1004200005D054EA000C04BF1946104630BD91EACD
:10043000030F1EBF0021002030BD5FEA545C05D1D0
:100440004000494128BF41F0004130BD14F580040F
:100450003CBF01F5801130BD01F0004545F0FE4183
:1004600041F470014FF0000030BD7FEA645C1ABFB8
:10047000194610467FEA655C1CBF0B46024650EAEF
:10048000013406BF52EA033591EA030F41F400211B
:1004900030BD00BF90F0000F04BF0021704730B5A1
:1004A0004FF4806404F132044FF000054FF0000176
:1004B00050E700BF90F0000F04BF0021704730B537
:1004C0004FF4806404F1320410F0004548BF40420C
:1004D0004FF000013EE700BF42004FEAE2014FEA61
:1004E00031014FEA02701FBF12F07F4393F07F4F3C
:1004F00081F06051704732F07F4208BF704793F03F
:100500007F4F04BF41F40021704730B54FF4607451
:1005100001F0004521F000411CE700BF50EA010254
:1005200008BF704730B54FF000050AE050EA0102FD
:1005300008BF704730B511F0004502D5404261EB6D
:1005400041014FF4806404F132045FEA915C3FF4AE
:10055000D8AE4FF003025FEADC0C18BF03325FEA4B
:10056000DC0C18BF033202EBDC02C2F1200300FAFC
:1005700003FC20FA02F001FA03FE40EA0E0021FA21
:1005800002F11444BDE600BF70B54FF0FF0C4CF40F
:10059000E06C1CEA11541DBF1CEA135594EA0C0FC1
:1005A00095EA0C0F00F0DEF82C4481EA030621EAFC
:1005B0004C5123EA4C5350EA013518BF52EA033537
:1005C00041F4801143F4801338D0A0FB02CE4FF0E9
:1005D0000005E1FB02E506F00042E0FB03E54FF019
:1005E0000006E1FB03569CF0000F18BF4EF0010E11
:1005F000A4F1FF04B6F5007F64F5407404D25FEA0D
:100600004E0E6D4146EB060642EAC62141EA5551BF
:100610004FEAC52040EA5E504FEACE2EB4F1FD0C01
:1006200088BFBCF5E06F1ED8BEF1004F08BF5FEA7F
:10063000500E50F1000041EB045170BD06F0004631
:1006400046EA010140EA020081EA0301B4EB5C04DE
:10065000C2BFD4EB0C0541EA045170BD41F48011D6
:100660004FF0000E013C00F3AB8014F1360FDEBFFB
:10067000002001F0004170BDC4F10004203C35DAD7
:100680000C341BDC04F11404C4F1200500FA05F35A
:1006900020FA04F001FA05F240EA020001F00042FB
:1006A00021F0004110EBD37021FA04F642EB060171
:1006B0005EEA430E08BF20EAD37070BDC4F10C049B
:1006C000C4F1200500FA04F320FA05F001FA04F25F
:1006D00040EA020001F0004110EBD37041F100014B
:1006E0005EEA430E08BF20EAD37070BDC4F1200556
:1006F00000FA05F24EEA020E20FA04F301FA05F2BE
:1007000043EA020321FA04F001F0004121FA04F265
:1007100020EA020000EBD3705EEA430E08BF20EA35
:10072000D37070BD94F0000F0FD101F0004640006F
:1007300041EB010111F4801F08BF013CF7D041EAF1
:10074000060195F0000F18BF704703F000465200F5
:1007500043EB030313F4801F08BF013DF7D043EAC6
:100760000603704794EA0C0F0CEA135518BF95EA7C
:100770000C0F0CD050EA410618BF52EA4306D1D103
:1007800081EA030101F000414FF0000070BD50EA22
:10079000410606BF1046194652EA430619D094EAAC
:1007A0000C0F02D150EA013613D195EA0C0F05D196
:1007B00052EA03361CBF104619460AD181EA0301EA
:1007C00001F0004141F0FE4141F470014FF00000A2
:1007D00070BD41F0FE4141F4780170BD70B54FF03D
:1007E000FF0C4CF4E06C1CEA11541DBF1CEA1355BD
:1007F00094EA0C0F95EA0C0F00F0A7F8A4EB05049F
:1008000081EA030E52EA03354FEA013100F0888095
:100810004FEA03334FF0805545EA131343EA12635E
:100820004FEA022245EA111545EA10654FEA002613
:100830000EF000419D4208BF964244F1FD0404F5CC
:10084000407402D25B084FEA3202B61A65EB030528
:100850005B084FEA32024FF480104FF4002CB6EBE5
:10086000020E75EB030E22BFB61A754640EA0C0065
:100870005B084FEA3202B6EB020E75EB030E22BFA5
:10088000B61A754640EA5C005B084FEA3202B6EBE6
:10089000020E75EB030E22BFB61A754640EA9C00A5
:1008A0005B084FEA3202B6EB020E75EB030E22BF75
:1008B000B61A754640EADC0055EA060E18D04FEA33
:1008C000051545EA16754FEA06164FEAC30343EAD3
:1008D00052734FEAC2025FEA1C1CC0D111F4801FA0
:1008E0000BD141EA00014FF000004FF0004CB6E799
:1008F00011F4801F04BF01430020B4F1FD0C88BF38
:10090000BCF5E06F3FF6AFAEB5EB030C04BFB6EB42
:10091000020C5FEA500C50F1000041EB045170BD35
:100920000EF0004E4EEA113114EB5C04C2BFD4EB62
:100930000C0541EA045170BD41F480114FF0000EE6
:10094000013C90E645EA060E8DE60CEA135594EA62
:100950000C0F08BF95EA0C0F3FF43BAF94EA0C0F65
:100960000AD150EA01347FF434AF95EA0C0F7FF4DA
:1009700025AF104619462CE795EA0C0F06D152EA2E
:1009800003353FF4FDAE1046194622E750EA410612
:1009900018BF52EA43067FF4C5AE50EA41047FF423
:1009A0000DAF52EA43057FF4EBAE12E74FEA410286
:1009B00012F5001215D211D56FF47873B3EB6252B1
:1009C00012D94FEAC12343F0004343EA505311F0D8
:1009D000004F23FA02F018BF404270474FF000006A
:1009E000704750EA013005D111F0004008BF6FF0A8
:1009F000004070474FF00000704700BF80F000409B
:100A000002E000BF81F0004142001FBF5FEA4103E6
:100A100092EA030F7FEA226C7FEA236C6AD04FEAE6
:100A20001262D2EB1363C1BFD2184140484041402B
:100A3000B8BF5B42192B88BF704710F0004F40F4DD
:100A4000000020F07F4018BF404211F0004F41F4F9
:100A5000000121F07F4118BF494292EA030F3FD0C5
:100A6000A2F1010241FA03FC10EB0C00C3F12003D8
:100A700001FA03F100F0004302D5494260EB400067
:100A8000B0F5000F13D3B0F1807F06D340084FEAD2
:100A9000310102F10102FE2A51D2B1F1004F40EBC7
:100AA000C25008BF20F0010040EA0300704749002F
:100AB00040EB0000013A28BFB0F5000FEDD2B0FACC
:100AC00080FCACF1080CB2EB0C0200FA0CF0AABFEF
:100AD00000EBC25052421843BCBFD040184370478D
:100AE00092F0000F81F4000106BF80F40000013293
:100AF000013BB5E74FEA41037FEA226C18BF7FEA6A
:100B0000236C21D092EA030F04D092F0000F08BFAB
:100B10000846704790EA010F1CBF0020704712F092
:100B20007F4F04D1400028BF40F00040704712F1D1
:100B300000723CBF00F50000704700F0004343F036
:100B4000FE4040F4000070477FEA226216BF08466C
:100B50007FEA23630146420206BF5FEA412390EA2F
:100B6000010F40F4800070474FF0000304E000BF25
:100B700010F0004348BF40425FEA000C08BF7047D6
:100B800043F0964301464FF000001CE050EA01029A
:100B900008BF70474FF000030AE000BF50EA0102AF
:100BA00008BF704711F0004302D5404261EB41019C
:100BB0005FEA010C02BF84460146002043F0B643C1
:100BC00008BFA3F18053A3F50003BCFA8CF2083AE6
:100BD000A3EBC25310DB01FA02FC634400FA02FCEF
:100BE000C2F12002BCF1004F20FA02F243EB0200F6
:100BF00008BF20F00100704702F1200201FA02FC58
:100C0000C2F1200250EA4C0021FA02F243EB02004A
:100C100008BF20EADC7070474FF0FF0C1CEAD0528E
:100C20001EBF1CEAD15392EA0C0F93EA0C0F6FD04F
:100C30001A4480EA010C400218BF5FEA41211ED02D
:100C40004FF0006343EA501043EA5111A0FB013119
:100C50000CF00040B1F5000F3EBF490041EAD371EE
:100C60005B0040EA010062F17F02FD2A1DD8B3F16A
:100C7000004F40EBC25008BF20F00100704790F0D9
:100C8000000F0CF0004C08BF49024CEA502040EA2B
:100C900051207F3AC2BFD2F1FF0340EAC2507047F1
:100CA00040F400004FF00003013A5DDC12F1190F2F
:100CB000DCBF00F000407047C2F10002410021FAA1
:100CC00002F1C2F1200200FA02FC5FEA310040F1B9
:100CD000000053EA4C0308BF20EADC70704792F032
:100CE000000F00F0004C02BF400010F4000F013A6A
:100CF000F9D040EA0C0093F0000F01F0004C02BF65
:100D0000490011F4000F013BF9D041EA0C018FE7D3
:100D10000CEAD15392EA0C0F18BF93EA0C0F0AD0D9
:100D200030F0004C18BF31F0004CD8D180EA0100FF
:100D300000F00040704790F0000F17BF90F0004F98
:100D4000084691F0000F91F0004F14D092EA0C0F7A
:100D500001D142020FD193EA0C0F03D14B0218BF0D
:100D6000084608D180EA010000F0004040F0FE4053
:100D700040F40000704740F0FE4040F440007047EF
:100D80004FF0FF0C1CEAD0521EBF1CEAD15392EA6E
:100D90000C0F93EA0C0F69D0A2EB030280EA010C5E
:100DA00049024FEA402037D04FF0805343EA1111F7
:100DB00043EA10130CF000408B4238BF5B0042F155
:100DC0007D024FF4000C8B4224BF5B1A40EA0C00FA
:100DD000B3EB510F24BFA3EB510340EA5C00B3EB2C
:100DE000910F24BFA3EB910340EA9C00B3EBD10F1A
:100DF00024BFA3EBD10340EADC001B0118BF5FEA6C
:100E00001C1CE0D1FD2A3FF650AF8B4240EBC25094
:100E100008BF20F0010070470CF0004C4CEA502055
:100E20007F32C2BFD2F1FF0340EAC250704740F4A4
:100E300000004FF00003013A37E792F0000F00F096
:100E4000004C02BF400010F4000F013AF9D040EA14
:100E50000C0093F0000F01F0004C02BF490011F4A8
:100E6000000F013BF9D041EA0C0195E70CEAD153A0
:100E700092EA0C0F08D142027FF47DAF93EA0C0F87
:100E80007FF470AF084676E793EA0C0F04D14B026B
:100E90003FF44CAF08466EE730F0004C18BF31F01D
:100EA000004CCAD130F000427FF45CAF31F0004317
:100EB0007FF43CAF5FE700BF4FEA4002B2F1FE4F64
:100EC0000FD34FF09E03B3EB12620DD94FEA00230C
:100ED00043F0004310F0004F23FA02F018BF4042E5
:100EE00070474FF00000704712F1610F01D14202CC
:100EF00005D110F0004008BF6FF0004070474FF080
:100F0000000070477BB972B90029BEBF00204FF0C6
:100F1000004106E008BF00281CBF6FF000414FF001
:100F2000FF3000F057B8ADF1080C6DE904CE002990
:100F300009DB002B1ADB00F07CF8DDF804E0DDE9CA
:100F4000022304B07047404261EB4101002B1BDBE0
:100F500000F06FF8DDF804E0DDE9022304B0404260
:100F600061EB4101524263EB43037047524263EB32
:100F7000430300F05EF8DDF804E0DDE9022304B08D
:100F8000404261EB41017047524263EB430300F082
:100F900050F8DDF804E0DDE9022304B0524263EBCF
:100FA0004303704753B94AB9002908BF00281CBF42
:100FB0004FF0FF314FF0FF3000F00CB8ADF1080CEE
:100FC0006DE904CE00F035F8DDF804E0DDE9022338
:100FD00004B07047704700BF10F8012B11F8013BB7
:100FE000012A28BF9A42F7D0D01A7047034611F859
:100FF000012B03F8012B002AF9D17047034613F89F
:10100000012B002AFBD1181A01387047430803F05E
:101010005533C01A00F03333800800F033301844E1
:1010200000EB10104FF0013300F00F305843000E6A
:1010300070472DE9F0478C468E46089E15460446BB
:101040001946002B40F0D080724547D9B2FA82F79A
:101050004FB1C7F120030EFA07FC20FA03F3BD409D
:1010600043EA0C0CBC404FEA154EA8B2BCFBFEF89C
:10107000230C0EFB18CC08FB00F943EA0C439945FE
:1010800028D9EB1808F1FF3204D2994502D9A8F10A
:1010900002022B44A3EB0903A4B2B3FBFEFC0EFB3C
:1010A0001C330CFB00F044EA0344A04214D92C1971
:1010B0000CF1FF3304D2A04202D9ACF102032C445C
:1010C000241A43EA02401EB1FC40002334607360DE
:1010D000BDE8F0874246DDE76346F1E7002A79D0B4
:1010E000B2FA82F3002B3FD01946C1F1200302FA75
:1010F00001F52EFA03F20EFA01FE20FA03F343EA99
:101100000E034FEA154E00FA01F4B2FBFEFCAFB23B
:101110000EFB1C201A0C0CFB07F842EA004290451B
:101120005AD9AA180CF1FF3004D2904502D9ACF17B
:1011300002002A44A2EB08029BB2B2FBFEFC0EFBAB
:101140001C220CFB07F743EA02439F4246D9EB18E7
:101150000CF1FF3204D29F4202D9ACF102022B44BF
:10116000DB1B42EA004202E0AEEB020301224FEA3F
:10117000154EAFB2B3FBFEFC200C0EFB1C330CFB78
:1011800007F840EA034398452AD9EB180CF1FF30E1
:1011900004D2984502D9ACF102002B44A3EB08031A
:1011A000A4B2B3FBFEFC0EFB1C330CFB07F744EAB6
:1011B0000344A74216D92C190CF1FF3304D2A742DD
:1011C00002D9ACF102032C44E41B43EA00400F4671
:1011D000114678E71F2188E76046ABE76246BFE724
:1011E0006046DBE76346EFE7734506D916B9002191
:1011F00008466DE7C6E9000EF9E7B3FA83F787B949
:10120000734501D3824207D8841A6EEB0303012091
:101210009C461EB900215BE73846FAE7C6E9004C58
:10122000F8E7C7F1200CBB4022FA0CF51D4320FA69
:101230000CF12EFA0CF30EFA07FE41EA0E014FEA0A
:10124000154900FA07F4B3FBF9F81FFA85FE09FB0C
:1012500018300B0C08FB0EFA43EA00439A4502FAD9
:1012600007F240D9EB1808F1FF3004D29A4502D9B1
:10127000A8F102002B44A3EB0A0389B2B3FBF9F8EF
:1012800009FB183308FB0EFE41EA03418E452CD9B9
:10129000691808F1FF3304D28E4502D9A8F1020380
:1012A000294443EA0040A0FB0298A1EB0E0141450E
:1012B000CE46434602D306D14C4504D2B9EB020ECA
:1012C00068EB05030138002EA4D0B4EB0E0261EBED
:1012D000030101FA0CFC22FA07F34CEA0303F9407C
:1012E000C6E9003196E74046C5E74346D9E7000026
:1012F00070B505460E460CF053F80DA3D3E9002354
:10130000FFF750FE084C2946C4E9000204F118001A
:1013100026720CF01BFC21460448BDE870400022F8
:101320000AF04ABDAFF30080A8770020E8770020DC
:1013300000CA9A3B000000002DE9F04F0468002C21
:10134000C7B007465BDBB42C5BDC554B5C43B42376
:10135000B4FBF3F404F52A2404F56664DFF8448151
:10136000D8F80830029306AD5B682A460321404650
:101370009847061E1DDB4C4B2E68DDF81CB0DFF8CD
:101380002C91A6FB031203FB0B230393049142A3AE
:10139000D3E9002308460399FFF704FE049B059058
:1013A0004FF0FF3A9A45039B79EB03032BD26FF082
:1013B00085063F4A33464FF48071284619F0AEF84F
:1013C0003B4A3C483C4C334601211AF0A2FA2846DD
:1013D0002821FFF78DFF206870B119F0B4FB58B1D8
:1013E00015F8011B2068002951D10D2119F0A2FB2D
:1013F00020680A2119F09EFB47B0BDE8F08F2F4C02
:10140000ACE72F4CAAE7A4FB066304FB0B3B594651
:1014100021A3D3E900233046FFF7C4FDB24579EBA1
:101420000B0B0346C3D3059A824202D26FF0150616
:10143000BFE700220092029A03211668059A4046EF
:10144000B04706460028B4D100943B681D4A4FF4CB
:101450008071284619F062F83B681A4A15480094D2
:101460000321154C19F069FB28461421FFF740FFB2
:1014700020680028C0D019F066FB0028BCD015F801
:10148000011B20680029B0D019F054FBF7E719F0D0
:1014900051FBA5E7AFF3008000CA9A3B00000000B3
:1014A000006A18005CE50108002D3101FFC99A3B74
:1014B000EA06020854EB01083C78002060AE0A00FE
:1014C00060182300030702082DE9F041446A022C4A
:1014D000C2B0064613D88C4A23464FF4807102A846
:1014E00019F01CF88948884A022123461AF011FA9B
:1014F0001E2102A8FFF7FCFE42B0BDE8F0810A2CD5
:1015000014D90A25824A009523464FF4807102A817
:1015100019F004F87E4A7D4800952346022119F00F
:101520000CFB1E2102A8FFF7E3FE2C46794A234656
:101530004FF4807102A818F0F1FF764A7348764D97
:10154000234603211AF0E5F902A81421FFF7D0FE83
:10155000286880B119F0F7FA68B102AC14F8011BE1
:101560002868002940F0B8800D2119F0E3FA2868B6
:101570000A2119F0DFFA316ADFF8A08160A3D3E90C
:101580000023D1E90001FEF7FFFFFFF70FFAD8F8BB
:101590000010634B411A0746186819F0C8FA044650
:1015A000002800F09F8003465E4A4FF4807102A835
:1015B00018F0B4FF5B4A5548234601211AF0A9F9F7
:1015C00002A82821FFF794FE286878B119F0BBFA29
:1015D00060B102AC14F8011B286800297FD10D21ED
:1015E00019F0A8FA28680A2119F0A4FA316ADFF87C
:1015F000388143A3D3E90023D1E90201FEF7C4FFF8
:10160000FFF7D4F9D8F80010484B411A074618687C
:1016100019F08DFA044600286AD00346444A4FF474
:10162000807102A818F07AFF414A38482346012108
:101630001AF06FF902A82821FFF75AFE286878B13E
:1016400019F081FA60B102AC14F8011B2868002976
:101650004BD10D2119F06EFA28680A2119F06AFAA7
:10166000316A344F26A3D3E90023D1E90401FEF700
:101670008BFFFFF79BF939682F4B411A0646186814
:1016800019F055FA0446002838D003462B4A4FF487
:10169000807102A818F042FF284A1C482346012105
:1016A0001AF037F902A82821FFF722FE286800283F
:1016B0003FF422AF19F047FA00283FF41DAF02AC07
:1016C00014F8011B2868B1B90D2119F033FA286804
:1016D0000A2119F02FFA0FE719F02CFA3EE719F05A
:1016E00029FA77E7C8F8007080E719F023FAABE72A
:1016F000C8F80070B4E719F01DFAE1E73E60FBE6B8
:10170000CDCCCCCCCCD47F402407020854EB0108CC
:101710004C070208760702083C78002090780020E9
:101720009C7800209A0702088C7800209878002086
:10173000B30702088878002094780020CC070208BC
:101740002DE9F04F9D4C9E48ADF5037D206019F0CA
:10175000FAF920B19B4D15F8011B002934D19A49A3
:1017600042A8FFF743FC984A9848032119F0EDF985
:1017700042A81421FFF7BCFD206848BB944D2846C1
:1017800019F0E1F900283AD1924942A8FFF72EFC5E
:10179000904A8E48012119F0D8F942A82821FFF774
:1017A000A7FD206870B119F0CEF958B142AD15F817
:1017B000011B206801BB0D2119F0BCF920680A212A
:1017C00019F0B8F90020D6E1206819F0B3F9C2E7A2
:1017D00019F0B9F90028D1D042AD15F8011B2068E5
:1017E00039B90D2119F0A6F920680A2119F0A2F9DA
:1017F000C4E719F09FF9F0E719F09CF9D7E72A69D7
:10180000A9681368744F23F4005313600B684FF4F6
:10181000C0220D21284698477048386019F093F986
:10182000E0B96F4942A8FFF7E1FB6D4A6748012123
:1018300019F08BF942A82821FFF75AFD20680028EB
:10184000C0D019F080F90028BCD042AD15F8011BBA
:1018500020680029AFD019F06DF9F7E7614E6248B2
:10186000306019F070F9E0B9604942A8FFF7BEFB9B
:101870005E4A5648012119F068F942A82821FFF76D
:1018800037FD206800289DD019F05DF9002899D017
:1018900042AD15F8011B206800298CD019F04AF9D7
:1018A000F7E7534D5348286019F04DF9F8B95249FC
:1018B00042A8FFF79BFB504A4448012119F045F923
:1018C00042A82821FFF714FD206800283FF47AAFD2
:1018D00019F039F900283FF475AF42AD15F8011B36
:1018E000206800293FF467AF19F024F9F6E743496F
:1018F000386819F032F9386819F029F9386800F0B9
:101900006BFE3F49306819F028F9306819F01FF96B
:10191000306800F061FE3B49286819F01EF928681C
:1019200019F015F9286800F057FE374819F00BF93F
:10193000F8B9364942A8FFF759FB344A2348012138
:1019400019F003F942A82821FFF7D2FC20680028EB
:101950003FF438AF19F0F7F800283FF433AF42AD49
:1019600015F8011B206800293FF425AF19F0E2F8B3
:10197000F6E7274819F0E7F800284DD1254942A895
:10198000FFF734FB234A1148012119F0DEF842A881
:101990002821FFF7ADFC206800283FF413AF19F0B1
:1019A000D2F800283FF40EAF42AD15F8011B2068B5
:1019B00000293FF400AF19F0BDF8F6E73C780020AD
:1019C000B4E401082E0802083608020854EB0108A6
:1019D00028E40108650802089C78002090E60108C8
:1019E0007B0802089878002074E601089508020830
:1019F0009478002058E60108AF080208ED25000899
:101A0000FD250008C9250008B0E50108C90802083D
:101A100094E50108E30802089E4819F094F8F8B923
:101A20009D4942A8FFF7E2FA9B4A9C48012119F020
:101A30008CF842A82821FFF75BFC206800283FF4BF
:101A4000C1AE19F080F800283FF4BCAE42AD15F8E5
:101A5000011B206800293FF4AEAE19F06BF8F6E7E1
:101A60008F4942A8FFF7C2FA8D4A8C48032119F02A
:101A70006CF842A81421FFF73BFC206878B119F0FC
:101A800062F860B142AD15F8011B2068002976D1DB
:101A90000D2119F04FF820680A2119F04BF8814800
:101AA00019F051F8002870D17F4942A8FFF79EFA3B
:101AB0007D4A7A48012119F048F842A82821FFF709
:101AC00017FC206878B119F03EF860B142AD15F806
:101AD000011B2068002955D10D2119F02BF8206831
:101AE0000A2119F027F8714B0193714B714A724921
:101AF00000930120714B0BF09BFA07A80BF0F0F953
:101B00000025002207AB114611A80BF0C1F80646CC
:101B100000285AD16A4942A8FFF768FA684A5F4824
:101B2000032119F012F842A81421FFF7E1FB206805
:101B300078B119F008F860B142AD15F8011B2068C2
:101B400000293FD10D2118F0F5FF20680A2118F077
:101B5000F1FF5C4A5C4911AB05A80BF0E3F80028E3
:101B60006ED04FF4BE7300904C48584A012118F0D3
:101B7000E4FF4FF0FF300DF5037DBDE8F08F18F066
:101B8000D9FF80E718F0D6FFA1E7514942A8FFF737
:101B90002DFA4F4A4148032118F0D7FF42A81421DB
:101BA000FFF7A6FB206800289DD018F0CCFF002886
:101BB00099D042AD15F8011B206800298CD018F08F
:101BC000B9FFF7E718F0B6FFB7E701350346414A1A
:101BD00000954FF4807142A818F0A0FC3D4A2F48B0
:101BE00000953346022118F0A8FF1E2142A8FFF7F6
:101BF0007FFB42F2107000211CF0A2F80A2D80D168
:101C0000354942A8FFF7F2F9334A2448012118F078
:101C10009CFF42A82821FFF76BFB206800283FF4B7
:101C2000D1AD18F090FF00283FF4CCAD42AD15F8CF
:101C3000011B206800293FF4BEAD18F07BFFF6E7DA
:101C400005A800F0E3FC0CF093FB244B024605A929
:101C500023480BF0A3F818B14FF4C173009083E749
:101C60000CF086FB1F4B024605A91F480BF096F8A7
:101C700018B14FF4C273009076E70CF079FB1B4B60
:101C8000024605A91A480BF089F898B34FF4C373BC
:101C9000009069E778E50108FD08020854EB0108A7
:101CA000170902085CE501083109020881A3000850
:101CB0004DA3000829A2000870770020EBD8010886
:101CC00063090208350802088F090208E5070208BF
:101CD0004C090208AA090208D8090208200A0208C9
:101CE00084770020300A020888770020600B020801
:101CF0008C770020904942A8FFF778F98E4A8F48E8
:101D0000032118F022FF42A81421FFF7F1FA2068FE
:101D100070B118F018FF58B142AD15F8011B2068DA
:101D2000B1B90D2118F006FF20680A2118F002FF52
:101D3000834B009301277EA3D3E90023019711A9C8
:101D400004A80BF093F830B140F28D1300900BE72C
:101D500018F0F0FEE1E77B4E30460CF00FF80CF087
:101D600091F8794B024605A978480BF04BF818B169
:101D70004FF4C9730090F7E675480CF0F3FA0CF0D5
:101D80000FFB744B024605A973480BF03BF8054660
:101D900018B140F299130090E6E60DF1300948467B
:101DA0000BF09EF8DDF84090DDF830800A23C6E99C
:101DB000065349467820C0477061F8B9674942A880
:101DC000FFF714F9654A5D48394618F0BEFE42A88F
:101DD0002821FFF78DFA206800283FF4F3AC18F0B3
:101DE000B2FE00283FF4EEAC42AD15F8011B2068AE
:101DF00000293FF4E0AC18F09DFEF6E77822294672
:101E00001CF002F94FF00C0A4FF0200B73690AFB2B
:101E100005F73B440022C3F808B073693B444946C8
:101E20005A60736903932020C047039BD85173699C
:101E3000DB5900221BBB4A4A2B464FF4807142A853
:101E400018F06CFB464A3D482B46012119F061FD14
:101E500042A82821FFF74CFA206800283FF4B2ACD2
:101E600018F071FE00283FF4ADAC42AD15F8011B2F
:101E7000206800293FF49FAC18F05CFEF6E70135BE
:101E80000A2DC3D1C6E9092549465020C047306212
:101E9000F8B9344942A8FFF7A9F8324A2748012186
:101EA00018F053FE42A82821FFF722FA20680028E4
:101EB0003FF488AC18F047FE00283FF483AC42ADF5
:101EC00015F8011B206800293FF475AC18F032FEAC
:101ED000F6E71EA80AF08CFC07AB032211A91EA886
:101EE00000F09EF818B140F2C11300903CE600905B
:101EF0001D4B144A15491EA80AF084FC18B140F283
:101F0000C313009030E60090184B114A12491EA8E6
:101F10000AF078FC18B140F2C713009024E604A937
:101F20001EA80AF0C3FC18B340F2CB1300901BE6C6
:101F300000CA9A3B00000000400A020854EB010866
:101F40005D260008F4770020640A02083878002033
:101F5000EC770020230B0208F0770020740A0208B7
:101F6000A00A0208C10A0208C914000839130008AF
:101F7000264942A8FFF73AF8244A2548254D03216F
:101F800018F0E3FD42A81421FFF7B2F9286870B1F8
:101F900018F0D9FD58B142AC14F8011B286871BB88
:101FA0000D2118F0C7FD28680A2118F0C3FD1A4951
:101FB00042A8FFF71BF8184A1548032118F0C5FD81
:101FC00042A81421FFF794F9286870B118F0BBFDFE
:101FD00058B142AC14F8011B286899B90D2118F0CA
:101FE000A9FD28680A2118F0A5FD0C4A00231EA8A7
:101FF0000AF0EAFC002164201BF0A2FEF5E718F0CD
:1020000099FDC9E718F096FDE4E700BFF10A020860
:1020100054EB01083C780020300B020880969800B1
:1020200000285DD02DE9F0430C46B3B0002953D011
:102030000546184616461F460AF060FF00284BD09A
:10204000002E49D02A4990220EA81BF0CFFF0EA9DE
:10205000902228461BF0CAFF6C606846EE606C4612
:1020600012F050FA0FCC05F1180CACE80F000FCCB1
:10207000ACE80F000FCCACE80F000FF26C09D9E907
:1020800000892368CCF80030C5E91C896F613B6882
:102090003969B0019847A86020B3002400E0A8681F
:1020A00000EB8410314601340AF0E2FDA642F6D17D
:1020B00005F14C000AF0D2FD0E49AA680023C5E9DB
:1020C00020132AB16A691AB1EA680AB185F8883022
:1020D000002033B0BDE8F0830B2033B0BDE8F083BF
:1020E0000B2070470A20F8E700CA9A3B0000000066
:1020F000F8EC010895C40008F0B593B01A9E8AB1B7
:1021000086B1044650B1D0F880303BB1C0680F466C
:10211000154611F02FFE08B1237A3BB90125284658
:1021200013B0F0BD0B25284613B0F0BD04F1600ECE
:10213000BEE80F000DF10C0CACE80F00DEF800302B
:10214000CCF8003003A80AF0D9FE0028EAD02068B5
:1021500009F058FE002845D06946E06811F08AFE73
:10216000014600283BD120220DEB02001BF04CFF62
:1021700025A3D3E90023DDE900018DF82070FEF7E7
:10218000C1FECDE90902DDE91823CDE91023237A48
:1021900030687168B268012BF36808BF00250BAE88
:1021A000012F0FC621D8D4F880302A4608A89D698F
:1021B00003A90023A8470646002EAFD03146206869
:1021C000002209F0F9FDD4F880300546DB6903A947
:1021D00030469847002DA2D00AF0BAFE9FE70AF0D9
:1021E000B7FE9BE74FF4967599E7B91E0129F6D81B
:1021F000D4F880202B4608A8956903A90022A84797
:102200000646D9E7AFF3008000CA9A3B0000000001
:10221000002800F0C7812DE9F04F056B99B0044606
:10222000002D00F07881994643689246002B00F01B
:102230009580296C002900F0AA80002318461E46CC
:10224000226952F823206AB1E2686F691A4457F88C
:1022500022203AB1296947F821202A6901322A61EE
:10226000256B296C013340F100008B4270F10002B4
:10227000E6D36FF00047CDE90C66CDE90E665AEA69
:1022800009034FF0FF36CDE91267CDE91467CDE9B8
:1022900016670DF1300B00F08E80002900F04681AA
:1022A0000025CDF8149027E0CDE90867236908A937
:1022B00053F8080012F0FAF840F22133984200F087
:1022C000B480002860D1DDE9072C1078DDF8248087
:1022D00018AB03EBC00151E90893CC4578EB03033D
:1022E00004DA0DEB800041E908C80263236B196C26
:1022F00001358D4280F01881236953F825004FEA9B
:1023000085080028F4D007A911F0FAFF0346002839
:1023100040F0068107980278012AC5D10DF11B0112
:102320008DF81B3011F0B2FD002840F0F9809DF8C7
:102330001B30002BB8D023698DF820000DF1200848
:1023400053F82500414612F077F8002840F0E88065
:102350009DF82030002BC9D0256B2EE0C368002BE0
:102360007FF467AF4369002B7FF463AFC369002B31
:102370007FF45FAF436A002B7FF45BAFC36A002B2F
:102380007FF457AF40F2853019B0BDE8F08F6FF0A1
:1023900000434FF0FF32CDE91223CDE91423CDE9FC
:1023A00016235AEA0903CDE90C11CDE90E110DF1FE
:1023B000300B40F0BB800DF1200800220023CDE956
:1023C0000823CDE90A2341460291EA6B05F1340363
:1023D000CDE9003205F1100105F11C0305F12802D9
:1023E000281D15F009F8236B1A6C804612B30025DE
:1023F0002F462E4607E0226942F82530236B1A6CDF
:102400000135954217D2206950F8250007A9002808
:10241000F6D08DF81C6012F00FF80028B4D19DF8AA
:102420001C30002BE7D01F46E8E72369002243F861
:1024300008205BE7174638F0020071D16568024654
:102440003DB1996851F82210002937D00132AA42D3
:10245000F7D3E5684DB1236B0022596951F822107A
:10246000002934D00132AA42F7D3E56945B1236B84
:102470000022196A51F8221091B30132AA42F8D30E
:10248000656A45B1236B0022D96A51F8221081B3E5
:102490000132AA42F8D3E56A45B1236B0022996B59
:1024A00051F8221071B30132AA42F8D3B8F1020FE9
:1024B0007FF46AAF87F00107780065E7236843F887
:1024C0002210656801329542C3D9236BB9E7A3682E
:1024D00043F82210E5680132AA42C6D2236BBCE75A
:1024E000A36943F82210E5690132AA42C8D2236BDE
:1024F000BFE7236A43F82210656A0132AA42CAD2B2
:10250000236BC1E7A36A43F82210E56A0132AA42AD
:10251000CCD2236BC3E74FF4617019B0BDE8F08FE4
:10252000012019B0BDE8F08FDDF81490BAF1010F69
:1025300079F100033ADB4FF0010810AD16AE5BF8FD
:10254000040F08A9A8B111F095FC00287FF41CAF76
:10255000089AAB6809999B1AEA6862EB01029A45EE
:1025600079EB0201BABF53464A464FF001089A463A
:1025700091460835AE42E2D1256BB8F1000F13D079
:10258000B9F1000F0EA3D3E90023ABBF50460020E2
:1025900049460021FEF7B6FCCDE90801CDE90A2342
:1025A00008A911E70B20704741460DE74FF0FF3AAD
:1025B0006FF000494FF00008BFE700BFAFF30080A5
:1025C00000CA9A3B0000000011B9024808F088BA1E
:1025D000704700BF407800208368D96811B1024A73
:1025E00000230847704700BF60E3160011B9024896
:1025F00008F076BA704700BF7078002011B9024821
:1026000008F06EBA704700BF5878002030B50F4D03
:102610009FB004468020286203F0B0FD0023EB61E8
:10262000A86102AD284609F09FFB09F00FFC214686
:102630000246074B0748009509F0FEFA014610B123
:10264000054818F005FD1FB030BD00BFA877002079
:10265000B2060208E8770020C10602082DE9F04F13
:10266000654D6648664EDFF89C81C9B006AF18F02C
:102670007FFA2946614818F076FA634818F078FA2C
:102680003146614818F06FFA604818F071FA414617
:102690005E4818F068FA6868FEF76AFA5C49FEF767
:1026A0006FFB04462868FEF763FA01462046FEF7F2
:1026B000ABF905467068FEF75BFA5549FEF760FB1B
:1026C00004463068FEF754FA01462046FEF79CF9AE
:1026D0000446D8F80400FEF74BFA4D49FEF750FBCC
:1026E0000646D8F80000FEF743FA01463046FEF7EA
:1026F0008BF9484906468860002247480D604C60C7
:1027000009F05AFB38B1454A009040F2051344489D
:10271000022118F012FA43494348002209F04CFB09
:1027200038B13E4A00904FF483733D48022118F0BF
:1027300004FA3E493E48002209F03EFB38B1374AD0
:10274000009040F207133648022118F0F6F92846A7
:10275000FDF7C2FE804620468946FDF7BDFE0446D1
:1027600030460D46FDF7B8FE324E82468B46CDE927
:1027700004ABCDE90245CDE9008932464FF48071C2
:1027800007F1080017F0CAFEC7F804D08CB006ABFA
:102790001A46C3E90689C3E90845C3E90AAB5E6185
:1027A000082342F8103F1E48234D002344F2C00185
:1027B00001F08AF907F10800D7F804D01421FEF7D8
:1027C00097FD286878B118F0BEF960B107F10804E8
:1027D00014F8011B286859B90D2118F0ABF92868C5
:1027E0000A2118F0A7F907F58677BD46BDE8F08FF6
:1027F00018F0A0F9ECE700BFA0770020B0E50108D1
:10280000987700209077002094E5010878E501088A
:10281000002474497877002084770020E5070208B7
:1028200054EB01087C770020887700208077002017
:102830008C770020030802083C7800202DE9F84F2F
:102840000B1FA3EB0009884602F007014FEAD906E7
:1028500003F007030B3129F007090B44D408814426
:1028600004EBD3048368B9F802B09C4228BF1C462D
:102870001BF0010B00AF054616D1EA4688B06A4648
:102880004A4BCDE90538032342F8103F48485B46E0
:102890004FF4C25101F018F9D5468BF31188BFF3FC
:1028A0006F8F0423184602DF3146284618F064F97A
:1028B000304435F83030C01A864217D0EA4688B026
:1028C0006A463C4BCDE90538032342F8103F3848AF
:1028D00000234FF4C25101F0F7F80023D54683F3EB
:1028E0001188BFF36F8F0423184602DF3146284654
:1028F00018F042F98442824622D026D23444284637
:10290000224618F0DEF9B9F8023043F00103A9F8C5
:1029100002302146284618F02FF9261805EBC60389
:102920005B88DB0708D43146284618F06EF932463A
:102930002146284618F0AEF92146284618F021F91C
:1029400001221046BD46BDE8F88F06EB000805EBF6
:10295000C802528812F0010225D14146284618F0DB
:102960000BF950448442ECD8284618F04EF9414601
:10297000284618F001F9A4EB0A0A824507D2321959
:10298000284618F09EF91146284618F0FAF84246F3
:102990003146284618F07EF9B9F8023043F00103B9
:1029A000A9F80230CCE70022CBE700BF870B020872
:1029B00084EB0108AB0B02082DE9F84F8A4600AF03
:1029C000002974D004680E1F361BF50826F0070690
:1029D00004EB0608B8F802B01BF0010B16D1E9466B
:1029E00088B06A46334BCDE90531032342F8103FE6
:1029F00031485B464FF4C25101F066F8CD468BF387
:102A00001188BFF36F8F0423184602DF2946204642
:102A100018F0B2F8284434F83030C01A854217D084
:102A2000E94688B06A46254BCDE9053A032342F8CA
:102A3000103F214800234FF4C25101F045F8002314
:102A4000CD4683F31188BFF36F8F0423184602DF4E
:102A5000B8F8023023F00103A8F8023029462046D6
:102A600018F08AF805EB000804EBC8035B88DA0766
:102A700008D44146204618F0C8F842462946204668
:102A800018F008F9A65BAE1B04EBC6035B88DB07F6
:102A900009D43146204618F0B8F82A463146204677
:102AA00018F0F8F835462946204618F06AF8BD4671
:102AB000BDE8F88FD40B020884EB0108AB0B0208C9
:102AC0002DE9F04F91B08407009302F004030293C4
:102AD000C2F3C20303F10103DDF868A003920546C7
:102AE0000E46059340F09D81041D00284AD101F057
:102AF0000706341DC6F10806009B00275A1E4FF03A
:102B000004084FF0FF3301930497B946BB46434690
:102B10000DB1009921600598002800F3D7809048F6
:102B20000099814203D38F488142C0F0CF8003993E
:102B300011F0020CA4EB050040F0D680B9F10F0FA4
:102B400000F2CF80002D00F0D68009F140010DEB9E
:102B5000010EC0F3870001990EF8200C0EF8101C2E
:102B6000BCF1000F00F0C38060F07F000EF8200C75
:102B7000013709F10109C5F10801043406914FF646
:102B8000DA7E8CE00729B7D86FF01B0011B0BDE8E2
:102B9000F08F7A285BD84B280FD8472857D8292898
:102BA0002ED8252850D052D8202818BF23280CBF53
:102BB0004FF0010B4FF0000B71E04C382E2846D837
:102BC000DFE800F06D4545454545454545454545EA
:102BD0004845454545454545455645484856565658
:102BE0006D486A456D4518481845457F7C48454500
:102BF00048457C0000204FF0000B4FF0040835E002
:102C00002A38C0B2012101FA00F010EA0E0F46D1B5
:102C100010F0625C2CD110EA010B40D06046013C00
:102C20004444B4FBF8F408FB04F425B1A3EB050C11
:102C3000A444B445A8D8002870D00599013905915D
:102C40005AF8041B009163E70199013901914FF093
:102C5000000B24E012F8010C6C2834D112F8023C6D
:102C600000206C2B8346C8D14FF008084346D6E7B6
:102C70000AF1070A2AF0070A0734FAE802BC24F02E
:102C8000070435B106982044B0423FF67DAFC4E951
:102C900000BC08344FF0000B4FF00808434612F810
:102CA000010F002853D0BBF1000F7FF472AF25282D
:102CB000F5D1019B013301934FF0010B4FF0040854
:102CC000ECE7584697E700208346A8E70399880772
:102CD0007FF551AF601B4FF0010CB0F5007FFFF4A2
:102CE0002DAF6FF0150051E74FF0000CF5E7049899
:102CF000013004903DE7BCF1000F01D0013638E708
:102D00000298023600287FF434AF0098CDE90632ED
:102D1000FEF774F9DDE9063206442AE7042B08D1F0
:102D20000AF1040015B1DAF800102160043482467B
:102D3000B5E70AF1070323F0070303F1080A1DB101
:102D4000D3E90001C4E9000108340823A7E7631BA5
:102D5000B3F5806FC5D23DB9A6F10804E01815E7B8
:102D600004E2010804290208029A28609B082B70DB
:102D70009DF81030AAB1EB70AF702FB108A80022F7
:102D8000C5F1010C91450ED1C5F101030DF12008EB
:102D90004FF0000A01930DF1300BD14512D1601BA9
:102DA000F4E66B70E8E710F8013B190608D50CEB68
:102DB000040EB64503F07F033FF6E6AE04F8013B90
:102DC0000132DFE71FB198F90020002A17DB029BD0
:102DD000D3B11AF80B2004F8012B0022019B18191B
:102DE0001044B0423FF6D0AE98F8000004F8010B52
:102DF0000099039220461BF0F9F8039A14440AF153
:102E0000010A08F10108C8E798F8002055F82230B7
:102E10000093029B45F822300098FEF7EFF8421C21
:102E2000DCE76FF00D00B1E62DE9F04F97B000AF91
:102E3000C7E90A3205468A4649B903784678807858
:102E400000EB83002844564524D8A0EB050AD7F8A8
:102E5000803095F80280D7F8804003F00103FB61D1
:102E6000EB787B62B8F1000F0CBF002404F0010482
:102E70001BB1D7F880309A0715D4A4B9FB6A1BB1EF
:102E8000BA6A514628469847564630465C37BD4692
:102E9000BDE8F08F441C2046FEF7B0F80130204416
:102EA0000AF1010ACFE7D7F88030C3F3C0033B62D1
:102EB0002B78BB619B003B616B687B61BB6905EB59
:102EC000830BFB6A002B77D15646D844BCB11C4615
:102ED0001BF8013B55F82300FEF790F8D7F8843033
:102EE000013043B1D7F88830A34282BFD7F884308D
:102EF00023F814000134C3450644E9D1D846D7F875
:102F0000803013F0050F0CBF4FF0020B4FF0010B98
:102F10004FF000097B6A9945B7D298F8013055F80F
:102F200023A0AE4B9A4508F10208C0F04B81AC4B90
:102F30003A6A9A452CBF002301230AB318F8021CF1
:102F40007869FB6218F02EF8FB6AC8B1EA468AB0CD
:102F50006A46A44B05937B69CDE906314FF40073B3
:102F6000ADF82030A04B42F8103FA04800234FF4AA
:102F7000125100F0A9FD023ED54609F10109C9E749
:102F800023B1FB6933B9A6EB0B06F6E7D7F880301F
:102F90009B07F2D55046FEF731F8D7F884304BB195
:102FA000D7F888309C423FBFD7F88420431C22F8D2
:102FB000143001340644E0E7002C69D1B8F1000F69
:102FC0006CD0D7F8803058076BD5C14607F1480060
:102FD000424659461BF00AF80BEB0803FB6000223F
:102FE0000233796A8A425ED3D7F8802095F801B01F
:102FF000F969920704EB0B03DBB254BF4FEA5902A5
:103000000022002940F0A680D7F8801011F0040FAC
:1030100014BF494600216B70A970EA703969BA6A19
:10302000FB6A28469847061EFFF62FAFBB692B7038
:103030007B6AEB704946BA6AFB6A85F801B085F88D
:10304000028007F148009847B0F10009C0F2B6804D
:103050003B697A6A786A03EB4201FB68BA6A4144C9
:1030600003EB4000AAEB0101FB6A98470028C0F27D
:10307000A780B14409EB00064FF0000B07F1380AB6
:10308000A34569D30021BA6AFB6A08469847FCE663
:10309000444607F138004FF0000999E74446C1461D
:1030A0009AE7A14698E713F8016CDFF830C155F8AC
:1030B000260013F8021C6045C0F08A80DFF820C1AA
:1030C0006045386A2CBF4FF0000B4FF0010B38B150
:1030D0007869C7E9013217F065FFD7E90132F0B925
:1030E000BBF1000F1ED0F96949B1611C04F1280041
:1030F00007F13004041904F8206CCCB20FE0D7F8C3
:10310000801049070BD509F1280007F1300C09F1AF
:10311000010100EB0C0909F8106C5FFA81F901322A
:1031200002335EE7D7F880008007DED409F1280C6F
:1031300007F1300EF44409F101000CF8101C07F1FE
:10314000580151FA80F009F102095FFA89F900F893
:10315000106CE4E700215EE71BF80A3087F837308F
:1031600055F82390D7F884302BB3D7F888309B4597
:1031700021D2D7F8843033F81B80BA6AFB6A012168
:1031800007F13700984700281ADB0644B8F1000F12
:1031900006D14846FDF732FF00F101081FFA88F812
:1031A000BA6AFB6A414648469847002808DB06444D
:1031B0000BF1010B64E74FF00008DEE74E4664E6D2
:1031C000064662E63B6A002B3FF4E0AE0023B5E61C
:1031D000386A0028A6D04FF0000B79E704E2010816
:1031E00004290208010C02080400000104EB010894
:1031F00030B50446EFF31185102383F31288BFF333
:103200006F8F044B0FCB84E80F0085F31188BFF359
:103210006F8F30BD0024002001281FB50C4605D05B
:1032200004281DD06FF0150004B010BD1AF038FE50
:1032300042F210720023FDF7B5FE104B5A43C4E969
:103240000001A2606846FFF7D3FF6946204617F0E9
:10325000C6FE18B90A4B0FCB84E80F000020E3E745
:103260001AF01EFE42F210720023FDF79BFE034B84
:103270005A43C4E90001A260F0E700BFA086010044
:1032800050EC0108014B1860704700BFE8080020AF
:1032900080B505460E461746984608F039F90346AC
:1032A00002F08CFDDFF81890044649F800304246E1
:1032B00030463946A84754F8090002F00FFD00BF18
:1032C000100000002DE9F84344690569C76840F221
:1032D0006C73E1170135E41841F10001022D8CBF38
:1032E00000230123E41A61F100010029064607F1D9
:1032F000FF3751DA6FF4C77020184FF4C8724FF0DF
:10330000000361F10001FDF7FDFD264B03FB0044C6
:10331000D6E90083B6684FEAE37C4FF03C0E99464D
:103320006346C6FB0E93A9FB0EC60EFB0366A308FD
:1033300040F26D1E032D0EFB043302463B4434BFA6
:1033400009206FF0020064270544B4FBF7F49920CC
:103350001B1B154C45431CEB080C4FF0050005F1F9
:103360000205B5FBF0F5A2FB04202B4404FB010190
:1033700046EBE87698180D4A41F1000380180C4A94
:1033800063F10003A0FB020102FB031110EB0C0030
:1033900041EB0601BDE8F8834FF4C87200232046D4
:1033A000B1E700BF70FEFFFFB13A02009405F5FFE0
:1033B0008051010010B5FFF785FF024602F0FEFCC8
:1033C0000B460349002444501046194610BD00BF67
:1033D0001400000070B5204B82689A4216DDD0E9D7
:1033E0000016012976F1000503F1010392FBF3F3C6
:1033F0004FEAE3741DDAC91844EB0604C0E900146F
:10340000164901FB03238360012070BD002AFBDA0B
:10341000D0E900410029124EA3EB0203B3FBF6F3FF
:1034200010DA01F100459C4275F100050ADA00202E
:10343000EBE7CD439D426FF00045A5EB0605A541A6
:10344000D9DAF4E7E41A61F1000106FB0322C0E9CE
:1034500000418260D8E700BFFFC99A3B003665C4CF
:1034600000CA9A3B034A536823F0020353600020CA
:10347000704700BF002004E008B541680548836834
:103480001B680C311BB1984700EAE07008BD6FF073
:103490005700F9E764E30108192810B502D90024A0
:1034A000204610BD044B53F8204020461AF045FA40
:1034B0000028F5D1F3E700BF18F00108EFF3118001
:1034C000102383F31288BFF36F8F094B1A683AB940
:1034D000084A116841F4807111601168C905FCD572
:1034E0001A6801321A6080F31188BFF36F8F70473A
:1034F000247900200070004010B5EFF311841023F0
:1035000083F31288BFF36F8F134B1A68C2B9BFF3EE
:103510005B8F124B012253E8001F002903D143E8BF
:1035200000200028F7D1BFF35B8F04D10C4A0D486F
:10353000022118F0E5F984F31188BFF36F8F10BDF5
:10354000012A01BF08490A6822F480720A601A68D9
:10355000013A1A60EFE700BF2479002020790020AB
:10356000300D0208DCEB010800700040084B1A68BF
:1035700042F480721A601A6842F400721A601A6883
:1035800042F480621A60034B034A1A60704700BF1E
:10359000003C0240D00900200024F4002DE9F0474F
:1035A000DFF85480044607464FF0010994FAA4F569
:1035B000B5FA85F509FA05F32E0108EB05156FEA52
:1035C000030A24EA03042B7B63B158F806301B6915
:1035D0006BB94644042273682846196807EA0A074B
:1035E00018F01EF9002CE1D13846BDE8F0872846D6
:1035F00098470028F6D1ECE734EC010810B50F49E4
:103600000F4888B000221AF04DFC00220023CDE9BB
:10361000062300240E23CDE90334CDE90144094BF0
:10362000094900944FF44072084807F0EDFC08493E
:1036300006481AF0E1FA204608B010BD55360008D9
:10364000A828002071390008408F00201024002095
:103650006D0D0208014807F043BA00BF182300208F
:103660002DE9F047804620480F4618F0B1F806468D
:10367000002832D000252846BDE8F087237B83B19F
:103680002368DB680BB120469847636883F806908F
:1036900023681B69CBB9636804221968204618F0B7
:1036A000BFF8013610345445E8D3B8F1000FE2D02A
:1036B000002DDFD02846FFF771FF0546002FF7D019
:1036C000002164201AF03CFBF2E7204698470028CE
:1036D000E1D009FA06F31D43E3E7044CDFF810A03C
:1036E00005464FF00109DEE73879002034EC010887
:1036F00044EC0108014B53F82000704794F0010896
:1037000008B5034608462BB1044A136000F03CFCA0
:10371000002008BD6FF01500FBE700BFEC0800209B
:1037200010B5044C237813B9034807F0D9F90123E5
:10373000237010BD0E8700201823002010B504460A
:103740000B4818F045F85CB1BFF35B8F094B53E8A9
:10375000001F013943E80012002AF8D1BFF35B8F44
:1037600005481AF0ABFB0548BDE8104007F0B8B9B2
:103770003079002034790020A82800201823002068
:10378000064BBFF35B8F002253E8000F43E8002194
:103790000029F9D1BFF35B8F704700BF307900205B
:1037A00070B5FFF7EDFF084C084E0546B44200D354
:1037B00070BD63685B792BB123685B6813B12946E0
:1037C000204698471034F1E734EC010844EC010836
:1037D00010B5044C0449204617F05BFD034B1C60F8
:1037E00010BD00BF8C22002080F001082879002045
:1037F0000D4A0E48002310B513700D4A13600D4A90
:103800004FF47A711360FFF77BFFFFF7E1FF0A4B7C
:103810000A4918468B4200D310BD1A1A5C6812116F
:10382000013222711033F5E70F870020EBB7010852
:10383000307900203479002034EC010844EC010890
:10384000014600220148002317F044BD8C220020CD
:10385000014817F0DBBD00BF8C220020024B01465F
:10386000186817F02EBE00BF28790020014817F015
:1038700063BE00BF8C22002070B5264B187800284C
:1038800046D0FFF7E5FF054600283ED1224B234CEA
:103890001B68002B12DD1AF003FB0A220023FDF740
:1038A00081FBD4E90032C01A40F2E93361EB020136
:1038B000984271F1000101D3FFF772FFD4E90032A1
:1038C00013F57A7342F10002C4E90032BDE870409A
:1038D000FFF7CCBF63685B7923B1236829461B6877
:1038E000204698471034B442F4D32846FFF7B6FF79
:1038F000BFF35B8F0A4B53E8001F013943E8001206
:10390000002AF8D1BFF35B8FC0E7064C064EEAE70A
:1039100070BD00BF0E87002030790020A028002055
:103920003479002034EC010844EC010870B50D4DE9
:10393000297861B90120FFF793FE0B4C0B4EB4427E
:1039400006D3FFF799FF0028FBD101232B7070BD30
:1039500063685B791BB1236820469B6898471034E5
:10396000EDE700BF0F87002034EC010844EC0108AC
:1039700000212DE9F8430846FFF772FE044648B3DC
:103980004FF4FA784FF0000902F018FA1A4B1B4A6C
:103990001B58136033B11A4B1B68092B02DD194801
:1039A00007F09EF8184F002544B12046FFF7F6FDBA
:1039B000044618B94FF0FF384FF0FF39FFF75CFFAE
:1039C000064628B9B5B90F4842464B4607F0C2F83B
:1039D0003546E9E74FF0FF384FF0FF39D4E72B6861
:1039E0009B691BB100221146284698471035BD42FD
:1039F000F5D3E8E7054DFAE7100000002C79002028
:103A0000347900201823002044EC010834EC01082C
:103A100013B5184817F0DCFE174B1B7873B1EFF3A2
:103A20001184102383F31288BFF36F8FFFF724FFF5
:103A300084F31188BFF36F8F02B010BD0F4B1B686A
:103A4000002BF9D050B900220023CDE900230C4807
:103A500042F21072002308F047F8EDE70928EBD195
:103A600007481AF02BFA074802B0BDE8104007F0EB
:103A700037B800BF347900200F8700202C79002050
:103A8000A82800201823002010B5064B1B68044608
:103A900098472146A060044817F099FCBDE8104003
:103AA000FFF7B6BFEC0800208C220020044A054B2B
:103AB0009B1AB1EBD30F34BF52F83100002070478E
:103AC000F4EA010834EC01082DE9F04F8FB004AF9F
:103AD000C1F34A26B8600D4690467B600C0D002E5F
:103AE00061D04FF000090A234FF0040B07F1140ACC
:103AF000FE60C7E90799C7F824900093CDF808B095
:103B0000CDF804A007F11C03F9684A464046FFF7C8
:103B10008BF9B0F5006F03461CD36C468AB0D8F819
:103B2000041004AB2448C3E9050140F2FF71D961D8
:103B30001A464FF400711984204B42F8103F204878
:103B40004B464FF41251FFF7BFFFA5462C37BD4639
:103B5000BDE8F08FC0F30A0604F11700184420F006
:103B6000070080083B60FFF76BFE66F353250446B1
:103B700080B13B68134A00F11001C7E90839F961C7
:103B8000CDE901AB0A230093F96807F11C03404615
:103B9000FFF74AF966F353257B68B9682A46204641
:103BA00017F05EFED2E704F1170020F0070080084E
:103BB000FFF746FE0446EDE77E0D02080400000113
:103BC0005CEB010833B801082DE9F04F87B0DDE95F
:103BD000127ADDE9106B0546884614469946BFB156
:103BE0001021CDF800A03B465A460020CDF814A085
:103BF000FEF766FFB0F5006F01460BD3194A1A486D
:103C000040F2FF73022107B0BDE8F04F17F081BE0C
:103C10003946384604F0070305F00704E40044EA97
:103C2000831444EA402444EA065406F11700084489
:103C300020F0070080080391FFF702FE054640B11F
:103C40003FB10399CDF800A03B465A461030FEF72D
:103C500037FF4B4622464146284607B0BDE8F04FA5
:103C600017F0FEBDBD0D02085CEB0108406820B1F5
:103C7000034BC01A40F3CF0070474FF0FF3070473E
:103C8000F4EA01080EB403B503AB014653F8042B64
:103C90000448019302F018FA02B05DF804EB03B097
:103CA000704700BF75B90108CA0605D48B064CBF22
:103CB00002490349FFF7E6BF704700BF3408020816
:103CC000330802082DE9F04F89B09846159B0693FA
:103CD000DDE916A39DF85090189F059204460D4605
:103CE0000493B9F1000F00F0B08007F480730793DC
:103CF00017F094FD07F0020B0246002874D07849B3
:103D00002046FFF7BFFF0646BBF1000F08D017F0B3
:103D1000440F6BD173492A462046FFF7B3FF064490
:103D200007F0010353B1704B704953F82920704BD1
:103D30002046002A08BF1A46FFF7A4FF07F4807345
:103D4000002B07F0080318BF4FF00008002B79D0B4
:103D5000684B694953F829202046FFF793FF054631
:103D6000059B2BB165491A462046FFF78BFF05449A
:103D7000B8F1000F05D0624942462046FFF782FFA6
:103D8000054460483544069B1BB15F49224617F045
:103D9000D8F8049B002B00F08E80DDF810803946A7
:103DA000B8F1100F204628BF4FF01008FFF77CFF36
:103DB0000026B54250DC002633461AF8032053494A
:103DC0002046FFF75FFF0136102E4BD0710703D15D
:103DD0004F492046FFF756FF46453346EDD34D4940
:103DE0002046FFF74FFFEEE706468DE74A4B18687F
:103DF000002894D0494B4FF47A7B1B68B5FBF3F550
:103E00004FF46163B5FBF0F100FB11550BFB05F5B9
:103E10004FF03C0CB1FBF3F203FB1211B5FBF0FECB
:103E2000B1FBFCF300FB1E550CFB13110BFB05F55E
:103E30000091B5FBF0F53A49CDE901E52046FFF7E1
:103E400021FF6CE707F008058AE7B8F1010F0CBF06
:103E50002C4834484D4696E72D492046FFF712FF7F
:103E60000136A6E7304920460026FFF70BFF334610
:103E70001AF803202D49A2F120035F2B28BF2E2220
:103E80002046FFF7FFFE0136102E0DD0720703D13A
:103E90001F492046FFF7F6FEB0453346E8D81C49D7
:103EA0002046FFF7EFFEEEE7049BB3EB0803C244A6
:103EB00004937FF472AFB9F1000F0AD0FB0704D569
:103EC0000B4A0A492046FFF7DDFE39462046FFF738
:103ED000EBFE204609B0BDE8F04F17F03EBD00BF35
:103EE000FA0D0208FE0D0208A4F00108FB1F0208EB
:103EF000F50D0208B8F00108230E0208290E020889
:103F00002D0E020875B90108C9600008320E0208BA
:103F10003A0E0208380E0208407900203C79002051
:103F2000070E0208ABB901083C0E02083E0E02085B
:103F300073B542F20F738B4228BF0B4605680F4AD8
:103F400004460521684616F0E9FA63680C495B6887
:103F500006460B22284617F0F2FC63683246694693
:103F600028465B6817F0EBFC636806495B681B2218
:103F7000284617F0E4FC02B070BD00BFB219020879
:103F80003A2702081E270208074A0021012390420F
:103F900006D8064A01B901231360054B1860704723
:103FA00040085B000121F2E740420F003C7900200D
:103FB00040790020F8B5074F0D4604464618B44234
:103FC00001D12846F8BD14F8011BBB6801485B68A5
:103FD0009847F4E798E40108014B0360002070471C
:103FE00000F10108F0B40D4B0D4E5F6A0D4BB3426A
:103FF00003D36FF08500F0BC70475C68BC420AD305
:104000001D6945B194F802C08488E4B2A44502D188
:104010002B46F0BC18472433E9E700BF7079002035
:10402000FC230020D82300202DE9F047144CDFF8B2
:104030005480DFF8549005460E461746444503D396
:104040006FF08500BDE8F0876268D9F824309A42A5
:1040500013D3A3698BB1A9889078C9B2884205D1DE
:104060003A4631462846BDE8F04718475279012ABA
:1040700003D13A463146284698472434DEE700BF4C
:10408000D8230020FC230020707900202DE9F04186
:104090000B4CDFF8308005460E461746444502D3E8
:1040A0006FF0850009E063690BB92434F6E73A46FE
:1040B0003146284698470028F7D1BDE8F08100BF77
:1040C000D8230020FC230020024B00221A605A60F3
:1040D000704700BF2B7A002070B50B4B0B4CA342EE
:1040E00001D3002070BD196A1E7F00220439D5B2A9
:1040F000AE4201D82433F2E7013211F83250854242
:10410000F5D10120EEE700BFD8230020FC230020DA
:1041100073B58488E4B263060D468DF8074007D076
:104120002046FFF7D9FFB0B1144B93F8BA0090B115
:10413000124E95B1124A13482346032117F0B2FCE0
:104140009DF8070002F01AFCF3691BB10DF107019D
:1041500008209847012002B070BD0B4A0948234649
:10416000032117F09FFC9DF8070002F029FCF3697A
:10417000002BEFD00DF107010920EAE7707900204C
:104180007B0E02081CEC01088E0E020808B50346DF
:10419000034A0448012117F085FC002008BD00BF38
:1041A000A30E02081CEC010838B5054602F05EFCBF
:1041B00010F1780F044611D10D4A0E482B4602210A
:1041C00017F070FC284617F06FFC0B4AD2F8C43089
:1041D00023EA0003C2F8C430002407E00028F1D02D
:1041E000064A04482B46012117F05CFC204638BDE6
:1041F000BE0E02081CEC010870790020DF0E0208D8
:1042000008B509480378C3F341130A3350F8233043
:104210003BB100F1080200F110019847C043C00F04
:1042200008BD1846FCE700BF7079002004282DE97E
:10423000F74FDFF89C9004460F4615D001282FD188
:10424000DFF8908098F8B93053B300F0ABFE224D00
:104250004D4522D22A6A4FF0000A2B7F5FFA8AF678
:10426000B34204D82435F3E7FFF72EFFE8E702EB6B
:10427000C6060192307902F0F9FB8346307917F0D7
:1042800013FCD8F8C430019A23EA0003BBF1000FF5
:10429000C8F8C4300AF1010ADFDA002388F8B9301F
:1042A0000D4D4D4508D30B4B1B6A6BB1394620466B
:1042B00003B0BDE8F04F1847EB681BB13A46214602
:1042C000284698472435ECE703B0BDE8F08F00BFDF
:1042D000FC23002070790020D823002073B5044609
:1042E00080788DF8000023796279294D43EA022312
:1042F000ADF80230E37803F003038DF8043017F0D3
:10430000D3FBD5F8C430184206460CD0A47820461A
:1043100000F02AFE2046FFF747FF19F067FC10B9AE
:10432000962019F026FD684617F025FE10F1780F4B
:104330009DF800301BD1174A1748022117F0B2FB35
:104340009DF8000002F062FB10F1780F19D19DF882
:104350000030124A1048022117F0A4FBD5F8C430EF
:104360000120334385F8B900C5F8C43007E00028C0
:10437000E6D00B4A0848012117F094FB002002B058
:1043800070BD0028EAD09DF80030064AF2E700BF71
:1043900070790020010F02081CEC0108480F020888
:1043A000240F0208680F02082DE9F047A94EB369EF
:1043B00004460F4690466BB9237803F01F03012B88
:1043C00000F0A280022B00F0078143B16FF01500CE
:1043D000BDE8F08798470028EED10020F8E794F96F
:1043E00000206178002A2FDA062910D00829D8F891
:1043F000002024D00029E9D101231370517096F8D0
:10440000C3305B0043F001031370022320E1628894
:10441000100A011F01290546D8D90728D6D8D1B2DC
:10442000726A1478002CD1D05678AE4203D19942EA
:1044300000F0088101332244F3E7137808E196F88D
:10444000BA301370012303E101390829BED801A352
:1044500053F821F0EF440008CD430008FF44000862
:10446000CD43000879440008CD430008CD4300083F
:10447000CD430008874400086088C0B202F0C8F944
:104480000028AAD0A2E763883BB1FF27756A002005
:10449000B8462B786BB9002898D0FFF715FE6388D3
:1044A00086F8BA30F369002B97D06B490320984700
:1044B00093E76B78042B0DD0052B0ED0022B06D181
:1044C0006F796388BB4208BF40F00100C0B22B780F
:1044D0001D44DEE795F80380F9E76388BB42F6D117
:1044E000B8F1000FF3D12846FFF7F8FEEFE7638835
:1044F000012B7FF46BAF002386F8C3306DE7638830
:10450000012B7FF463AFF7E796F8BA30002B3FF446
:104510005DAFA388756A5FFA83FC2A46117800298B
:104520003FF454AF5078022804D192F804E0E645F5
:1045300000F294800A44F1E70A704A7038604CE750
:10454000154499E00B2A7FF441AF00274FF0FF0894
:10455000C146BA4606E06B78042B0FD0052B21D05C
:104560002B781D442B78002BF5D1F36913B15146FC
:1045700007209847002F7FF430AF27E795F8028097
:10458000A38895F803909845EAD163889945E7D1C7
:10459000B8F1070F1DD806EB0803AA4683F8BB90B5
:1045A0000127DDE7A3884345DAD16388DBB24B45B9
:1045B0000AD0AF78384600F0D7FC3846FFF7F4FD54
:1045C000B0FA80F77F09CBE72846FFF787FE07465A
:1045D000C6E7AA460027C3E794F900206378002ABB
:1045E0001ADA002B7FF4F2AEA388DDB25B060AD0A4
:1045F0002846FFF771FD00283FF4E8AE96F8BA3080
:10460000002B3FF4E3AED8F800402846214617F0CF
:10461000CEFC00236370F8E6012B08D0032B7FF457
:10462000D5AE6388002B7FF4D1AE012103E0618811
:1046300000297FF4CBAE2046FFF76AFD00287FF407
:10464000CCAEC3E60228C8F800207FF4F6AE53884B
:104650003B60C2E6707900202A7A002094F90010AD
:1046600062780029BFF66EAFD8F80010002A3FF438
:1046700063AF0A2A7FF4AAAE2A78002A3FF4A6AED6
:10468000687804287FF45CAFA87883427FF458AF41
:10469000072B96BF9B19002393F8BB300B70D1E614
:1046A0002DE9F84305460F469046994604264B46A9
:1046B00042463946284602F007FA10F10B0F04462D
:1046C00009D1064A06482B46022117F0EBF906F0FD
:1046D000A1FE013EEBD12046BDE8F883890F020818
:1046E0001CEC010813B5164C237DF3B9E268A168F0
:1046F000019201AB8020FFF7D3FF019AA368134416
:10470000A360E3689B1AE3606BB962B12369E28836
:104710009A4208DD94F8C82093FBF2F102FB1133B2
:104720000BB90123237502B010BD00231A461946A8
:104730008020237502B0BDE8104002F0C5B900BF6B
:10474000707900207FB500230D46019306460028AE
:1047500062D100293AD108220B460DEB020117F075
:1047600033FC002804DA802002F008F904B070BDA0
:104770002E4C029A2260039A626004F13802A26011
:104780009DF90820BDF80E302575002AC4E90355AF
:104790000FDB802B09D9264A2648012117F0B0F8F3
:1047A000802002F0EBF82846DEE713B1C4E90333BA
:1047B000DCE7FFF725FD0028D5D0E28823699A427F
:1047C000D4BFE260E360FFF78DFFCFE7174CD4E979
:1047D0000212002A01AB05DC024617F0F5FB0028A7
:1047E000C4DAC0E717F0F0FB002804DA802002F0FA
:1047F000C5F83046B8E7019AA3681344A360E3689C
:104800009B1AE360002BB1D104F13803A360FFF7DA
:10481000F7FC0028D7D1A6E78028A7D1034BDA6898
:10482000002AD0D11B7D002BCDD19FE770790020CD
:10483000B00F02081CEC0108054B064A9A62064AB2
:10484000DA62064A1A63064A58629A610020704783
:1048500070790020A9430008E53F00088D4000085A
:10486000294000082DE9F34104464C4D4C484FF0D7
:10487000FF334FF0FF3206F071F895F8B8306BB1A6
:10488000484A4948022117F03BF86FF07704444842
:1048900006F0D6F8204602B0BDE8F0816E6A6EB927
:1048A00000F0D4F8FFF7C8FF6E6A3EB93F4A3E48B1
:1048B000012117F025F84FF0FF34E8E73C482C625F
:1048C000E86101F09FFF01F0B3FE041EDFDB00F0A2
:1048D0008BFB041EDBDB7378012B01D1F3793BB931
:1048E000344A3148012117F00BF86FF01504CEE778
:1048F0000026684685F8C830ADF802308DF80460AF
:104900008DF8006017F037FB041EC0DB8027684677
:104910008DF8007017F02FFB041EB8DB26493046D7
:1049200017F01EFB041EB2DB2349384617F018FBB4
:10493000041EACDB214CDFF8888044451AD30020EC
:1049400002F064F8041EA2DBD5F8C430802043F0E6
:104950000103C5F8C43002F059F8041E97DBD5F8FE
:10496000C43043F48033C5F8C430012385F8B8302F
:1049700000248CE7276A0026227FF3B29A4201D8EE
:104980002434DAE707EBC30257F83310107917F035
:10499000E7FA01360028EFD08DE700BF70790020DC
:1049A000EC220020C90F02081CEC0108EC0F0208E1
:1049B0002D4200081110020845470008D8230020A6
:1049C000FC23002030B51F4B8BB005AA03F1100566
:1049D00018685968144603C40833AB422246F7D11D
:1049E0001B78237001AC10220021204619F00CFB2B
:1049F00012220021144819F007FB1021204603F071
:104A000089F900281ADD0828B8BF082009380E4A9D
:104A10000444002114F8013F0AA800EB131003F02E
:104A20000F0328336B44013110F8140C13F8143CB5
:104A300010700829537002F10202EBD102480BB04A
:104A400030BD00BF4B100208128700202DE9F04F47
:104A5000884B87B093F800A000AFBAF1000F04D0E4
:104A600085481C37BD46BDE8F08F834C00264FF0CB
:104A70000119FE603546B04623783BB97F4B0234BE
:104A80009C42F3D17B4A01231370E9E76378052B3D
:104A900005D8DFE803F0AE0703AE1E4FA04623782B
:104AA0001C44E9E7402307F1100087F810A07B823F
:104AB00087F814A001F048FF40B1082307F1100067
:104AC0007B8201F041FF08B1A7F812A07B8AE37155
:104AD000E5E7E378002BE2D1A37813B3FB68013359
:104AE000DBB2FB60DBE76B689C421CD02435644B77
:104AF0009D42F8D36D4688B06A46624BCDE90534D5
:104B0000032342F8103F604800234FF4C251FEF7E0
:104B1000DBFFAD465C485D4A012116F0F1FE002046
:104B20009FE75B4DE3E7AB68002BD7D0F9682046E1
:104B30009847D3E7002D5AD1564A5348012116F021
:104B4000DFFEE7E72B6AA07803EBC2010B799842FE
:104B500047D14FF0010BE07894F805C000F0030056
:104B60003875207940EA0C20788294F902000028F8
:104B70005FFA8BF328DA0BF110004FF0010C0CFAFE
:104B800000F010EA090F27D143F08000387407F1D4
:104B90001000C7E90031BA6001F0D6FED7E9011272
:104BA0003B68C8B93A7CA27012F0800F18BF10336E
:104BB0000A7118BFDBB24FF0010214BF9A4002FA2B
:104BC0000BF249EA02096AE7012000FA0BF010EA49
:104BD000090F01D11846D9E70BF1010BBBF1100FFA
:104BE000B9D101322B7F9A42ACD32B4AA5E70022E0
:104BF000F8E7032E24D1FFF7E5FE8346A0B1FCF7CA
:104C0000FDF9034680B1102806D0B860234A1E483B
:104C1000022116F075FEBB68102BA8BF10231A46A0
:104C20005946A01C19F0E2F923786FF002011A1915
:104C3000091B04EB5303D14209D50136F6B22EE726
:104C4000002EF1D1B8F1000F08D1154A75E702F82E
:104C500001AC13F8010902F8020DECE7A4EB08031C
:104C600088F80230C3F3072388F80330FB6888F81C
:104C70000430E2E71187002030230020D7230020F2
:104C8000FC2300205C10020814EC01084211020809
:104C9000D82300207C100208BD100208DA10020898
:104CA0002511020810B5094B00211A461C788442D0
:104CB00005D15C681CB1482303FB012010BD013104
:104CC000042903F14803F1D10020F7E73C7A0020E2
:104CD0002DE9FF4150F8303C10F8346C1033044695
:104CE0000AD1036950F8282C98073DD5D2B9590745
:104CF00015D5002344F8303C54F8303C10330BD029
:104D000054E9097554F81C8C18F070FF002857D02E
:104D10003248214618F035FF04B0BDE8F08143F079
:104D20000403236103AB54F82C1C3046FFF7B8FC96
:104D3000034640B12A4A2B480096012116F0F3FDA4
:104D40006FF01503D6E7039A54F82C3C134444F84B
:104D50002C3C54F8283C9B1A44F8283C54F8243C3A
:104D6000134444F8243CC7E703AB54F82C1C3046EA
:104D700001F014FF03460028DCD1039D54F82C3CBD
:104D80002B4444F82C3C54F8283C5B1B44F8283C4A
:104D900054F8243C2B4444F8243C002DA9D0304640
:104DA00017F020F9B5FBF0F303FB1055002DA0D14F
:104DB00054F8283C002B9CD0304601F037FF9BE78D
:104DC00044F8200CA4F1180005F08AFE002DA3D0B1
:104DD000424639463046A8479EE700BFE0280020FB
:104DE0007011020824EC01084B1E012B73B5064616
:104DF0000D4614D8FFF756FF044690B9012D0ED189
:104E000001AB01220DF10301304601F0C7FE019B09
:104E1000002BF5D10C4A0D48012116F071FD02B0AE
:104E200070BD18F0E3FE04F1340108B1012D05D185
:104E3000084602B0BDE87040FFF74ABF044802B020
:104E4000BDE8704018F09DBE8D11020824EC0108E9
:104E5000E02800202DE9F74F0646019117469846B5
:104E600016F063FE044600286FD1EFF31183009320
:104E7000102383F31288BFF36F8FDFF8D4900022E2
:104E80000023484605F066FEA0B9DFF8C8A0482216
:104E900062430AEB020BDBF8045015F1100F1ED130
:104EA0002D4A2E483346012116F033FD484605F0C1
:104EB00017FE0BE00134042C09F14809DFD1284A20
:104EC0002648012116F01CFD6FF00B05009B83F3B3
:104ED0001188BFF36F8F284603B0BDE8F08F0AF842
:104EE00002600C9A019BCBF814200D9ACBF81000AD
:104EF000CBF8182030466FF00F02CBE90237CBF821
:104F00004480CBF8042017F06DF868B1304617F0F4
:104F100069F8B7FBF0F202FB10772FB1DBF8442001
:104F200042F00402CBF8442018F0020F08D04823C6
:104F300003FB04A10B48343118F023FE0025C5E71C
:104F4000304601F073FE0546C0E76FF00F05C2E77B
:104F5000587A00203C7A0020C211020824EC010893
:104F6000A7110208E028002010B5EFF311841023E8
:104F700083F31288BFF36F8FFFF794FE50B143683D
:104F8000103307D16FF08B03436000F13401044804
:104F900018F0F7FD84F31188BFF36F8F10BD00BFC9
:104FA000E0280020F8B50E4C04251027EFF31186F9
:104FB00087F31288BFF36F8F6368103307D16FF0E8
:104FC0008B030848636004F1340118F0DAFD86F3BE
:104FD0001188BFF36F8F013D04F14804E6D1F8BD9D
:104FE0003C7A0020E028002038B5094C002509490A
:104FF000204618F09BFD0122A4F11800114601354E
:1050000018F012FD042D04F14804F0D1002038BD41
:10501000707A0020D14C00080169012381F84B30DF
:105020000B6833B191F849301BB10248083118F0D0
:10503000A8BD7047E02800200169012381F84A30AB
:105040000B6833B191F848301BB10248083118F0B1
:1050500098BD7047E028002070B50569EFF3118610
:10506000102383F31288BFF36F8FD5F8900016F0EA
:10507000CAFA044686F31188BFF36F8F30B1044833
:105080000022002305F1180105F006FF204670BD3F
:10509000E028002070B5012382F8483013680D46DF
:1050A00014463BB192F84A3023B10E4802F1080190
:1050B00018F067FDD4F89030DA885B899A4205D100
:1050C0007DB904F118014FF47A7204E004F118017B
:1050D000002DF8D00022BDE870400248002305F002
:1050E000DBBE70BDE028002070B50E468188044606
:1050F000C9B21548154616F0F4FC10B394F9002017
:105100006378002A16DB202B04D0222B0ED06FF000
:1051100085000AE02B681A6840F8102C9A8820F85D
:105120000C2C9B7900F80A3C002070BD638800F8C5
:10513000093CF9E7212BEAD11038072328603360B6
:10514000F2E76FF01200F0E7607B002008B501463F
:10515000034816F0D4FC10B1012300F8073C08BD49
:10516000607B00200D4A03460021A0F8481010681B
:10517000C3F8940090889279A3F8980083F89A2055
:1051800083F89C1083F89B10A3F89E1083F8A0105E
:10519000402203F14C0018F037BF00BF92EC010829
:1051A00010B504690023C4F8A8300C4BC4F8A4005F
:1051B000596804F1A80269B9C3E9002204F10800A2
:1051C000074918F0B3FC04F11800064918F0E9FC8F
:1051D000002010BD0A605A60F0E700BF607B00202D
:1051E00055BB0108B152000830B54FF40033426896
:1051F00005690D4C85B042F2A100CDE90103002301
:1052000085F89D30106AADF80C1000790A2201A9CA
:10521000FFF746FA95F89D3023B9012018F067FB97
:10522000013CF7D105B030BDA186010073B504691A
:105230008DF80710002384F848301025EFF311860D
:1052400085F31288BFF36F8F0122D4F890000DF11F
:10525000070116F0D8F986F31188BFF36F8F012884
:1052600010D018F0C3FCB0B10F4BBFF35B8F01221D
:1052700053E8001F002903D143E800200028F7D19C
:10528000BFF35B8F0A22002304F11801074805F0E1
:1052900003FE02B070BD94F8A130002BE4D00021D1
:1052A0000A2018F04DFDC9E75C7B0020E0280020B3
:1052B000F0B5D0F88C305B681B6A1F7D85B0054661
:1052C000384616F032FC064650BB95F886303BB3A4
:1052D000A86F0146C38831F80A2F9B1A9BB2B3F519
:1052E000807F28BF4FF4807303AA16F03DF904466F
:1052F000B0B18306A5F1180308BF00F1FF3485F8AB
:1053000030600193074B03990093224602233846ED
:10531000FFF7A0FDA86F224600F10A0116F05AF926
:1053200005B0F0BD9550000837B514460A1E054675
:1053300021DDD4F88C0004F14C0116F064F901234E
:1053400084F8493023683BB194F84B3023B11148BD
:1053500004F1080118F015FCD4F88C209388918989
:1053600012695B1A9BB2D31A3F2B04D8012384F82D
:10537000A03003B030BD94F89E30002BF9D0064B1E
:10538000009301940123402204F14C012846FFF7C9
:1053900061FDEEE7E02800202953000873B50D46B3
:1053A00001461D4816F091FB044610B3691EA0F19A
:1053B000A40605291DD8DFE801F01E1C031E2428C1
:1053C00010F8061CA9B903685D68012300F8063CC3
:1053D0002B6A3246187BFFF7A7FF14F85C2C42B902
:1053E0002B6A187D0D4B0093019602231146FFF79F
:1053F00031FD02B070BD304602B0BDE87040FFF72D
:10540000B1BE012304F8053CF3E710F8053C002B7E
:10541000EFD00023F6E700BF607B00209550000826
:1054200013B500240749084800944FF0FF334FF4A8
:10543000806205F0F1FC0549034818F0DDFB2046C9
:1054400002B010BD80920020E02800200212020865
:1054500037B504698DF8071063680546ABB9BFF32B
:105460005B8F1C4B012253E8001F002903D143E846
:1054700000200028F7D1BFF35B8F04D1164A1748EC
:10548000022116F03DFA03B030BD18F0AFFB30B981
:10549000D4E901329DF8071028469847F3E7002326
:1054A00000220DF1070104F11C0018F0A7FA0346D1
:1054B00020B10B4A0948022116F02BFA04F10C0026
:1054C00005F0A4FC031EDEDA064A0448012116F0AA
:1054D00020FAD8E7687B00200B120208CCEB010809
:1054E0001B1202083B12020810B5046904230122B2
:1054F00004F1500104F11C0018F06CFA04F10C00E6
:10550000024918F013FB002010BD00BFB1BD010817
:1055100008B50348034A0021121A16F064FC08BDBE
:10552000002400203C8F00200748084A084908B59D
:10553000121A16F05AFC0748074A0849BDE8084005
:10554000121A16F052BC00BF00000020FC230020FD
:10555000042902080000002000000020042902089D
:105560002DE9F047064600AF0C46002936D0E94643
:105570008AB0D1E90012A3686D462148E8464FF091
:10558000050ACDE90501CDE9072348F810AF1D480C
:10559000424600234FF42151FEF796FACD46D4E956
:1055A00003126369AD461848C5F810A0C5E90501A6
:1055B000C5E907231348002342464FF42151FEF763
:1055C00083FACD46E369114A0E48012116F0A1F98C
:1055D000A3690F4A0B48012116F09BF9012E07D150
:1055E000EFF305830B4A0748103B314616F091F95B
:1055F0002146304604F026FFBD46BDE8F08700BFD7
:10560000751202087CEB0108A4120208D3120208EA
:10561000E21202081013020830BFFFF7FDBF00BFFF
:105620002DE9F0410B4EDFF8308006EB0807CC1B6C
:10563000054632460949204618F0D8FCA0194246D2
:105640000021083C18F0E0FCC5F8844007F1080090
:10565000BDE8F081080000000800000048EC0108E7
:1056600010B5204C2049214816F0CCFBA36A9901C3
:1056700036D51E481E4916F0C5FB1E20A36ADA0166
:1056800004D51A481B4916F0BDFB1F20154CA36A10
:105690001B0304D51548184916F0B4FB2120A36A52
:1056A000590304D51148154916F0ACFB22200D4CC6
:1056B000A36A9A0304D50D48114916F0A3FB2320D1
:1056C000A36ADB0304D509480E4916F09BFB24208E
:1056D000044A936A6FEA03436FEA1343936210BD6F
:1056E0001D20CBE700ED00E0231302087CEB01084E
:1056F0003B1302084E1302086813020886130208BF
:10570000AB130208C513020870B506460D46284CB7
:105710002849294816F076FBA36AD9043CD52648C7
:10572000264916F06FFB1720A36A1A0504D52248F4
:10573000234916F067FB18201D4CA36A9B0512D560
:105740001D48204916F05EFBA36BA26A100409D520
:105750001D4A1948012116F0DCF81EB1A36A23F492
:105760000043A3621920124CA36A590504D51248BC
:10577000164916F047FB1A20A36ADA050ED50E4823
:10578000134916F03FFB1B20094A936A43F47F43F9
:10579000936200232B7070BD1620C5E7A36A9B049B
:1057A000F2D505480B4916F02DFB1C20ECE700BF95
:1057B00000ED00E0F01302087CEB0108061402087B
:1057C000171402082A140208431402085814020885
:1057D000731402088B1402082DE9F84380468946A9
:1057E0001746354D3549364816F00CFBAB6ADE06D8
:1057F00027D53449324816F005FB1124AB6A1D0742
:1058000004D531492E4816F0FDFA12242A4DAB6A10
:10581000980718D52D492A4816F0F4FA6E6BAB6A32
:10582000190646D52A4A26483346012116F071F852
:10583000B9F1000F03D0AB6A23F08003AB621324ED
:1058400003E01024DAE76FF015061B4DAB6ADA07A8
:1058500004D520491A4816F0D5FA1424AB6A9B06E1
:1058600004D51D49164816F0CDFA1524124B9A6A34
:10587000D50602D49A6A90070AD55B68190507D540
:105880004146304600F0DAF910B180F3098802246D
:10589000094B9A6A920642BF5A6A22F400525A622F
:1058A0009A6A42F0FF029A6200233B702046BDE8EC
:1058B000F8836FF01506C2E700ED00E0BA140208A5
:1058C0007CEB0108D0140208171402080315020823
:1058D0001B150208311502088B1402082DE9F0414E
:1058E000684B8AB0D3F8048000AF0446C8F30806BA
:1058F000002585F31188BFF36F8F02F07F43B3F16A
:105900007F4F07D102F00C03082B12D15E495F488C
:1059100016F078FA00252C460023FB71F31E092BA4
:1059200000F28F80DFE803F00A8588818D8D8D8DF0
:105930008D8B10074CBF0C460125EDE754495348A9
:10594000504E16F05FFA0023FB71F36A9A0705D5F3
:1059500050494E4816F056FA00232DE0F36A002B0A
:1059600001DA4D49F5E7F36A5B00F5D54B49474845
:1059700016F048FA7369A26943F480737361BFF348
:105980004F8FBFF36F8F32F8023C726922F480723E
:105990007261BFF34F8FBFF36F8F03F47F42B2F595
:1059A0005F4F2BD1DBB2022B28D123683C4A37480A
:1059B000012115F0AEFF2368FA79DAB907F108067C
:1059C00004F1200C20686168324603C20834644543
:1059D0001646F7D17A6A002D50D0C2F3080121B9DA
:1059E0006FEA52226FEA42227A6207F108011846F2
:1059F000FFF7B6FD2837BD46BDE8F081214B9A6A16
:105A0000D2B22AB1FA1D01212046FFF7E5FE0EE0D1
:105A10009A6A12F47F4F04D0F91D0120FFF774FE3B
:105A200005E09B6AB3F5803F96D3FFF719FE034666
:105A3000C2E7FA1D0021E7E7F91D0020EEE719494A
:105A400087E7194A194B18F4F87FE8468AB008BF6F
:105A500013466A461649CDE905134FF40073ADF8B5
:105A60002030103E134B079642F8103F07480023A2
:105A70004FF41151FEF728F8C5466DE76FF30802A1
:105A8000B2E700BF00ED00E07E1502087CEB0108E4
:105A9000A9150208C0150208E1150208EF15020851
:105AA0000E1602082A16020850150208651502088B
:105AB0004E16020804000001044B5A6942F010021D
:105AC0005A615A6922F008025A61704700ED00E0FD
:105AD000EFF30880EFF3098101B57246FFF7FEFE90
