:020000040800F2
:10000000E8EA0020554800089D870108414800089B
:10001000414800084148000841480008000000002D
:1000200000000000000000000000000089480008F7
:100030004148000800000000794A000829760008BD
:10004000094B0008094B0008094B0008094B000840
:10005000094B0008094B0008094B0008094B000830
:10006000094B0008094B0008094B0008094B000820
:10007000094B0008094B0008094B0008094B000810
:10008000094B0008094B0008094B0008094B000800
:10009000094B0008094B0008094B0008094B0008F0
:1000A000094B0008094B0008094B0008094B0008E0
:1000B000094B0008094B0008094B0008094B0008D0
:1000C000094B0008094B0008094B0008094B0008C0
:1000D000094B0008094B0008094B0008094B0008B0
:1000E000094B0008094B0008094B0008094B0008A0
:1000F000094B0008094B0008094B0008094B000890
:10010000094B0008094B0008094B0008094B00087F
:10011000094B0008094B0008094B0008094B00086F
:10012000094B0008094B0008094B0008094B00085F
:10013000094B0008094B0008094B0008094B00084F
:10014000094B0008094B0008094B0008094B00083F
:10015000094B0008094B0008094B0008094B00082F
:08016000094B0008094B0008DF
:1001700001F0FF01102A2BDB10F0070F08D010F858
:10018000013B013A8B422DD010F0070F42B3F6D15C
:10019000F0B441EA012141EA014122F007047FF075
:1001A00000070023F0E80256083C85EA010586EACC
:1001B000010685FA47F5A3FA87F586FA47F6A5FA08
:1001C00087F68EB9EED1F0BC01F0FF0102F0070214
:1001D00032B110F8013B013A83EA010313B1F8D1BF
:1001E0000020704701387047002D06BF35460338A0
:1001F000073815F0010F07D1013015F4807F02BFD9
:10020000013015F4C03F0130F0BC0138704700BF29
:1002100081F0004102E000BF83F0004330B54FEAB7
:1002200041044FEA430594EA050F08BF90EA020F24
:100230001FBF54EA000C55EA020C7FEA645C7FEAB7
:10024000655C00F0E2804FEA5454D4EB5555B8BFDA
:100250006D420CDD2C4480EA020281EA030382EA4B
:10026000000083EA010180EA020281EA0303362DDD
:1002700088BF30BD11F0004F4FEA01314FF4801CB0
:100280004CEA113102D0404261EB410113F0004FC2
:100290004FEA03334CEA133302D0524263EB430379
:1002A00094EA050F00F0A780A4F10104D5F1200E17
:1002B0000DDB02FA0EFC22FA05F2801841F1000172
:1002C00003FA0EF2801843FA05F359410EE0A5F146
:1002D00020050EF1200E012A03FA0EFC28BF4CF077
:1002E000020C43FA05F3C01851EBE37101F000452D
:1002F00007D54FF0000EDCF1000C7EEB00006EEB3A
:100300000101B1F5801F1BD3B1F5001F0CD34908C3
:100310005FEA30004FEA3C0C04F101044FEA44521A
:1003200012F5800F80F09A80BCF1004F08BF5FEAA1
:10033000500C50F1000041EB045141EA050130BD81
:100340005FEA4C0C404141EB0101013C28BFB1F593
:10035000801FE9D291F0000F04BF01460020B1FADE
:1003600081F308BF2033A3F10B03B3F120020CDAB1
:100370000C3208DD02F1140CC2F10C0201FA0CF08F
:1003800021FA02F10CE002F11402D8BFC2F1200CF4
:1003900001FA02F120FA0CFCDCBF41EA0C019040AA
:1003A000E41AA2BF01EB0451294330BD6FEA0404F3
:1003B0001F3C1CDA0C340EDC04F11404C4F12002DE
:1003C00020FA04F001FA02F340EA030021FA04F3F0
:1003D00045EA030130BDC4F10C04C4F1200220FA47
:1003E00002F001FA04F340EA0300294630BD21FA85
:1003F00004F0294630BD94F0000F83F4801306BF4B
:1004000081F480110134013D4EE77FEA645C18BF3E
:100410007FEA655C29D094EA050F08BF90EA020FD5
:1004200005D054EA000C04BF1946104630BD91EACD
:10043000030F1EBF0021002030BD5FEA545C05D1D0
:100440004000494128BF41F0004130BD14F580040F
:100450003CBF01F5801130BD01F0004545F0FE4183
:1004600041F470014FF0000030BD7FEA645C1ABFB8
:10047000194610467FEA655C1CBF0B46024650EAEF
:10048000013406BF52EA033591EA030F41F400211B
:1004900030BD00BF90F0000F04BF0021704730B5A1
:1004A0004FF4806404F132044FF000054FF0000176
:1004B00050E700BF90F0000F04BF0021704730B537
:1004C0004FF4806404F1320410F0004548BF40420C
:1004D0004FF000013EE700BF42004FEAE2014FEA61
:1004E00031014FEA02701FBF12F07F4393F07F4F3C
:1004F00081F06051704732F07F4208BF704793F03F
:100500007F4F04BF41F40021704730B54FF4607451
:1005100001F0004521F000411CE700BF50EA010254
:1005200008BF704730B54FF000050AE050EA0102FD
:1005300008BF704730B511F0004502D5404261EB6D
:1005400041014FF4806404F132045FEA915C3FF4AE
:10055000D8AE4FF003025FEADC0C18BF03325FEA4B
:10056000DC0C18BF033202EBDC02C2F1200300FAFC
:1005700003FC20FA02F001FA03FE40EA0E0021FA21
:1005800002F11444BDE600BF80F0004002E000BF6D
:1005900081F0004142001FBF5FEA410392EA030F6E
:1005A0007FEA226C7FEA236C6AD04FEA1262D2EBB8
:1005B0001363C1BFD218414048404140B8BF5B42BD
:1005C000192B88BF704710F0004F40F4000020F056
:1005D0007F4018BF404211F0004F41F4000121F06C
:1005E0007F4118BF494292EA030F3FD0A2F10102B6
:1005F00041FA03FC10EB0C00C3F1200301FA03F1F4
:1006000000F0004302D5494260EB4000B0F5000F16
:1006100013D3B0F1807F06D340084FEA310102F1D5
:100620000102FE2A51D2B1F1004F40EBC25008BF87
:1006300020F0010040EA03007047490040EB000051
:10064000013A28BFB0F5000FEDD2B0FA80FCACF152
:10065000080CB2EB0C0200FA0CF0AABF00EBC2507F
:1006600052421843BCBFD0401843704792F0000F6D
:1006700081F4000106BF80F400000132013BB5E7C0
:100680004FEA41037FEA226C18BF7FEA236C21D036
:1006900092EA030F04D092F0000F08BF084670479B
:1006A00090EA010F1CBF0020704712F07F4F04D169
:1006B000400028BF40F00040704712F100723CBF7C
:1006C00000F50000704700F0004343F0FE4040F4A6
:1006D000000070477FEA226216BF08467FEA236364
:1006E0000146420206BF5FEA412390EA010F40F44F
:1006F000800070474FF0000304E000BF10F000439B
:1007000048BF40425FEA000C08BF704743F0964381
:1007100001464FF000001CE050EA010208BF70479C
:100720004FF000030AE000BF50EA010208BF704723
:1007300011F0004302D5404261EB41015FEA010C38
:1007400002BF84460146002043F0B64308BFA3F130
:100750008053A3F50003BCFA8CF2083AA3EBC25312
:1007600010DB01FA02FC634400FA02FCC2F1200231
:10077000BCF1004F20FA02F243EB020008BF20F068
:100780000100704702F1200201FA02FCC2F12002CE
:1007900050EA4C0021FA02F243EB020008BF20EAC3
:1007A000DC7070474FF0FF0C1CEAD0521EBF1CEAF1
:1007B000D15392EA0C0F93EA0C0F6FD01A4480EADF
:1007C000010C400218BF5FEA41211ED04FF00063C8
:1007D00043EA501043EA5111A0FB01310CF00040F4
:1007E000B1F5000F3EBF490041EAD3715B0040EA1A
:1007F000010062F17F02FD2A1DD8B3F1004F40EBEA
:10080000C25008BF20F00100704790F0000F0CF0BC
:10081000004C08BF49024CEA502040EA51207F3A80
:10082000C2BFD2F1FF0340EAC250704740F400005B
:100830004FF00003013A5DDC12F1190FDCBF00F04C
:1008400000407047C2F10002410021FA02F1C2F1FA
:10085000200200FA02FC5FEA310040F1000053EA96
:100860004C0308BF20EADC70704792F0000F00F0E4
:10087000004C02BF400010F4000F013AF9D040EAEA
:100880000C0093F0000F01F0004C02BF490011F47E
:10089000000F013BF9D041EA0C018FE70CEAD1537C
:1008A00092EA0C0F18BF93EA0C0F0AD030F0004CFC
:1008B00018BF31F0004CD8D180EA010000F00040B0
:1008C000704790F0000F17BF90F0004F084691F06E
:1008D000000F91F0004F14D092EA0C0F01D14202A8
:1008E0000FD193EA0C0F03D14B0218BF084608D171
:1008F00080EA010000F0004040F0FE4040F40000BB
:10090000704740F0FE4040F4400070474FF0FF0C4D
:100910001CEAD0521EBF1CEAD15392EA0C0F93EA94
:100920000C0F69D0A2EB030280EA010C49024FEAE6
:10093000402037D04FF0805343EA111143EA10139F
:100940000CF000408B4238BF5B0042F17D024FF457
:10095000000C8B4224BF5B1A40EA0C00B3EB510F32
:1009600024BFA3EB510340EA5C00B3EB910F24BF1B
:10097000A3EB910340EA9C00B3EBD10F24BFA3EBA0
:10098000D10340EADC001B0118BF5FEA1C1CE0D168
:10099000FD2A3FF650AF8B4240EBC25008BF20F01B
:1009A000010070470CF0004C4CEA50207F32C2BF6F
:1009B000D2F1FF0340EAC250704740F400004FF00C
:1009C0000003013A37E792F0000F00F0004C02BF3D
:1009D000400010F4000F013AF9D040EA0C0093F007
:1009E000000F01F0004C02BF490011F4000F013B61
:1009F000F9D041EA0C0195E70CEAD15392EA0C0FC9
:100A000008D142027FF47DAF93EA0C0F7FF470AF00
:100A1000084676E793EA0C0F04D14B023FF44CAF43
:100A200008466EE730F0004C18BF31F0004CCAD1D8
:100A300030F000427FF45CAF31F000437FF43CAF14
:100A40005FE700BF4FEA4002B2F1FE4F0FD34FF015
:100A50009E03B3EB12620DD94FEA002343F000432B
:100A600010F0004F23FA02F018BF404270474FF0D9
:100A70000000704712F1610F01D1420205D110F060
:100A8000004008BF6FF0004070474FF00000704713
:100A90007BB972B90029BEBF00204FF0004106E0CB
:100AA00008BF00281CBF6FF000414FF0FF3000F07E
:100AB00057B8ADF1080C6DE904CE002909DB002B15
:100AC0001ADB00F07CF8DDF804E0DDE9022304B075
:100AD0007047404261EB4101002B1BDB00F06FF8D7
:100AE000DDF804E0DDE9022304B0404261EB41019E
:100AF000524263EB43037047524263EB430300F0FF
:100B00005EF8DDF804E0DDE9022304B0404261EB69
:100B100041017047524263EB430300F050F8DDF8A7
:100B200004E0DDE9022304B0524263EB4303704763
:100B300053B94AB9002908BF00281CBF4FF0FF3144
:100B40004FF0FF3000F00CB8ADF1080C6DE904CEA9
:100B500000F035F8DDF804E0DDE9022304B0704769
:100B6000704700BF10F8012B11F8013B012A28BF84
:100B70009A42F7D0D01A7047034611F8012B03F8B8
:100B8000012B002AF9D17047034613F8012B002AE4
:100B9000FBD1181A01387047430803F05533C01AC7
:100BA00000F03333800800F03330184400EB1010AD
:100BB0004FF0013300F00F305843000E70472DE91D
:100BC000F0478C468E46089E154604461946002B73
:100BD00040F0D080724547D9B2FA82F74FB1C7F1E1
:100BE00020030EFA07FC20FA03F3BD4043EA0C0C85
:100BF000BC404FEA154EA8B2BCFBFEF8230C0EFB1E
:100C000018CC08FB00F943EA0C43994528D9EB18A6
:100C100008F1FF3204D2994502D9A8F102022B440F
:100C2000A3EB0903A4B2B3FBFEFC0EFB1C330CFBCD
:100C300000F044EA0344A04214D92C190CF1FF330C
:100C400004D2A04202D9ACF102032C44241A43EA94
:100C500002401EB1FC40002334607360BDE8F087A1
:100C60004246DDE76346F1E7002A79D0B2FA82F323
:100C7000002B3FD01946C1F1200302FA01F52EFAEC
:100C800003F20EFA01FE20FA03F343EA0E034FEAE1
:100C9000154E00FA01F4B2FBFEFCAFB20EFB1C20B5
:100CA0001A0C0CFB07F842EA004290455AD9AA18E0
:100CB0000CF1FF3004D2904502D9ACF102002A4475
:100CC000A2EB08029BB2B2FBFEFC0EFB1C220CFB4B
:100CD00007F743EA02439F4246D9EB180CF1FF3273
:100CE00004D29F4202D9ACF102022B44DB1B42EA40
:100CF000004202E0AEEB020301224FEA154EAFB212
:100D0000B3FBFEFC200C0EFB1C330CFB07F840EA87
:100D1000034398452AD9EB180CF1FF3004D29845CB
:100D200002D9ACF102002B44A3EB0803A4B2B3FB3D
:100D3000FEFC0EFB1C330CFB07F744EA0344A742FE
:100D400016D92C190CF1FF3304D2A74202D9ACF109
:100D500002032C44E41B43EA00400F46114678E7A7
:100D60001F2188E76046ABE76246BFE76046DBE7E6
:100D70006346EFE7734506D916B9002108466DE7CB
:100D8000C6E9000EF9E7B3FA83F787B9734501D3D3
:100D9000824207D8841A6EEB030301209C461EB9D9
:100DA00000215BE73846FAE7C6E9004CF8E7C7F1EF
:100DB000200CBB4022FA0CF51D4320FA0CF12EFA50
:100DC0000CF30EFA07FE41EA0E014FEA154900FA4C
:100DD00007F4B3FBF9F81FFA85FE09FB18300B0C7A
:100DE00008FB0EFA43EA00439A4502FA07F240D99B
:100DF000EB1808F1FF3004D29A4502D9A8F102009D
:100E00002B44A3EB0A0389B2B3FBF9F809FB1833AF
:100E100008FB0EFE41EA03418E452CD9691808F102
:100E2000FF3304D28E4502D9A8F10203294443EAD4
:100E30000040A0FB0298A1EB0E014145CE4643467F
:100E400002D306D14C4504D2B9EB020E68EB050380
:100E50000138002EA4D0B4EB0E0261EB030101FABD
:100E60000CFC22FA07F34CEA0303F940C6E900310F
:100E700096E74046C5E74346D9E70000000000007A
:100E800030B5BDB0724B0193724B734A73490093F6
:100E90000120734B0BF020F906A80AF023FE002274
:100EA000114606AB0BA80AF0F7FC024620B16D48CC
:100EB0008A2116F03BF8FEE76B4A6C490BAB04A89D
:100EC0000AF034FD024620B166488D2116F02EF856
:100ED000FEE70BF0D7FF664B024604A965480AF00F
:100EE00061FD024620B15F488F2116F01FF8FEE732
:100EF0000BF0C8FF604B024604A960480AF052FD9F
:100F0000024620B15748902116F010F8FEE70BF08A
:100F1000B9FF5B4B024604A95A480AF043FD02465A
:100F200020B15048912116F001F8FEE70BF0AAFF1E
:100F3000554B024604A955480AF034FD024620B13B
:100F40004848922115F0F2FFFEE7514A514803212B
:100F500017F0C4F9504B00930BA939A3D3E9002330
:100F600002A80AF085FD024620B13E48962115F000
:100F7000DDFFFEE701230193484B00930BA932A349
:100F8000D3E9002303A80AF041FD024620B1354809
:100F9000992115F0CBFFFEE718A80AF073FA022298
:100FA00006AB0BA918A800F07BF8024620B12D482B
:100FB0009C2115F0BBFFFEE702A918A80AF06CFA05
:100FC000024620B127489D2115F0B0FFFEE703A996
:100FD00018A80AF061FA044628B102469E21214869
:100FE00015F0A4FFFEE718A80AF02EFC214D04A975
:100FF000284609F047FE024620B11A48A32115F001
:1010000095FFFEE70134032C05F10405EFD11F48DD
:1010100004A909F037FE024620B11248A52115F0B7
:1010200085FFFEE704A809F0C9FC024620B10D487F
:10103000A62115F07BFFFEE73DB030BDAFF3008089
:1010400000CA9A3B0000000000E1F5050000000026
:10105000C58E0008918E00086D8D0008D85C0020B8
:101060007BBE01080AE101081DE4010833E1010823
:1010700051E10108B45C002061E10108B85C002086
:1010800071E10108BC5C002081E10108B05C002036
:101090008FE1010870CE0108CD160008491600083E
:1010A00000285DD02DE9F0430C46B3B0002953D0A1
:1010B0000546184616461F460AF022FD00284BD06A
:1010C000002E49D02A4990220EA81BF0F1F90EA952
:1010D000902228461BF0ECF96C606846EE606C4686
:1010E00011F00CF90FCC05F1180CACE80F000FCC87
:1010F000ACE80F000FCCACE80F000FF26C09D9E997
:1011000000892368CCF80030C5E91C896F613B6811
:101110003969B0019847A86020B3002400E0A868AE
:1011200000EB8410314601340AF0A6FBA642F6D14A
:1011300005F14C000AF096FB0E49AA680023C5E9A8
:1011400020132AB16A691AB1EA680AB185F88830B1
:10115000002033B0BDE8F0830B2033B0BDE8F0834E
:101160000B2070470A20F8E700CA9A3B00000000F5
:10117000E0CF010829B10008F0B593B01A9E8AB1FA
:1011800086B1044650B1D0F880303BB1C0680F46FC
:10119000154610F0EBFC08B1237A3BB9012528462F
:1011A00013B0F0BD0B25284613B0F0BD04F1600E5E
:1011B000BEE80F000DF10C0CACE80F00DEF80030BB
:1011C000CCF8003003A80AF09BFC0028EAD0206885
:1011D00009F0D2FD002845D06946E06810F046FDD0
:1011E000014600283BD120220DEB02001BF06EF9D6
:1011F00025A3D3E90023DDE900018DF82070FFF776
:1012000047FCCDE90902DDE91823CDE91023237A53
:1012100030687168B268012BF36808BF00250BAE17
:10122000012F0FC621D8D4F880302A4608A89D691E
:1012300003A90023A8470646002EAFD031462068F8
:10124000002209F073FDD4F880300546DB6903A95C
:1012500030469847002DA2D00AF094FC9FE70AF090
:1012600091FC9BE74FF4967599E7B91E0129F6D8D2
:10127000D4F880202B4608A8956903A90022A84726
:101280000646D9E7AFF3008000CA9A3B0000000091
:10129000002800F0C7812DE9F04F056B99B0044696
:1012A000002D00F07881994643689246002B00F0AB
:1012B0009580296C002900F0AA80002318461E465C
:1012C000226952F823206AB1E2686F691A4457F81C
:1012D00022203AB1296947F821202A6901322A617E
:1012E000256B296C013340F100008B4270F1000244
:1012F000E6D36FF00047CDE90C66CDE90E665AEAF9
:1013000009034FF0FF36CDE91267CDE91467CDE947
:1013100016670DF1300B00F08E80002900F0468139
:101320000025CDF8149027E0CDE90867236908A9C6
:1013300053F8080010F0B6FF40F22133984200F055
:10134000B480002860D1DDE9072C1078DDF8248016
:1013500018AB03EBC00151E90893CC4578EB0303CC
:1013600004DA0DEB800041E908C80263236B196CB5
:1013700001358D4280F01881236953F825004FEA2A
:1013800085080028F4D007A910F0B6FE034600280F
:1013900040F0068107980278012AC5D10DF11B01A2
:1013A0008DF81B3010F06EFC002840F0F9809DF89D
:1013B0001B30002BB8D023698DF820000DF12008D8
:1013C00053F82500414610F033FF002840F0E88034
:1013D0009DF82030002BC9D0256B2EE0C368002B70
:1013E0007FF467AF4369002B7FF463AFC369002BC1
:1013F0007FF45FAF436A002B7FF45BAFC36A002BBF
:101400007FF457AF40F2853019B0BDE8F08F6FF030
:1014100000434FF0FF32CDE91223CDE91423CDE98B
:1014200016235AEA0903CDE90C11CDE90E110DF18D
:10143000300B40F0BB800DF1200800220023CDE9E5
:101440000823CDE90A2341460291EA6B05F13403F2
:10145000CDE9003205F1100105F11C0305F1280268
:10146000281D13F023F9236B1A6C804612B3002554
:101470002F462E4607E0226942F82530236B1A6C6E
:101480000135954217D2206950F8250007A9002898
:10149000F6D08DF81C6010F0CBFE0028B4D19DF87A
:1014A0001C30002BE7D01F46E8E72369002243F8F1
:1014B00008205BE7174638F0020071D165680246E4
:1014C0003DB1996851F82210002937D00132AA4263
:1014D000F7D3E5684DB1236B0022596951F822100A
:1014E000002934D00132AA42F7D3E56945B1236B14
:1014F0000022196A51F8221091B30132AA42F8D39E
:10150000656A45B1236B0022D96A51F8221081B374
:101510000132AA42F8D3E56A45B1236B0022996BE8
:1015200051F8221071B30132AA42F8D3B8F1020F78
:101530007FF46AAF87F00107780065E7236843F816
:101540002210656801329542C3D9236BB9E7A368BD
:1015500043F82210E5680132AA42C6D2236BBCE7E9
:10156000A36943F82210E5690132AA42C8D2236B6D
:10157000BFE7236A43F82210656A0132AA42CAD241
:10158000236BC1E7A36A43F82210E56A0132AA423D
:10159000CCD2236BC3E74FF4617019B0BDE8F08F74
:1015A000012019B0BDE8F08FDDF81490BAF1010FF9
:1015B00079F100033ADB4FF0010810AD16AE5BF88D
:1015C000040F08A9A8B110F051FB00287FF41CAF4C
:1015D000089AAB6809999B1AEA6862EB01029A457E
:1015E00079EB0201BABF53464A464FF001089A46CA
:1015F00091460835AE42E2D1256BB8F1000F13D009
:10160000B9F1000F0EA3D3E90023ABBF5046002071
:1016100049460021FFF73CFACDE90801CDE90A234C
:1016200008A911E70B20704741460DE74FF0FF3A3C
:101630006FF000494FF00008BFE700BFAFF3008034
:1016400000CA9A3B0000000013B570B319481AF0A5
:101650003CFC60B3174815F079FF6A462421154811
:1016600015F071FF0198FFF749F81349FFF74EF99C
:1016700004460098FFF742F801462046FEF78AFF2D
:1016800004460E490E480C60002209F04FFB02464A
:1016900018B10C48702115F049FC2046FEF71CFFDC
:1016A00002460B46084815F041FC02B010BD00246C
:1016B000E7E700BF0CCA010800007A44A05C0020E4
:1016C000B05C00205EE0010889E001082DE9F041EE
:1016D000002800F08680444E4448454D454F15F0A3
:1016E00035FF32462F21414815F02DFF424815F0B5
:1016F0002DFF2A462F21404815F025FF3F4815F0C1
:1017000025FF3A462F213D4815F01DFF7068FEF772
:10171000F5FF3B49FFF7FAF804463068FEF7EEFFA5
:1017200001462046FEF736FF06466868FEF7E6FFEC
:101730003349FFF7EBF804462868FEF7DFFF014660
:101740002046FEF727FF05467868FEF7D7FF2C49AD
:10175000FFF7DCF804463868FEF7D0FF0146204664
:10176000FEF718FF274900228860044626480E60CD
:101770004D6009F0DBFA024618B12448552115F0F6
:10178000D5FB00222249234809F0D0FA024618B1BD
:101790001E48562115F0CAFB00221F491F4809F0B8
:1017A000C5FA024618B11948572115F0BFFB30465B
:1017B000FEF792FE02460B46194815F0B7FB284685
:1017C000FEF78AFE02460B46164815F0AFFB204690
:1017D000FEF782FEBDE8F04102460B46124815F0C6
:1017E000A5BBBDE8F08100BFD05C0020B8C90108EE
:1017F000C85C0020C05C00209CC9010880C90108A9
:1018000000247449A45C0020B45C00205EE0010860
:10181000A85C0020B85C0020AC5C0020BC5C002010
:10182000AAE00108CAE00108EAE001082DE9F84F42
:101830000B1FA3EB0009884602F007014FEAD90607
:1018400003F007030B3129F007090B44D408814446
:1018500004EBD3048368B9F802B09C4228BF1C464D
:101860001BF0010B00AF054616D1EA4688B06A4668
:101870004A4BCDE90538032342F8103F48485B4600
:101880004FF4C25101F038F8D5468BF31188BFF3FD
:101890006F8F0423184602DF3146284615F05AFEA2
:1018A000304435F83030C01A864217D0EA4688B046
:1018B0006A463C4BCDE90538032342F8103F3848CF
:1018C00000234FF4C25101F017F80023D54683F3EB
:1018D0001188BFF36F8F0423184602DF3146284674
:1018E00015F038FE8442824622D026D2344428465F
:1018F000224615F0D4FEB9F8023043F00103A9F8EE
:1019000002302146284615F025FE261805EBC603B1
:101910005B88DB0708D43146284615F064FE324662
:101920002146284615F0A4FE2146284615F017FE4C
:1019300001221046BD46BDE8F88F06EB000805EB16
:10194000C802528812F0010225D14146284615F0FE
:1019500001FE50448442ECD8284615F044FE41462E
:10196000284615F0F7FDA4EB0A0A824507D2321982
:10197000284615F094FE1146284615F0F0FD424623
:101980003146284615F074FEB9F8023043F00103E1
:10199000A9F80230CCE70022CBE700BFD2E1010872
:1019A00088CE0108F6E101082DE9F84F8A4600AF1C
:1019B000002974D004680E1F361BF50826F00706B0
:1019C00004EB0608B8F802B01BF0010B16D1E9468B
:1019D00088B06A46334BCDE90531032342F8103F06
:1019E00031485B464FF4C25100F086FFCD468BF381
:1019F0001188BFF36F8F0423184602DF2946204663
:101A000015F0A8FD284434F83030C01A854217D0AC
:101A1000E94688B06A46254BCDE9053A032342F8EA
:101A2000103F214800234FF4C25100F065FF00230E
:101A3000CD4683F31188BFF36F8F0423184602DF6E
:101A4000B8F8023023F00103A8F8023029462046F6
:101A500015F080FD05EB000804EBC8035B88DA078E
:101A600008D44146204615F0BEFD42462946204690
:101A700015F0FEFDA65BAE1B04EBC6035B88DB071F
:101A800009D43146204615F0AEFD2A46314620469F
:101A900015F0EEFD35462946204615F060FDBD46A1
:101AA000BDE8F88F1FE2010888CE0108F6E10108C1
:101AB0002DE9F04F91B08407009302F004030293E4
:101AC000C2F3C20303F10103DDF868A003920546E7
:101AD0000E46059340F09D81041D00284AD101F077
:101AE0000706341DC6F10806009B00275A1E4FF05A
:101AF00004084FF0FF3301930497B946BB464346B1
:101B00000DB1009921600598002800F3D780904816
:101B10000099814203D38F488142C0F0CF8003995E
:101B200011F0020CA4EB050040F0D680B9F10F0FC4
:101B300000F2CF80002D00F0D68009F140010DEBBE
:101B4000010EC0F3870001990EF8200C0EF8101C4E
:101B5000BCF1000F00F0C38060F07F000EF8200C95
:101B6000013709F10109C5F10801043406914FF666
:101B7000DA7E8CE00729B7D86FF01B0011B0BDE802
:101B8000F08F7A285BD84B280FD8472857D82928B8
:101B90002ED8252850D052D8202818BF23280CBF73
:101BA0004FF0010B4FF0000B71E04C382E2846D857
:101BB000DFE800F06D45454545454545454545450A
:101BC0004845454545454545455645484856565678
:101BD0006D486A456D4518481845457F7C48454520
:101BE00048457C0000204FF0000B4FF0040835E022
:101BF0002A38C0B2012101FA00F010EA0E0F46D1D6
:101C000010F0625C2CD110EA010B40D06046013C20
:101C10004444B4FBF8F408FB04F425B1A3EB050C31
:101C2000A444B445A8D8002870D00599013905917D
:101C30005AF8041B009163E70199013901914FF0B3
:101C4000000B24E012F8010C6C2834D112F8023C8D
:101C500000206C2B8346C8D14FF008084346D6E7D6
:101C60000AF1070A2AF0070A0734FAE802BC24F04E
:101C7000070435B106982044B0423FF67DAFC4E971
:101C800000BC08344FF0000B4FF00808434612F830
:101C9000010F002853D0BBF1000F7FF472AF25284D
:101CA000F5D1019B013301934FF0010B4FF0040874
:101CB000ECE7584697E700208346A8E70399880792
:101CC0007FF551AF601B4FF0010CB0F5007FFFF4C2
:101CD0002DAF6FF0150051E74FF0000CF5E70498B9
:101CE000013004903DE7BCF1000F01D0013638E728
:101CF0000298023600287FF434AF0098CDE906320E
:101D0000FEF742FFDDE9063206442AE7042B08D13C
:101D10000AF1040015B1DAF800102160043482469B
:101D2000B5E70AF1070323F0070303F1080A1DB121
:101D3000D3E90001C4E9000108340823A7E7631BC5
:101D4000B3F5806FC5D23DB9A6F10804E01815E7D8
:101D50007CC60108D8FC0108029A28609B082B70F9
:101D60009DF81030AAB1EB70AF702FB108A8002217
:101D7000C5F1010C91450ED1C5F101030DF120080B
:101D80004FF0000A01930DF1300BD14512D1601BC9
:101D9000F4E66B70E8E710F8013B190608D50CEB88
:101DA000040EB64503F07F033FF6E6AE04F8013BB0
:101DB0000132DFE71FB198F90020002A17DB029BF0
:101DC000D3B11AF80B2004F8012B0022019B18193B
:101DD0001044B0423FF6D0AE98F8000004F8010B72
:101DE0000099039220461AF063FB039A14440AF107
:101DF000010A08F10108C8E798F8002055F82230D8
:101E00000093029B45F822300098FEF7BDFE421C6D
:101E1000DCE76FF00D00B1E62DE9F04F97B000AFB1
:101E2000C7E90A3205468A4649B903784678807878
:101E300000EB83002844564524D8A0EB050AD7F8C8
:101E4000803095F80280D7F8804003F00103FB61F1
:101E5000EB787B62B8F1000F0CBF002404F00104A2
:101E60001BB1D7F880309A0715D4A4B9FB6A1BB10F
:101E7000BA6A514628469847564630465C37BD46B2
:101E8000BDE8F08F441C2046FEF77EFE0130204462
:101E90000AF1010ACFE7D7F88030C3F3C0033B62F1
:101EA0002B78BB619B003B616B687B61BB6905EB79
:101EB000830BFB6A002B77D15646D844BCB11C4635
:101EC0001BF8013B55F82300FEF75EFED7F884307F
:101ED000013043B1D7F88830A34282BFD7F88430AD
:101EE00023F814000134C3450644E9D1D846D7F895
:101EF000803013F0050F0CBF4FF0020B4FF0010BB9
:101F00004FF000097B6A9945B7D298F8013055F82F
:101F100023A0AE4B9A4508F10208C0F04B81AC4BB0
:101F20003A6A9A452CBF002301230AB318F8021C11
:101F30007869FB6215F024FDFB6AC8B1EA468AB0F5
:101F40006A46A44B05937B69CDE906314FF40073D3
:101F5000ADF82030A04B42F8103FA04800234FF4CA
:101F6000125100F0C9FC023ED54609F10109C9E74A
:101F700023B1FB6933B9A6EB0B06F6E7D7F880303F
:101F80009B07F2D55046FEF7FFFDD7F884304BB1E2
:101F9000D7F888309C423FBFD7F88420431C22F8F2
:101FA000143001340644E0E7002C69D1B8F1000F89
:101FB0006CD0D7F8803058076BD5C14607F1480080
:101FC000424659461AF074FA0BEB0803FB600022F4
:101FD0000233796A8A425ED3D7F8802095F801B03F
:101FE000F969920704EB0B03DBB254BF4FEA5902C5
:101FF0000022002940F0A680D7F8801011F0040FCD
:1020000014BF494600216B70A970EA703969BA6A39
:10201000FB6A28469847061EFFF62FAFBB692B7058
:102020007B6AEB704946BA6AFB6A85F801B085F8AD
:10203000028007F148009847B0F10009C0F2B6806D
:102040003B697A6A786A03EB4201FB68BA6A4144E9
:1020500003EB4000AAEB0101FB6A98470028C0F29D
:10206000A780B14409EB00064FF0000B07F1380AD6
:10207000A34569D30021BA6AFB6A08469847FCE683
:10208000444607F138004FF0000999E74446C1463D
:102090009AE7A14698E713F8016CDFF830C155F8CC
:1020A000260013F8021C6045C0F08A80DFF820C1CA
:1020B0006045386A2CBF4FF0000B4FF0010B38B170
:1020C0007869C7E9013215F05BFCD7E90132F0B954
:1020D000BBF1000F1ED0F96949B1611C04F1280061
:1020E00007F13004041904F8206CCCB20FE0D7F8E3
:1020F000801049070BD509F1280007F1300C09F1D0
:10210000010100EB0C0909F8106C5FFA81F901324A
:1021100002335EE7D7F880008007DED409F1280C8F
:1021200007F1300EF44409F101000CF8101C07F11E
:10213000580151FA80F009F102095FFA89F900F8B3
:10214000106CE4E700215EE71BF80A3087F83730AF
:1021500055F82390D7F884302BB3D7F888309B45B7
:1021600021D2D7F8843033F81B80BA6AFB6A012188
:1021700007F13700984700281ADB0644B8F1000F32
:1021800006D14846FEF700FD00F101081FFA88F865
:10219000BA6AFB6A414648469847002808DB06446D
:1021A0000BF1010B64E74FF00008DEE74E4664E6F2
:1021B000064662E63B6A002B3FF4E0AE0023B5E63C
:1021C000386A0028A6D04FF0000B79E77CC60108DA
:1021D000D8FC01084CE201080400000120CE0108EF
:1021E00030B50446EFF31185102383F31288BFF353
:1021F0006F8F044B0FCB84E80F0085F31188BFF37A
:102200006F8F30BD3009002001281FB50C4605D066
:1022100004281DD06FF0150004B010BD1AF0A2F80C
:1022200042F210720023FEF783FC104B5A43C4E9BC
:102230000001A2606846FFF7D3FF6946204615F00B
:10224000BCFB18B90A4B0FCB84E80F000020E3E772
:102250001AF088F842F210720023FEF769FC034B73
:102260005A43C4E90001A260F0E700BFA086010064
:1022700038CF0108014B1860704700BFC80100202B
:1022800080B505460E461746984607F0A9FE034658
:1022900002F04CFCDFF81890044649F80030424642
:1022A00030463946A84754F8090002F0CFFB00BF7A
:1022B0001000000070B5204B82689A4216DDD0E90C
:1022C0000016012976F1000503F1010392FBF3F3F7
:1022D0004FEAE3741DDAC91844EB0604C0E90014A0
:1022E000164901FB03238360012070BD002AFBDA3D
:1022F000D0E900410029124EA3EB0203B3FBF6F331
:1023000010DA01F100459C4275F100050ADA00205F
:10231000EBE7CD439D426FF00045A5EB0605A541D7
:10232000D9DAF4E7E41A61F1000106FB0322C0E9FF
:1023300000418260D8E700BFFFC99A3B003665C400
:1023400000CA9A3B034A536823F0020353600020FB
:10235000704700BF002004E008B541680548836865
:102360001B680C311BB1984700EAE07008BD6FF0A4
:102370005700F9E7A4C70108192810B502D90024AD
:10238000204610BD044B53F82040204619F09DFD17
:102390000028F5D1F3E700BF60D20108084B1A68A6
:1023A00042F480721A601A6842F400721A601A6865
:1023B00042F480621A60034B034A1A60704700BF00
:1023C000003C0240C40200200024F4002DE9F04744
:1023D000DFF85480044607464FF0010994FAA4F54B
:1023E000B5FA85F509FA05F32E0108EB05156FEA34
:1023F000030A24EA03042B7B63B158F806301B69F7
:102400006BB94644042273682846196807EA0A072C
:1024100015F0F4FE002CE1D13846BDE8F0872846DF
:1024200098470028F6D1ECE720CF010810B50F49F6
:102430000F4888B0002219F097FF00220023CDE951
:10244000062300240E23CDE90334CDE90144094BD2
:10245000094900944FF44072084807F03DFB0849D1
:10246000064819F02BFE204608B010BD8524000850
:10247000D80D0020A1270008C073002040090020CB
:102480008FE30108014807F0CDB800BF48080020DD
:102490002DE9F047804620480F4615F087FE064696
:1024A000002832D000252846BDE8F087237B83B181
:1024B0002368DB680BB120469847636883F8069071
:1024C00023681B69CBB9636804221968204615F09C
:1024D00095FE013610345445E8D3B8F1000FE2D030
:1024E000002DDFD02846FFF771FF0546002FF7D0FB
:1024F0000021642019F086FEF2E720469847002864
:10250000E1D009FA06F31D43E3E7044CDFF810A01D
:1025100005464FF00109DEE7705D002020CF01087D
:1025200030CF0108014B53F820007047DCD201087E
:1025300008B5034608462BB1044A136000F03CFC82
:10254000002008BD6FF01500FBE700BFCC010020A4
:1025500010B5044C237813B9034807F063F801233E
:10256000237010BD766B00204808002010B504468B
:102570000B4815F01BFE5CB1BFF35B8F094B53E8B2
:10258000001F013943E80012002AF8D1BFF35B8F26
:10259000054819F0F5FE0548BDE8104007F042B8BF
:1025A000685D00206C5D0020D80D002048080020E8
:1025B000064BBFF35B8F002253E8000F43E8002176
:1025C0000029F9D1BFF35B8F704700BF685D002021
:1025D00070B5FFF7EDFF084C084E0546B44200D336
:1025E00070BD63685B792BB123685B6813B12946C2
:1025F000204698471034F1E720CF010830CF01087A
:1026000010B5044C0449204615F031FB034B1C6007
:1026100010BD00BFBC070020C8D20108605D0020CB
:102620000D4A0E48002310B513700D4A13600D4A71
:102630004FF47A711360FFF77BFFFFF7E1FF0A4B5E
:102640000A4918468B4200D310BD1A1A5C68121151
:10265000013222711033F5E7776B0020C781010842
:10266000685D00206C5D002020CF010830CF01089C
:10267000014600220148002315F01ABBBC070020C8
:10268000014815F0B1BB00BFBC070020024B01465A
:10269000186815F004BC00BF605D0020014815F00B
:1026A00039BC00BFBC07002070B5264B1878002845
:1026B00046D0FFF7E5FF054600283ED1224B234CCC
:1026C0001B68002B12DD19F04DFE0A220023FEF7D5
:1026D0002FFAD4E90032C01A40F2E93361EB02016B
:1026E000984271F1000101D3FFF772FFD4E9003283
:1026F00013F57A7342F10002C4E90032BDE870407C
:10270000FFF7CCBF63685B7923B1236829461B6858
:10271000204698471034B442F4D32846FFF7B6FF5A
:10272000BFF35B8F0A4B53E8001F013943E80012E7
:10273000002AF8D1BFF35B8FC0E7064C064EEAE7EC
:1027400070BD00BF766B0020685D0020D00D0020BA
:102750006C5D002020CF010830CF010870B50D4D11
:10276000297861B90120FFF793FE0B4C0B4EB44260
:1027700006D3FFF799FF0028FBD101232B7070BD12
:1027800063685B791BB1236820469B6898471034C7
:10279000EDE700BF776B002020CF010830CF0108A4
:1027A00000212DE9F8430846FFF772FE044648B3BE
:1027B0004FF4FA784FF0000902F0B8F91A4B1B4AAF
:1027C0001B58136033B11A4B1B68092B02DD1948E3
:1027D00006F028FF184F002544B12046FFF7F6FD0C
:1027E000044618B94FF0FF384FF0FF39FFF75CFF90
:1027F000064628B9B5B90F4842464B4606F04CFF8D
:102800003546E9E74FF0FF384FF0FF39D4E72B6842
:102810009B691BB100221146284698471035BD42DE
:10282000F5D3E8E7054DFAE710000000645D0020ED
:102830006C5D00204808002030CF010820CF01083F
:1028400013B5184815F0B2FC174B1B7873B1EFF3B2
:102850001184102383F31288BFF36F8FFFF724FFD7
:1028600084F31188BFF36F8F02B010BD0F4B1B684C
:10287000002BF9D050B900220023CDE900230C48E9
:1028800042F21072002307F097FEEDE70928EBD122
:10289000074819F075FD074802B0BDE8104006F082
:1028A000C1BE00BF6C5D0020776B0020645D00201E
:1028B000D80D00204808002010B5064B1B680446C0
:1028C00098472146A060044815F06FFABDE8104013
:1028D000FFF7B6BFCC010020BC070020044A054B1F
:1028E0009B1AB1EBD30F34BF52F831000020704770
:1028F00008CE010820CF01082DE9F04F8FB004AFBA
:10290000C1F34A26B8600D4690467B600C0D002E40
:1029100061D04FF000090A234FF0040B07F1140AAD
:10292000FE60C7E90799C7F824900093CDF808B076
:10293000CDF804A007F11C03F9684A464046FFF7AA
:102940006BFAB0F5006F03461CD36C468AB0D8F81A
:10295000041004AB2448C3E9050140F2FF71D961BA
:102960001A464FF400711984204B42F8103F20485A
:102970004B464FF41251FFF7BFFFA5462C37BD461B
:10298000BDE8F08FC0F30A0604F11700184420F0E8
:10299000070080083B60FFF76BFE66F35325044693
:1029A00080B13B68134A00F11001C7E90839F961A9
:1029B000CDE901AB0A230093F96807F11C034046F7
:1029C000FFF72AFA66F353257B68B9682A46204642
:1029D00015F034FCD2E704F1170020F0070080085E
:1029E000FFF746FE0446EDE7A4E3010804000001FA
:1029F00058CE01080F8201082DE9F04F87B0DDE9BC
:102A0000127ADDE9106B0546884614469946BFB137
:102A10001021CDF800A03B465A460020CDF814A066
:102A2000FFF746F8B0F5006F01460BD3194A1A4874
:102A300040F2FF73022107B0BDE8F04F15F057BC1C
:102A40003946384604F0070305F00704E40044EA79
:102A5000831444EA402444EA065406F1170008446B
:102A600020F0070080080391FFF702FE054640B101
:102A70003FB10399CDF800A03B465A461030FFF70E
:102A800017F84B4622464146284607B0BDE8F04FAE
:102A900015F0D4BBE3E3010858CE0108406820B12B
:102AA000034BC01A40F3CF0070474FF0FF30704720
:102AB00008CE01080EB403B503AB014653F8042B4E
:102AC0000448019302F0B8F902B05DF804EB03B0DA
:102AD000704700BF51830108CA0605D48B064CBF5E
:102AE00002490349FFF7E6BF704700BF1CE4010835
:102AF0001BE401082DE9F04F89B09846159B069319
:102B0000DDE916A39DF85090189F059204460D46E6
:102B10000493B9F1000F00F0B08007F480730793BD
:102B200015F06AFB07F0020B0246002874D07849C2
:102B30002046FFF7BFFF0646BBF1000F08D017F095
:102B4000440F6BD173492A462046FFF7B3FF064472
:102B500007F0010353B1704B704953F82920704BB3
:102B60002046002A08BF1A46FFF7A4FF07F4807327
:102B7000002B07F0080318BF4FF00008002B79D096
:102B8000684B694953F829202046FFF793FF054613
:102B9000059B2BB165491A462046FFF78BFF05447C
:102BA000B8F1000F05D0624942462046FFF782FF88
:102BB000054460483544069B1BB15F49224614F02A
:102BC000AEFE049B002B00F08E80DDF810803946AD
:102BD000B8F1100F204628BF4FF01008FFF77CFF18
:102BE0000026B54250DC002633461AF8032053492C
:102BF0002046FFF75FFF0136102E4BD0710703D13F
:102C00004F492046FFF756FF46453346EDD34D4921
:102C10002046FFF74FFFEEE706468DE74A4B186860
:102C2000002894D0494B4FF47A7B1B68B5FBF3F531
:102C30004FF46163B5FBF0F100FB11550BFB05F59B
:102C40004FF03C0CB1FBF3F203FB1211B5FBF0FEAD
:102C5000B1FBFCF300FB1E550CFB13110BFB05F540
:102C60000091B5FBF0F53A49CDE901E52046FFF7C3
:102C700021FF6CE707F008058AE7B8F1010F0CBFE8
:102C80002C4834484D4696E72D492046FFF712FF61
:102C90000136A6E7304920460026FFF70BFF3346F2
:102CA0001AF803202D49A2F120035F2B28BF2E2202
:102CB0002046FFF7FFFE0136102E0DD0720703D11C
:102CC0001F492046FFF7F6FEB0453346E8D81C49B9
:102CD0002046FFF7EFFEEEE7049BB3EB0803C24488
:102CE00004937FF472AFB9F1000F0AD0FB0704D54B
:102CF0000B4A0A492046FFF7DDFE39462046FFF71A
:102D0000EBFE204609B0BDE8F04F15F014BB00BF44
:102D100023E4010827E40108ECD201084CE401088F
:102D20001EE4010800D301084FE4010855E401083E
:102D300059E4010851830108394E00085EE4010896
:102D400066E4010864E40108785D0020745D0020F9
:102D500030E401088783010868E401086AE4010897
:102D600073B542F20F738B4228BF0B4605680F4ABA
:102D700004460521684614F0EBF863680C495B686B
:102D800006460B22284615F0C8FA636832466946A3
:102D900028465B6815F0C1FA636806495B681B2228
:102DA000284615F0BAFA02B070BD00BF6FEF0108F7
:102DB00027FB01080BFB0108074A00210123904271
:102DC00006D8064A01B901231360054B1860704705
:102DD00040085B000121F2E740420F00745D0020D3
:102DE000785D0020F8B5074F0D4604464618B442FA
:102DF00001D12846F8BD14F8011BBB6801485B6887
:102E00009847F4E7D8C80108014B036000207047D9
:102E100048D30108F0B40D4B0D4E5F6A0D4BB34221
:102E200003D36FF08500F0BC70475C68BC420AD3E6
:102E30001D6945B194F802C08488E4B2A44502D16A
:102E40002B46F0BC18472433E9E700BFA85D0020FB
:102E50002C090020080900202DE9F047144CDFF868
:102E60005480DFF8549005460E461746444503D378
:102E70006FF08500BDE8F0876268D9F824309A4287
:102E800013D3A3698BB1A9889078C9B2884205D1C0
:102E90003A4631462846BDE8F04718475279012A9C
:102EA00003D13A463146284698472434DEE700BF2E
:102EB000080900202C090020A85D00202DE9F04120
:102EC0000B4CDFF8308005460E461746444502D3CA
:102ED0006FF0850009E063690BB92434F6E73A46E0
:102EE0003146284698470028F7D1BDE8F08100BF59
:102EF000080900202C090020024B00221A605A60A9
:102F0000704700BF635E002070B50B4B0B4CA342B3
:102F100001D3002070BD196A1E7F00220439D5B28A
:102F2000AE4201D82433F2E7013211F83250854223
:102F3000F5D10120EEE700BF080900202C09002090
:102F400073B58488E4B263060D468DF8074007D058
:102F50002046FFF7D9FFB0B1144B93F8BA0090B1F7
:102F6000124E95B1124A13482346032115F088FAF0
:102F70009DF8070002F0B2FBF3691BB10DF10701E8
:102F800008209847012002B070BD0B4A094823462B
:102F9000032115F075FA9DF8070002F0C1FBF369F3
:102FA000002BEFD00DF107010920EAE7A85D002012
:102FB000A7E4010808CF0108BAE4010808B50346F0
:102FC000034A0448012115F05BFA002008BD00BF48
:102FD000CFE4010808CF010838B5054602F0F6FB3A
:102FE00010F1780F044611D10D4A0E482B460221EC
:102FF00015F046FA284615F045FA0B4AD2F8C430C7
:1030000023EA0003C2F8C430002407E00028F1D00E
:10301000064A04482B46012115F032FA204638BDF5
:10302000EAE4010808CF0108A85D00200BE50108CB
:1030300008B509480378C3F341130A3350F8233025
:103040003BB100F1080200F110019847C043C00FE6
:1030500008BD1846FCE700BFA85D002004282DE944
:10306000F74FDFF89C9004460F4615D001282FD16A
:10307000DFF8908098F8B93053B300F0ABFE224DE2
:103080004D4522D22A6A4FF0000A2B7F5FFA8AF65A
:10309000B34204D82435F3E7FFF72EFFE8E702EB4D
:1030A000C6060192307902F091FB8346307915F023
:1030B000E9F9D8F8C430019A23EA0003BBF1000F04
:1030C000C8F8C4300AF1010ADFDA002388F8B93001
:1030D0000D4D4D4508D30B4B1B6A6BB1394620464D
:1030E00003B0BDE8F04F1847EB681BB13A462146E4
:1030F000284698472435ECE703B0BDE8F08F00BFC1
:103100002C090020A85D00200809002073B50446A2
:1031100080788DF8000023796279294D43EA0223F3
:10312000ADF80230E37803F003038DF8043015F0B6
:10313000A9F9D5F8C430184206460CD0A478204628
:1031400000F02AFE2046FFF747FF18F0B1FF10B944
:10315000962019F070F8684615F0E0FB10F1780F32
:103160009DF800301BD1174A1748022115F088F945
:103170009DF8000002F0FAFA10F1780F19D19DF8CD
:103180000030124A1048022115F07AF9D5F8C430FF
:103190000120334385F8B900C5F8C43007E00028A2
:1031A000E6D00B4A0848012115F06AF9002002B068
:1031B00070BD0028EAD09DF80030064AF2E700BF53
:1031C000A85D00202DE5010808CF010874E501087D
:1031D00050E5010894E501082DE9F047A94EB369CF
:1031E00004460F4690466BB9237803F01F03012B6A
:1031F00000F0A280022B00F0078143B16FF01500B0
:10320000BDE8F08798470028EED10020F8E794F950
:1032100000206178002A2FDA062910D00829D8F872
:10322000002024D00029E9D101231370517096F8B1
:10323000C3305B0043F001031370022320E1628876
:10324000100A011F01290546D8D90728D6D8D1B2BE
:10325000726A1478002CD1D05678AE4203D19942CC
:1032600000F0088101332244F3E7137808E196F86F
:10327000BA301370012303E101390829BED801A334
:1032800053F821F01F330008FD3100082F330008E8
:10329000FD310008A9320008FD310008FD310008A9
:1032A000FD310008B73200086088C0B202F060F952
:1032B0000028AAD0A2E763883BB1FF27756A0020E7
:1032C000B8462B786BB9002898D0FFF715FE6388B5
:1032D00086F8BA30F369002B97D06B4903209847E2
:1032E00093E76B78042B0DD0052B0ED0022B06D163
:1032F0006F796388BB4208BF40F00100C0B22B78F1
:103300001D44DEE795F80380F9E76388BB42F6D1F8
:10331000B8F1000FF3D12846FFF7F8FEEFE7638816
:10332000012B7FF46BAF002386F8C3306DE7638811
:10333000012B7FF463AFF7E796F8BA30002B3FF428
:103340005DAFA388756A5FFA83FC2A46117800296D
:103350003FF454AF5078022804D192F804E0E645D7
:1033600000F294800A44F1E70A704A7038604CE732
:10337000154499E00B2A7FF441AF00274FF0FF0876
:10338000C146BA4606E06B78042B0FD0052B21D03E
:103390002B781D442B78002BF5D1F36913B15146DE
:1033A00007209847002F7FF430AF27E795F8028079
:1033B000A38895F803909845EAD163889945E7D1A9
:1033C000B8F1070F1DD806EB0803AA4683F8BB9097
:1033D0000127DDE7A3884345DAD16388DBB24B459B
:1033E0000AD0AF78384600F0D7FC3846FFF7F4FD36
:1033F000B0FA80F77F09CBE72846FFF787FE07463C
:10340000C6E7AA460027C3E794F900206378002A9C
:103410001ADA002B7FF4F2AEA388DDB25B060AD085
:103420002846FFF771FD00283FF4E8AE96F8BA3061
:10343000002B3FF4E3AED8F800402846214615F0B3
:1034400089FA00236370F8E6012B08D0032B7FF480
:10345000D5AE6388002B7FF4D1AE012103E06188F3
:1034600000297FF4CBAE2046FFF76AFD00287FF4E9
:10347000CCAEC3E60228C8F800207FF4F6AE53882D
:103480003B60C2E6A85D0020625E002094F9001057
:1034900062780029BFF66EAFD8F80010002A3FF41A
:1034A00063AF0A2A7FF4AAAE2A78002A3FF4A6AEB8
:1034B000687804287FF45CAFA87883427FF458AF23
:1034C000072B96BF9B19002393F8BB300B70D1E6F6
:1034D0002DE9F84305460F469046994604264B468B
:1034E00042463946284602F09FF910F10B0F044678
:1034F00009D1064A06482B46022114F0C1FF06F006
:10350000F1FC013EEBD12046BDE8F883B5E50108AA
:1035100008CF010813B5164C237DF3B9E268A16802
:10352000019201AB8020FFF7D3FF019AA3681344F7
:10353000A360E3689B1AE3606BB962B12369E28818
:103540009A4208DD94F8C82093FBF2F102FB113394
:103550000BB90123237502B010BD00231A4619468A
:103560008020237502B0BDE8104002F05DB900BFB5
:10357000A85D00207FB500230D4601930646002874
:1035800062D100293AD108220B460DEB020115F059
:10359000EEF9002804DA802002F0A0F804B070BD33
:1035A0002E4C029A2260039A626004F13802A260F3
:1035B0009DF90820BDF80E302575002AC4E9035591
:1035C0000FDB802B09D9264A2648012114F086FEFC
:1035D000802002F083F82846DEE713B1C4E9033304
:1035E000DCE7FFF725FD0028D5D0E28823699A4261
:1035F000D4BFE260E360FFF78DFFCFE7174CD4E95B
:103600000212002A01AB05DC024615F0B0F90028D1
:10361000C4DAC0E715F0ABF9002804DA802002F024
:103620005DF83046B8E7019AA3681344A360E368E5
:103630009B1AE360002BB1D104F13803A360FFF7BC
:10364000F7FC0028D7D1A6E78028A7D1034BDA687A
:10365000002AD0D11B7D002BCDD19FE7A85D002093
:10366000DCE5010808CF0108054B064A9A62064AC4
:10367000DA62064A1A63064A58629A610020704765
:10368000A85D0020D9310008152E0008BD2E0008C5
:10369000592E00082DE9F34104464C4D4C484FF09B
:1036A000FF334FF0FF3205F0FBFE95F8B8306BB1F9
:1036B000484A4948022114F011FE6FF0770444484B
:1036C00005F060FF204602B0BDE8F0816E6A6EB979
:1036D00000F0D4F8FFF7C8FF6E6A3EB93F4A3E4893
:1036E000012114F0FBFD4FF0FF34E8E73C482C6269
:1036F000E86101F037FF01F04BFE041EDFDB00F054
:103700008BFB041EDBDB7378012B01D1F3793BB912
:10371000344A3148012114F0E1FD6FF01504CEE781
:103720000026684685F8C830ADF802308DF8046090
:103730008DF8006015F0F2F8041EC0DB80276846A3
:103740008DF8007015F0EAF8041EB8DB2649304603
:1037500015F0D9F8041EB2DB2349384615F0D3F82A
:10376000041EACDB214CDFF8888044451AD30020CE
:1037700001F0FCFF041EA2DBD5F8C430802043F02A
:103780000103C5F8C43001F0F1FF041E97DBD5F842
:10379000C43043F48033C5F8C430012385F8B83011
:1037A00000248CE7276A0026227FF3B29A4201D8D0
:1037B0002434DAE707EBC30257F83310107915F019
:1037C000A2F801360028EFD08DE700BFA85D0020E9
:1037D0001C080020F5E5010808CF010818E60108DB
:1037E0005D3000083DE60108753500080809002035
:1037F0002C09002030B51F4B8BB005AA03F1100532
:1038000018685968144603C40833AB422246F7D1FE
:103810001B78237001AC10220021204618F056FEC0
:1038200012220021144818F051FE1021204602F007
:103830008FFE00281ADD0828B8BF082009380E4A74
:103840000444002114F8013F0AA800EB131003F010
:103850000F0328336B44013110F8140C13F8143C97
:1038600010700829537002F10202EBD102480BB02C
:1038700030BD00BF77E601087A6B00202DE9F04FDC
:10388000884B87B093F800A000AFBAF1000F04D0C6
:1038900085481C37BD46BDE8F08F834C00264FF0AD
:1038A0000119FE603546B04623783BB97F4B0234A0
:1038B0009C42F3D17B4A01231370E9E76378052B1F
:1038C00005D8DFE803F0AE0703AE1E4FA04623780D
:1038D0001C44E9E7402307F1100087F810A07B8221
:1038E00087F814A001F0E0FE40B1082307F11000B2
:1038F0007B8201F0D9FE08B1A7F812A07B8AE371A0
:10390000E5E7E378002BE2D1A37813B3FB6801333A
:10391000DBB2FB60DBE76B689C421CD02435644B58
:103920009D42F8D36D4688B06A46624BCDE90534B6
:10393000032342F8103F604800234FF4C251FEF7C2
:10394000DBFFAD465C485D4A012114F0C7FC002056
:103950009FE75B4DE3E7AB68002BD7D0F9682046C3
:103960009847D3E7002D5AD1564A5348012114F005
:10397000B5FCE7E72B6AA07803EBC2010B7998420C
:1039800047D14FF0010BE07894F805C000F0030038
:103990003875207940EA0C20788294F902000028DA
:1039A0005FFA8BF328DA0BF110004FF0010C0CFAE0
:1039B00000F010EA090F27D143F08000387407F1B6
:1039C0001000C7E90031BA6001F06EFED7E90112BC
:1039D0003B68C8B93A7CA27012F0800F18BF103350
:1039E0000A7118BFDBB24FF0010214BF9A4002FA0D
:1039F0000BF249EA02096AE7012000FA0BF010EA2B
:103A0000090F01D11846D9E70BF1010BBBF1100FDB
:103A1000B9D101322B7F9A42ACD32B4AA5E70022C1
:103A2000F8E7032E24D1FFF7E5FE8346A0B1FDF7AA
:103A3000ABF8034680B1102806D0B860234A1E4870
:103A4000022114F04BFCBB68102BA8BF10231A46B0
:103A50005946A01C18F02CFD23786FF002011A19AA
:103A6000091B04EB5303D14209D50136F6B22EE708
:103A7000002EF1D1B8F1000F08D1154A75E702F810
:103A800001AC13F8010902F8020DECE7A4EB0803FE
:103A900088F80230C3F3072388F80330FB6888F8FE
:103AA0000430E2E7796B002060080020070900205D
:103AB0002C09002088E6010800CF01086EE7010804
:103AC00008090020A8E60108E9E6010806E7010860
:103AD00051E7010810B5094B00211A461C788442B1
:103AE00005D15C681CB1482303FB012010BD0131E6
:103AF000042903F14803F1D10020F7E7745E0020A8
:103B00002DE9FF4150F8303C10F8346C1033044676
:103B10000AD1036950F8282C98073DD5D2B9590726
:103B200015D5002344F8303C54F8303C10330BD00A
:103B300054E9097554F81C8C18F0BAFA002857D0CB
:103B40003248214618F094FA04B0BDE8F08143F001
:103B50000403236103AB54F82C1C3046FFF7B8FC78
:103B6000034640B12A4A2B480096012114F0C9FBB4
:103B70006FF01503D6E7039A54F82C3C134444F82D
:103B80002C3C54F8283C9B1A44F8283C54F8243C1C
:103B9000134444F8243CC7E703AB54F82C1C3046CC
:103BA00001F0ACFE03460028DCD1039D54F82C3C08
:103BB0002B4444F82C3C54F8283C5B1B44F8283C2C
:103BC00054F8243C2B4444F8243C002DA9D0304622
:103BD00014F0DBFEB5FBF0F303FB1055002DA0D174
:103BE00054F8283C002B9CD0304601F0CFFE9BE7D8
:103BF00044F8200CA4F1180005F014FD002DA3D00A
:103C0000424639463046A8479EE700BF100E0020C6
:103C10009CE7010810CF01084B1E012B73B5064627
:103C20000D4614D8FFF756FF044690B9012D0ED16A
:103C300001AB01220DF10301304601F05FFE019B53
:103C4000002BF5D10C4A0D48012114F047FB02B0BE
:103C500070BD18F02DFA04F1340108B1012D05D121
:103C6000084602B0BDE87040FFF74ABF044802B002
:103C7000BDE8704018F0FCB9B9E7010810CF0108A1
:103C8000100E00202DE9F74F064601911746984681
:103C900014F039FC044600286FD1EFF31183009330
:103CA000102383F31288BFF36F8FDFF8D4900022C4
:103CB0000023484605F0F0FCA0B9DFF8C8A0482270
:103CC00062430AEB020BDBF8045015F1100F1ED112
:103CD0002D4A2E483346012114F009FB484605F0D1
:103CE000A1FC0BE00134042C09F14809DFD1284A7A
:103CF0002648012114F0F2FA6FF00B05009B83F3C4
:103D00001188BFF36F8F284603B0BDE8F08F0AF823
:103D100002600C9A019BCBF814200D9ACBF810008E
:103D2000CBF8182030466FF00F02CBE90237CBF802
:103D30004480CBF8042014F028FE68B1304614F01B
:103D400024FEB7FBF0F202FB10772FB1DBF8442022
:103D500042F00402CBF8442018F0020F08D04823A8
:103D600003FB04A10B48343118F082F90025C5E7A4
:103D7000304601F00BFE0546C0E76FF00F05C2E7C5
:103D8000905E0020745E0020EEE7010810CF01086D
:103D9000D3E70108100E002010B5EFF311841023B3
:103DA00083F31288BFF36F8FFFF794FE50B143681F
:103DB000103307D16FF08B03436000F134010448E6
:103DC00018F056F984F31188BFF36F8F10BD00BF50
:103DD000100E0020F8B50E4C04251027EFF31186C5
:103DE00087F31288BFF36F8F6368103307D16FF0CA
:103DF0008B030848636004F1340118F039F986F345
:103E00001188BFF36F8F013D04F14804E6D1F8BD7E
:103E1000745E0020100E002038B5094C00250949B9
:103E2000204618F009F90122A4F1180011460135C5
:103E300018F0C2F8042D04F14804F0D1002038BD78
:103E4000A85E0020013B00080169012381F84B3086
:103E50000B6833B191F849301BB10248083118F0B2
:103E600007B97047100E00200169012381F84A301C
:103E70000B6833B191F848301BB10248083118F093
:103E8000F7B87047100E002070B50569EFF3118682
:103E9000102383F31288BFF36F8FD5F8900014F0CE
:103EA000A0F8044686F31188BFF36F8F30B1044841
:103EB0000022002305F1180105F08AFD204670BD9F
:103EC000100E002070B5012382F8483013680D46AB
:103ED00014463BB192F84A3023B10E4802F1080172
:103EE00018F0C6F8D4F89030DA885B899A4205D188
:103EF0007DB904F118014FF47A7204E004F118015D
:103F0000002DF8D00022BDE870400248002305F0E3
:103F10005FBD70BD100E002070B50E46818804464E
:103F2000C9B21548154614F0CAFA10B394F9002026
:103F30006378002A16DB202B04D0222B0ED06FF0E2
:103F400085000AE02B681A6840F8102C9A8820F83F
:103F50000C2C9B7900F80A3C002070BD638800F8A7
:103F6000093CF9E7212BEAD1103807232860336098
:103F7000F2E76FF01200F0E7985F002008B5014605
:103F8000034814F0AAFA10B1012300F8073C08BD59
:103F9000985F00200D4A03460021A0F848101068E1
:103FA000C3F8940090889279A3F8980083F89A2037
:103FB00083F89C1083F89B10A3F89E1083F8A01040
:103FC000402203F14C0018F081BA00BF7ACF0108FB
:103FD00010B504690023C4F8A8300C4BC4F8A40041
:103FE000596804F1A80269B9C3E9002204F1080084
:103FF000074918F021F804F11800064918F048F8AC
:10400000002010BD0A605A60F0E700BF985F0020F2
:1040100031850108E140000830B54FF400334268B3
:1040200005690D4C85B042F2A100CDE901030023E2
:1040300085F89D30106AADF80C1000790A2201A9AC
:10404000FFF746FA95F89D3023B9012017F017FFC6
:10405000013CF7D105B030BDA186010073B50469FC
:104060008DF80710002384F848301025EFF31186EF
:1040700085F31288BFF36F8F0122D4F890000DF101
:10408000070113F0AEFF86F31188BFF36F8F01288D
:1040900010D018F00DF8B0B10F4BBFF35B8F0122B9
:1040A00053E8001F002903D143E800200028F7D17E
:1040B000BFF35B8F0A22002304F11801074805F0C3
:1040C00087FC02B070BD94F8A130002BE4D0002131
:1040D0000A2018F097F8C9E7945F0020100E00201E
:1040E000F0B5D0F88C305B681B6A1F7D85B0054643
:1040F000384614F008FA064650BB95F886303BB3B4
:10410000A86F0146C38831F80A2F9B1A9BB2B3F5FA
:10411000807F28BF4FF4807303AA13F013FF044677
:10412000B0B18306A5F1180308BF00F1FF3485F88C
:1041300030600193074B03990093224602233846CF
:10414000FFF7A0FDA86F224600F10A0113F030FF2F
:1041500005B0F0BDC53E000837B514460A1E054639
:1041600021DDD4F88C0004F14C0113F03AFF012357
:1041700084F8493023683BB194F84B3023B111489F
:1041800004F1080117F074FFD4F88C20938891890A
:1041900012695B1A9BB2D31A3F2B04D8012384F80F
:1041A000A03003B030BD94F89E30002BF9D0064B00
:1041B000009301940123402204F14C012846FFF7AB
:1041C00061FDEEE7100E00205941000873B50D4661
:1041D00001461D4814F067F9044610B3691EA0F1AA
:1041E000A40605291DD8DFE801F01E1C031E2428A3
:1041F00010F8061CA9B903685D68012300F8063CA5
:104200002B6A3246187BFFF7A7FF14F85C2C42B9E3
:104210002B6A187D0D4B0093019602231146FFF780
:1042200031FD02B070BD304602B0BDE87040FFF70E
:10423000B1BE012304F8053CF3E710F8053C002B60
:10424000EFD00023F6E700BF985F0020C53E0008CE
:1042500013B500240749084800944FF0FF334FF48A
:10426000806205F075FB0549034817F027FF2046DB
:1042700002B010BD00770020100E00202EE80108CB
:1042800008B50348034A0021121A14F07FFA08BD4A
:1042900030090020987300200748084A084908B5EB
:1042A000121A14F075FA0748074A0849BDE8084091
:1042B000121A14F06DBA00BF000000202C09002073
:1042C000D8FC01080000002000000020D8FC0108F4
:1042D0002DE9F047064600AF0C46002936D0E946E6
:1042E0008AB0D1E90012A3686D462148E8464FF034
:1042F000050ACDE90501CDE9072348F810AF1D48AF
:10430000424600234FF42151FEF7F6FACD46D4E998
:1043100003126369AD461848C5F810A0C5E9050148
:10432000C5E907231348002342464FF42151FEF705
:10433000E3FACD46E369114A0E48012113F0D7FF95
:10434000A3690F4A0B48012113F0D1FF012E07D1B9
:10435000EFF305830B4A0748103B314613F0C7FFC4
:104360002146304604F010FEBD46BDE8F08700BF90
:1043700037E8010880CE010866E8010895E80108E1
:10438000A4E80108D2E8010830BFFFF7FDBF00BF75
:104390002DE9F0410B4EDFF8308006EB0807CC1B0F
:1043A000054632460949204618F082F8A0194246CF
:1043B0000021083C18F08AF8C5F8844007F108008D
:1043C000BDE8F081080000000800000030CF0108BF
:1043D00010B5204C2049214814F0E7F9A36A99014F
:1043E00036D51E481E4914F0E0F91E20A36ADA01F2
:1043F00004D51A481B4914F0D8F91F20154CA36A9C
:104400001B0304D51548184914F0CFF92120A36ADD
:10441000590304D51148154914F0C7F922200D4C51
:10442000A36A9A0304D50D48114914F0BEF923205C
:10443000A36ADB0304D509480E4914F0B6F9242019
:10444000044A936A6FEA03436FEA1343936210BD11
:104450001D20CBE700ED00E0E5E8010880CE010873
:10446000FDE8010810E901082AE9010848E9010806
:104470006DE9010887E9010870B506460D46284C2C
:104480002849294814F091F9A36AD9043CD5264853
:10449000264914F08AF91720A36A1A0504D5224880
:1044A000234914F082F918201D4CA36A9B0512D5EC
:1044B0001D48204914F079F9A36BA26A100409D5AC
:1044C0001D4A1948012113F012FF1EB1A36A23F4FB
:1044D0000043A3621920124CA36A590504D512485F
:1044E000164914F062F91A20A36ADA050ED50E48AF
:1044F000134914F05AF91B20094A936A43F47F4385
:10450000936200232B7070BD1620C5E7A36A9B043D
:10451000F2D505480B4914F048F91C20ECE700BF20
:1045200000ED00E0B2E9010880CE0108C8E9010809
:10453000D9E90108ECE9010805EA01081AEA0108CD
:1045400035EA01084DEA01082DE9F843804689461D
:104550001746354D3549364814F027F9AB6ADE0663
:1045600027D53449324814F020F91124AB6A1D07CD
:1045700004D531492E4814F018F912242A4DAB6A9B
:10458000980718D52D492A4814F00FF96E6BAB6ABD
:10459000190646D52A4A26483346012113F0A7FEBC
:1045A000B9F1000F03D0AB6A23F08003AB62132490
:1045B00003E01024DAE76FF015061B4DAB6ADA074B
:1045C00004D520491A4814F0F0F81424AB6A9B066D
:1045D00004D51D49164814F0E8F81524124B9A6AC0
:1045E000D50602D49A6A90070AD55B68190507D5E3
:1045F0004146304600F0DAF910B180F30988022410
:10460000094B9A6A920642BF5A6A22F400525A62D1
:104610009A6A42F0FF029A6200233B702046BDE88E
:10462000F8836FF01506C2E700ED00E07CEA0108B0
:1046300080CE010892EA0108D9E90108C5EA01081B
:10464000DDEA0108F3EA01084DEA01082DE9F0412D
:10465000684B8AB0D3F8048000AF0446C8F308065C
:10466000002585F31188BFF36F8F02F07F43B3F10C
:104670007F4F07D102F00C03082B12D15E495F482F
:1046800014F093F800252C460023FB71F31E092B30
:1046900000F28F80DFE803F00A8588818D8D8D8D93
:1046A0008D8B10074CBF0C460125EDE7544953484C
:1046B000504E14F07AF80023FB71F36A9A0705D57F
:1046C00050494E4814F071F800232DE0F36A002B96
:1046D00001DA4D49F5E7F36A5B00F5D54B494748E8
:1046E00014F063F87369A26943F480737361BFF3D4
:1046F0004F8FBFF36F8F32F8023C726922F48072E1
:104700007261BFF34F8FBFF36F8F03F47F42B2F537
:104710005F4F2BD1DBB2022B28D123683C4A3748AC
:10472000012113F0E4FD2368FA79DAB907F10806EC
:1047300004F1200C20686168324603C208346445E5
:104740001646F7D17A6A002D50D0C2F3080121B97C
:104750006FEA52226FEA42227A6207F10801184694
:10476000FFF7B6FD2837BD46BDE8F081214B9A6AB8
:10477000D2B22AB1FA1D01212046FFF7E5FE0EE074
:104780009A6A12F47F4F04D0F91D0120FFF774FEDE
:1047900005E09B6AB3F5803F96D3FFF719FE034609
:1047A000C2E7FA1D0021E7E7F91D0020EEE71949ED
:1047B00087E7194A194B18F4F87FE8468AB008BF12
:1047C00013466A461649CDE905134FF40073ADF858
:1047D0002030103E134B079642F8103F0748002345
:1047E0004FF41151FEF788F8C5466DE76FF30802E4
:1047F000B2E700BF00ED00E040EB010880CE010809
:104800006BEB010882EB0108A3EB0108B1EB010897
:10481000D0EB0108ECEB010812EB010827EB0108D3
:1048200010EC010804000001044B5A6942F0100228
:104830005A615A6922F008025A61704700ED00E09F
:10484000EFF30880EFF3098101B57246FFF7FEFE32
:1048500001BD00BF0A4880F30888102080F311884A
:1048600008484FF40461401880F30988EFF314807E
:104870000221084380F31488BFF36F8F00F05EF8C5
:10488000E8EA0020807F00201EF0040F0CBFEFF349
:104890000880EFF30980816911F8021C0229FFD01A
:1048A00001B5724613F076FF01BD00BF40B200288B
:1048B00007DB044A4109012300F01F00834042F84E
:1048C0002130704700E100E040B200280CDB4309D2
:1048D000064900F01F0020330122824041F82320C6
:1048E000BFF34F8FBFF36F8F704700BF00E100E051
:1048F00040B20028A8BF00F1604001F10101B8BF3B
:10490000064B4FEA0111ACBF00F5614000F00F000B
:10491000C9B2B4BF195480F80013704714ED00E019
:10492000044B054A23F07F039360BFF34F8FBFF31F
:104930006F8F70470000000800ED00E008B5FFF73A
:10494000EFFF0B4AD2F8883023F47003C2F88830A6
:10495000EFF3148323F0040383F31488BFF36F8F02
:10496000FFF78EFCFFF798FC00F0C2F804F04CFC57
:1049700000ED00E042F8203C009B42F81C3C0A4954
:10498000019B42F8183C029B42F8143C21F00101C3
:104990004FF0807342F8043C42F8081C0023203A90
:1049A0000266C0F88830704781220008094A034631
:1049B000906870B113F1160F406F05D0A0F140025E
:1049C000934205D3834203D2814228BF002070471F
:1049D00000207047E01B002008B50F4B98600F4B7C
:1049E00004461546D0F884201A600E4605F0A0F85B
:1049F000204600F0ADF82C4686F309880020044BD1
:104A000098472046002100220023024C2047000046
:104A1000C187010881220008E01B0020A05F002060
:104A2000014B10221A61704700ED00E0054BDA6976
:104A30009B689A421FBF044A536843F080535360F7
:104A4000704700BFE01B002000ED00E0084B9B68B2
:104A500083420BD1EFF3058343B1064B5A6842F012
:104A600080525A605A6A22F400425A6205F0BEBA75
:104A7000E01B002000ED00E001B517F024FBBDE8CD
:104A8000014018498A684FF040001044EFF3098C48
:104A900080E8F01F102080F31288BFF36F8F124F51
:104AA0004FF00066CA698A603E60D2F884000F4CFD
:104AB0002060D2F888000023C2F8883080F3118883
:104AC00004B5104600F044F8BDE8044002F140008F
:104AD00090E8F01F8CF3098801B505F029F8BDE8CE
:104AE00001407047E01B002004ED00E0A05F0020C3
:104AF000044800231021C21801334A2B82F8001306
:104B0000F9D1704700E100E008B5EFF30583064AEC
:104B1000103B02EBC30152F8330049688847BDE8F7
:104B20000840FFF783BF00BF28CA0108014800689A
:104B300070470000A05F0020024B034A0348012198
:104B400000F08AB8000002200000002048D30108CD
:104B5000436F054A403B1360044B4021C2E90113F7
:104B60001046012100F082B8A45F002000000B1560
:104B700008B503461048D0F89020C2F30722013A46
:104B8000934207D90D480E4A012113F0B0FB6FF094
:104B9000150008BDC0F898300A6822F01F021A43B9
:104BA00042F01002C0F89C208A6842F00102C0F86E
:104BB000A0201846EDE700BF00ED00E078CE010828
:104BC00027EC0108F0B50E4685B01F4604460025C7
:104BD000B5420DDA606810B397B1431E18420AD08F
:104BE000104A11482B46012113F081FB6FF015028A
:104BF000104605B0F0BD1F28F2D921680B42EFD155
:104C00002368019313F0F0FDA36801A90343D0B218
:104C10000393FFF7ADFF10F1160FE7D0421C0135EB
:104C20000C34D5E74DEC010878CE0108044B052281
:104C3000C3F89420BFF34F8FBFF36F8F704700BF4F
:104C400000ED00E0BFF35F8F024B0022C3F8942019
:104C5000704700BF00ED00E010B5034C012322783F
:104C6000FFF7B0FF207010BD8C6B002008B50B4A19
:104C700000231278FFF7A6FF10F1160F07D0084A9D
:104C80000021D2F89030C3F30723984200DB08BD1F
:104C9000C2F89800C2F8A0100130F2E78C6B002037
:104CA00000ED00E02DE9F0435D485E49D0F890301A
:104CB0000C68C3F307239C4285B000F2AE80FFF777
:104CC000C1FF49680022944201F10C011AD1564FEC
:104CD000564D3C706846FEF797F8554C554E814648
:104CE0004FF00008C14520D13B784D490020D1F854
:104CF0009020C2F307229342C0F28980FFF796FF0B
:104D0000002050E0C0F8982051F80C3C23F01F031D
:104D1000134343F01003C0F89C3051F8043C43F0B7
:104D20000103C0F8A0300132CDE7009800EB081174
:104D30004FEA081CCB682340B3F5000F49D00BD8CD
:104D4000B3F5001F32D0B3F5800F37D0B3F5801F15
:104D500014D008F10108C5E7B3F1007F42D0B3F1E8
:104D6000805F48D0B3F1807FF3D150F80C30886871
:104D70004A6813F039FD40F0887009E050F80C30B3
:104D800088684A6813F030FD40F0885040F43020C5
:104D9000039001A93878CDE90123FFF7E9FE002847
:104DA00031DA6FF0150005B0BDE8F08350F80C3033
:104DB00088684A6813F018FD3043E9E750F80C3072
:104DC00088684A6813F010FD40F0C06040F400307D
:104DD000DEE750F80C3088684A6813F005FD40F0B3
:104DE0008270D5E750F80C3088684A6813F0FCFCF4
:104DF00040F48020CCE750F80C3088684A6813F003
:104E0000F3FC2843C4E73B7801333B70A1E7C1F8CA
:104E10009830C1F8A000013369E74FF0FF30C2E7D6
:104E200000ED00E054D301088C6B0020000002115B
:104E30000000F0FF00000811F0B587B007460E46ED
:104E400014460021102268461D4617F03FFB02233E
:104E50008DF802302A46054B019321466846CDE97C
:104E6000047612F005F907B0F0BD00BF098801080B
:104E700008B5024B1B689847002008BDB05F0020B2
:104E8000034B044A1860937843F002039370704711
:104E9000B05F00201802002008B50649064821F03E
:104EA0000701C1F1005202F5003212F0F7FC0020B8
:104EB00008BD00BFD3310120B45F002003484FF08C
:104EC000FF324FF0FF3304F0EBBA00BF280200209E
:104ED000014804F057BB00BF2802002038B5054642
:104EE000FFF7ECFF08482A46082112F02EFC044682
:104EF00028B925B1FFF71AFE044B0C221A50FFF710
:104F0000E7FF204638BD00BFB45F0020140000005A
:104F100038B504460D46FFF7D1FF214608482B4619
:104F2000082212F083FC044628B925B1FFF7FEFDE4
:104F3000044B0C221A50FFF7CBFF204638BD00BFB0
:104F4000B45F00201400000010B50446FFF7B6FF60
:104F500021460348FCF728FDBDE81040FFF7B8BF25
:104F6000B45F002070B5A0FB015434B92846FFF7A8
:104F7000B5FF064640B9304670BDFFF7D7FD054B7B
:104F80000C221A500026F6E72A46214617F09EFA10
:104F9000F1E700BF1400000038B5084C002520469A
:104FA00017F003F804F11400013517F07DF8052D12
:104FB00004F12404F3D1002038BD00BFC05F0020FD
:104FC0002DE9F8430D46064608B301B33D2117F01D
:104FD0009DFAE0B90F4BD3F80090B9F1000F04D05F
:104FE000C846444658F8047B17B96FF001000CE03E
:104FF0002A463146384617F096FA0028F1D17B5DF3
:105000003D2BEED1A4EB09008010BDE8F8836FF0D2
:105010001500FAE77460002070B50646E0B1FBF7B2
:10502000B3FD05460E484FF0FF324FF0FF3312F04C
:105030000FFD044690B929463046FFF7C1FF00280E
:1050400005DB084B1B6853F8204001352C4404480D
:1050500012F0F9FC204670BD0546E3E70024F9E7AD
:10506000300800207460002010B50C4612F0D5FC0A
:105070002146FDF7C9F8031E07DAFFF757FD044A7A
:105080005B4213504FF0FF3010BD0020FCE700BF23
:105090001400000038B5064D00242846013417F0EE
:1050A00003F8052C05F10C05F7D1002038BD00BF31
:1050B0007860002038B5064D00242846013416F0EB
:1050C00074FF052C05F11405F7D1002038BD00BF91
:1050D000B46000200A4B0B4A30B51C460025191B52
:1050E000B1F5407F01D9002030BD506803F198012F
:1050F000C3E926200160C03303F8045C5160EEE789
:10510000C00E00203C02002007B5084A92E80300C8
:10511000CDE9000106488268126822B169469047CD
:1051200003B05DF804FB6FF05700F9E768CF0108A2
:10513000A4C7010800F01F0201211F2808B501FAC9
:1051400002F2034605D90648064A13F0D0F80020BB
:1051500008BD054B5B699A430CBF01200020F7E7AF
:1051600028CE0108ECEC0108003C014000F01F02D1
:1051700001211F2808B501FA02F2034606D90548A5
:10518000054A13F0B4F86FF0150008BD034B00207A
:105190005A61FAE728CE0108ECEC0108003C014016
:1051A000044B1844002301338B4200F8012BFADB37
:1051B000704700BFD10400202DE9F041104F054693
:1051C00000264FF001086B78F4B2A34201D8BDE885
:1051D000F0812B781C442046FFF7ACFF68B12046D5
:1051E000FFF7C4FF57F834303BB107EBC40204F0BB
:1051F0001F04516808FA04F098470136E3E700BF3E
:1052000018610020034660B1B0FA80F2C2F11F02BB
:10521000D2B205498856054A11680B431360FFF75F
:1052200045BBFF22F5E700BFD1040020003C014050
:10523000024A136823EA000313607047003C0140F0
:10524000032921D8DFE801F0020C10190F4B9A68EE
:1052500022EA00029A60DA6822EA0002DA60704705
:105260000A4B9A680243F5E7084BDA680243DA60B2
:105270009A6822EA00029A607047044B9A680243D7
:105280009A60DA681043D860704700BF003C014064
:1052900030B5B0B1B0FA80F3C3F11F03DBB20B48F5
:1052A00050F833408C4204D100EBC3056D68954241
:1052B00005D044B940F8331000EBC3004260002031
:1052C00030BDFF23EBE76FF00F00F9E71861002016
:1052D00060B1B0FA80F3C3F11F03DBB2044A0021CE
:1052E00042F8331002EBC30251607047FF23F5E729
:1052F0001861002000F00302043292000F23934053
:1053000043EA9000C3B20233054A52F82320030C4B
:1053100002EA104093FAA3F3B3FA83F3D84070473C
:105320000038014020F08002032A0BDC064B10F00D
:10533000800FA3F1B00114BF184608462C2303FBCD
:10534000020070470020704718180020014802F042
:1053500075BE00BF8012002008B50246034904480C
:1053600013F0C8FA6FF0150008BD00BF2CED01085E
:10537000F8CE010808B502460349044813F0BAFA0A
:105380006FF0150008BD00BF45ED0108F8CE01081B
:1053900070B58AB05E4C204616F097FD40B95D4965
:1053A0005D4813F0ACFA6FF0120420460AB070BDED
:1053B000A568AB6933B95949574813F0A0FA6FF0A3
:1053C0000404F2E756490022204698470028F2D10B
:1053D0002B680BB95349EFE75349204698470028FB
:1053E000F8D1EB680BB95149E6E74D4909AA2046C7
:1053F000984706460028F6D1099A4D4B9A4206D0A6
:105400004C49454813F076FA6FF08504CDE74A4DD4
:105410004FF0A0432B6004232B714FF44073A8730B
:10542000EB8001464FF4107344482B8109AA13F016
:1054300041FF041E07DB099B32461979186813F0F7
:105440004CFF041E05DA3E493348224613F052FA57
:10545000ABE7394816F093F8024620B139492E4897
:1054600013F048FAABE7344816F018F9024608B1D1
:105470003549F4E7304816F0F1F8044610B13349E5
:105480000246ECE7402385F8EC0485F89C05A5F876
:10549000E834A5F898352E4D2748A02116F06AFA71
:1054A00010222146A5F2AC5016F045FA0122114611
:1054B0002846013416F080FD042C04D01E482C35FB
:1054C0003022E1B2F0E7234910230222A1F59A70BD
:1054D00016F048FD002200230024CDE906236FF0DA
:1054E0000D030122CDE90332CDE901441A4B1B49DA
:1054F00000944FF480621A4804F0EEFA22462146E6
:105500004320FFF7F5F94320FFF7D0F94DE700BF3F
:10551000A4C7010857ED0108F8CE010876ED01088F
:10552000A0D3010898ED010898D30108B3ED010854
:10553000006CDC02D7ED01088012002078D301084E
:10554000F3ED010811EE010825EE010839EE01081E
:105550002C1800208C1A002005560008407B0020E3
:10556000C8180020014BC3F8E404704780120020E3
:1055700013B504460146074816F0B6F840B1064A8E
:10558000009023460548012112F0BBFE6FF0040095
:1055900002B010BD801200204EEE0108F8CE0108C6
:1055A0001346020613B504460BD5802800D15BB123
:1055B00010481149224613F09DF96FF0150002B012
:1055C00010BD402B28BF402324F080020B489201DD
:1055D00002F20C720244214616F0F8F80028EED0D0
:1055E000074A009023460348012112F08AFE6FF01B
:1055F0000400E4E7F8CE010845ED01088012002020
:1056000074EE01081C4B13B5A3F5DB641A484FF088
:10561000FF324FF0FF3301A903F0DEFE9DF80500D5
:10562000FF2808D1D4F8E434002BEFD09DF8040013
:1056300000219847EAE72C2200F07F03534302063B
:105640004CBF03F5B36303F59D6323449B68002BB4
:10565000DCD09DF8041098479DF804000028D5D1AF
:10566000B4F8A224002AD1D094F99C34002BCDDBCD
:105670000249FFF795FFC9E7581900208C1900204F
:10568000030610B50C4600D421B9FFF773FE6FF086
:10569000150010BD0146034816F0B5F82060002043
:1056A000F7E700BF8012002008B5027903784AB9F5
:1056B00013F07F0005D00649064813F020F94FF09B
:1056C000FF3008BD13F07C00FBD00349F4E700BFB6
:1056D0009AEE0108F8CE0108B9EE010837B5054683
:1056E000FFF720FE044690B10A48294616F0ADF8AF
:1056F00050B1094A00902B460848012112F001FEE2
:105700006FF0040003B030BD01236371FAE76FF05E
:105710001500F7E780120020DDEE0108F8CE010841
:1057200037B50546FFF7FEFD0446A8B143798BB1B6
:105730000B48294616F0C0F850B10A4A00902B4693
:105740000948012112F0DDFD6FF0040003B030BD07
:105750006071E0600020F9E76FF01500F6E700BF28
:105760008012002004EF0108F8CE010873B504464A
:10577000FFF7D8FD054600B3114E03790288214694
:10578000304615F0C4FF50B10E4A009023460E4833
:10579000012112F0B6FD6FF0040002B070BD63B2DB
:1057A000002BFADD06EB84112A8801F20C712046E9
:1057B00002B0BDE87040FFF7F3BE6FF01500ECE7F4
:1057C000801200202BEF0108F8CE010813B5044623
:1057D000FFF7A8FDD0B10F4883681B6913B90020FB
:1057E00002B010BD0C4998470228F8D10B48214659
:1057F00015F0C2FF0028F2D0094A0090234609485C
:10580000012112F07EFD6FF00400E9E76FF0150052
:10581000E6E700BFA4C7010898D301088012002062
:105820004EEF0108F8CE01082DE9F74305468946F9
:1058300016469846FFF776FD08B12B060AD42A498A
:105840002A482A4613F056F86FF01504204603B094
:10585000BDE8F08300F1140700220023384603F06E
:105860001BFF044638B122490246204813F042F893
:105870006FF00A04EAE716F01BFC10B94320FFF7AB
:1058800023F8802D02D1402E28BF40264A461948D1
:105890003346294615F0BFFF0246C0B1164A0090B4
:1058A0002B461248012112F02CFD384603F0BAFEB7
:1058B0006FF0040416F0FCFB10B94320FEF7F6FF6E
:1058C00074B9B8F1000FC1D0C8F80060BEE7802DF0
:1058D000F0D1002EEED001462846FFF761FEE9E741
:1058E0006FF00404B2E700BF45ED0108F8CE0108EF
:1058F00072EF01088012002090EF01082DE9F843B3
:105900000446884691461F46FFF70CFD054640B900
:1059100019492246194812F0EDFF6FF01500BDE855
:10592000F8832306C66802D515492246F2E7B8F186
:10593000000F16D003691349A4014E4504F20C74FC
:1059400028BF4E461C4432462144404616F0B0FD66
:10595000EB689B1BEB602B6933442B614FB9002034
:10596000DDE7B9F1000FF9D00749044812F0C7FF8D
:10597000F4E73E60F3E700BFB7EF0108F8CE010897
:10598000CBEF010880120020ECEF010810B50446AF
:10599000FFF7C8FC08B1230605D52046FFF7DCFC5D
:1059A0006FF0150010BDC3680BB10020FAE7044981
:1059B000028801EB84112046FFF7F2FDF5E700BFF6
:1059C0008C19002007B5002340228021134815F0D0
:1059D0009EFE002340221946104815F098FE1048FC
:1059E00003F020FE0F4803F01DFE0F4803F01AFEDF
:1059F0000E4803F017FE0E4B1B88ADF80430002252
:105A00000C48002301A916F0C1FA024618B10A4950
:105A10000A4812F06FFF03B05DF804FB801200200B
:105A20002C1800205818002084180020B0180020DE
:105A300081CF010858190020FCEF0108F8CE0108B9
:105A400007B5094B5B88ADF80430002207480023F6
:105A500001A916F09BFA024618B10549054812F053
:105A600049FF03B05DF804FB81CF010858190020FD
:105A7000FCEF0108F8CE010807B5094B9B88ADF88B
:105A8000043000220748002301A916F07FFA0246DD
:105A900018B10549054812F02DFF03B05DF804FB6D
:105AA00081CF010858190020FCEF0108F8CE010849
:105AB00007B5094BDB88ADF8043000220748002306
:105AC00001A916F063FA024618B10549054812F01B
:105AD00011FF03B05DF804FB81CF010858190020C5
